:020000040800F2
:10000000809D0020314D0008354B0008374B00081B
:100010005D4B00085F4B0008614B000800000000CA
:10002000000000000000000000000000634B00081A
:10003000654B000800000000674B000827370008E8
:10004000954D0008994D00089D4D0008A14D0008F0
:10005000A54D0008A94D0008AD4D0008B14D0008A0
:10006000B54D0008B94D0008BD4D0008C14D000850
:10007000C54D0008C94D0008CD4D0008D14D000800
:10008000D54D0008D94D0008DD4D0008E14D0008B0
:10009000694B0008E94D0008ED4D0008F14D0008DE
:1000A000F54D0008F94D0008FD4D0008014E00080F
:1000B0007B380008094E00080D4E0008114E00085C
:1000C000154E0008194E00081D4E0008214E00086C
:1000D000254E00088B340008953400089F34000832
:1000E000354E0008394E00083D4E0008414E0008CC
:1000F000454E0008494E00084D4E0008514E00087C
:10010000554E0008594E00085D4E0008614E00082B
:10011000654E0008694E00086D4E0008714E0008DB
:10012000754E0008794E00087D4E0008814E00088B
:100130002DE9F04FA5B0804615461E460FF2D85067
:10014000D0E90023CDE91223049104AF00207862A6
:1001500014AC6FF0004900E055440020ADF80200F7
:1001600012AB4FF0FF3229460DF1020001F035F8D5
:100170008246BAF1010F08DA2878B0F1010A6AEB79
:100180000A0A6FEA0A004FEAD07ABDF80200252871
:100190000CBFAAF101035346012B07DB2A4602A933
:1001A000404600F0F5FF002800F1EB80BDF80200AA
:1001B000252807D10020F86038617861B861F861BE
:1001C000386205E00028C7D1786ADCE040F0010021
:1001D00015F8011F2029F9D023290ED02B2904D08E
:1001E0002D2906D030290CD00FE040F0020080B25B
:1001F000EEE740F0040080B2EAE740F0080080B289
:10020000E6E740F0100080B2E2E72A290DD131681C
:100210000A1D32600968F962002904D54942F96271
:1002200040F0040080B26D1C11E00021F96209E089
:10023000F96A494505D001EB810302EB43013039EE
:10024000F9626D1C2A78A2F130010A29F0D32978CD
:100250002E291CBF4FF0FF31B9621CD115F8011FC8
:100260002A2906D131680A1D32600968B9626D1CFD
:1002700011E00021B96209E0B96A494505D001EBF6
:10028000810302EB43013039B9626D1C2A78A2F177
:1002900030010A29F0D3388629780FF2844000F023
:1002A000C3FF08B115F8010B8DF842009DF842001C
:1002B000682804D1287868280AD1622005E06C28D3
:1002C00004BF28786C2803D171208DF842006D1C82
:1002D00014A8B8602A781046253828D01C3800F0B9
:1002E0008B80001F022840F28780133800F0B08016
:1002F000093800F08180801E00F04A81401E00F025
:10030000F080401E022877D9001F00F0EA80401FCD
:1003100047D0401E00F09C80401E37D0C01E0CD03D
:10032000801E00F09580C01E00F0928051E1F868B8
:10033000411CF9602521015555E19DF842006C28CA
:10034000306814D0011D316000687860BA6A002AF4
:1003500003D500F085FF386145E1002100F09CFFE6
:1003600000281ABF7968401AB86A38613BE1011D5C
:100370003160026802A9404600F0D6F9002840F139
:1003800032814FF0FF3025B0BDE8F08F3068011D9D
:10039000316000680021CDE9020114A8786078215D
:1003A000F2E09DF84200622818D0682806D06A283A
:1003B0000BD06C2819D0712807D016E03068011DC9
:1003C0003160796A006801800DE13268101D30608B
:1003D000786AC1171268C2E9000104E13068011DA2
:1003E0003160796A00680170FDE03068011D31609C
:1003F000796A00680160F6E03068C01D20F00700EF
:100400003060034603F108003060D3E90001CDE914
:100410000201002904D5F868411CF9602D210DE086
:10042000388E810704D5F868411CF9602B2105E05E
:10043000C00704D5F868411CF96020210155F8680F
:1004400014A940187860114602A800F06DFBCAE0BC
:100450009DF842306C2B08BF306811D0712B08BF5B
:10046000306802D06A2B30680AD1C01D20F0070026
:10047000306084460CF108003060DCE9000103E0E4
:10048000011D316000680021CDE90201682B04BF25
:10049000DDE9020180B20BD0622B04BFDDE902016D
:1004A000C0B205D0742B18BF7A2B04D1DDE902014C
:1004B0000021CDE9020197F8300000075FD5DDE9A2
:1004C0000201002908BF002859D042F020007828F6
:1004D00055D1F86830210155401C411CF960025586
:1004E0004DE09DF8420062280CD0682810D06A28A0
:1004F0001AD06C2824D0712816D0742820D07A28DD
:100500000CD01DE03068011D316090F900001BE047
:100510003068011D3160B0F9000015E03068011D40
:1005200031600068002110E03068C01D20F0070035
:100530003060034603F108003060D3E9000104E0B5
:100540003068011D31600068C117CDE90201DDE9A5
:100550000201002904DAF868411CF9602D210DE040
:10056000388E810704D5F868411CF9602B2105E01D
:10057000C00704D5F868411CF96020210155F868CE
:1005800014A940187860114602A800F03AFA2AE04F
:100590009DF842006C2808D0F868411CF960316869
:1005A0000A1D3260096801551DE03068011D316087
:1005B0000068ADF804000020ADF806004FF0FF30F1
:1005C000B86201AA02A9404600F0AEF800280AD598
:1005D000D7E6F868411CF960252101551AB1F86881
:1005E000411CF96002556D1CF86AF968401AB96936
:1005F000401A3969401AF969401A7969401A396A0A
:10060000A0EB010A97F83000400712D420208DF8A3
:100610000000BAF1010F0CDBD346012300AA02A9A6
:10062000404600F0B5FD00287FF4ABAEBBF1010BF6
:10063000F3D1FB6814AA02A9404600F0A9FD0028E6
:100640007FF49FAE30208DF80000D7F818B0BBF1D2
:10065000010F0BDB012300AA02A9404600F098FD20
:1006600000287FF48EAEBBF1010BF3D13B697A68B1
:1006700002A9404600F08CFD00287FF482AE3020B5
:100680008DF80000D7F81CB0BBF1010F0BDB012384
:1006900000AA02A9404600F07BFD00287FF471AE5D
:1006A000BBF1010BF3D17B6938697968421802A963
:1006B000404600F06DFD00287FF463AE30208DF8D9
:1006C0000000D7F820B0BBF1010F0BDB012300AA1B
:1006D00002A9404600F05CFD00287FF452AEBBF159
:1006E000010BF3D197F8300040077FF536AD20209D
:1006F0008DF80000BAF1010FFFF62FAD012300AA1B
:1007000002A9404600F044FD00287FF43AAEBAF159
:10071000010AF3D121E50000000000000000000004
:10072000686A6C747A4C00002DE9F04F95B08346EE
:100730000F461446D7F830A0BAF1000F48BF6FF04B
:10074000004A00F0D5FD796B401801900FF6702239
:10075000D2E90001CDE9020197F83800400702D440
:100760000198412805D20DF1100940200190002583
:100770000AE000F0C3FD8146B9F1000FF7D14FF058
:10078000FF303BE1AAEB080ABAF1010FC0F2A980E1
:1007900002AA21880DF1010000F00EFE5FEA0008B8
:1007A00000F1BF80208818B9B8F1010800F1B980C4
:1007B000C245C0F296807869019908EB0002914227
:1007C00080F080807D634042396A401AB969401ADE
:1007D000796A401AF969401AB96A451A97F83800D7
:1007E000400710D420208DF80000012D0BDB2E4691
:1007F000012300AA3946584600F0CAFC002840F000
:100800009080761EF4D17B694A463946584600F0FE
:10081000BFFC002840F0858030208DF800003E6A43
:10082000012E09DB012300AA3946584600F0B0FC2E
:10083000002876D1761EF5D1BB69FA68394658464C
:1008400000F0A6FC00286CD130208DF800007E6AF4
:10085000012E09DB012300AA3946584600F098FC16
:1008600000285ED1761EF5D1FB69B869F968421897
:100870003946584600F08CFC002852D130208DF8C3
:100880000000BE6A012E09DB012300AA3946584642
:1008900000F07EFC002844D1761EF5D197F8380090
:1008A00040070DD520208DF80000012D08DB012325
:1008B00000AA3946584600F06BFC90BB6D1EF6D17D
:1008C00000257D6142460DF101017869484400F040
:1008D00081FD78694044786134F8020B00287FF488
:1008E00051AF786B7969401A396A401AB969401A70
:1008F000796A401AF969401AB96AA0EB010897F8B9
:100900003800400712D420208DF80000B8F1010F04
:100910000CDB4446012300AA3946584600F038FC57
:1009200010B14FF0FF3562E0641EF3D17B694A4697
:100930003946584600F02CFC0028F2D130208DF8C2
:1009400000003C6A012C09DB012300AA3946584605
:1009500000F01EFC0028E4D1641EF5D1BB69FA68E2
:100960003946584600F014FC0028DAD130208DF8C2
:1009700000007C6A012C09DB012300AA3946584695
:1009800000F006FC0028CCD1641EF5D1FB69B869E3
:10099000F96842183946584600F0FAFB0028C0D1E1
:1009A00030208DF80000BC6A012C09DB012300AA6D
:1009B0003946584600F0ECFB0028B2D1641EF5D150
:1009C00097F83800400710D520208DF80000B8F1C6
:1009D000010F0ADB012300AA3946584600F0D8FB74
:1009E00000289ED1B8F10108F4D17D617D6304A88F
:1009F00081451CBF484600F029FD284615B0BDE8DA
:100A0000F08F2DE9FA4B86B005462F696F2908BF94
:100A1000082605D041F02000782814BF0A261026A9
:100A20003C24D5E9000181468B469DF81820642AB4
:100A300018BF692A05D1002903DAD9F100096BEB47
:100A40004B0BBBF1000F08BFB9F1000F0CD1286BA5
:100A500050B9082E44D195F83800000740D53B2402
:100A6000302087F83B003BE0A4F101084446F01732
:100A7000CDE9046048465946DDE9042300F02AFD2B
:100A8000CDE90201CDE9009BDDE90223DDE90401A6
:100A9000A0FB029BDDE90001A0EB09003030C0B2F1
:100AA0003A2803D39DF818105139081808F80700A0
:100AB000DDE9029BBBF1000F08BFB9F1000F03D0C5
:100AC000E868E1198842CFD3082E09D195F838009B
:100AD000000705D5E05D302802D0641E3020E055C7
:100AE000C4F13C00A861E119E960296B884207DA8A
:100AF000081A2862288F4FF6EF710840288710E007
:100B000000290ED595F8381001F01401102908D1EC
:100B1000696B6A69891A2A6A891A0C1A012CA8BF9A
:100B20002C6208B0BDE8F08B2DE9F24F8EB005467F
:100B300004AFD5E90001CDE902019DF8380040F08D
:100B400020008DF8000061280BD0286B002848BFDA
:100B5000062005D404BF9DF80000672801D10120BC
:100B600028636968C1F30A5040F2FF7398421CD1B0
:100B7000080304BF2868002809D10320A8619DF854
:100B8000380061381A2837D30FF2486108E0032093
:100B9000A8619DF8380061381A282AD30FF22C6119
:100BA0000322E86800F016FCBBE1010017D12846DB
:100BB00000F007FD012812DB002400209DF8001042
:100BC000612920D1E968302201F8012B4A1CEA6032
:100BD0009DF83820612A0CBF782258220FE040F29D
:100BE000FE316A6861F31E526A60441A4FF0FF30AA
:100BF000E4E70FF2D451D3E70FF2D451D0E70A70F3
:100C00006969891C696110B90026B0467FE19DF8C9
:100C10000000612840F09780286B00284CBF2126F7
:100C2000461C36B2771CD5E900ABDDE90201002293
:100C3000002300F0E9FC3ABF8BF00040CDE902A0B0
:100C4000CDE902ABA4F104088DF810200DF11109D3
:100C5000012F33DBDDE902010022002300F0ECFC70
:100C60002CD21C2102A800F0FFFCDDE9020100F0FB
:100C700089FD0446FF1F012F09DB00F0AFFD02468E
:100C80000B46DDE9020100F0C1FDCDE9020109F2E8
:100C90000700072104E004F00F0200F8012D2411E1
:100CA000012C01DB491EF6D5491E5CBF002200F86D
:100CB000012DF9D500F20709012FCBDA0DF1110052
:100CC000A9EB00010DF11107B142B8BF0E4636B2D3
:100CD000002E31D43046884206DA04A941184978FA
:100CE000082928BF0F2100D2002104AA821800E0A1
:100CF000761E401E12F801398B42F9D00F2904D11B
:100D000004A941184A78521C4A70002803D504AF40
:100D1000761C08F1040836B2701E0DD4C1190A7889
:100D20003032D2B23A2A03D39DF838303A3B9A187F
:100D300001F80129401EF2D5286B002840F1E78018
:100D4000701E2863E3E0DDE902010022002300F0C9
:100D50005BFC05D2DDE9020181F00041CDE9020131
:100D600024B247F2975060436F4990FBF1F80FFAB5
:100D700088F8C8F107040027DFF8B091012C19DBCF
:100D8000DDE902ABE00707D5504659463A464B46E7
:100D900000F0FCFD82468B466410384649463A46D0
:100DA0004B4600F0F3FD07468946002CEAD1CDE919
:100DB00002AB21E064429246DFF874B114D0E00740
:100DC00007D5504659463A464B4600F0DFFD82466D
:100DD0008B466410384649463A464B4600F0D6FDED
:100DE00007468946002CEAD1DDE9020152465B46FE
:100DF00000F09EFECDE902019DF8000066280CBFC0
:100E000008F10A000620296B4618142EA8BF1326E5
:100E100030208DF810000DF11104464F012E33DB08
:100E2000DDE9020100F0C4FC04F1080104220A24F7
:100E3000B0FBF4F303EB830EA0EB4E00303001F86F
:100E4000010DB3FBF4F000EB8004A3EB440330335B
:100E500001F8013D521EEAD101F10804083E012EBD
:100E6000DCDBDDE9020100F0A3FC00F0C1FC02467E
:100E70000B46DDE9020100F0C9FC00223B4600F010
:100E800085FDCDE90201CBE70DF11100201A0DF12E
:100E900011079DF81110302906D1401EA8F1010854
:100EA00017F8011F3029F8D09DF80010662904BFFB
:100EB0000FFA88F808F1010103D065290CBF012160
:100EC00000212A6B8E1836B2B042B8BF064636B241
:100ED000002E1CD43146814204DAC85D352828BF73
:100EE000392000D23020CA19521E00E0761E491E59
:100EF00012F801398342F9D0392802D1C85D401C6B
:100F0000C855002903D57F1E761C08F101080FFA89
:100F100088F0009033B23A469DF83810284600F029
:100F20000BF80FB0BDE8F08FA08601000000244050
:100F30000000F03F84D797412DE9F04786B0064680
:100F40008A4690461C46BDF9385000F032FF406A90
:100F500090F80090376B012C02DA01240FF2782808
:100F60004AF02000662807D067287AD16FF0030185
:100F70008D427CDBBD427ADA6D1C66280AD096F879
:100F80003800000702D4BC42B8BF27462DB27F1BF1
:100F900048BF0027F068B1692DB2012D21DA4A1C43
:100FA00030230B54012F03DA96F83810090702D5C5
:100FB00002F80090521CB261EF42B8BF7D422DB2E0
:100FC00069427162EF19A742B8BF3C4624B2F4618E
:100FD00022464146B369181800F0FCF9381BB0628C
:100FE000BFE00818AC4216DA2246414600F0F2F99A
:100FF000B1696118B161281B7062012F03DA96F89C
:101000003800000705D5F06801F80090F069401C31
:10101000F061B762A5E02A46414600F0DBF9B0690D
:101020002818B061641B012F03DA96F838100907FD
:1010300004D5411CB161F16800F8019024B2A742C7
:10104000B8BF3C4624B2224605EB0801B069F368FC
:10105000C01800F0BFF9B0692018B061381B706289
:101060007FE0BAF1610F14D14FF0700A16E0BC4274
:1010700004DA96F83810090758BF27467F1E48BF84
:101080000027BAF1670F14BF4FF0450A4FF0650A09
:1010900004E0BAF1410F08BF4FF0500AB1694A1C91
:1010A000F06818F8013B0B54012F03DA96F838105A
:1010B000090702D502F80090521CB261012F10DB23
:1010C000641E24B2A742B8BF3C4624B22246414621
:1010D000B369181800F07EF9B0692018B061381BA8
:1010E0007062B069F16800EB010808F801AB002DEF
:1010F0005CBF2B2008F8010B03D52D2008F8010B4D
:101100006D42002402AF2DB2012D0EDB0A222946CA
:1011100000A800F067FE019807F8010B009D641C11
:101120002DB2012DF2DA022C06DA4AF020006528F1
:1011300004BF302008F8010B1CB9302008F8010B5F
:1011400009E0012C07DB641E02A8205C303008F89F
:10115000010B012CF7DAB069F1684018A8EB000028
:10116000F06196F8380000F0140010280DD1706975
:10117000B1690818716A0818F1690818B16A081885
:10118000716B8842BCBF081A306206B0BDE8F087B8
:10119000F8B504460D4616461F46002077B116F8EE
:1011A000011BA868A047A86030B1E86A401CE8624B
:1011B00000207F1EF3D1F2BD4FF0FF30F2BD0000E2
:1011C00000000000000000006E616E004E414E0005
:1011D000696E6600494E46003000F8B504460D467B
:1011E00016461F4600F006FE3B463246294620467C
:1011F00001B0BDE8F04000F015BE10B450F8041B7B
:1012000081B102681218001D50F8043BDC0744BF8E
:10121000A9F10104E31852F8044B43F8044B091FE9
:10122000F9D1EBE710BC70470278C9B28A421AB113
:101230001CBF10F8012FF9E718BF0020704750F8C5
:10124000041B61B150F8042BD30744BFA9F101037B
:101250009A18002342F8043B091FFAD1EFE77047C0
:1012600000F10103810704D010F8011B89B1810747
:10127000FAD10268B2F10131914311F0803F04BF0D
:1012800050F8042FF6E710F8011B11B110F8011BFC
:10129000FBE7C01A70470000C9B2830706D0521E90
:1012A00022D310F8013B9942F7D11FE0083A13D33B
:1012B00002F1040241EA012141EA014150F8043BF4
:1012C000121F21BF4B40A3F1013C2CEA030C1CF080
:1012D000803FF3D0C9B2001F083210F8013B521E04
:1012E00028BF91EA030FF8D818BF0120401E7047AD
:1012F00080B500F07FFD012002BD000070B50546FD
:1013000005F10F00C408E400012000F0E5FDA5424E
:101310002BD2082C04D2082402E0083000F096F802
:10132000244D286801000CD1291D0868B8B1026855
:10133000A24238BF011DF8D316E01368A34213D2AE
:10134000111D0A68002AF8D10068291D00E0111D4E
:101350000A68824203D01368A342F8D304E000F085
:101360000BFE0028D9D1002121B9012000F0F8FDA1
:10137000002070BD0E683068A0F10802A2423CBF98
:101380007068086007D3A2190A6073685360001B75
:101390000A6810603460086800281DBF4168002991
:1013A000001D00202860012000F0DAFD06F1080091
:1013B00070BD0000581D002070B504460D4616464D
:1013C00000F018FD324629462046BDE8704000F086
:1013D0001BBD000062B38B0708D0521E11F8013B01
:1013E00000F8013B00F024808B07F6D1830740F022
:1013F000208000BF103A07D330B4B1E83810103A5B
:10140000A0E83810F9D230BC530724BFB1E8081067
:10141000A0E8081044BF51F8043B40F8043BD20751
:1014200024BF31F8022B20F8022B44BF0B78037045
:101430007047083A07D3B1E80810083A40F8043B6F
:1014400040F804CBF7D25307E4E7000000B9704737
:1014500010B5A0F108042068082837D310F0070061
:1014600034D1012000F038FD1948416809B18C429F
:1014700003D26160446017E019464B680BB1A34288
:10148000FAD30A6853189C421BD3A34204D12368A1
:101490009A180A600C4607E04A681AB123681B19BB
:1014A0009A420ED362604C60616851B12268131990
:1014B0008B4206D1002303600868801820604868CA
:1014C00060600120BDE8104000F04ABD10BD000082
:1014D000581D00201B4213D1094236D12AB184463F
:1014E000B0FBF2F002FB10C2704700F059BDFCD314
:1014F0000022002370470B000200002100207047EB
:10150000904271EB030CF6D370B5B1FA81F4B3FAE3
:1015100083F52C1BA340C4F1200532FA05F63343B2
:10152000A2405FF00046E64002E05B085FEA32025C
:10153000841A71EB030524BF204629467641F4D373
:1015400002000B003000002170BD012ACFD970B518
:10155000140C20D0B1FA81F4B2FA82F5C4F120045F
:101560006419B4F12006D6D3B2405FF00044F440D1
:10157000002502E052085FEA3303C61A71EB020E3F
:1015800024BF3046714664416D41F3D302000B0025
:101590002000290070BD0C46B1FBF2F102FB1145A1
:1015A0002D0445EA1045B5FBF2F402FB145580B258
:1015B00040EA0545B5FBF2F002FB105240EA044058
:1015C00070BD30B4416801F00042012143681B0343
:1015D0001B0B436004BF0368002B0ED003684468F4
:1015E000DD0F45EA440444605B000360491EE302EA
:1015F000F4D543681B031B0B436043681A434260E6
:10160000084630BC704700004FF4001C1CEB410F33
:1016100094BF1CEB430F09E041EA030C50EA4C0C69
:1016200052EA0C0C03D2994208BF9042704714BF93
:101630008B428242704700004FF4001C1CEB410FAC
:1016400094BF1CEB430F09E041EA030C50EA4C0C39
:1016500052EA0C0C03D28B4208BF8242704714BF7F
:10166000994290427047000070B504460D4660688C
:10167000C0F30A5040F2FF72904207D16068000345
:1016800004BF2068002818D0022070BD010004D1DA
:101690002046FFF796FF012867DA012D0FDB40F2A5
:1016A000FF71091A8D420AD36068002847BF0020E5
:1016B0002F4900202F49C4E90001012070BD41429B
:1016C000A942616806DA2C4A1140401941EA0050EB
:1016D000606053E001F0004162681203120B42F4B3
:1016E00080126260401E451905F13500352803D38C
:1016F00061600020206070BD002215F11F0F05DA27
:10170000203522686068206000206060684213D045
:10171000521E9241D243C0F1200325689D4055EAF4
:10172000D2722568C540666806FA03F32B4323602E
:10173000636823FA00F06060606808436060B2F19B
:10174000004F03D80BD12078C00708D52068401C73
:101750002060206818B96068401C60600EE0606816
:10176000884204BF20680028F8D1002070BD000026
:101770000000F0FF0000F07FFFFF0F804FF0FF3010
:1017800070BD0000F446400D40EAC120490006D279
:1017900000F014F8004248BF6FF00040604700F0CE
:1017A0000DF84FF0004188428CBF08464042604728
:1017B000400D40EAC120490080F00D8040F000401B
:1017C000490DA1F58061491C05D4D1F11F0154BF19
:1017D000C840C01770474FF000007047010040F14B
:1017E0000980F446404200F005F851F0004160479E
:1017F000010000BF09D0B0FA80F18840C91CC1F5D2
:101800008461090501EBD0214005704770B44FF0A9
:10181000004591EA030F44BF6B4000F0C3BB00BF1B
:10182000841A71EB030604D26E40001BB1411219F9
:1018300073414FF4001C1CEB410F34BF7CEB43069B
:1018400084E00C0DA4EB1356362E7DDC012E43DC18
:1018500045EAC32343EA525312BFD20292025B0805
:10186000240545EAC12141EA5051D2EBC0209941FB
:1018700025D407D1B0FA80F610FA06F164D0002022
:10188000203608E0B1FA81F6B140C6F1200220FA14
:1018900002F21143B0404FEAF474B4EB465434F012
:1018A00001064FEA74040AD8D6F50016760D04F046
:1018B0000044F04061FA06F25040F1404840C00A4E
:1018C00040EA415021F0004128BF5FEA500550F145
:1018D000000044EBD12137E045EAC323DB0A45EAA7
:1018E000C121C90AB6F120050EDD42EA0242120CFE
:1018F000C5F1200603FA06F6EB4042EA06056D4202
:10190000984161F100010DE062FA06F5F2405540A0
:1019100063FA06FC82EA0C02F3405A406D429041A1
:1019200061EB030111F4801F05D1641E620502D032
:101930006D004041494121F48011430875F1004395
:1019400050F1000041EB045170BC70471CEB410F9B
:1019500015D223F0004352EA43060BD04FEA4C0C59
:10196000BCEB410F04D80C0D661E342EB7DDEBE73F
:10197000801A994150EA410608BF0021E4E708BFF8
:101980001CEB430F28BF6FF00001DDE7B0B581EA23
:10199000030C0CF0004C40F2FF7515EA11541DBF0A
:1019A00015EA1357AC42AF4239E0E41923EA455334
:1019B00043F48013C90241F0004141EA505EC7027E
:1019C0001100A7FB020200284FF00000EEFB0120EF
:1019D0004FF00001E3FB072118BF42F0010240185D
:1019E00000214941E3FB0E01A4F580640F0302D2FC
:1019F00052004041494154F101046CDD470872F145
:101A0000004250F1000051EB0451A1F580115CBF80
:101A100041EA0C01B0BD4CEA05510020B0BD05EA19
:101A20001357AC4214BFAF4241E050EA410E1CBF15
:101A300052EA430E02E061460020B0BD24423C441D
:101A40001BD15FEA070EF6D0090302BF0146002052
:101A5000AEF1140EB1FA81F7AEEB070401FA07FEFE
:101A60000C37C7F1200100FA07F7C8404EEA000E14
:101A700023EA455343F48013A2E733F00043B3FA5B
:101A800083F704BFB2FA82FE77440B3FE41BB7F141
:101A9000200E2FBF02FA0EF3BB40C7F1200E22FA30
:101AA0000EFE38BF43EA0E03BA40641C82E750EAD8
:101AB000410E14BF52EA430E6FF000014FF40017BD
:101AC00017EB430F8ABF194617EB410FB5E74CEAF6
:101AD00005510020B0BDD4F10104B4F120070FDAA4
:101AE000C4F12007520828BF42F0010210FA07F59E
:101AF00001FA07F7E1BF2A43E0403843E1400FE035
:101B0000352C98DCC7F1200452EA400220FA07F293
:101B100018BF42F0010231FA07F0A1400A43002148
:101B200072F1004250F1000051EB0C01B0BD000019
:101B3000F0B540F2FF7581EA030C0CF0004C15EA99
:101B400011541DBF15EA1357AC42AF42E5E0BC414A
:101B5000C1F31301C3F31303801A994143F48013B3
:101B600004D2641E4000494180185941C90241EA2B
:101B70005051B1FBF3F603FB1611A2FB0675D7EB30
:101B8000C020A94102D2761E80185941C90241EAFB
:101B90005051B1FBF3FE03FB1E11A2FB0E75D7EBF8
:101BA000C020A94103D2AEF1010E8018594189022B
:101BB00041EA9051760546EA8E2EB1FBF3F603FB1F
:101BC0001611A2FB0675D7EB8020A94102D2761E22
:101BD00080185941C90241EA50514EEA060EB1FB44
:101BE000F3F603FB1611A2FB0675D7EBC020A94143
:101BF00002D2761E80185941C90241EA5051B1FB08
:101C0000F3F703FB1711A2FB0735D3EBC020A94163
:101C100067F100070CBF004247F0010766F3D527C4
:101C20004FEA1E31B80814F5806412DDBD0775F166
:101C3000004250EB0E5051EB045111F5801F5CBF78
:101C400041EA0C01F0BD4CF07F6141F0E041002021
:101C5000F0BDBD076D0840EA0E5041F48011D4F18B
:101C60000104B4F120060ADAC4F120060200E040C3
:101C700001FA06F3E1401843B24015430EE0342C5C
:101C800013DCC6F1200445EA40056D0820FA06F28F
:101C9000154321FA06F0A1400D43002175F10042E1
:101CA00050F1000051EB0C01F0BD00205FEA0C0187
:101CB000F0BDCFB992185B41B3FA83F704BFB2FA13
:101CC00082F6BF190B3FB7F120062FBF02FA06F3C9
:101CD000BB40C7F1200622FA06F638BF3343BA40AC
:101CE0001CB1E419641E33E77F4231F00041B1FAC0
:101CF00081F404BFB0FA80F6A4190B3CB4F12006BD
:101D00002FBF00FA06F1A140C4F1200620FA06F622
:101D100038BF3143A0403C1B1AE7AC421ABF05EA6A
:101D20001357AF4212E050EA41061CBF52EA430685
:101D3000BFE750EA4107304661461CBF41EA055102
:101D4000F0BD52EA430C08BFC143F0BD00204FF480
:101D5000001616EB410F98BF16EB430F08BF16EBAA
:101D6000410F24BFC14305E016EB430F0CBF614692
:101D70004CEA0551F0BD000080B5134800F07CF935
:101D80000FF24801016041608160C1600161416101
:101D900081610FF23C0242628162C1620163416370
:101DA0000FF2300282630FF23402C26301644164B5
:101DB00001BD10B5044800F05FF90446206808B979
:101DC000FFF7DAFF204610BD0000002000000000F1
:101DD0002E00000066616C7365000000747275650A
:101DE0000000000091FBF2F303FB1211C0E9003187
:101DF0007047000080B5DFF80C0000F03DF9806905
:101E000002BD00006C1B002030B438B90FF2440052
:101E1000D0E90045C2E90045002001E00170012041
:101E200030BC704730B439B90FF23000D0E900450A
:101E3000C3E9004500200BE012B96FF0010007E094
:101E400008B10A7802800978481E8041C043C00F5B
:101E500030BC7047000000000000000000000000DF
:101E60000000000010B5434C2068A0B3201D00F016
:101E700005F904F1080000F001F904F10C0000F08C
:101E8000FDF804F1100000F0F9F804F1140000F07E
:101E9000F5F804F1180000F0F1F804F11C0000F06E
:101EA000EDF804F1200000F0E9F804F1240000F05E
:101EB000E7F804F1280000F0E3F804F12C0000F04A
:101EC000DFF804F1300000F0DBF804F13400BDE885
:101ED000104000F0D5B810BD38B50446254D28682F
:101EE00090BB281D00F0C9F805F1080000F0C5F806
:101EF00005F10C0000F0C1F805F1100000F0BDF88C
:101F000005F1140000F0B9F805F1180000F0B5F87B
:101F100005F11C0000F0B1F805F1200000F0ADF86B
:101F200005F1240000F0ABF805F1280000F0A7F857
:101F300005F12C0000F0A3F805F1300000F09FF847
:101F400005F1340000F09BF801202860052C06D232
:101F500005EB84002430BDE8324000F092B831BD7A
:101F6000052805D2034901EB8000243000F08AB82F
:101F700070470000281C00200649086808B10020AE
:101F80007047054808600549C908C900091A016079
:101F9000704700BF781D0020809D002080A1002098
:101FA00070470000841A71EB030603D2001BB14195
:101FB000121973414FF4001C1CEB410F34BF7CEB32
:101FC000430443E00C0DA4EB1356352E50DC45EAD8
:101FD000C323DB0A45EAC121C912B6F120050DDD94
:101FE00063FA05F6EB4086EA0305124218BF45F096
:101FF0000105C01851F100010CD213E062FA06F598
:10200000F2405540F3415A40B340F3405A408018E3
:10201000594107D349085FEA30005FEA350528BF18
:1020200045F0010501F58011420875F1004250F1BB
:10203000000041EB045170BC4FF4001C1CEB410F3D
:1020400038BF70470020090D090570471CEB410F90
:1020500010D252EA43060BD0BCEB410F05D80C0D51
:10206000AB43661E342EB5DD02E0AB438018594108
:1020700070BC704770BC70477047704770477047BE
:10208000704770477047000038B504000D00290004
:1020900089B2200000F061FF31BD10B5DFF85C0DA2
:1020A00090F8C41089B2DFF8580D01F033FA04003B
:1020B000DFF8480D90F8C400DFF8401D4018A4B2C6
:1020C000210A80F84410DFF8340D90F8C400401C59
:1020D000DFF8281D81F8C400DFF8200D90F8C40057
:1020E000DFF8181D401880F84440DFF8100D90F814
:1020F000C400401CDFF8041D81F8C400DFF8FC0CAC
:1021000090F8C41089B2DFF8F80CFFF7BDFFDFF8D4
:10211000600DDFF8E81C91F8C4104175DFF8DC0CA5
:1021200090F8C420DFF8D81CDFF8480D01F016FA4B
:1021300010BD80B5DFF8C40C407801280CD002280F
:102140000DD003280ED004280FD0052810D0062863
:1021500011D0102812D014E000F05BFC11E000F068
:1021600093FC0EE000F001FD0BE000F0C0FC08E085
:1021700000F0DFFC05E000F0EAFC02E000F01BFDEF
:10218000FFE701BD70B504000D001600DFF86C0C10
:10219000002180F8C410DFF8640C90F8C400DFF868
:1021A0005C1C401880F84440DFF8500C90F8C400E4
:1021B000401CDFF8481C81F8C400DFF8400C90F8A0
:1021C000C400DFF8381C4018012180F84410DFF803
:1021D0002C0C90F8C400401CDFF8201C81F8C400CF
:1021E000DFF8180C90F8C400DFF8101C4018ADB2EE
:1021F000290A80F84410DFF8040C90F8C400401C51
:10220000DFF8F81B81F8C400DFF8F00B90F8C40089
:10221000DFF8E81B401880F84450DFF8E00B90F836
:10222000C400401CDFF8D41B81F8C400DFF8CC0BDD
:1022300090F8C400DFF8C41B4018B6B2310A80F829
:102240004410DFF8B80B90F8C400401CDFF8AC1B5A
:1022500081F8C400DFF8A40B90F8C400DFF89C1BE1
:10226000401880F84460DFF8940B90F8C400401CDC
:10227000DFF8881B81F8C400FFF70FFFDFF87C0B45
:10228000002180F8CF10DFF8740B80F8CE60DFF803
:102290006C0BA0F8C65070BD70B504000D001600A0
:1022A000DFF8580B002180F8C410DFF8500B90F8CD
:1022B000C400DFF8481B401880F84440DFF83C0BAE
:1022C00090F8C400401CDFF8341B81F8C400DFF82C
:1022D0002C0B90F8C400DFF8241B4018022180F872
:1022E0004410DFF8180B90F8C400401CDFF80C1BFA
:1022F00081F8C400DFF8040B90F8C400DFF8FC1A82
:102300004018ADB2290A80F84410DFF8F00A90F8BE
:10231000C400401CDFF8E41A81F8C400DFF8DC0ACE
:1023200090F8C400DFF8D41A401880F84450DFF861
:10233000CC0A90F8C400401CDFF8C01A81F8C40031
:10234000DFF8B80A90F8C400DFF8B01A4018B6B247
:10235000310A80F84410DFF8A40A90F8C400401C49
:10236000DFF8981A81F8C400DFF8900A90F8C400EA
:10237000DFF8881A401880F84460DFF8800A90F887
:10238000C400401CDFF8741A81F8C400FFF785FE12
:10239000DFF8680A002180F8D010DFF8600A80F8C2
:1023A000CE60DFF8580AA0F8C85070BD70B50400C0
:1023B0000D001600DFF8440A002180F8C410DFF891
:1023C0003C0A90F8C400DFF8341A401880F8444002
:1023D000DFF8280A90F8C400401CDFF8201A81F8C2
:1023E000C400DFF8180A90F8C400DFF8101A40188B
:1023F000032180F84410DFF8040A90F8C400401C60
:10240000DFF8F81981F8C400DFF8F00990F8C4008B
:10241000DFF8E8194018ADB2290A80F84410DFF857
:10242000DC0990F8C400401CDFF8D01981F8C40022
:10243000DFF8C80990F8C400DFF8C019401880F828
:102440004450DFF8B80990F8C400401CDFF8AC191C
:1024500081F8C400DFF8A40990F8C400DFF89C19E3
:102460004018B6B2310A80F84410DFF8900990F8AD
:10247000C400401CDFF8841981F8C400DFF87C092F
:1024800090F8C400DFF87419401880F84460DFF851
:102490006C0990F8C400401CDFF8601981F8C40092
:1024A000FFF7FBFDDFF85409002180F8D110DFF8B9
:1024B0004C0980F8CE60DFF84409A0F8CA5070BD1E
:1024C00070B504000D001600DFF83009002180F817
:1024D000C410DFF8280990F8C400DFF8201940186C
:1024E00080F84440DFF8140990F8C400401CDFF87D
:1024F0000C1981F8C400DFF8040990F8C400DFF873
:10250000FC184018042180F84410DFF8F00890F817
:10251000C400401CDFF8E41881F8C400DFF8DC08D0
:1025200090F8C400DFF8D4184018ADB2290A80F83A
:102530004410DFF8C80890F8C400401CDFF8BC184D
:1025400081F8C400DFF8B40890F8C400DFF8AC18D4
:10255000401880F84450DFF8A40890F8C400401CEC
:10256000DFF8981881F8C400DFF8900890F8C400EC
:10257000DFF888184018B6B2310A80F84410DFF846
:102580007C0890F8C400401CDFF8701881F8C40083
:10259000DFF8680890F8C400DFF86018401880F889
:1025A0004460DFF8580890F8C400401CDFF84C186D
:1025B00081F8C400FFF771FDDFF84008002180F8C2
:1025C000D210DFF8380880F8CE60DFF83008A0F8C5
:1025D000CC5070BD70B504000D001600DFF81C086B
:1025E000002180F8C410DFF8140890F8C400DFF868
:1025F0000C18401880F84440DFF8000890F8C40038
:10260000401CDFF8F81781F8C400DFF8F00790F8F5
:10261000C400DFF8E8174018052180F84410DFF8FF
:10262000DC0790F8C400401CDFF8D01781F8C40024
:10263000DFF8C80790F8C400DFF8C0174018ADB243
:10264000290A80F84410DFF8B40790F8C400401C51
:10265000DFF8A81781F8C400DFF8A00790F8C400DD
:10266000DFF89817401880F84450DFF8900790F88A
:10267000C400401CDFF8841781F8C400DFF87C0731
:1026800090F8C400DFF874174018B6B2310A80F829
:102690004410DFF8680790F8C400401CDFF85C17AE
:1026A00081F8C400DFF8540790F8C400DFF84C1735
:1026B000401880F84460DFF8440790F8C400401CDC
:1026C000DFF8381781F8C400FFF7E7FCDFF82C07C4
:1026D000002180F8D31070BD70B504000D00160005
:1026E000DFF81807002180F8C410DFF8100790F811
:1026F000C400DFF80817401880F84440DFF8FC06F3
:1027000090F8C400401CDFF8F41681F8C400DFF82C
:10271000EC0690F8C400DFF8E4164018062180F8B3
:102720004410DFF8D80690F8C400401CDFF8CC163F
:1027300081F8C400DFF8C40690F8C400DFF8BC16C6
:102740004018ADB2290A80F84410DFF8B00690F8BE
:10275000C400401CDFF8A41681F8C400DFF89C0612
:1027600090F8C400DFF89416401880F84450DFF861
:102770008C0690F8C400401CDFF8801681F8C40075
:10278000DFF8780690F8C400DFF870164018B6B28B
:10279000310A80F84410DFF8640690F8C400401C49
:1027A000DFF8581681F8C400DFF8500690F8C4002E
:1027B000DFF84816401880F84460DFF8400690F8CB
:1027C000C400401CDFF8341681F8C400FFF765FC34
:1027D000DFF82806002180F8D41070BD2DE9F04103
:1027E00004000D0016001F00DFF81006002180F81D
:1027F000C410DFF8080690F8C400DFF8001640188F
:1028000080F84440DFF8F40590F8C400401CDFF87D
:10281000EC1581F8C400DFF8E40590F8C400DFF897
:10282000DC154018102180F84410DFF8D00590F82E
:10283000C400401CDFF8C41581F8C400DFF8BC05F3
:1028400090F8C400DFF8B4154018ADB2290A80F83A
:102850004410DFF8A80590F8C400401CDFF89C1570
:1028600081F8C400DFF8940590F8C400DFF88C15F7
:10287000401880F84450DFF8840590F8C400401CEC
:10288000DFF8781581F8C400DFF8700590F8C4000F
:10289000DFF868154018002180F84410DFF85C0567
:1028A00090F8C400401CDFF8541581F8C400DFF82C
:1028B0004C0590F8C400DFF84415401880F84460D7
:1028C000DFF8380590F8C400401CDFF8301581F8B7
:1028D000C400DFF8280590F8C400DFF82015401880
:1028E000F6B2710080F84410DFF8100590F8C400CB
:1028F000401CDFF8081581F8C400002080461FFA4C
:1029000088F8F6B2B8EB460F1EDADFF8F00490F85C
:10291000C4003E281AD2DFF8E40490F8C400DFF8BF
:10292000DC1440181FFA88F818F8071080F84410D3
:10293000DFF8C80490F8C400401CDFF8C01481F828
:10294000C40018F10108DAE7FFF7A7FBBDE8F08142
:1029500038B50400DFF820050021017040F63D6025
:1029600005000FF239022900032000F015FFDFF8FF
:102970008C0490F8400040280FD2DFF8800490F8D3
:102980004000DFF878144454DFF8700490F84000F9
:10299000401CDFF8681481F8400031BDDFF8D8042E
:1029A00001210170704710B5DFF8CC0400780028D1
:1029B0002ED0DFF8C40400210170DFF8400490F845
:1029C000400004280ED3DFF8340490F8401089B298
:1029D000DFF8280400F09EFD0400A4B2002C01D111
:1029E000FFF7A7FBDFF8140490F84000DFF880142D
:1029F0000870DFF8080490F84020DFF80014DFF8D2
:102A00007C0400F0ABFDDFF8F403002180F84010F7
:102A100010BD38B5DFF8E40390F84000012832D348
:102A2000DFF8D80380780400DFF8D003B0F8C600E0
:102A300040F20111884226D1E4B2082C23D1DFF8FC
:102A400040040500280000F05FFDDFF8381488819D
:102A5000AD1C280000F058FDDFF82814C881AD1C1B
:102A6000280000F051FDDFF81C140882AD1C28007E
:102A700000F04AFDDFF80C144882AD1CDFF87C033F
:102A8000012180F8CF1031BD38B5DFF8700390F820
:102A9000400001282AD3DFF8640380780400DFF8BF
:102AA0005C03B0F8C80040F2012188421ED1E4B2B4
:102AB000062C1BD1DFF8C8030500280000F024FD18
:102AC000DFF8C0138880AD1C280000F01DFDDFF882
:102AD000B413C880AD1C280000F016FDDFF8A41365
:102AE0000881AD1CC548012180F8D01031BD38B532
:102AF000C24890F8400001281AD3C04880780400EA
:102B0000BE48B0F8CC0040F20121884210D1E4B2B6
:102B1000022C0DD1DFF868030500280000F0F4FC5A
:102B2000DFF860134881AD1CB448012180F8D21051
:102B300031BDB24890F84000012807D3AF48007873
:102B4000012803D1AD48012180F8D3107047AB486C
:102B500090F84000012807D3A8480078012803D145
:102B6000A648012180F8D410704738B5A34890F8E2
:102B7000400001281ED3A148807804009F48B0F887
:102B8000CA0040F20131884214D1E4B2202C11D1A4
:102B9000BB480500280000F0B7FCBA490880AD1C0E
:102BA000280000F0B1FCB7494880AD1C93480121D2
:102BB00080F8D11031BD914890F84000012807D32A
:102BC0008E480078012803D18C48012180F8D51067
:102BD0007047F8B504000D0000200700FFB2012F78
:102BE0001CD22A0092B2210089B20120FFF7CAFA52
:102BF00000F07AFD060000F0CAFE300000F07EFD15
:102C0000652804DA7D4890F8CF000128F3D37B488B
:102C100090F8CF00012801D27F1CDFE7774890F8B9
:102C2000CF00002801D1002000E00120F2BDF8B55E
:102C300004000D0000200700FFB2012F1CD22A0063
:102C400092B2210089B20120FFF726FB00F04CFD73
:102C5000060000F09CFE300000F050FD652804DA0C
:102C6000664890F8D0000128F3D3644890F8D0006B
:102C7000012801D27F1CDFE7604890F8D0000028CF
:102C800001D1002000E00120F2BDF8B504000D00E4
:102C900000200700FFB2012F1CD22A0092B22100AF
:102CA00089B20120FFF782FB00F01EFD060000F054
:102CB0006EFE300000F022FD652804DA4F4890F8DF
:102CC000D1000128F3D34D4890F8D100012801D25A
:102CD0007F1CDFE7494890F8D100002801D100208F
:102CE00000E00120F2BDF8B504000D00002007004F
:102CF000FFB2012F1CD22A0092B2210089B201201A
:102D0000FFF7DEFB00F0F0FC060000F040FE3000B4
:102D100000F0F4FC652804DA384890F8D200012865
:102D2000F3D3364890F8D200012801D27F1CDFE7A8
:102D3000324890F8D200002801D1002000E00120A4
:102D4000F2BDF8B504000D0000200700FFB2012F0E
:102D50001CD22A0092B2210089B20120FFF73AFC6E
:102D600000F0C2FC060000F012FE300000F0C6FCCD
:102D7000652804DA214890F8D3000128F3D31F48CE
:102D800090F8D300012801D27F1CDFE71B4890F8A0
:102D9000D300002801D1002000E00120F2BDF8B5E9
:102DA00004000D0000200700FFB2012F1CD22A00F2
:102DB00092B2210089B20120FFF78EFC00F094FC52
:102DC000060000F0E4FD300000F098FC652804DA0D
:102DD0000A4890F8D4000128F3D3084890F8D400AA
:102DE000012801D27F1CDFE7044890F8D4000028B6
:102DF00001D1002000E00120F2BD0000EC1900200C
:102E0000301A00202DE9F04104000D0016000020CA
:102E100080465FFA88F8B8F1010F1ED233002A000D
:102E2000D2B2210089B20120FFF7D8FC00F05CFC8F
:102E3000070000F0ACFD380000F060FC652804DA03
:102E4000114890F8D5000128F3D30F4890F8D50029
:102E5000012802D218F10108DBE70B4890F8D500F1
:102E6000002801D1002000E00120BDE8F081000031
:102E7000901C0020A61C00207E1D0020911C00201C
:102E8000EF190020341D0020EC19002080B500F05F
:102E900075F800F02EF900F042F800F01CFA01BDC0
:102EA0000100C9B2002902D1DFF8FC0516E0C9B261
:102EB000012902D1DFF8F40510E0C9B2022902D1DC
:102EC000DFF8EC050AE0C9B2032901D1002005E0D2
:102ED000C9B2042901D1002000E000207047F8B5F4
:102EE00004000D0016002000C0B2FFF7D9FF070054
:102EF000002F0AD0F869002801D0F8698047320015
:102F000092B22900380000F00CFAF1BD13B50400AC
:102F1000012201A92000C0B2FFF7E1FF13BD80B577
:102F20000121082000F0A6FD03208DF802001020EA
:102F30008DF803000420ADF8000000A9DFF8780543
:102F400000F0C4FD01BDDFF8780504210160704781
:102F5000DFF8700504210160704738B504000D00EA
:102F60002A0092B221000220FFF7B9FF31BD10B54F
:102F700004002000C0B2FFF7EBFC10BDDFF828050D
:102F8000DFF844150160DFF82005DFF840154160E7
:102F9000DFF81405DFF838158160DFF80C054FF411
:102FA00080618181DFF800054FF48061C181DFF825
:102FB000F80400210182DFF8F00400214182DFF8EB
:102FC000E8040021C182DFF8E00400210183DFF87A
:102FD000D80400214183DFF8D00400218182DFF88A
:102FE000C8040021C161DFF8C00400210162DFF8DC
:102FF000B80400214162DFF8B404DFF8B8140160BE
:10300000DFF8A804DFF8CC144160DFF8A004DFF893
:10301000C8148160DFF894044FF480618181DFF887
:103020008C044FF48061C181DFF8800400210182AB
:10303000DFF8780400214182DFF870040021C182AA
:10304000DFF8680400210183DFF860040021418378
:10305000DFF8580400218182DFF850040021C161AB
:10306000DFF8480400210162DFF8400400214162DA
:10307000DFF83C04DFF844140160DFF83404DFF8C3
:103080005C144160DFF82804DFF854148160DFF835
:1030900020044FF480618181DFF814044FF48061D3
:1030A000C181DFF80C0400210182DFF80404002153
:1030B0004182DFF8FC030021C182DFF8F403002124
:1030C0000183DFF8EC0300214183DFF8E4030021F2
:1030D0008182DFF8DC03DFF80C14C161DFF8D00374
:1030E000DFF804140162DFF8C803DFF8001441625E
:1030F000704700B585B00121052000F0BBFC01211F
:103100004FF4804000F0B6FC4FF40070ADF80000C2
:1031100018208DF8030003208DF8020000A9DFF8C5
:10312000D00300F0D3FC4FF48060ADF80000042021
:103130008DF8030000A9DFF8B80300F0C7FC5FF4C6
:10314000E13001900020ADF808000020ADF80A0041
:103150000020ADF80C000020ADF810000C20ADF8F8
:103160000E0001A9DFF8600300F04CFD012240F2DF
:103170002551DFF8540300F0C5FD0121DFF84803B5
:1031800000F0B2FD4021D04800F0EFFD0121052004
:1031900000F070FC01215FF4003000F07AFC0420A4
:1031A000ADF8000018208DF8030003208DF8020010
:1031B00000A9CF4800F08AFC0820ADF800000420E8
:1031C0008DF8030000A9CA4800F080FC00A9C84897
:1031D00000F07CFC5FF4E13001900020ADF80800C5
:1031E0000020ADF80A000020ADF80C000020ADF87A
:1031F00010000C20ADF80E0001A9AE4800F002FD51
:10320000012240F22551AB4800F07CFD0121A94884
:1032100000F06AFD4021A74800F0A7FD0121082029
:1032200000F028FC10208DF8030003208DF8020028
:103230000420ADF8000000A99F4800F047FC0121E0
:10324000092000F017FC01215FF4802000F021FC30
:103250004FF48060ADF8000018208DF803000320C3
:103260008DF8020000A9944800F030FC4FF4006093
:10327000ADF8000004208DF8030000A98E4800F08E
:1032800025FC00A98C4800F021FC4FF41650019059
:103290000020ADF808000020ADF80A000020ADF8CD
:1032A0000C000020ADF810000C20ADF80E0001A9B4
:1032B000824800F0A7FC012240F225517F4800F02F
:1032C00021FD01217D4800F00FFD40217B4800F0E9
:1032D0004CFD05B000BD80B525208DF80000002014
:1032E0008DF8020001208DF8030000A800F07FFD9A
:1032F00026208DF8000001208DF8020001208DF8B5
:10330000030000A800F073FD27208DF800000220C4
:103310008DF8020001208DF8030000A800F067FD81
:1033200001BDF8B504000D00160000200700BFB273
:10333000B6B2B74226D2012080F31088A08AADF839
:103340000000002080F31088BDF80000A1898842A9
:10335000F1D2208A6168BFB27A5D4254012080F3C5
:103360001088208A401C2082A18980B2884201D323
:1033700000202082A08A401CA082002080F31088B8
:103380007F1CD4E7012240F22771206800F0BAFCCC
:10339000F1BD38B5040040F22551206800F0EBFC87
:1033A00000281DD0206800F0DCFC0500E08AA16840
:1033B0004554E08A401CE082E18980B2884201D312
:1033C0000020E082608BE189884202D2608B401C41
:1033D0006083606A002803D02800C0B2616A884711
:1033E00040F22771206800F0C6FC002823D0A08A94
:1033F00000280CD1002240F22771206800F082FCE6
:10340000012240F22661206800F07CFC3CE0608AEA
:103410006168415C89B2206800F09FFC608A401CB2
:103420006082A18980B2884201D300206082A08A94
:10343000401EA08228E040F22661206800F09BFC3C
:10344000002821D0A08A00280BD1002240F226615A
:10345000206800F057FC206A002815D0206A8047B9
:1034600012E0608A6168415C89B2206800F075FCF6
:10347000608A401C6082A18980B2884201D300200A
:103480006082A08A401EA08231BD80B50648FFF749
:1034900080FF01BD80B50548FFF77BFF01BD80B50A
:1034A0000348FFF776FF01BDBC1C0020E41C002090
:1034B0000C1D002000440040000C0140004800406A
:1034C000100C0140140C014000380140A8000020FD
:1034D000A8040020A8080020A80C0020A8100020A4
:1034E000A8140020472F0008512F00086F2F000854
:1034F0000008014038B504000D002100C9B20020C9
:10350000FFF704FD200032BD0178407850EA012029
:1035100080B2704730B40200FF20FF230D00691E07
:10352000ADB2002D0ED0C0B2157845402C00521C13
:10353000A4B2084D655D5D402800A4B2064D655DEE
:103540002B00EBE7C0B2DBB253EA002080B230BC04
:1035500070470000BC480008BC49000870B5040072
:103560000D001600320029002000FDF733FF200077
:1035700070BD000040B2002809D540B210F00F0223
:10358000DFF8A433D2180B0102F8043C04E040B287
:10359000DFF898230B018354704710B50400B4F191
:1035A000807F01D3012013E02002000A401EDFF8D3
:1035B000801308600F215FF0FF30FFF7DBFFDFF8BB
:1035C000740300210160DFF870030721016000200F
:1035D00010BD10B500200400E4B2042C21D2E4B2E6
:1035E0000C20DFF8581300FB041000214160E4B206
:1035F0000C20DFF8481300FB041000218160E4B2C6
:103600000C20DFF8381300FB041000214170E4B2F5
:103610000C20DFF8281300FB041000210170641C4B
:10362000DAE7DFF81C0300684FF47A71B0FBF1F0C1
:10363000FFF7B3FF00F07BF810BD10B5DFF804030F
:10364000006800280CD0DFF8FC020068401EDFF89C
:10365000F4120860002803D1DFF8EC0201210170A8
:1036600000200400E4B2042C09D2E4B20C20DFF8FC
:10367000CC1200FB041000F027F8641CF2E7DFF81E
:10368000CC020068401CDFF8C4120860DFF8BC02FE
:1036900000687FF00041884203D1DFF8B0020021CA
:1036A000016000F073F9DFF8A8020078401CDFF831
:1036B000A0120870C0B20A2805D3DFF894020021D6
:1036C000017000F05FF910BD416800290BD041681E
:1036D000491E4160002906D101214170017801296C
:1036E00001D1816841607047012181F310889749B9
:1036F00009680800002181F3108870470100012348
:1037000083F31088914B1B681A00002383F3108801
:103710008A4202DB531A180004E07FF000435B1A70
:10372000D3181800704780B5FFF787FF01BD7FB53C
:103730000121012000F0ADF9814800684008060031
:103740008448B6FBF0F005004FF6FF70040020003F
:10375000ADF80800ADF804500020ADF80A000020D4
:10376000ADF8060001A95FF0804000F07FFB012169
:103770005FF0804000F0C4FB1C208DF800000420A6
:103780008DF8010000208DF8020001208DF8030063
:1037900000A800F02CFB7FBD2DE9F0410400884615
:1037A0001500B8F1050F01D3B8F105085FF08040AE
:1037B00000F0C8FB060018EB06000700E4B2012C7D
:1037C00013D165480560390089B25FF0804000F090
:1037D000B0FB02215FF0804000F0CFFB012202210C
:1037E0005FF0804000F09AFB45E0E4B2022C13D178
:1037F0005A480560390089B25FF0804000F09BFBB9
:1038000004215FF0804000F0B8FB012204215FF04A
:10381000804000F083FB2EE0E4B2032C13D150482B
:103820000560390089B25FF0804000F086FB082116
:103830005FF0804000F0A1FB012208215FF0804092
:1038400000F06CFB17E0E4B2042C13D1454805608E
:10385000390089B25FF0804000F071FB10215FF009
:10386000804000F08AFB012210215FF0804000F0D0
:1038700055FB00E0FFE7BDE8F08180B502215FF075
:10388000804000F061FB00280DD002215FF08040F5
:1038900000F073FB002202215FF0804000F03EFB4D
:1038A0002D480068804704215FF0804000F04CFB09
:1038B00000280DD004215FF0804000F05EFB002264
:1038C00004215FF0804000F029FB24480068804715
:1038D00008215FF0804000F037FB00280DD0082160
:1038E0005FF0804000F049FB002208215FF080403B
:1038F00000F014FB1A480068804710215FF08040F8
:1039000000F022FB00280DD010215FF0804000F075
:1039100034FB002210215FF0804000F0FFFA1148D4
:103920000068804701BD000018ED00E000E400E001
:1039300014E000E018E000E010E000E0601C00206F
:10394000A4000020601D00207C1D0020641D0020BC
:103950007D1D002040420F00681D00206C1D0020CE
:10396000701D0020741D002080B54FF4407000F0E1
:1039700039FAFFF78BFA00F019FB00F0FFFBFFF7B5
:1039800028FE01BD80B500F07DFD01BD704780B50A
:10399000FFF709F801BD000030B400210022002328
:1039A0000024434D2D6815F00C0529000D00002D55
:1039B00004D0042D05D0082D06D026E03D4D05602D
:1039C00025E03C4D056022E0394D2D6815F4701559
:1039D0002A00374D2D6815F480352B00920C921C6F
:1039E000002B04D1344D05FB02F505600CE0304D91
:1039F0002D68AD0304D5304D05FB02F5056003E0ED
:103A00002C4D05FB02F5056001E02A4D0560284DAF
:103A10002D6815F0F00529000909284D4D5D2C0091
:103A20000568E5404560224D2D6815F4E0652900E4
:103A3000090A224D4D5D2C004568E54085601C4D0E
:103A40002D6815F460552900C90A1C4D4D5D2C00E8
:103A50004568E540C560164D2D6815F440452900C0
:103A6000890B174D4D5D2C00C568B5FBF4F505615C
:103A700030BC7047C9B2002905D0124A126802430F
:103A8000104B1A6004E00F4A126882430D4B1A6013
:103A90007047C9B2002905D00B4A126802430A4B8D
:103AA0001A6004E0084A12688243074B1A607047A4
:103AB0000410024000127A0000093D00900000202E
:103AC000A0000020181002401C100240F0B5002792
:103AD0000022002300240025002691F803C01CF0DA
:103AE0000F0C674691F803C05FEACC6C03D591F8E0
:103AF00002C05CEA070791F800C05FEA0C6C3AD09C
:103B0000D0F800C065465FF0000C6346082B31D248
:103B10005FF0010C1CFA03FC6446B1F800C014EA23
:103B20000C0C6246A24223D15FEA830C64465FF02C
:103B30000F0C1CFA04FC6646B54317FA04FC5CEA59
:103B4000050591F803C0BCF1280F06D15FF0010C08
:103B50001CFA03FCC0F814C00AE091F803C0BCF1E1
:103B6000480F05D15FF0010C1CFA03FCC0F810C02F
:103B70005B1CCBE70560B1F800C04FF4807EF445D4
:103B80003FD3D0F804C065465FF0000C6346082BB5
:103B900036D25FF0010C13F1080E1CFA0EFC6446DD
:103BA000B1F800C014EA0C0C6246A24226D15FEACA
:103BB000830C64465FF00F0C1CFA04FC6646B543A8
:103BC00017FA04FC5CEA050591F803C0BCF1280F64
:103BD00007D15FF0010C13F1080E1CFA0EFCC0F8BF
:103BE00014C091F803C0BCF1480F07D15FF0010C7D
:103BF00013F1080E1CFA0EFCC0F810C05B1CC6E7DF
:103C00004560F0BD2DE9F04786B004000D000026A8
:103C100000275FF000085FF000095FF0000AA88944
:103C20000028A246208A06004CF6FF700640E8886D
:103C300006432682A08906004EF6F3100640A888A7
:103C400029890843698908430643A681A08A06009A
:103C50004FF6FF400640A8890643A68200A8FFF75A
:103C60009BFE2048824502D10398070001E002989C
:103C70000700A089000408D5192000FB07F0296877
:103C80004900B0FBF1F0804607E0192000FB07F087
:103C900029688900B0FBF1F080466420B8FBF0F0A1
:103CA000000106003009642101FB10808146A089D3
:103CB000000409D55FEAC90032306421B0FBF1F09D
:103CC00010F00700064308E05FEA09103230642173
:103CD000B0FBF1F010F00F000643268106B0BDE8FE
:103CE000F087000000380140C9B2002904D0828961
:103CF00052F40052828104E082894DF6FF731A402B
:103D000082817047F0B4002300240025002640F68D
:103D10006A1789B2B94206000F00FFB27F09FFB2ED
:103D20003B0089B211F01F073C000127A7403D006E
:103D3000012B01D10C3604E0022B01D1103600E03A
:103D40001436D2B2002A03D037682F43376002E01E
:103D50003768AF433760F0BC7047CA05D20D828028
:103D600070478088C005C00D704789B28A0589B246
:103D7000CA430280704770B402000023002500246B
:103D8000002040F66A1689B2B1420E00F6B27609FA
:103D9000F6B2340089B211F01F063500012616FA7A
:103DA00005F5012C02D19689354006E0022C02D19E
:103DB000168A354001E0968A354089B20E0AB6B2BD
:103DC0003300012616FA03F316883340002D04D081
:103DD000002B02D00126300001E000263000C0B2E6
:103DE00070BC70471C4901431C4A11607047F0B415
:103DF000002300210F22C478002C20D0174C246807
:103E000014F4E064D4F5E064240A2300D3F104043C
:103E10002100DA4044788C40230084781440234306
:103E20001B0104780E4D6355047864110D4D012675
:103E3000077817F01F07BE4045F8246009E00478B2
:103E40006411094D0126077817F01F07BE4045F899
:103E50002460F0BC704700000000FA050CED00E0A3
:103E600000E400E000E100E080E100E000220388DF
:103E70001A00DFF81031984212D0DFF82031984252
:103E80000ED0B0F1804F0BD0DFF8FC30984207D055
:103E9000DFF8F830984203D0DFF8F430984204D1CC
:103EA0004FF68F731A404B881A43DFF8E830984278
:103EB00008D0DFF8E430984204D04FF6FF431A40B0
:103EC000CB881A4302808B8883850B880385DFF8B3
:103ED000B43098420FD0DFF8C43098420BD0DFF8EE
:103EE000C030984207D0DFF8BC30984203D0DFF8EA
:103EF000B830984201D10B7A038601238382704740
:103F0000C9B2002904D0028852F00102028004E004
:103F100002884FF6FE731A4002807047D2B2002A20
:103F200003D083890B43838102E083898B438381A0
:103F30007047818670470187704781877047A0F876
:103F400040107047808C704730B40200002000237E
:103F50000024158A0D402B0095890D402C009BB242
:103F6000002B05D0A4B2002C02D00125280001E0CE
:103F700000252800C0B230BC704789B2CA43028213
:103F800070470000002C0140000400400008004081
:103F9000000C0040001000400014004000340140BC
:103FA00000400140004401400048014080B501212B
:103FB0008020FFF75FFD012000F02FF8022000F0C5
:103FC0002CF8032000F029F8042000F026F8032044
:103FD0008DF8020010208DF803004FF40060ADF85A
:103FE000000000A91D48FFF771FD8020ADF800001A
:103FF00000A91A48FFF76AFD4FF48070ADF8000081
:1040000000A91648FFF762FD4FF40070ADF80000FC
:1040100000A91248FFF75AFD01BD401EC0B200289A
:1040200004D10F494FF400620A6015E0C0B20128C4
:1040300003D10B4980220A600EE0C0B2022804D1ED
:1040400007494FF480720A6006E0C0B2032803D12A
:1040500003494FF400720A6070470000001C0140E1
:10406000101C0140DFF8CC03006880040BD4DFF89B
:10407000C8030068C00706D4DFF8C0030068C005A5
:1040800001D5012000E000207047DFF8A803006898
:1040900080040BD5DFF8A0030068C00706D5DFF861
:1040A0009C030068C00501D5012000E00020704796
:1040B000DFF88003006880040BD5DFF87C0300681C
:1040C000C00706D4DFF874030068C00501D40120DE
:1040D00000E000207047DFF85C03006880040BD428
:1040E000DFF854030068C00706D5DFF85003006806
:1040F000C00501D5012000E000207047DFF834033F
:10410000006880040BD5DFF830030068C00706D5CF
:10411000DFF828030068C00501D4012000E000207A
:104120007047DFF818030068000401D4012000E0A4
:1041300000207047DFF808030068000701D4012061
:1041400000E000207047DFF8F4020068400401D46A
:10415000012000E000207047DFF8E00200688004E2
:1041600001D4012000E000207047DFF8D002006891
:10417000000601D4012000E00020704780B500F067
:104180007AF800F02EF801BDDFF8B812C97ADFF82E
:10419000B4228854AB49C97A491CAA4AD172C9B21F
:1041A0000A2902D3A7490022CA727047A548807A1B
:1041B000A44AD27A904201D1002011E0A148807A2D
:1041C000A04A805C01009F48807A401C9D4A907202
:1041D000C0B20A2802D39B48002282720800C0B2F3
:1041E000704780B501214FF49A70FFF743FC03201C
:1041F0008DF8020004208DF803004FF40050ADF854
:10420000000000A99148FFF761FC0120ADF8000013
:1042100000A98F48FFF75AFC4FF48070ADF80000FA
:1042200000A98C48FFF752FC4FF40040ADF80000A5
:1042300000A98848FFF74AFC0820ADF8000000A953
:104240008548FFF743FC4FF48040ADF8000000A91B
:104250008048FFF73BFC4FF40050ADF8000000A988
:104260007C48FFF733FC8020ADF8000000A97948B6
:10427000FFF72CFC01BD734900228A7271490022AC
:10428000CA72704900220A7300210800C0B20A28CD
:104290001FD2C0B26C4911EB001164220A81C0B276
:1042A000694911EB001102220A71C0B2664911EB93
:1042B000001100228A72C0B2634911EB0011002282
:1042C000CA72C0B2604911EB001100220A73401C8F
:1042D000DCE75D4964220A875B49052281F83B20BF
:1042E00059496422A1F848205749052281F84B20FA
:1042F00055496422A1F858205349052281F85B20D2
:1043000051496422A1F868204F49052281F86B20A9
:104310004D49524A0A604C49514A0A614A49514A38
:104320000A624949504A0A634749504A0A64464961
:104330004F4A0A6544494F4A0A6643494E4A0A674A
:1043400041494E4AC1F880203F494D4AC1F890206A
:10435000704738B50400E4B23B4810EB0410050088
:1043600028688047002845D02879052802D20520F2
:1043700028715DE028790A2803D22879401C287129
:1043800056E0A87A002809D10120A872E4B20320DF
:1043900000FB04F0401CC0B2FFF7F6FE288901289C
:1043A00046D3E888298988420FD2E888401CE880F3
:1043B000298980B288423BD1E4B2032000FB04F09B
:1043C000C01CC0B2FFF7E0FE32E0E87A01282FD32C
:1043D000287B401C2873E97AC0B2884228D3002089
:1043E0002873E4B2032000FB04F0401CC0B2FFF7C6
:1043F000CBFE1DE02879062802D30520287113E0A2
:104400002879002803D02879401E28710CE0A87A6A
:10441000012809D10020A872E4B2032000FB04F0B7
:10442000801CC0B2FFF7B0FE0020E8800020287397
:1044300031BD00000810014008080140082001407B
:1044400008140140481D0020C41A0020001001403B
:1044500000080140002001400014014065400008B0
:104460008B400008B1400008234100083541000896
:1044700047410008594100086B410008D740000837
:10448000FD40000810B500200400E4B20A2C05D25B
:104490002000C0B2FFF75DFF641CF6E710BD00000E
:1044A00010B584B0FFF760FA00F073F800F0A0F8E0
:1044B000FFF76DFA01A800F01BF9002806D0BDF83F
:1044C0000400082802D100F093F8FFE7FFF76EFE22
:1044D0000400E4B2002CEBD00021082000F0ECF83E
:1044E000E4B22000012810D0042814D0072818D0E6
:1044F0000A2829D00D282DD0102831D0132835D0E6
:10450000162839D017283DD042E0042140F201108E
:10451000FEF75FFBCCE7022140F20130FEF7B5FB6E
:10452000C6E701208DF8000002208DF8010003206D
:104530008DF8020004208DF8030000AA022140F249
:104540000130FEF75FFCB3E7012140F20130FEF7D6
:1045500026FCADE7002140F20130FEF720FCA7E782
:10456000012140F20110FEF7ECFBA1E7002140F22F
:104570000110FEF7E6FB9BE7032140F20120FEF766
:1045800056FB95E7012140F20140FEF7ACFB8FE7B7
:104590008EE780B533A000F0D3F8354800F0D0F8AE
:1045A0003449354800F0CCF82FA1344800F0C8F861
:1045B0003349344800F0C4F801230622032132486D
:1045C00000F0BEF8314800F0BBF8314800F0B8F810
:1045D000304800F0B5F8304800F0B2F82F4800F04D
:1045E000AFF82F4800F0ACF8214800F0A9F801BD61
:1045F00010B51CA000F0A4F81CA000F0A1F82948F8
:1046000000F09EF8002004002748407DE4B2844278
:1046100008D2E4B224482018817D244800F090F8A4
:10462000641CF1E70FA000F08BF810A000F088F8F0
:104630001F4800F085F8002004001B480078E4B211
:10464000844208D2E4B2184820184178174800F094
:1046500077F8641CF1E703A000F072F8154800F049
:104660006FF810BD0A0D0000312E30001B5B4B00AF
:10467000BC4A0008204C0008B84C0008CC4C00088C
:10468000404D0008E04C0008FC4A0008584D000866
:10469000384C0008F44C0008044C0008E44B0008B7
:1046A000984B0008084D0008901C0020604D000841
:1046B0001C4D0008684D0008204A92F841211F4B0C
:1046C00023F832001D4A92F841211C4B13EBC20221
:1046D00051601A4A92F84121521C184B83F841212B
:1046E000D2B2282A03D3154A002382F841317047F9
:1046F0000100124890F84001104B93F84131984264
:1047000001D1002019E00D4890F840010B4B13EB4C
:10471000C0000200094890F84001401C074B83F894
:104720004001C0B2282803D30448002380F8403158
:10473000108808805068486001207047A818002041
:104740000EB400B582B003A9009100AB024601216E
:10475000034878440A30FBF7EBFC06BC5DF810FB1D
:104760003505000080B54E48006850F001004C4906
:1047700008604C4800684C4908404A49086048486D
:1047800000684A490840464908604548006830F4D6
:104790008020434908604348006830F4FE004149E6
:1047A000086043485FF41F01016000F005F84148CC
:1047B0005FF00061016001BD80B500F001F801BD4E
:1047C00082B000200190002000903548006850F42D
:1047D0008030334908603248006810F4003000909F
:1047E0000198401C01900098002803D10198B0F571
:1047F000A06FF0D12A480068800302D50120009004
:1048000001E0002000900098012847D12A48006864
:1048100050F0100028490860274800688008800090
:10482000254908602448006850F0020022490860C9
:104830001C481C49096801601A481A490968016046
:104840001848006850F480601649086015480068F0
:1048500030F47C10134908601248006850F4E810E6
:10486000104908600E48006850F080700C490860DC
:104870000B4800688001FBD50A480068800880006A
:10488000084908600748006850F0020005490860C0
:104890000448006810F00C000828F9D102B07047F5
:1048A00000100240041002400000FFF8FFFFF6FE77
:1048B0000810024008ED00E00020024000C18140E5
:1048C00001C0804101C0804100C1814001C08041E0
:1048D00000C1814000C1814001C0804101C08041D0
:1048E00000C1814000C1814001C0804100C18140C0
:1048F00001C0804101C0804100C1814001C08041B0
:1049000000C1814000C1814001C0804100C181409F
:1049100001C0804101C0804100C1814000C181408F
:1049200001C0804101C0804100C1814001C080417F
:1049300000C1814000C1814001C0804101C080416F
:1049400000C1814000C1814001C0804100C181405F
:1049500001C0804101C0804100C1814000C181404F
:1049600001C0804101C0804100C1814001C080413F
:1049700000C1814000C1814001C0804100C181402F
:1049800001C0804101C0804100C1814001C080411F
:1049900000C1814000C1814001C0804101C080410F
:1049A00000C1814000C1814001C0804100C18140FF
:1049B00001C0804101C0804100C1814000C0C101EF
:1049C000C30302C2C60607C705C5C404CC0C0DCD7F
:1049D0000FCFCE0E0ACACB0BC90908C8D81819D9EF
:1049E0001BDBDA1A1EDEDF1FDD1D1CDC14D4D5151F
:1049F000D71716D6D21213D311D1D010F03031F10F
:104A000033F3F23236F6F737F53534F43CFCFD3D3E
:104A1000FF3F3EFEFA3A3BFB39F9F83828E8E9292E
:104A2000EB2B2AEAEE2E2FEF2DEDEC2CE42425E5DE
:104A300027E7E62622E2E323E12120E0A06061A14E
:104A400063A3A26266A6A767A56564A46CACAD6DFE
:104A5000AF6F6EAEAA6A6BAB69A9A86878B8B9796E
:104A6000BB7B7ABABE7E7FBF7DBDBC7CB47475B59E
:104A700077B7B67672B2B373B17170B0509091518E
:104A80009353529296565797559594549C5C5D9DBE
:104A90005F9F9E5E5A9A9B5B9959589888484989AE
:104AA0004B8B8A4A4E8E8F4F8D4D4C8C448485455E
:104AB0008747468682424383418180402A2A2A2AA8
:104AC0002A2A2A2A2A2A2A2A2A2A2A2A2A2A2A2A46
:104AD0002A2A2A2A2A2A2A2A2A2A2A2A2A2A2A2A36
:104AE0002A2A2A2A2A2A2A2A2A2A2A2A2A2A2A2A26
:104AF0002A2A2A2A2A2A2A2A2A0A0D002A20B9CC56
:104B0000BCFEBFE2B0E6B1BE203A205625642E2599
:104B1000642E2564202853544D3332463130785F5B
:104B20005374645065726970685F44726976657227
:104B3000290D0A007047084909684FF480725140F6
:104B4000054A11600021080042F2107180B28842CB
:104B5000F1D2401CF8E700000C080140FEE7FEE738
:104B6000FEE77047704770477047000010B508496E
:104B700079441C31074C7C441A34A14206D0081DEC
:104B80000A68511888470146A142F8D110BD00BFFC
:104B900030000000500000002A20436F70797269D5
:104BA000676874207777772E61726D666C792E63F3
:104BB0006F6D20B0B2B8BBC0B3B5E7D7D30D0A0054
:104BC0007FC6FFFFD81C0000A800002000000000E6
:104BD0002BC6FFFFA8000000AC0200000000002070
:104BE000000000002A20CCD4B1A6B5EA3A206172B8
:104BF0006D666C792E74616F62616F2E636F6D0DDF
:104C00000A0000002A20456D61696C203A2061721B
:104C10006D666C794071712E636F6D200D0A000016
:104C200056342D5253343835204D4F44425553D6C7
:104C3000F7D5BEC0FDB3CC002A2051512020202042
:104C40003A2031323935373434363330200D0A00CA
:104C500000F009F8002801D0FFF788FF0020FFF7D7
:104C60001FFC00F002F80120704700F001B80000BE
:104C70000746FDF7F7F8384600F002F8FBE70000BA
:104C800080B5C046C046024A11001820ABBEFBE703
:104C90002600020038B504460D46284600F006F806
:104CA000A84218BF0024204632BD00000149FEF78B
:104CB00021BC00BF500000202A20C0FDB3CCC3FBA4
:104CC000B3C62020203A2025730D0A002A20C0FDFB
:104CD000B3CCB0E6B1BE2020203A2025730D0A00E7
:104CE0002A20B7A2B2BCC8D5C6DA2020203A202597
:104CF000730D0A002A20CDFACDFA20203A206172E5
:104D00006D666C790D0A000020B7A2CBCDB5C4C387
:104D1000FCC1EE203A2030780000000020BDD3CA4C
:104D2000D5B5C4C3FCC1EE203A20307800000000A5
:104D30000148804701480047654700084D4D00087D
:104D4000323031362D30312D31310000C046C04671
:104D5000C046C046FFF77CFF2A200A0D0000000075
:104D600020253032580000001B5B3341000000005A
:104D7000FFF7E0BEFFF7DFBEFFF7F0BEFFF7EFBEC5
:104D8000FFF7EEBEFFF7EDBEFFF7ECBEFFF7EBBEA1
:104D9000FEF7C9BCFFF7FEBFFFF7FEBFFFF7FEBF80
:104DA000FFF7FEBFFFF7FEBFFFF7FEBFFFF7FEBF37
:104DB000FFF7FEBFFFF7FEBFFFF7FEBFFFF7FEBF27
:104DC000FFF7FEBFFFF7FEBFFFF7FEBFFFF7FEBF17
:104DD000FFF7FEBFFFF7FEBFFFF7FEBFFFF7FEBF07
:104DE000FFF7FEBFFFF7C0BEFFF7FEBFFFF7FEBF36
:104DF000FFF7FEBFFFF7FEBFFFF7FEBFFFF7FEBFE7
:104E0000FFF7FEBFFEF739BDFFF7FEBFFFF7FEBF9E
:104E1000FFF7FEBFFFF7FEBFFFF7FEBFFFF7FEBFC6
:104E2000FFF7FEBFFFF7FEBFFEF72FBBFEF732BB5B
:104E3000FEF735BBFFF7FEBFFFF7FEBFFFF7FEBF74
:104E4000FFF7FEBFFFF7FEBFFFF7FEBFFFF7FEBF96
:104E5000FFF7FEBFFFF7FEBFFFF7FEBFFFF7FEBF86
:104E6000FFF7FEBFFFF7FEBFFFF7FEBFFFF7FEBF76
:104E7000FFF7FEBFFFF7FEBFFFF7FEBFFFF7FEBF66
:104E8000FFF7FEBF0000000000000000000000006F
:104E90000000000000000000000000000000000012
:104EA000FFFFFFFFFFFFFFFF00000000000000000A
:104EB00000000000000000000000000000000000F2
:104EC000000000000000000000000000FFFFFFFFE6
:104ED000FFFF000002040101D81B0020281C002055
:104EE000D81B0020D81B0020D81B00208D000020DC
:104EF000740000200000000000000000000000001E
:104F000000000000000000000000000000000000A1
:104F1000000000000000000001020304010203047D
:0C4F2000060708090204060800A24A0463
:0400000508004D4D55
:00000001FF
