:020000040800F2
:10000000A09B0020450100081D0D0008DD0400082C
:10001000190D00085F0200088918000800000000A0
:1000200000000000000000000000000001110008B6
:100030001F03000800000000A50D0008ED110008D6
:100040005F0100085F0100085F0100085F01000810
:100050005F0100085F0100085F0100085F01000800
:100060005F0100085F0100085F0100085F010008F0
:100070005F0100085F0100085F0100085F010008E0
:100080005F0100085F0100085F0100085F010008D0
:10009000671600085F0100085F0100085F010008A3
:1000A0005F0100085F0100085F0100085F010008B0
:1000B000D91200085F0100085F0100085F01000815
:1000C0005F0100085F0100085F0100085F01000890
:1000D0005F0100088514000895140008A5140008A5
:1000E0005F0100085F0100085F0100085F01000870
:1000F0005F0100085F0100085F0100085F01000860
:100100005F0100085F0100085F0100085F0100084F
:100110005F0100085F0100085F0100085F0100083F
:100120005F0100085F0100085F0100085F0100082F
:10013000DFF80CD000F05CF8004800477D23000891
:10014000A09B00200648804706480047FEE7FEE7E0
:10015000FEE7FEE7FEE7FEE7FEE7FEE7FEE7FEE777
:10016000791200083101000840EA01039B0703D01F
:1001700009E008C9121F08C0042AFAD203E011F8E6
:10018000013B00F8013B521EF9D270472DE9F05FA8
:100190000546002092469B468846064681464024F6
:1001A0001BE0284641464746224600F042F85346A7
:1001B0005A46C01A914110D311461846224600F003
:1001C00029F82D1A67EB01084F462246012000212D
:1001D00000F020F817EB00094E41201EA4F10104A5
:1001E000DFDC484631462A464346BDE8F09F000022
:1001F000064C074D06E0E06840F0010394E8070074
:1002000098471034AC42F6D3FFF796FF5426000807
:1002100074260008202A04DB203A00FA02F10020AC
:1002200070479140C2F1200320FA03F31943904034
:100230007047202A04DB203A21FA02F0002170479F
:1002400021FA02F3D040C2F120029140084319463E
:100250007047014648780A7840EA0220704700BF9C
:10026000FEE7000070B502460C46FF25FF2309E0BB
:1002700012F8010B80EA05010648405C80EA03059C
:100280000548435C201EA4F10106B4B2F0D143EA54
:10029000052070BD5424000854250008014609B902
:1002A00009487047012901D10848FAE7022901D11C
:1002B0000748F6E7032901D10020F2E7042901D11C
:1002C0000020EEE70020ECE7F8020020200B0020E1
:1002D0004813002008B525208DF8000000208DF877
:1002E000020001208DF80300684600F019FD262069
:1002F0008DF8000001208DF802008DF8030068469B
:1003000000F00EFD27208DF8000002208DF802007D
:1003100001208DF80300684600F002FD08BD70471B
:1003200010B51AA001F0B2FA19A001F0AFFA00243A
:1003300006E01C48015D1CA001F0A8FA601CC4B2D4
:1003400018481638407DA042F3DC002015491639C4
:1003500048750EA001F09AFA15A001F097FA002452
:1003600007E010481538015D0FA001F08FFA601CFE
:10037000C4B20C4816380078A042F2DC00200949CB
:100380001639087001A001F081FA10BD0A0D0000B5
:1003900020B7A2CBCDB5C4C3FCC1EE203A20307843
:1003A00000000000660000202025303258000000C8
:1003B00020BDD3CAD5B5C4C3FCC1EE203A203078E5
:1003C000000000002DE9F041024600250026002033
:1003D00000230024002791F803C00CF00F0591F8CA
:1003E00003C00CF0100CBCF1000F03D091F802C058
:1003F0004CEA050591F800C0BCF1000F31D014683B
:1004000000202BE04FF0010C0CFA00F3B1F800C013
:100410000CEA03069E4220D183004FF00F0C0CFA29
:1004200003F7BC4305FA03FC4CEA040491F803C04B
:10043000BCF1280F06D14FF0010C0CFA00FCC2F8F9
:1004400014C00AE091F803C0BCF1480F05D14FF089
:10045000010C0CFA00FCC2F810C0401C0828D1D3D3
:100460001460B1F800C0BCF1FF0F34DD5468002007
:100470002EE000F1080C4FF0010808FA0CF3B1F877
:1004800000C00CEA03069E4221D183004FF00F0CFE
:100490000CFA03F7BC4305FA03FC4CEA040491F898
:1004A00003C0BCF1280F05D100F1080C08FA0CF8C4
:1004B000C2F8148091F803C0BCF1480F07D100F1D5
:1004C000080C4FF0010808FA0CF8C2F81080401C24
:1004D0000828CED35460BDE8F08100000EE0084942
:1004E000096881F48071064A1160002001E0411C16
:1004F00088B242F210718842F9DB00BFEFE70000DA
:100500000C08014000B585B00121052000F048FD30
:100510000121880300F044FD4FF40070ADF8100095
:1005200018208DF8130003208DF8120004A96648E6
:10053000FFF748FF4FF48060ADF8100004208DF8FD
:10054000130004A96048FFF73DFF4FF4E13000902D
:100550000020ADF80400ADF80600ADF80800ADF8D5
:100560000C000C20ADF80A006946584801F006F866
:10057000012240F22551554800F0DBFF012153488C
:1005800000F0A1FF4021514800F094FF0121052017
:1005900000F006FD0121480400F0F2FC0420ADF853
:1005A000100018208DF8130003208DF8120004A904
:1005B0004548FFF707FF0820ADF8100004208DF82C
:1005C000130004A94048FFF7FDFE04A93E48FFF7C9
:1005D000F9FE4FF4E13000900020ADF80400ADF8D2
:1005E0000600ADF80800ADF80C000C20ADF80A00CC
:1005F0006946374800F0C2FF012240F225513448D5
:1006000000F097FF0121324800F05DFF40213048A3
:1006100000F050FF0121082000F0C2FC10208DF8EE
:10062000130003208DF812004FF48050ADF8100035
:1006300004A92848FFF7C6FE0121092000F0B0FCFC
:100640000121880400F09CFC4FF48060ADF810009C
:1006500018208DF8130003208DF8120004A91D48FE
:10066000FFF7B0FE4FF40060ADF8100004208DF8E5
:10067000130004A91748FFF7A5FE04A91548FFF7C2
:10068000A1FE4FF4165000900020ADF80400ADF824
:100690000600ADF80800ADF80C000C20ADF80A001B
:1006A00069460D4800F06AFF012240F225510A48D0
:1006B00000F03FFF0121084800F005FF40210648F7
:1006C00000F0F8FE05B000BD000801400038014010
:1006D00000440040000C014000480040064800680B
:1006E00000F4005030B90448006800F4804008B1BC
:1006F000012070470020FCE7080C01400948006811
:1007000000F4005058B10748006800F4804030B948
:100710000448006800F4005008B101207047002030
:10072000FCE70000080C01400020704700207047E3
:1007300010B515484078042817D006DC01280BD0E6
:1007400002280CD003281CD10CE0052810D0062864
:1007500011D0102815D111E000F080F812E000F05F
:10076000B1F80FE000F0DCF80CE000F0FFF809E071
:1007700000F01EF906E000F02BF903E000F038F974
:1007800000E000BF00BF10BD7A00002010B5154882
:10079000007800B910BD002012490870124890F886
:1007A0004000042800DA0AE00F4890F84010FFF7F4
:1007B00059FD044604B102E0FFF7BAFF00BF0A4842
:1007C00090F8400009490870074890F84020014619
:1007D0000648401CFFF7C8FC0020034981F8400090
:1007E00000BFD7E7000000207A0000205000002062
:1007F0002DE9F04104460D46002620E02A46214618
:10080000012000F02FF901F055FB07460DE001F043
:100810005FFB384601F092FA642800DD06E00E48DE
:1008200090F8D100002800DD00E0F0E700BF0A48A2
:1008300090F8D100002800DD03E0701CC6B2012E44
:10084000DCDB00BF044890F8D10010B90020BDE8FF
:10085000F0810120FBE700007A00002070B5174806
:1008600090F84000002828DD14488578B0F8C600CC
:10087000A0F2011000BB082D1DD1104CE41C204635
:10088000FFF7E7FC0E498881A41C2046FFF7E1FC36
:100890000B49C881A41C2046FFF7DBFC08490882ED
:1008A000A41C2046FFF7D5FC05494882A41C012062
:1008B000024981F8CF0000BF00BF70BD7A00002060
:1008C0005001002070B5144890F84000002822DD47
:1008D00011488578B0F8C800A0F20120D0B9062DE3
:1008E00017D10D4CE41C2046FFF7B3FC0B49888060
:1008F000A41C2046FFF7ADFC0849C880A41C204674
:10090000FFF7A7FC05490881A41C0120024981F8D2
:10091000D00000BF00BF70BD7A0000205001002051
:1009200070B5104890F8400000281ADD0D48857811
:10093000B0F8CA00A0B9202D11D10A4CE41C204601
:10094000FFF787FC08490880A41C2046FFF781FCBC
:1009500005494880A41C0120E11F81F8D10000BF97
:1009600000BF70BD7A0000205001002070B50E4815
:1009700090F84000002816DD0B488478B0F8CC00D1
:10098000A0F2012070B9022C0BD1074DED1C2846B6
:10099000FFF75FFC05494881AD1C0120691F81F804
:1009A000D20000BF00BF70BD7A00002050010020BF
:1009B000064890F84000002806DD04480078012829
:1009C00002D1024981F8D300704700007A0000206C
:1009D000064890F84000002806DD04480078012809
:1009E00002D1024981F8D400704700007A0000204B
:1009F000064890F84000002806DD044800780128E9
:100A000002D1024981F8D500704700007A00002029
:100A100070B5044600200D49087040F22F150C4AAD
:100A20002946032001F01EFC0A4890F840004028A7
:100A30000ADA084890F8401090F84000401C054A37
:100A400082F840001046445470BD000000000020B1
:100A5000590A00087A0000200120014908707047F7
:100A60000000002070B506460C46154600202B49B4
:100A700081F8C400084690F8C41090F8C400401CE7
:100A8000264A82F8C40002F1440046540321443847
:100A900090F8C42090F8C400401C204B83F8C40098
:100AA00003F1440081542112443890F8C42090F896
:100AB000C400401C83F8C40003F14400815444384E
:100AC00090F8C42090F8C400401C83F8C40003F1DF
:100AD000440084542912443890F8C42090F8C4008B
:100AE000401C83F8C40003F144008154443890F85A
:100AF000C42090F8C400401C83F8C40003F14400F3
:100B0000855400F08FF80020044981F8D10081F865
:100B1000CE500846A0F8CA4070BD00007A00002000
:100B20002DE9F04107460D461446984600203C4901
:100B300081F8C400084690F8C41090F8C400401C26
:100B4000374A82F8C40002F1440047541021443867
:100B500090F8C42090F8C400401C314B83F8C400C6
:100B600003F1440081542912443890F8C42090F8CD
:100B7000C400401C83F8C40003F14400815444388D
:100B800090F8C42090F8C400401C83F8C40003F11E
:100B9000440085542112443890F8C42090F8C400D1
:100BA000401C83F8C40003F144008154443890F899
:100BB000C41090F8C400401C1A4682F8C40002F128
:100BC000440044546006010E104690F8C42090F88A
:100BD000C400401C83F8C40003F144008154002683
:100BE00016E00F4890F8C4003D2801DDBDE8F08113
:100BF00018F806100A4890F8C42090F8C400401C69
:100C0000074B83F8C40003F144008154701C86B282
:100C10006000B042E5DC00F005F800BFE6E7000048
:100C20007A00002010B51A4890F8C4104430FFF73D
:100C300019FB04462112164890F8C42090F8C4000D
:100C4000401C134B83F8C40003F144008154443822
:100C500090F8C42090F8C400401C83F8C40003F14D
:100C600044008454443890F8C410443000F014F820
:100C7000074890F8C40007494875054890F8C42013
:100C800000F1440103481630FFF76EFA10BD000072
:100C90007A0000205000002070B504460D46294619
:100CA000204600F01BFA70BD2DE9F04104460D46C8
:100CB0001646002721E033462A4621460120FFF749
:100CC0002FFF01F0F7F880460DE001F001F94046F2
:100CD00001F034F8642800DD06E00E4890F8D500F5
:100CE000002800DD00E0F0E700BF0A4890F8D500DA
:100CF000002800DD03E0781CC7B2012FDBDB00BF5A
:100D0000044890F8D50010B90020BDE8F08101201A
:100D1000FBE700007A00002000BFFEE770470000FC
:100D200070B5002100230F22C47804B3154C246849
:100D300004F4E064C4F5E064210AC1F10403CA408C
:100D4000447804FA03F184781440214309010E4CDD
:100D50000678A155047804F01F050124AC400578FD
:100D60006D11AD0005F1E025C5F8004109E00478FA
:100D700004F01F050124AC40044D0678761145F8B7
:100D8000264070BD0CED00E000E400E080E100E0F2
:100D900002490143024A1160704700000000FA0551
:100DA0000CED00E07047000010B517A000F06EFDDC
:100DB00016A000F06BFD25A12AA000F067FD2EA172
:100DC0002EA000F063FD32A134A000F05FFD0123EE
:100DD0000622032136A000F059FD43A000F056FD85
:100DE00043A000F053FD48A000F050FD4BA000F0E0
:100DF0004DFD51A000F04AFD57A000F047FD03A0B3
:100E000000F044FD10BD00000A0D00002A2A2A2A25
:100E10002A2A2A2A2A2A2A2A2A2A2A2A2A2A2A2A32
:100E20002A2A2A2A2A2A2A2A2A2A2A2A2A2A2A2A22
:100E30002A2A2A2A2A2A2A2A2A2A2A2A2A2A2A2A12
:100E40002A2A2A2A2A2A2A2A2A0A0D0056342D5208
:100E500053343835204D4F44425553D6F7D5BEC094
:100E6000FDB3CC002A20C0FDB3CCC3FBB3C6202009
:100E7000203A2025730D0A00312E30002A20C0FDB3
:100E8000B3CCB0E6B1BE2020203A2025730D0A0075
:100E9000323031362D30312D313100002A20B7A2C9
:100EA000B2BCC8D5C6DA2020203A2025730D0A002E
:100EB0002A20B9CCBCFEBFE2B0E6B1BE203A205633
:100EC00025642E25642E2564202853544D33324644
:100ED0003130785F5374645065726970685F447232
:100EE00069766572290D0A002A200A0D00000000AB
:100EF0002A205151202020203A20313239353734F0
:100F000034363330200D0A002A20CDFACDFA2020C5
:100F10003A2061726D666C790D0A00002A20456DD9
:100F200061696C203A2061726D666C794071712E36
:100F3000636F6D200D0A00002A20CCD4B1A6B5EA5B
:100F40003A2061726D666C792E74616F62616F2EEA
:100F5000636F6D0D0A0000002A20436F707972697B
:100F6000676874207777772E61726D666C792E636F
:100F70006F6D20B0B2B8BBC0B3B5E7D7D30D0A00D0
:100F800029B1064AD2690243044BDA6104E0034AFC
:100F9000D2698243014BDA617047000000100240C1
:100FA00029B1064A92690243044B9A6104E0034A5C
:100FB00092698243014B9A61704700000010024021
:100FC00030B500210022002400232D4D6D6805F06E
:100FD0000C0121B1042905D0082923D105E0294DB0
:100FE000056022E0274D05601FE0254D6D6805F482
:100FF0007012234D6D6805F48034022505EB924292
:101000001CB9214D554305600BE01D4D6D6805F47D
:1010100000351DB11C4D5543056002E0194D554387
:10102000056002E0174D056000BF00BF144D6D68FC
:1010300005F0F0010909154D6B5C0568DD40456060
:101040000F4D6D6805F4E061090A104D6B5C456851
:10105000DD4085600A4D6D6805F46051C90A0B4D8D
:101060006B5C4568DD40C560054D6D6805F4404129
:10107000890B074D6B5CC568B5FBF3F5056130BDA9
:101080000010024000127A0000093D0021000020FB
:101090003100002008B501210820FFF781FF03205F
:1010A0008DF8020010208DF803000002ADF800005A
:1010B00069460248FFF786F908BD0000000C0140B0
:1010C00010B504462046FFF7A3FC10BD4FF4805036
:1010D0000149086070470000100C014070B50446DB
:1010E0000D462A462146012001F020F970BD00007E
:1010F0004FF480500149086070470000140C014013
:10110000704710B500F002F810BD00000CB50020CB
:10111000019000903348006840F480303149086005
:1011200000BF3048006800F4003000900198401C77
:101130000190009818B90198B0F5A06FF1D1294835
:10114000006800F4003010B10120009001E00020A0
:1011500000900098012843D12348006840F0100017
:10116000214908600846006820F00300086008462E
:10117000006840F0020008601A4840681949486059
:101180000846406848600846406840F4806048600F
:101190000846406820F47C1048600846406840F4E7
:1011A000E81048600846006840F08070086000BFA2
:1011B0000C48006800F000700028F9D00948406829
:1011C00020F00300074948600846406840F00200EC
:1011D000486000BF0348406800F00C000828F9D1BF
:1011E0000CBD0000001002400020024010B500F0CD
:1011F00001F810BD10B51B48006840B119480068DF
:10120000401E1849086010B90120174908700024D1
:1012100008E004EB4401154A02EB810001F013F8E9
:10122000601CC4B2042CF4DB11480068401C104957
:101230000860084600686FF00041884202D1002033
:101240000B49086000F0FEFF0A480078401CC0B25D
:10125000084908700A2803DB0020087000F0EEFF40
:1012600010BD00000400002008000020701B0020BA
:101270000C0000202000002010B51348006840F04A
:1012800001001149086008464068104908400E49AD
:101290004860084600680E4908400B490860084647
:1012A000006820F4802008600846406820F4FE00B2
:1012B00048604FF41F008860FFF723FF4FF0006085
:1012C0000449086010BD0000001002400000FFF853
:1012D000FFFFF6FE08ED00E010B50221480700F020
:1012E0005BF858B10221480700F044F800220221BF
:1012F000480700F062F81B4800688047042108078F
:1013000000F04AF858B10421080700F033F8002231
:101310000421080700F051F81348006880470821AD
:10132000C80600F039F858B10821C80600F022F8C4
:1013300000220821C80600F040F80C4800688047E9
:101340001021880600F028F858B11021880600F016
:1013500011F800221021880600F02FF804480068D8
:10136000804710BD1000002014000020180000204D
:101370001C000020CA430282704721B1028842F05B
:101380000102028004E002884FF6FE731A400280D8
:1013900070470146888C704730B502460020002314
:1013A0000024158A05EA0103958905EA010413B1B1
:1013B0000CB1012000E0002030BD1AB183890B433D
:1013C000838102E083898B438381704781867047E4
:1013D0000187704781877047A0F840107047000070
:1013E000002202881D4B98420ED01D4B98420BD014
:1013F000B0F1804F08D01B4B984205D01A4B984251
:1014000002D01A4B984204D14FF68F731A404B8882
:101410001A43174B984207D0164B984204D04FF608
:10142000FF431A40CB881A4302808B8883850B8840
:1014300003850A4B98420BD0094B984208D00E4BBB
:10144000984205D00D4B984202D00D4B984201D1E5
:101450000B7A03860123838270470000002C014031
:10146000003401400004004000080040000C00402F
:1014700000100040001400400040014000440140C2
:101480000048014010B5024800F0EEF810BD000021
:10149000F802002010B5024800F0E6F810BD000088
:1014A000200B002010B5024800F0DEF810BD00004F
:1014B0004813002001F40072B2F5007F00D100BF94
:1014C000CA430280704721B1828942F4005282816E
:1014D00004E082894DF6FF731A408281704770B52F
:1014E0000246002400230025002040F66A16B1427F
:1014F00000D100BFC1F3421501F01F03012606FA17
:1015000003F3012D02D19689334006E0022D02D16A
:10151000168A334001E0968A33400C12012606FAFF
:1015200004F41688344013B10CB1012000E000200F
:1015300070BDF0B50346002400260025002040F6CB
:101540006A17B94200D100BF1846C1F3421401F036
:101550001F06012707FA06F5012C01D10C3004E023
:10156000022C01D1103000E014301AB107682F436B
:10157000076002E00768AF430760F0BD2DE9F04760
:1015800086B005460E460024A24600BFA1460027AD
:10159000B08900B100BF2F462C8A4CF6FF70044082
:1015A000F08804432C82AC894EF6F3100440B088D6
:1015B00031890843718908430443AC81AC8A4FF6F2
:1015C000FF400440B0890443AC8201A8FFF7F8FC57
:1015D0001F48874202D1DDF810A001E0DDF80CA021
:1015E000A88900F4004040B10AEBCA0000EB0A10E1
:1015F00031684900B0FBF1F807E00AEBCA0000EBE4
:101600000A1031688900B0FBF1F86420B8FBF0F0F3
:1016100004012009642101FB1089A88900F400401D
:1016200040B1322000EBC900B0FBF1F000F0070040
:10163000044308E0322000EB09106421B0FBF1F014
:1016400000F00F0004432C8106B0BDE8F0870000D5
:101650000038014001468888C0F308007047C1F394
:10166000080282807047704770B5044640F22551E9
:101670002068FFF734FFE0B12068FFF7EBFFC5B249
:10168000E18AA0684554E08A401C80B2E082E1898A
:10169000884201DB0020E082608BE189884202DA27
:1016A000608B401C6083606A10B12846616A88477D
:1016B00000BF40F227712068FFF711FF08B3A08A2E
:1016C00060B9002240F227712068FFF732FF012243
:1016D00040F226612068FFF72CFF37E0638A6268DA
:1016E000D15C2068FFF7BBFF608A401C80B260823B
:1016F000A189884201DB00206082A08A401EA0826E
:1017000024E040F226612068FFF7E9FEF0B1A08AEC
:1017100050B9002240F226612068FFF70AFF206AD4
:10172000A0B1206A804711E0638A6268D15C2068BA
:10173000FFF795FF608A401C80B26082A1898842D1
:1017400001DB00206082A08A401EA08270BDF8B537
:1017500004460E461746002529E00EE0012000F061
:10176000B4F8A08A0090002000F0AFF8A089BDF87E
:101770000010884200DD01E000BFEFE700BF705DB0
:10178000228A61688854012000F09FF8208A401C5A
:1017900080B22082A189884201DB00202082A08AB9
:1017A000401CA082002000F090F8681C85B2BD4269
:1017B000D3DB012240F227712068FFF7BAFEF8BDA3
:1017C00022482349086023484860234888604FF432
:1017D00080608881C881002008824882C88208838E
:1017E00048838882C861086248621C481C490860B6
:1017F0001C4848601C4888604FF480608881C8811C
:10180000002008824882C88208834883888217485B
:10181000C8611748086217484862174817490860A6
:1018200017484860174888604FF480608881C881F5
:10183000002008824882C8820883488388820B4837
:10184000C8610B4808620B48486270470038014085
:10185000F802002020030020200700200044004060
:10186000200B0020480B0020480F0020CD1000085E
:10187000F1100008C1100008004800404813002083
:10188000701300207017002000BFFEE70FB4054B57
:1018900010B503A9044A029800F01EF810BC5DF8C8
:1018A00014FB00006B2300084C00002002E008C875
:1018B000121F08C1002AFAD170477047002001E0CA
:1018C00001C1121F002AFBD1704780F310887047B6
:1018D00080F31088704700002DE9FF4F8DB00F4650
:1018E0000546002606E025280BD0DDE90F129047BB
:1018F0006D1C761C28780028F5D111B03046BDE863
:10190000F08F0024A246A1460122EC4900E00443E6
:1019100015F8013F203B02FA03F00842F7D128787E
:101920002A2810D06FF02F022878A0F13001092961
:1019300014D80AEB8A0102EB410144F0020400EBE7
:10194000010A6D1CF0E701CF5FEA000A03D544F4F9
:101950000054CAF1000A44F002046D1C28782E28B5
:1019600017D115F8010F44F004042A280ED06FF0A7
:101970002F022878A0F1300109290AD809EB890142
:1019800002EB410100EB01096D1CF2E757F8049BE3
:101990006D1C28786C280FD006DC4C2817D06828DE
:1019A0000DD06A2814D104E0742810D07A280FD101
:1019B0000DE044F400140AE044F4801401E044F41F
:1019C00040146978814202D104F580146D1C6D1CAD
:1019D0002A786E2A1FD00CDC632A31D004DC002A5E
:1019E0008BD0582A11D1A3E0642A68D0692A0CD17F
:1019F00065E0732A2ED004DC6F2A73D0702A04D1DC
:101A00009BE0752A6FD0782A6ED01046DDE90F1260
:101A10009047761C50E1C4F30250022806D00328F8
:101A200009D0042801CF09D0066045E101CFF117A4
:101A3000C0E9006140E101CF06803DE106703BE175
:101A400017F8040B8DF8000000208DF80100EB461C
:101A5000012003E057F804BB4FF0FF3061074FF05F
:101A6000000102D40DE008F10101884649450FDA72
:101A70008045F8DB1BF808100029F4D108E008F1D4
:101A8000010188468142FADB1BF808100029F6D1D3
:101A9000DDE90F23AAEB08008146214600F036F964
:101AA000304400EB080604E0DDE90F121BF8010BDF
:101AB0009047B8F10108F7D221464846F7E00A21DD
:101AC000C4F302534FF0000B0891022B04D001CF56
:101AD000C117032B09D00AE0FF1D27F00707F7E81D
:101AE000020108E032E01FE020E000B2C117042B41
:101AF00001D140B2C117031E71F1000307DA4FF0A4
:101B0000000CD0EB0C006CEB01012D2302E023054F
:101B100004D52B238DF82430012303E0E30701D003
:101B20002023F7E7984658E00A2110E010210EE044
:101B300010204FF0000B08900CE010214FF0000B2C
:101B400044F004044FF00809089103E008214FF025
:101B5000000B0891C4F30253022B04D001CF0021E3
:101B6000032B06D006E0FF1D27F00707F7E8020168
:101B700003E080B2042B00D1C0B24FF0000823076D
:101B80002BD5702A07D0DDF820C08CF0100C5CEA51
:101B90000B0C05D00EE040238DF82430012308E023
:101BA00050EA010306D030238DF824308DF825202B
:101BB00002239846DDF820C08CF0080C5CEA0B0C80
:101BC0000BD150EA010301D1630706D530238DF80C
:101BD00024304FF00108A9F10109582A04D038A295
:101BE0000B9208AA0A920BE03AA2F9E75B46089A20
:101BF000FEF7CCFA0B9B9B5C0A9A521E0A9213705A
:101C000050EA0102F2D10A98ADEB000000F1200B7E
:101C1000600702D524F4803401E04FF00109D94572
:101C200002DDA9EB0B0000E0002000EB0B014144BA
:101C30000890AAEB010AE00306D4DDE90F23214650
:101C4000504600F063F806444FF0000908E009A987
:101C500011F80900DDE90F12904709F10109761C1E
:101C6000C145F4DBE0030CD5DDE90F2321465046E6
:101C700000F04CF8064404E0DDE90F1230209047F4
:101C8000761C0899481E08900029F5DC08E00A989F
:101C90000A990078491C0A91DDE90F129047761CD9
:101CA000BBF10001ABF1010BF1DC21465046DDE94F
:101CB0000F2300F019F806446D1C1BE609280100EB
:101CC00030313233343536373839616263646566B2
:101CD0000000000030313233343536373839414274
:101CE00043444546000000002DE9F041044600252C
:101CF0001E461746880404D405E039462020B04724
:101D00006D1C641EF9D52846BDE8F0812DE9F0412F
:101D1000044600251E469046C80301D5302700E042
:101D20002027880404D505E041463846B0476D1C9D
:101D3000641EF9D52846BDE8F081000070B5044660
:101D40000120FFF7C5FD074806680020FFF7C0FD2A
:101D5000A64201DB351B03E06FF00040001B851934
:101D6000284670BD0C00002070B50546304800EBD9
:101D700005142068804700283ED02079052802DA23
:101D80000520207152E020790A2803DA2079401CCE
:101D900020714BE0A07A38B90120A07205EB450113
:101DA000491CC8B200F01EFA208900283EDDE088F8
:101DB000218988420DDAE088401C80B2E0802189C8
:101DC000884233D105EB4501C91CC8B200F00AFABC
:101DD0002CE0E07A002829DD207B401CC0B2207373
:101DE000E17A884222DB0020207305EB4501491C83
:101DF000C8B200F0F7F919E02079052802DD0520C6
:101E0000207110E0207918B12079401E20710AE07D
:101E1000A07A012807D10020A07205EB4501891C9A
:101E2000C8B200F0DFF90020E080207370BD000030
:101E3000A80200200B48807A0A4AD27A904201D147
:101E4000002070470748807A064A115C1046807A65
:101E5000401CC0B290720A2801DB00209072084634
:101E6000EFE70000E80200200146114890F8400129
:101E70000F4B93F84131984201D1002070470C4834
:101E800090F840010A4B03EBC002184690F840015D
:101E9000401CC0B283F84001282802DB002083F8F0
:101EA000400110880880506848600120E6E7000083
:101EB0006401002010B50120FFF70AFD0348046803
:101EC0000020FFF705FD204610BD00000C0000209B
:101ED00010B5FEF75BFC10BD10B54FF44070FEF777
:101EE00057FF00F04DF900F0C5F800F037F800F0AA
:101EF000F7F810BD7FB501210846FFF741F81548F6
:101F0000006846081448B6FBF0F085B24FF6FF743F
:101F1000ADF80840ADF804500020ADF80A00ADF867
:101F2000060001A94FF08040FFF75AFA0121880707
:101F3000FFF723FA1C208DF8000004208DF8010023
:101F400000208DF8020001208DF803006846FEF79E
:101F5000E7FE7FBD3800002040420F0010B500F0C2
:101F600051F800F001F810BD08B501210820FFF775
:101F700017F803208DF8020004208DF80300C0023A
:101F8000ADF8000069461E48FEF71CFA4FF4804089
:101F9000ADF8000069461A48FEF714FA4FF40050F5
:101FA000ADF8000069461648FEF70CFA4FF40050F1
:101FB000ADF8000069461248FEF704FA4FF40050ED
:101FC000ADF8000069460E48FEF7FCF94FF40050EA
:101FD000ADF8000069460A48FEF7F4F94FF40050E6
:101FE000ADF8000069460648FEF7ECF94FF40050E2
:101FF000ADF8000069460248FEF7E4F908BD0000AC
:10200000000C01400021154A9172D1721173002019
:1020100018E06421124A02EB001211810221104AD9
:1020200002EB0012117100210D4A02EB00129172B5
:102030000B4A02EB0012D172094A02EB0012117333
:10204000411CC8B20428E4DB0649054A1160064970
:10205000116106491162064911637047E8020020C8
:10206000A8020020DD060008FD0600082907000878
:102070002D07000808B501210420FEF791FF01207B
:1020800000F094F8022000F091F8032000F08EF8A0
:10209000042000F08BF803208DF8020010208DF84A
:1020A00003002020ADF8000069460C48FEF78AF9CD
:1020B0002020ADF8000069460848FEF783F920208B
:1020C000ADF8000069460548FEF77CF92020ADF820
:1020D000000069460148FEF775F908BD0008014097
:1020E00070B5002416E0002004EB4401204A02EB06
:1020F0008101486004EB440102EB8101886004EB3C
:10210000440102EB8101487004EB440102F8210014
:10211000601CC4B2042CE6DB164800684FF47A72E7
:10212000B0FBF2F1B1F1807F00D31DE021F07F40E0
:10213000401E4FF0E022506150170F22002807DAAE
:1021400013071E0E0C4B00F00F052D1F5E5503E00C
:1021500013071D0E094B1D5400BF00204FF0E02255
:1021600090610720106100BFFFF7C4FE70BD000042
:10217000701B00203800002018ED00E000E400E0B3
:1021800010B5FFF71DFBFEF7BDF9FEF783FFFEF765
:10219000A1F810BD10B5002404E02046FFF7E4FDCF
:1021A000601CC4B2042CF8DB10BD0000411EC8B294
:1021B00018B920210A4A116010E0012803D120211A
:1021C000074A11600AE0022803D12021044A116065
:1021D00004E0032802D12021014A11607047000069
:1021E000100801400649C97A054A50541146C97A77
:1021F000491CC9B2D1720A2901DB0021D172704792
:10220000E80200200C4A92F841210B4B23F83200DF
:102210001A4692F8412103EBC20251601A4692F825
:102220004121521CD2B283F84121282A02DB00222C
:1022300083F84121704700006401002010B5FFF7CA
:10224000A9FF10BD7047416851B14168491E416006
:1022500031B9012141700178012901D181684160C2
:10226000704700002DE9F04104460F461546052F42
:1022700000D37F1F4FF08040FFF78BF8804608EBBC
:102280000706012C0FD125480560B1B2A007FFF762
:102290009DF802214807FFF76DF801220221480747
:1022A000FFF78BF838E0022C0FD11D480560B1B262
:1022B0006007FFF78DF804210807FFF75BF801229C
:1022C00004210807FFF779F826E0032C10D1154800
:1022D0000560B1B24FF08040FFF77CF80821C806D6
:1022E000FFF748F801220821C806FFF766F813E057
:1022F000042C0FD10C480560B1B22007FFF76CF831
:1023000010218806FFF736F8012210218806FFF712
:1023100054F801E0BDE8F08100BFFBE710000020A9
:1023200014000020180000201C0000202DE9F041BE
:1023300005460E4617462846FDF7B0FF04460CB981
:10234000BDE8F081E06908B1E06980473A4631466E
:102350002046FFF7FCF900BFF2E713B5044601225F
:1023600001A92046FFF7E2FF1CBD70B504460D46EB
:10237000E1B20020FFF7F1FF204670BD86B00124D6
:10238000FFF7AAFDFEF710FDFDF7CAFF51E0FFF7CA
:102390009FFD04A8FFF768FD40B1BDF810000828B4
:1023A00002D1FDF7BDFF00E000BF00BFFFF742FD17
:1023B0000546002D3DD0601CC4B200210820FFF767
:1023C00021FF012D02D0042D31D128E08DF80040ED
:1023D0008DF801408DF802408DF803408DF80440DF
:1023E0008DF805408DF806408DF807408DF80840BF
:1023F0008DF809408DF80A408DF80B408DF80C409F
:102400008DF80D408DF80E408DF80F406A4608217A
:102410000020FEF749FC07A0FFF738FA08E0082182
:102420000020FEF7E5F907A0FFF730FA00E000BF53
:1024300000BFACE76B312070726573736564200D6B
:102440000A0000006B322070726573736564200DA2
:102450000A00000000C1814001C0804101C08041EC
:1024600000C1814001C0804100C1814000C1814064
:1024700001C0804101C0804100C1814000C1814054
:1024800001C0804100C1814001C0804101C0804144
:1024900000C1814001C0804100C1814000C1814034
:1024A00001C0804100C1814001C0804101C0804124
:1024B00000C1814000C1814001C0804101C0804114
:1024C00000C1814001C0804100C1814000C1814004
:1024D00001C0804101C0804100C1814000C18140F4
:1024E00001C0804100C1814001C0804101C08041E4
:1024F00000C1814000C1814001C0804101C08041D4
:1025000000C1814001C0804100C1814000C18140C3
:1025100001C0804100C1814001C0804101C08041B3
:1025200000C1814001C0804100C1814000C18140A3
:1025300001C0804101C0804100C1814000C1814093
:1025400001C0804100C1814001C0804101C0804183
:1025500000C1814000C0C101C30302C2C60607C753
:1025600005C5C404CC0C0DCD0FCFCE0E0ACACB0BC3
:10257000C90908C8D81819D91BDBDA1A1EDEDF1FF3
:10258000DD1D1CDC14D4D515D71716D6D21213D3E3
:1025900011D1D010F03031F133F3F23236F6F73793
:1025A000F53534F43CFCFD3DFF3F3EFEFA3A3BFB83
:1025B00039F9F83828E8E929EB2B2AEAEE2E2FEF33
:1025C0002DEDEC2CE42425E527E7E62622E2E323A3
:1025D000E12120E0A06061A163A3A26266A6A767D3
:1025E000A56564A46CACAD6DAF6F6EAEAA6A6BAB43
:1025F00069A9A86878B8B979BB7B7ABABE7E7FBF73
:102600007DBDBC7CB47475B577B7B67672B2B37362
:10261000B17170B050909151935352929656579712
:10262000559594549C5C5D9D5F9F9E5E5A9A9B5B02
:1026300099595898884849894B8B8A4A4E8E8F4FB2
:102640008D4D4C8C44848545874746868242438322
:1026500041818040742600080000002050000000E6
:10266000AC180008C426000850000020509B000051
:10267000BC1800080000000000000000000000007E
:10268000000000000000000000000000000000004A
:10269000000000000000000000010203040102032A
:1026A00004060708090204060800000000A24A0404
:1026B00000000000000000000102030406070809F2
:0426C0000000000016
:0400000508000131BD
:00000001FF
