:020000040800F2
:10000000C09D0020214F0008254D0008274D000805
:100010004D4D00084F4D0008514D000800000000F4
:10002000000000000000000000000000534D000828
:10003000554D000800000000574D0008192D00081C
:10004000A94F0008AD4F0008B14F0008B54F000898
:10005000B94F0008BD4F0008C14F0008C54F000848
:10006000C94F0008CD4F0008D14F0008D54F0008F8
:10007000D94F0008DD4F0008E14F0008E54F0008A8
:10008000E94F0008ED4F0008F14F0008F54F000858
:10009000594D0008FD4F00080150000805500008A8
:1000A000095000080D5000081150000815500008B4
:1000B0006D2E00081D500008215000082550000832
:1000C000295000082D500008315000083550000814
:1000D0003950000857350008613500086B350008B5
:1000E000495000084D500008515000085550000874
:1000F000595000085D500008615000086550000824
:10010000695000086D5000087150000875500008D3
:10011000795000087D500008815000088550000883
:10012000895000088D500008915000089550000833
:100130002DE9F04FA5B0804615461E460FF2D85067
:10014000D0E90023CDE91223049104AF00207862A6
:1001500014AC6FF0004900E055440020ADF80200F7
:1001600012AB4FF0FF3229460DF1020001F035F8D5
:100170008246BAF1010F08DA2878B0F1010A6AEB79
:100180000A0A6FEA0A004FEAD07ABDF80200252871
:100190000CBFAAF101035346012B07DB2A4602A933
:1001A000404600F0F5FF002800F1EB80BDF80200AA
:1001B000252807D10020F86038617861B861F861BE
:1001C000386205E00028C7D1786ADCE040F0010021
:1001D00015F8011F2029F9D023290ED02B2904D08E
:1001E0002D2906D030290CD00FE040F0020080B25B
:1001F000EEE740F0040080B2EAE740F0080080B289
:10020000E6E740F0100080B2E2E72A290DD131681C
:100210000A1D32600968F962002904D54942F96271
:1002200040F0040080B26D1C11E00021F96209E089
:10023000F96A494505D001EB810302EB43013039EE
:10024000F9626D1C2A78A2F130010A29F0D32978CD
:100250002E291CBF4FF0FF31B9621CD115F8011FC8
:100260002A2906D131680A1D32600968B9626D1CFD
:1002700011E00021B96209E0B96A494505D001EBF6
:10028000810302EB43013039B9626D1C2A78A2F177
:1002900030010A29F0D3388629780FF2844000F023
:1002A000C3FF08B115F8010B8DF842009DF842001C
:1002B000682804D1287868280AD1622005E06C28D3
:1002C00004BF28786C2803D171208DF842006D1C82
:1002D00014A8B8602A781046253828D01C3800F0B9
:1002E0008B80001F022840F28780133800F0B08016
:1002F000093800F08180801E00F04A81401E00F025
:10030000F080401E022877D9001F00F0EA80401FCD
:1003100047D0401E00F09C80401E37D0C01E0CD03D
:10032000801E00F09580C01E00F0928051E1F868B8
:10033000411CF9602521015555E19DF842006C28CA
:10034000306814D0011D316000687860BA6A002AF4
:1003500003D500F085FF386145E1002100F09CFFE6
:1003600000281ABF7968401AB86A38613BE1011D5C
:100370003160026802A9404600F0D6F9002840F139
:1003800032814FF0FF3025B0BDE8F08F3068011D9D
:10039000316000680021CDE9020114A8786078215D
:1003A000F2E09DF84200622818D0682806D06A283A
:1003B0000BD06C2819D0712807D016E03068011DC9
:1003C0003160796A006801800DE13268101D30608B
:1003D000786AC1171268C2E9000104E13068011DA2
:1003E0003160796A00680170FDE03068011D31609C
:1003F000796A00680160F6E03068C01D20F00700EF
:100400003060034603F108003060D3E90001CDE914
:100410000201002904D5F868411CF9602D210DE086
:10042000388E810704D5F868411CF9602B2105E05E
:10043000C00704D5F868411CF96020210155F8680F
:1004400014A940187860114602A800F06DFBCAE0BC
:100450009DF842306C2B08BF306811D0712B08BF5B
:10046000306802D06A2B30680AD1C01D20F0070026
:10047000306084460CF108003060DCE9000103E0E4
:10048000011D316000680021CDE90201682B04BF25
:10049000DDE9020180B20BD0622B04BFDDE902016D
:1004A000C0B205D0742B18BF7A2B04D1DDE902014C
:1004B0000021CDE9020197F8300000075FD5DDE9A2
:1004C0000201002908BF002859D042F020007828F6
:1004D00055D1F86830210155401C411CF960025586
:1004E0004DE09DF8420062280CD0682810D06A28A0
:1004F0001AD06C2824D0712816D0742820D07A28DD
:100500000CD01DE03068011D316090F900001BE047
:100510003068011D3160B0F9000015E03068011D40
:1005200031600068002110E03068C01D20F0070035
:100530003060034603F108003060D3E9000104E0B5
:100540003068011D31600068C117CDE90201DDE9A5
:100550000201002904DAF868411CF9602D210DE040
:10056000388E810704D5F868411CF9602B2105E01D
:10057000C00704D5F868411CF96020210155F868CE
:1005800014A940187860114602A800F03AFA2AE04F
:100590009DF842006C2808D0F868411CF960316869
:1005A0000A1D3260096801551DE03068011D316087
:1005B0000068ADF804000020ADF806004FF0FF30F1
:1005C000B86201AA02A9404600F0AEF800280AD598
:1005D000D7E6F868411CF960252101551AB1F86881
:1005E000411CF96002556D1CF86AF968401AB96936
:1005F000401A3969401AF969401A7969401A396A0A
:10060000A0EB010A97F83000400712D420208DF8A3
:100610000000BAF1010F0CDBD346012300AA02A9A6
:10062000404600F0B5FD00287FF4ABAEBBF1010BF6
:10063000F3D1FB6814AA02A9404600F0A9FD0028E6
:100640007FF49FAE30208DF80000D7F818B0BBF1D2
:10065000010F0BDB012300AA02A9404600F098FD20
:1006600000287FF48EAEBBF1010BF3D13B697A68B1
:1006700002A9404600F08CFD00287FF482AE3020B5
:100680008DF80000D7F81CB0BBF1010F0BDB012384
:1006900000AA02A9404600F07BFD00287FF471AE5D
:1006A000BBF1010BF3D17B6938697968421802A963
:1006B000404600F06DFD00287FF463AE30208DF8D9
:1006C0000000D7F820B0BBF1010F0BDB012300AA1B
:1006D00002A9404600F05CFD00287FF452AEBBF159
:1006E000010BF3D197F8300040077FF536AD20209D
:1006F0008DF80000BAF1010FFFF62FAD012300AA1B
:1007000002A9404600F044FD00287FF43AAEBAF159
:10071000010AF3D121E50000000000000000000004
:10072000686A6C747A4C00002DE9F04F95B08346EE
:100730000F461446D7F830A0BAF1000F48BF6FF04B
:10074000004A00F0D5FD796B401801900FF6702239
:10075000D2E90001CDE9020197F83800400702D440
:100760000198412805D20DF1100940200190002583
:100770000AE000F0C3FD8146B9F1000FF7D14FF058
:10078000FF303BE1AAEB080ABAF1010FC0F2A980E1
:1007900002AA21880DF1010000F00EFE5FEA0008B8
:1007A00000F1BF80208818B9B8F1010800F1B980C4
:1007B000C245C0F296807869019908EB0002914227
:1007C00080F080807D634042396A401AB969401ADE
:1007D000796A401AF969401AB96A451A97F83800D7
:1007E000400710D420208DF80000012D0BDB2E4691
:1007F000012300AA3946584600F0CAFC002840F000
:100800009080761EF4D17B694A463946584600F0FE
:10081000BFFC002840F0858030208DF800003E6A43
:10082000012E09DB012300AA3946584600F0B0FC2E
:10083000002876D1761EF5D1BB69FA68394658464C
:1008400000F0A6FC00286CD130208DF800007E6AF4
:10085000012E09DB012300AA3946584600F098FC16
:1008600000285ED1761EF5D1FB69B869F968421897
:100870003946584600F08CFC002852D130208DF8C3
:100880000000BE6A012E09DB012300AA3946584642
:1008900000F07EFC002844D1761EF5D197F8380090
:1008A00040070DD520208DF80000012D08DB012325
:1008B00000AA3946584600F06BFC90BB6D1EF6D17D
:1008C00000257D6142460DF101017869484400F040
:1008D00081FD78694044786134F8020B00287FF488
:1008E00051AF786B7969401A396A401AB969401A70
:1008F000796A401AF969401AB96AA0EB010897F8B9
:100900003800400712D420208DF80000B8F1010F04
:100910000CDB4446012300AA3946584600F038FC57
:1009200010B14FF0FF3562E0641EF3D17B694A4697
:100930003946584600F02CFC0028F2D130208DF8C2
:1009400000003C6A012C09DB012300AA3946584605
:1009500000F01EFC0028E4D1641EF5D1BB69FA68E2
:100960003946584600F014FC0028DAD130208DF8C2
:1009700000007C6A012C09DB012300AA3946584695
:1009800000F006FC0028CCD1641EF5D1FB69B869E3
:10099000F96842183946584600F0FAFB0028C0D1E1
:1009A00030208DF80000BC6A012C09DB012300AA6D
:1009B0003946584600F0ECFB0028B2D1641EF5D150
:1009C00097F83800400710D520208DF80000B8F1C6
:1009D000010F0ADB012300AA3946584600F0D8FB74
:1009E00000289ED1B8F10108F4D17D617D6304A88F
:1009F00081451CBF484600F029FD284615B0BDE8DA
:100A0000F08F2DE9FA4B86B005462F696F2908BF94
:100A1000082605D041F02000782814BF0A261026A9
:100A20003C24D5E9000181468B469DF81820642AB4
:100A300018BF692A05D1002903DAD9F100096BEB47
:100A40004B0BBBF1000F08BFB9F1000F0CD1286BA5
:100A500050B9082E44D195F83800000740D53B2402
:100A6000302087F83B003BE0A4F101084446F01732
:100A7000CDE9046048465946DDE9042300F02AFD2B
:100A8000CDE90201CDE9009BDDE90223DDE90401A6
:100A9000A0FB029BDDE90001A0EB09003030C0B2F1
:100AA0003A2803D39DF818105139081808F80700A0
:100AB000DDE9029BBBF1000F08BFB9F1000F03D0C5
:100AC000E868E1198842CFD3082E09D195F838009B
:100AD000000705D5E05D302802D0641E3020E055C7
:100AE000C4F13C00A861E119E960296B884207DA8A
:100AF000081A2862288F4FF6EF710840288710E007
:100B000000290ED595F8381001F01401102908D1EC
:100B1000696B6A69891A2A6A891A0C1A012CA8BF9A
:100B20002C6208B0BDE8F08B2DE9F24F8EB005467F
:100B300004AFD5E90001CDE902019DF8380040F08D
:100B400020008DF8000061280BD0286B002848BFDA
:100B5000062005D404BF9DF80000672801D10120BC
:100B600028636968C1F30A5040F2FF7398421CD1B0
:100B7000080304BF2868002809D10320A8619DF854
:100B8000380061381A2837D30FF2486108E0032093
:100B9000A8619DF8380061381A282AD30FF22C6119
:100BA0000322E86800F016FCBBE1010017D12846DB
:100BB00000F007FD012812DB002400209DF8001042
:100BC000612920D1E968302201F8012B4A1CEA6032
:100BD0009DF83820612A0CBF782258220FE040F29D
:100BE000FE316A6861F31E526A60441A4FF0FF30AA
:100BF000E4E70FF2D451D3E70FF2D451D0E70A70F3
:100C00006969891C696110B90026B0467FE19DF8C9
:100C10000000612840F09780286B00284CBF2126F7
:100C2000461C36B2771CD5E900ABDDE90201002293
:100C3000002300F0E9FC3ABF8BF00040CDE902A0B0
:100C4000CDE902ABA4F104088DF810200DF11109D3
:100C5000012F33DBDDE902010022002300F0ECFC70
:100C60002CD21C2102A800F0FFFCDDE9020100F0FB
:100C700089FD0446FF1F012F09DB00F0AFFD02468E
:100C80000B46DDE9020100F0C1FDCDE9020109F2E8
:100C90000700072104E004F00F0200F8012D2411E1
:100CA000012C01DB491EF6D5491E5CBF002200F86D
:100CB000012DF9D500F20709012FCBDA0DF1110052
:100CC000A9EB00010DF11107B142B8BF0E4636B2D3
:100CD000002E31D43046884206DA04A941184978FA
:100CE000082928BF0F2100D2002104AA821800E0A1
:100CF000761E401E12F801398B42F9D00F2904D11B
:100D000004A941184A78521C4A70002803D504AF40
:100D1000761C08F1040836B2701E0DD4C1190A7889
:100D20003032D2B23A2A03D39DF838303A3B9A187F
:100D300001F80129401EF2D5286B002840F1E78018
:100D4000701E2863E3E0DDE902010022002300F0C9
:100D50005BFC05D2DDE9020181F00041CDE9020131
:100D600024B247F2975060436F4990FBF1F80FFAB5
:100D700088F8C8F107040027DFF8B091012C19DBCF
:100D8000DDE902ABE00707D5504659463A464B46E7
:100D900000F0FCFD82468B466410384649463A46D0
:100DA0004B4600F0F3FD07468946002CEAD1CDE919
:100DB00002AB21E064429246DFF874B114D0E00740
:100DC00007D5504659463A464B4600F0DFFD82466D
:100DD0008B466410384649463A464B4600F0D6FDED
:100DE00007468946002CEAD1DDE9020152465B46FE
:100DF00000F09EFECDE902019DF8000066280CBFC0
:100E000008F10A000620296B4618142EA8BF1326E5
:100E100030208DF810000DF11104464F012E33DB08
:100E2000DDE9020100F0C4FC04F1080104220A24F7
:100E3000B0FBF4F303EB830EA0EB4E00303001F86F
:100E4000010DB3FBF4F000EB8004A3EB440330335B
:100E500001F8013D521EEAD101F10804083E012EBD
:100E6000DCDBDDE9020100F0A3FC00F0C1FC02467E
:100E70000B46DDE9020100F0C9FC00223B4600F010
:100E800085FDCDE90201CBE70DF11100201A0DF12E
:100E900011079DF81110302906D1401EA8F1010854
:100EA00017F8011F3029F8D09DF80010662904BFFB
:100EB0000FFA88F808F1010103D065290CBF012160
:100EC00000212A6B8E1836B2B042B8BF064636B241
:100ED000002E1CD43146814204DAC85D352828BF73
:100EE000392000D23020CA19521E00E0761E491E59
:100EF00012F801398342F9D0392802D1C85D401C6B
:100F0000C855002903D57F1E761C08F101080FFA89
:100F100088F0009033B23A469DF83810284600F029
:100F20000BF80FB0BDE8F08FA08601000000244050
:100F30000000F03F84D797412DE9F04786B0064680
:100F40008A4690461C46BDF9385000F032FF406A90
:100F500090F80090376B012C02DA01240FF2782808
:100F60004AF02000662807D067287AD16FF0030185
:100F70008D427CDBBD427ADA6D1C66280AD096F879
:100F80003800000702D4BC42B8BF27462DB27F1BF1
:100F900048BF0027F068B1692DB2012D21DA4A1C43
:100FA00030230B54012F03DA96F83810090702D5C5
:100FB00002F80090521CB261EF42B8BF7D422DB2E0
:100FC00069427162EF19A742B8BF3C4624B2F4618E
:100FD00022464146B369181800F0FCF9381BB0628C
:100FE000BFE00818AC4216DA2246414600F0F2F99A
:100FF000B1696118B161281B7062012F03DA96F89C
:101000003800000705D5F06801F80090F069401C31
:10101000F061B762A5E02A46414600F0DBF9B0690D
:101020002818B061641B012F03DA96F838100907FD
:1010300004D5411CB161F16800F8019024B2A742C7
:10104000B8BF3C4624B2224605EB0801B069F368FC
:10105000C01800F0BFF9B0692018B061381B706289
:101060007FE0BAF1610F14D14FF0700A16E0BC4274
:1010700004DA96F83810090758BF27467F1E48BF84
:101080000027BAF1670F14BF4FF0450A4FF0650A09
:1010900004E0BAF1410F08BF4FF0500AB1694A1C91
:1010A000F06818F8013B0B54012F03DA96F838105A
:1010B000090702D502F80090521CB261012F10DB23
:1010C000641E24B2A742B8BF3C4624B22246414621
:1010D000B369181800F07EF9B0692018B061381BA8
:1010E0007062B069F16800EB010808F801AB002DEF
:1010F0005CBF2B2008F8010B03D52D2008F8010B4D
:101100006D42002402AF2DB2012D0EDB0A222946CA
:1011100000A800F067FE019807F8010B009D641C11
:101120002DB2012DF2DA022C06DA4AF020006528F1
:1011300004BF302008F8010B1CB9302008F8010B5F
:1011400009E0012C07DB641E02A8205C303008F89F
:10115000010B012CF7DAB069F1684018A8EB000028
:10116000F06196F8380000F0140010280DD1706975
:10117000B1690818716A0818F1690818B16A081885
:10118000716B8842BCBF081A306206B0BDE8F087B8
:10119000F8B504460D4616461F46002077B116F8EE
:1011A000011BA868A047A86030B1E86A401CE8624B
:1011B00000207F1EF3D1F2BD4FF0FF30F2BD0000E2
:1011C00000000000000000006E616E004E414E0005
:1011D000696E6600494E46003000F8B504460D467B
:1011E00016461F4600F006FE3B463246294620467C
:1011F00001B0BDE8F04000F015BE10B450F8041B7B
:1012000081B102681218001D50F8043BDC0744BF8E
:10121000A9F10104E31852F8044B43F8044B091FE9
:10122000F9D1EBE710BC70470278C9B28A421AB113
:101230001CBF10F8012FF9E718BF0020704750F8C5
:10124000041B61B150F8042BD30744BFA9F101037B
:101250009A18002342F8043B091FFAD1EFE77047C0
:1012600000F10103810704D010F8011B89B1810747
:10127000FAD10268B2F10131914311F0803F04BF0D
:1012800050F8042FF6E710F8011B11B110F8011BFC
:10129000FBE7C01A70470000C9B2830706D0521E90
:1012A00022D310F8013B9942F7D11FE0083A13D33B
:1012B00002F1040241EA012141EA014150F8043BF4
:1012C000121F21BF4B40A3F1013C2CEA030C1CF080
:1012D000803FF3D0C9B2001F083210F8013B521E04
:1012E00028BF91EA030FF8D818BF0120401E7047AD
:1012F00080B500F07FFD012002BD000070B50546FD
:1013000005F10F00C408E400012000F0E5FDA5424E
:101310002BD2082C04D2082402E0083000F096F802
:10132000244D286801000CD1291D0868B8B1026855
:10133000A24238BF011DF8D316E01368A34213D2AE
:10134000111D0A68002AF8D10068291D00E0111D4E
:101350000A68824203D01368A342F8D304E000F085
:101360000BFE0028D9D1002121B9012000F0F8FDA1
:10137000002070BD0E683068A0F10802A2423CBF98
:101380007068086007D3A2190A6073685360001B75
:101390000A6810603460086800281DBF4168002991
:1013A000001D00202860012000F0DAFD06F1080091
:1013B00070BD0000941D002070B504460D46164611
:1013C00000F018FD324629462046BDE8704000F086
:1013D0001BBD000062B38B0708D0521E11F8013B01
:1013E00000F8013B00F024808B07F6D1830740F022
:1013F000208000BF103A07D330B4B1E83810103A5B
:10140000A0E83810F9D230BC530724BFB1E8081067
:10141000A0E8081044BF51F8043B40F8043BD20751
:1014200024BF31F8022B20F8022B44BF0B78037045
:101430007047083A07D3B1E80810083A40F8043B6F
:1014400040F804CBF7D25307E4E7000000B9704737
:1014500010B5A0F108042068082837D310F0070061
:1014600034D1012000F038FD1948416809B18C429F
:1014700003D26160446017E019464B680BB1A34288
:10148000FAD30A6853189C421BD3A34204D12368A1
:101490009A180A600C4607E04A681AB123681B19BB
:1014A0009A420ED362604C60616851B12268131990
:1014B0008B4206D1002303600868801820604868CA
:1014C00060600120BDE8104000F04ABD10BD000082
:1014D000941D00201B4213D1094236D12AB1844603
:1014E000B0FBF2F002FB10C2704700F059BDFCD314
:1014F0000022002370470B000200002100207047EB
:10150000904271EB030CF6D370B5B1FA81F4B3FAE3
:1015100083F52C1BA340C4F1200532FA05F63343B2
:10152000A2405FF00046E64002E05B085FEA32025C
:10153000841A71EB030524BF204629467641F4D373
:1015400002000B003000002170BD012ACFD970B518
:10155000140C20D0B1FA81F4B2FA82F5C4F120045F
:101560006419B4F12006D6D3B2405FF00044F440D1
:10157000002502E052085FEA3303C61A71EB020E3F
:1015800024BF3046714664416D41F3D302000B0025
:101590002000290070BD0C46B1FBF2F102FB1145A1
:1015A0002D0445EA1045B5FBF2F402FB145580B258
:1015B00040EA0545B5FBF2F002FB105240EA044058
:1015C00070BD30B4416801F00042012143681B0343
:1015D0001B0B436004BF0368002B0ED003684468F4
:1015E000DD0F45EA440444605B000360491EE302EA
:1015F000F4D543681B031B0B436043681A434260E6
:10160000084630BC704700004FF4001C1CEB410F33
:1016100094BF1CEB430F09E041EA030C50EA4C0C69
:1016200052EA0C0C03D2994208BF9042704714BF93
:101630008B428242704700004FF4001C1CEB410FAC
:1016400094BF1CEB430F09E041EA030C50EA4C0C39
:1016500052EA0C0C03D28B4208BF8242704714BF7F
:10166000994290427047000070B504460D4660688C
:10167000C0F30A5040F2FF72904207D16068000345
:1016800004BF2068002818D0022070BD010004D1DA
:101690002046FFF796FF012867DA012D0FDB40F2A5
:1016A000FF71091A8D420AD36068002847BF0020E5
:1016B0002F4900202F49C4E90001012070BD41429B
:1016C000A942616806DA2C4A1140401941EA0050EB
:1016D000606053E001F0004162681203120B42F4B3
:1016E00080126260401E451905F13500352803D38C
:1016F00061600020206070BD002215F11F0F05DA27
:10170000203522686068206000206060684213D045
:10171000521E9241D243C0F1200325689D4055EAF4
:10172000D2722568C540666806FA03F32B4323602E
:10173000636823FA00F06060606808436060B2F19B
:10174000004F03D80BD12078C00708D52068401C73
:101750002060206818B96068401C60600EE0606816
:10176000884204BF20680028F8D1002070BD000026
:101770000000F0FF0000F07FFFFF0F804FF0FF3010
:1017800070BD0000F446400D40EAC120490006D279
:1017900000F014F8004248BF6FF00040604700F0CE
:1017A0000DF84FF0004188428CBF08464042604728
:1017B000400D40EAC120490080F00D8040F000401B
:1017C000490DA1F58061491C05D4D1F11F0154BF19
:1017D000C840C01770474FF000007047010040F14B
:1017E0000980F446404200F005F851F0004160479E
:1017F000010000BF09D0B0FA80F18840C91CC1F5D2
:101800008461090501EBD0214005704770B44FF0A9
:10181000004591EA030F44BF6B4000F0C3BB00BF1B
:10182000841A71EB030604D26E40001BB1411219F9
:1018300073414FF4001C1CEB410F34BF7CEB43069B
:1018400084E00C0DA4EB1356362E7DDC012E43DC18
:1018500045EAC32343EA525312BFD20292025B0805
:10186000240545EAC12141EA5051D2EBC0209941FB
:1018700025D407D1B0FA80F610FA06F164D0002022
:10188000203608E0B1FA81F6B140C6F1200220FA14
:1018900002F21143B0404FEAF474B4EB465434F012
:1018A00001064FEA74040AD8D6F50016760D04F046
:1018B0000044F04061FA06F25040F1404840C00A4E
:1018C00040EA415021F0004128BF5FEA500550F145
:1018D000000044EBD12137E045EAC323DB0A45EAA7
:1018E000C121C90AB6F120050EDD42EA0242120CFE
:1018F000C5F1200603FA06F6EB4042EA06056D4202
:10190000984161F100010DE062FA06F5F2405540A0
:1019100063FA06FC82EA0C02F3405A406D429041A1
:1019200061EB030111F4801F05D1641E620502D032
:101930006D004041494121F48011430875F1004395
:1019400050F1000041EB045170BC70471CEB410F9B
:1019500015D223F0004352EA43060BD04FEA4C0C59
:10196000BCEB410F04D80C0D661E342EB7DDEBE73F
:10197000801A994150EA410608BF0021E4E708BFF8
:101980001CEB430F28BF6FF00001DDE7B0B581EA23
:10199000030C0CF0004C40F2FF7515EA11541DBF0A
:1019A00015EA1357AC42AF4239E0E41923EA455334
:1019B00043F48013C90241F0004141EA505EC7027E
:1019C0001100A7FB020200284FF00000EEFB0120EF
:1019D0004FF00001E3FB072118BF42F0010240185D
:1019E00000214941E3FB0E01A4F580640F0302D2FC
:1019F00052004041494154F101046CDD470872F145
:101A0000004250F1000051EB0451A1F580115CBF80
:101A100041EA0C01B0BD4CEA05510020B0BD05EA19
:101A20001357AC4214BFAF4241E050EA410E1CBF15
:101A300052EA430E02E061460020B0BD24423C441D
:101A40001BD15FEA070EF6D0090302BF0146002052
:101A5000AEF1140EB1FA81F7AEEB070401FA07FEFE
:101A60000C37C7F1200100FA07F7C8404EEA000E14
:101A700023EA455343F48013A2E733F00043B3FA5B
:101A800083F704BFB2FA82FE77440B3FE41BB7F141
:101A9000200E2FBF02FA0EF3BB40C7F1200E22FA30
:101AA0000EFE38BF43EA0E03BA40641C82E750EAD8
:101AB000410E14BF52EA430E6FF000014FF40017BD
:101AC00017EB430F8ABF194617EB410FB5E74CEAF6
:101AD00005510020B0BDD4F10104B4F120070FDAA4
:101AE000C4F12007520828BF42F0010210FA07F59E
:101AF00001FA07F7E1BF2A43E0403843E1400FE035
:101B0000352C98DCC7F1200452EA400220FA07F293
:101B100018BF42F0010231FA07F0A1400A43002148
:101B200072F1004250F1000051EB0C01B0BD000019
:101B3000F0B540F2FF7581EA030C0CF0004C15EA99
:101B400011541DBF15EA1357AC42AF42E5E0BC414A
:101B5000C1F31301C3F31303801A994143F48013B3
:101B600004D2641E4000494180185941C90241EA2B
:101B70005051B1FBF3F603FB1611A2FB0675D7EB30
:101B8000C020A94102D2761E80185941C90241EAFB
:101B90005051B1FBF3FE03FB1E11A2FB0E75D7EBF8
:101BA000C020A94103D2AEF1010E8018594189022B
:101BB00041EA9051760546EA8E2EB1FBF3F603FB1F
:101BC0001611A2FB0675D7EB8020A94102D2761E22
:101BD00080185941C90241EA50514EEA060EB1FB44
:101BE000F3F603FB1611A2FB0675D7EBC020A94143
:101BF00002D2761E80185941C90241EA5051B1FB08
:101C0000F3F703FB1711A2FB0735D3EBC020A94163
:101C100067F100070CBF004247F0010766F3D527C4
:101C20004FEA1E31B80814F5806412DDBD0775F166
:101C3000004250EB0E5051EB045111F5801F5CBF78
:101C400041EA0C01F0BD4CF07F6141F0E041002021
:101C5000F0BDBD076D0840EA0E5041F48011D4F18B
:101C60000104B4F120060ADAC4F120060200E040C3
:101C700001FA06F3E1401843B24015430EE0342C5C
:101C800013DCC6F1200445EA40056D0820FA06F28F
:101C9000154321FA06F0A1400D43002175F10042E1
:101CA00050F1000051EB0C01F0BD00205FEA0C0187
:101CB000F0BDCFB992185B41B3FA83F704BFB2FA13
:101CC00082F6BF190B3FB7F120062FBF02FA06F3C9
:101CD000BB40C7F1200622FA06F638BF3343BA40AC
:101CE0001CB1E419641E33E77F4231F00041B1FAC0
:101CF00081F404BFB0FA80F6A4190B3CB4F12006BD
:101D00002FBF00FA06F1A140C4F1200620FA06F622
:101D100038BF3143A0403C1B1AE7AC421ABF05EA6A
:101D20001357AF4212E050EA41061CBF52EA430685
:101D3000BFE750EA4107304661461CBF41EA055102
:101D4000F0BD52EA430C08BFC143F0BD00204FF480
:101D5000001616EB410F98BF16EB430F08BF16EBAA
:101D6000410F24BFC14305E016EB430F0CBF614692
:101D70004CEA0551F0BD000080B5134800F07CF935
:101D80000FF24801016041608160C1600161416101
:101D900081610FF23C0242628162C1620163416370
:101DA0000FF2300282630FF23402C26301644164B5
:101DB00001BD10B5044800F05FF90446206808B979
:101DC000FFF7DAFF204610BD0000002000000000F1
:101DD0002E00000066616C7365000000747275650A
:101DE0000000000091FBF2F303FB1211C0E9003187
:101DF0007047000080B5DFF80C0000F03DF9806905
:101E000002BD0000D81B002030B438B90FF24400E6
:101E1000D0E90045C2E90045002001E00170012041
:101E200030BC704730B439B90FF23000D0E900450A
:101E3000C3E9004500200BE012B96FF0010007E094
:101E400008B10A7802800978481E8041C043C00F5B
:101E500030BC7047000000000000000000000000DF
:101E60000000000010B5434C2068A0B3201D00F016
:101E700005F904F1080000F001F904F10C0000F08C
:101E8000FDF804F1100000F0F9F804F1140000F07E
:101E9000F5F804F1180000F0F1F804F11C0000F06E
:101EA000EDF804F1200000F0E9F804F1240000F05E
:101EB000E7F804F1280000F0E3F804F12C0000F04A
:101EC000DFF804F1300000F0DBF804F13400BDE885
:101ED000104000F0D5B810BD38B50446254D28682F
:101EE00090BB281D00F0C9F805F1080000F0C5F806
:101EF00005F10C0000F0C1F805F1100000F0BDF88C
:101F000005F1140000F0B9F805F1180000F0B5F87B
:101F100005F11C0000F0B1F805F1200000F0ADF86B
:101F200005F1240000F0ABF805F1280000F0A7F857
:101F300005F12C0000F0A3F805F1300000F09FF847
:101F400005F1340000F09BF801202860052C06D232
:101F500005EB84002430BDE8324000F092B831BD7A
:101F6000052805D2034901EB8000243000F08AB82F
:101F700070470000941C00200649086808B1002042
:101F80007047054808600549C908C900091A016079
:101F9000704700BFB41D0020C09D0020C0A10020DC
:101FA00070470000841A71EB030603D2001BB14195
:101FB000121973414FF4001C1CEB410F34BF7CEB32
:101FC000430443E00C0DA4EB1356352E50DC45EAD8
:101FD000C323DB0A45EAC121C912B6F120050DDD94
:101FE00063FA05F6EB4086EA0305124218BF45F096
:101FF0000105C01851F100010CD213E062FA06F598
:10200000F2405540F3415A40B340F3405A408018E3
:10201000594107D349085FEA30005FEA350528BF18
:1020200045F0010501F58011420875F1004250F1BB
:10203000000041EB045170BC4FF4001C1CEB410F3D
:1020400038BF70470020090D090570471CEB410F90
:1020500010D252EA43060BD0BCEB410F05D80C0D51
:10206000AB43661E342EB5DD02E0AB438018594108
:1020700070BC704770BC70477047704770477047BE
:10208000704770477047000038B5DFF8880A00785D
:10209000002830D0DFF87C0A00210170DFF8780AD0
:1020A000807F042814D3DFF8700A817F89B2DFF8BB
:1020B000680A00F047FD0500ADB2002D08D1DFF839
:1020C000580A00780400A4B2012C01D100F092F863
:1020D000DFF8440A807FDFF8441A0870DFF8380A16
:1020E000827FDFF8341ADFF8380A00F04FFDDFF89E
:1020F000280A0021817731BD38B50400DFF8140AC1
:102100000021017040F63D6005000FF23102290008
:10211000012000F03AFEDFF8000A807F1E280CD272
:10212000DFF8F409807FDFF8F0194454DFF8E8099C
:10213000807F401CDFF8E019887731BDDFF8D409D3
:1021400001210170704770B5A0B004000D00EDB220
:102150002A00210000A800F019FDEDB2290089B283
:10216000200000F0EFFC0600EDB200A8B6B2310A84
:1021700029546D1CEDB200A82E546D1CEDB229003F
:1021800089B200A800F04FFFDFF89009C577EDB2E3
:102190002A0000A9DFF88C0900F0F8FC20B070BD1F
:1021A00010B582B00400DFF8700900788DF80000E7
:1021B000DFF86409407850F080008DF801008DF858
:1021C0000240032100A8FFF7BEFF13BD1CB500208D
:1021D0000400E4B2062C08D2E4B200A8E4B2DFF8AE
:1021E0003819615C2154641CF3E7062100A8FFF74D
:1021F000AAFF13BD80B5DFF82009407801280CD074
:10220000022811D0032816D004281BD0052820D07E
:10221000062825D010282AD030E000F03BF8002115
:10222000012001F0D7F934E000F00DF9002102207F
:1022300001F0D0F92DE000F014FA0021032001F0A4
:10224000C9F926E000F0DCFA0021042001F0C2F90F
:102250001FE000F094FB0021052001F0BBF918E01D
:1022600000F0DFFB0021062001F0B4F911E000F0DE
:1022700008FC0021072001F0ADF90AE0DFF898081A
:10228000012180F82110DFF8900890F82100FFF775
:1022900087FF01BDFEB5DFF88008002180F821101E
:1022A000DFF87408807F082805D0DFF86C08032168
:1022B00080F82110C6E0DFF8700800F03DFC040053
:1022C000DFF8680800F038FC0500ADB2E81D082111
:1022D00090FBF1F0070040F20110A4B2844239D320
:1022E000ADB2012D36D3A4B2ADB22819B0F5837FBB
:1022F00030DA00200600B6B2BFB2BE4205D2B6B296
:1023000000A800213154761CF5E700200600B6B283
:10231000ADB2AE4223D2A019C0B201F016FA002825
:1023200016D0B6B2082096FBF0F000A9B6B208228B
:1023300096FBF2F200ABD25C0123B6B25FF0080C60
:1023400096FBFCFE0EFB1C6E13FA0EF31A4342546E
:10235000761CDCE7DFF8C007022180F82110DFF8E7
:10236000B80790F82100002866D1DFF8AC070021FB
:1023700080F8A210DFF8A00790F8A200DFF8981705
:102380004018DFF89417097880F82210DFF88807E2
:1023900090F8A200401CDFF8801781F8A200DFF857
:1023A000780790F8A200DFF870174018DFF8681778
:1023B000497880F82210DFF8600790F8A200401CEE
:1023C000DFF8541781F8A200DFF84C0790F8A2005C
:1023D000DFF84417401880F82270DFF83C0790F8C7
:1023E000A200401CDFF8301781F8A2000020060090
:1023F000B6B2BFB2BE4216D2DFF81C0790F8A200F8
:10240000DFF814174018B6B200A9715C80F82210EA
:10241000DFF8040790F8A200401CDFF8FC1681F8F2
:10242000A200761CE4E7DFF8F00690F8A210DFF8CF
:102430000007FFF788FE05E0DFF8DC0690F82100D2
:10244000FFF7AEFEF7BDFEB5DFF8CC06002180F841
:102450002110DFF8C406807F082805D0DFF8B80611
:10246000032180F82110C7E0DFF8BC0600F064FB10
:102470000400DFF8B80600F05FFB0500ADB2E81D10
:10248000082190FBF1F0070040F20120A4B2844241
:102490003AD3ADB2012D37D3A4B2ADB22819B0F5FD
:1024A000017F31DC00200600B6B2BFB2BE4205D2C9
:1024B000B6B200A800213154761CF5E700200600D2
:1024C000B6B2ADB2AE4224D23019401EC0B201F055
:1024D00017FA002816D0B6B2082096FBF0F000A933
:1024E000B6B2082296FBF2F200ABD25C0123B6B280
:1024F0005FF0080C96FBFCFE0EFB1C6E13FA0EF34D
:102500001A434254761CDBE7DFF80C06022180F800
:102510002110DFF8040690F82100002866D1DFF8CA
:10252000F805002180F8A210DFF8EC0590F8A20071
:10253000DFF8E4154018DFF8E015097880F822107C
:10254000DFF8D40590F8A200401CDFF8CC1581F824
:10255000A200DFF8C40590F8A200DFF8BC1540180F
:10256000DFF8B415497880F82210DFF8AC0590F850
:10257000A200401CDFF8A01581F8A200DFF8980542
:1025800090F8A200DFF89015401880F82270DFF86C
:10259000880590F8A200401CDFF87C1581F8A200A5
:1025A00000200600B6B2BFB2BE4216D2DFF8680500
:1025B00090F8A200DFF860154018B6B200A9715C6F
:1025C00080F82210DFF8500590F8A200401CDFF8D8
:1025D000481581F8A200761CE4E7DFF83C0590F886
:1025E000A210DFF84C05FFF7AEFD05E0DFF8280587
:1025F00090F82100FFF7D4FDF7BD10B4020092B2AD
:10260000100040F20134001B02D0401E05D009E04A
:10261000DFF820050088030006E0DFF81805408891
:10262000030001E0002004E09BB2180A08704B7020
:10263000012010BC7047020092B2100040F201333A
:10264000C01A02D0401E04D007E0DFF8E804018081
:1026500005E0DFF8E004418001E0002000E0012017
:10266000704770B590B0DFF8B004002180F82110F9
:10267000DFF8A404807F082805D0DFF89C0403213C
:1026800080F821102BE0DFF8A00400F055FA0400D8
:10269000DFF8980400F050FA0500ADB2212D05D303
:1026A000DFF87404032180F8211018E000200600F0
:1026B000B6B2ADB2AE4212D2B6B200A810EB46012D
:1026C000200080B2FFF799FF002805D1DFF8480409
:1026D000022180F8211002E0641C761CE8E7DFF894
:1026E000380490F82100002840F08280DFF82804A8
:1026F000002180F8A210DFF8200490F8A200DFF893
:1027000018144018DFF81014097880F82210DFF848
:10271000080490F8A200401CDFF8FC1381F8A20026
:10272000DFF8F40390F8A200DFF8EC134018DFF8AC
:10273000E813497880F82210DFF8DC0390F8A20053
:10274000401CDFF8D41381F8A200DFF8CC0390F826
:10275000A200DFF8C41340182900C9B2490080F86C
:102760002210DFF8B40390F8A200401CDFF8A81391
:1027700081F8A20000200600B6B2ADB2AE422ED261
:10278000DFF8940390F8A200DFF88C134018B6B27B
:1027900000A911F8161080F82210DFF87C0390F8D9
:1027A000A200401CDFF8701381F8A200B6B200A8A6
:1027B00010EB46004078DFF8601391F8A210DFF8C4
:1027C0005823891881F82200DFF84C0390F8A20002
:1027D000401CDFF8441381F8A200761CCCE7DFF838
:1027E000380390F8A210DFF84803FFF7ACFC05E0CF
:1027F000DFF8240390F82100FFF7D2FC10B070BD81
:1028000070B586B00A22002100A801F0DCF9C248A8
:10281000002180F82110C048807F082804D0BE48DD
:10282000032180F8211034E0BF4800F085F904004E
:10283000BE4800F081F9050040F20140A4B2844294
:1028400023D3ADB2012D20D3A4B2ADB2281940F2EA
:102850000341884219DA00200600B6B2ADB2AE429A
:1028600017D240F20140A4B2844206D1B6B200A809
:10287000B049898820F8161004E0B6B200A80021FB
:1028800020F81610641C761CE7E7A348022180F8A4
:102890002110A14890F82100002869D19E4800210C
:1028A00080F8A2109C4890F8A2009B4940189A49D1
:1028B000097880F82210984890F8A200401C9649A8
:1028C00081F8A200944890F8A200934940189249D8
:1028D000497880F82210904890F8A200401C8E4958
:1028E00081F8A2008C4890F8A2008B49401829007A
:1028F000C9B2490080F82210874890F8A200401C15
:10290000854981F8A20000200600B6B2ADB2AE4201
:1029100027D2B6B200A830F8160080B2000A7E496D
:1029200091F8A2107C4A891881F822007A4890F820
:10293000A200401C784981F8A200774890F8A200D4
:1029400075494018B6B200A931F8161080F8221067
:10295000714890F8A200401C6F4981F8A200761CD3
:10296000D3E76D4890F8A2107148FFF7ECFB04E044
:10297000694890F82100FFF713FC06B070BD38B528
:102980006548002180F821106348807F082804D022
:102990006148032180F8211035E0634800F0CCF84D
:1029A0000400624800F0C8F80500ADB2002D07D061
:1029B000ADB2012D04D05848032180F8211022E047
:1029C00040F20110A4B2844202D15A48C5801AE0F4
:1029D000A4B2B4F5817F02D15648058113E040F2DC
:1029E0000310A4B2844202D1524845810BE04FF457
:1029F0008270A4B2844202D14E48858103E04648E9
:102A0000022180F82110444890F82100002802D1CA
:102A1000FFF7DCFB04E0404890F82100FFF7C0FB23
:102A200031BD38B53C48002180F821103A48807FFC
:102A3000082804D03848032180F8211013E03A48D0
:102A400000F07AF80400394800F076F80500290013
:102A500089B2200080B2FFF7EEFD012803D02E4896
:102A6000022180F821102C4890F82100002802D182
:102A7000FFF7ACFB04E0284890F82100FFF790FB3B
:102A800031BD2DE9F0412448002180F82110224871
:102A9000807F0B2804D22048032180F821102AE0EF
:102AA000214800F049F80400204800F045F80500EE
:102AB000194880790600002007003800C0B280B2B3
:102AC000ADB2A84217D2FFB2134810EB4700C01DA9
:102AD00000F032F88046414689B2FFB2381980B220
:102AE000FFF7A9FD012804D00B48022180F821102E
:102AF00001E07F1CE1E7084890F82100002802D19E
:102B0000FFF764FB04E0044890F82100FFF748FB5E
:102B1000BDE8F081BC1D0020EC190020301B002016
:102B2000311B0020501B0020EE190020F01900205E
:102B30000E1A0020841D00200178407850EA012000
:102B400080B2704730B40200FF20FF230D00691EE1
:102B5000ADB2002D0ED0C0B2157845402C00521CED
:102B6000A4B2084D655D5D402800A4B2064D655DC8
:102B70002B00EBE7C0B2DBB253EA002080B230BCDE
:102B800070470000AC4A0008AC4B000870B5040068
:102B90000D001600320029002000FEF71BFC20006B
:102BA00070BD000040B2002809D540B210F00F02FD
:102BB000DFF86433D2180B0102F8043C04E040B2A1
:102BC000DFF858230B018354704710B50400B4F1AB
:102BD000807F01D3012013E02002000A401EDFF8AD
:102BE000401308600F215FF0FF30FFF7DBFFDFF8D5
:102BF000340300210160DFF8300307210160002069
:102C000010BD10B500200400E4B2042C21D2E4B2BF
:102C10000C20DFF8181300FB041000214160E4B21F
:102C20000C20DFF8081300FB041000218160E4B2DF
:102C30000C20DFF8F81200FB041000214170E4B210
:102C40000C20DFF8E81200FB041000210170641C66
:102C5000DAE7DFF8DC0200684FF47A71B0FBF1F0DC
:102C6000FFF7B3FF00F05CF810BD10B5DFF8C40249
:102C7000006800280CD0DFF8BC020068401EDFF8B6
:102C8000B4120860002803D1DFF8AC020121017002
:102C900000200400E4B2042C09D2E4B20C20DFF8D6
:102CA0008C1200FB041000F027F8641CF2E7DFF838
:102CB0008C020068401CDFF884120860DFF87C0298
:102CC00000687FF00041884203D1DFF870020021E4
:102CD000016000F097FFDFF868020078401CDFF821
:102CE00060120870C0B20A2805D3DFF85402002130
:102CF000017000F083FF10BD416800290BD04168CE
:102D0000491E4160002906D1012141700178012945
:102D100001D181684160704780B5FFF7A6FF01BD12
:102D20007FB50121012000F0FFFF814800684008C5
:102D300006008448B6FBF0F005004FF6FF70040073
:102D40002000ADF80800ADF804500020ADF80A00EE
:102D50000020ADF8060001A95FF0804001F004F802
:102D600001215FF0804001F049F81C208DF800003F
:102D700004208DF8010000208DF8020001208DF85C
:102D8000030000A801F095F87FBD2DE9F041040093
:102D900088461500B8F1050F01D3B8F105085FF0BA
:102DA000804001F04DF8060018EB06000700E4B281
:102DB000012C13D164480560390089B25FF080406E
:102DC00001F035F802215FF0804001F054F8012253
:102DD00002215FF0804001F01FF845E0E4B2022CD0
:102DE00013D15A480560390089B25FF0804001F084
:102DF00020F804215FF0804001F03DF80122042119
:102E00005FF0804001F008F82EE0E4B2032C13D10B
:102E10004F480560390089B25FF0804001F00BF83F
:102E200008215FF0804001F026F8012208215FF0C0
:102E3000804000F0F1FF17E0E4B2042C13D14548C4
:102E40000560390089B25FF0804000F0F6FF102184
:102E50005FF0804001F00FF8012210215FF0804008
:102E600000F0DAFF00E0FFE7BDE8F08180B5022165
:102E70005FF0804000F0E6FF00280DD002215FF0F7
:102E8000804000F0F8FF002202215FF0804000F057
:102E9000C3FF2D480068804704215FF0804000F0A8
:102EA000D1FF00280DD004215FF0804000F0E3FF47
:102EB000002204215FF0804000F0AEFF234800684C
:102EC000804708215FF0804000F0BCFF00280DD053
:102ED00008215FF0804000F0CEFF002208215FF063
:102EE000804000F099FF1A480068804710215FF089
:102EF000804000F0A7FF00280DD010215FF0804037
:102F000000F0B9FF002210215FF0804000F084FF44
:102F100010480068804701BD18ED00E000E400E0C3
:102F200014E000E018E000E010E000E0CC1C00201D
:102F3000A40000209C1D0020BA1D0020A01D002020
:102F4000BB1D002040420F00A41D0020A81D002032
:102F5000AC1D0020B01D002080B500F075F800F019
:102F60002EF900F042F800F01CFA01BD0100C9B2D0
:102F7000002902D1DFF8FC0516E0C9B2012902D10F
:102F8000DFF8F40510E0C9B2022902D1DFF8EC0540
:102F90000AE0C9B2032901D1002005E0C9B2042921
:102FA00001D1002000E000207047F8B504000D00BA
:102FB00016002000C0B2FFF7D9FF0700002F0AD08B
:102FC000F869002801D0F8698047320092B22900E0
:102FD000380000F00CFAF1BD13B50400012201A97C
:102FE0002000C0B2FFF7E1FF13BD80B5012108202A
:102FF00000F08BFE03208DF8020010208DF80300F6
:103000000420ADF8000000A9DFF8780500F090FF7B
:1030100001BDDFF87805042101607047DFF8700515
:1030200004210160704738B504000D002A0092B2F7
:1030300021000220FFF7B9FF31BD10B504002000C8
:10304000C0B2FFF759F810BDDFF82805DFF84415C6
:103050000160DFF82005DFF840154160DFF8140556
:10306000DFF838158160DFF80C054FF4806181814D
:10307000DFF800054FF48061C181DFF8F80400211A
:103080000182DFF8F00400214182DFF8E80400212A
:10309000C182DFF8E00400210183DFF8D8040021B9
:1030A0004183DFF8D00400218182DFF8C8040021C9
:1030B000C161DFF8C00400210162DFF8B80400211B
:1030C0004162DFF8B404DFF8B8140160DFF8A80447
:1030D000DFF8CC144160DFF8A004DFF8C814816089
:1030E000DFF894044FF480618181DFF88C044FF4A1
:1030F0008061C181DFF8800400210182DFF878045B
:1031000000214182DFF870040021C182DFF86804E9
:1031100000210183DFF8600400214183DFF85804B7
:1031200000218182DFF850040021C161DFF84804EA
:1031300000210162DFF8400400214162DFF83C0415
:10314000DFF844140160DFF83404DFF85C144160F8
:10315000DFF82804DFF854148160DFF820044FF40E
:1031600080618181DFF814044FF48061C181DFF850
:103170000C0400210182DFF8040400214182DFF801
:10318000FC030021C182DFF8F40300210183DFF892
:10319000EC0300214183DFF8E40300218182DFF8A2
:1031A000DC03DFF80C14C161DFF8D003DFF804148E
:1031B0000162DFF8C803DFF800144162704700B510
:1031C00085B00121052000F0A0FD01214FF48040D1
:1031D00000F09BFD4FF40070ADF8000018208DF852
:1031E000030003208DF8020000A9DFF8D00300F0EF
:1031F0009FFE4FF48060ADF8000004208DF80300BE
:1032000000A9DFF8B80300F093FE5FF4E13001900D
:103210000020ADF808000020ADF80A000020ADF84D
:103220000C000020ADF810000C20ADF80E0001A934
:10323000DFF8600300F018FF012240F22551DFF8AB
:10324000540300F091FF0121DFF8480300F07EFFF6
:103250004021D04800F0BBFF0121052000F055FDC2
:1032600001215FF4003000F05FFD0420ADF80000A4
:1032700018208DF8030003208DF8020000A9CF4824
:1032800000F056FE0820ADF8000004208DF8030081
:1032900000A9CA4800F04CFE00A9C84800F048FE4A
:1032A0005FF4E13001900020ADF808000020ADF897
:1032B0000A000020ADF80C000020ADF810000C2032
:1032C000ADF80E0001A9AE4800F0CEFE012240F29A
:1032D0002551AB4800F048FF0121A94800F036FF16
:1032E0004021A74800F073FF0121082000F00DFDE8
:1032F00010208DF8030003208DF802000420ADF8A3
:10330000000000A99F4800F013FE0121092000F0F1
:10331000FCFC01215FF4802000F006FD4FF480608A
:10332000ADF8000018208DF8030003208DF802008E
:1033300000A9944800F0FCFD4FF40060ADF80000D7
:1033400004208DF8030000A98E4800F0F1FD00A9CB
:103350008C4800F0EDFD4FF4165001900020ADF8C0
:1033600008000020ADF80A000020ADF80C00002095
:10337000ADF810000C20ADF80E0001A9824800F055
:1033800073FE012240F225517F4800F0EDFE01213D
:103390007D4800F0DBFE40217B4800F018FF05B0BF
:1033A00000BD80B525208DF8000000208DF80200BA
:1033B00001208DF8030000A800F07BFD26208DF889
:1033C000000001208DF8020001208DF8030000A804
:1033D00000F06FFD27208DF8000002208DF802001C
:1033E00001208DF8030000A800F063FD01BDF8B5D1
:1033F00004000D00160000200700BFB2B6B2B742AD
:1034000026D2012080F31088A08AADF800000020A9
:1034100080F31088BDF80000A1898842F1D2208A8B
:103420006168BFB27A5D4254012080F31088208A1F
:10343000401C2082A18980B2884201D300202082D2
:10344000A08A401CA082002080F310887F1CD4E753
:10345000012240F22771206800F086FEF1BD38B5E8
:10346000040040F22551206800F0B7FE00281DD06E
:10347000206800F0A8FE0500E08AA1684554E08AB3
:10348000401CE082E18980B2884201D30020E082C2
:10349000608BE189884202D2608B401C6083606A45
:1034A000002803D02800C0B2616A884740F2277123
:1034B000206800F092FE002823D0A08A00280CD1BA
:1034C000002240F22771206800F04EFE012240F2F7
:1034D0002661206800F048FE3CE0608A6168415C3B
:1034E00089B2206800F06BFE608A401C6082A1896E
:1034F00080B2884201D300206082A08A401EA08250
:1035000028E040F22661206800F067FE002821D004
:10351000A08A00280BD1002240F22661206800F02A
:1035200023FE206A002815D0206A804712E0608AB6
:103530006168415C89B2206800F041FE608A401CED
:103540006082A18980B2884201D300206082A08A73
:10355000401EA08231BD80B50648FFF780FF01BD47
:1035600080B50548FFF77BFF01BD80B50348FFF735
:1035700076FF01BDFC1C0020241D00204C1D0020F6
:1035800000440040000C014000480040100C014085
:10359000140C014000380140A8000020A8040020BD
:1035A000A8080020A80C0020A8100020A8140020C3
:1035B000133000081D3000083B30000800080140AF
:1035C00038B504000D002100C9B20020FFF704FD4A
:1035D000200032BD204A92F841211F4B23F83200CF
:1035E0001D4A92F841211C4B13EBC20251601A4A4A
:1035F00092F84121521C184B83F84121D2B2282A5B
:1036000003D3154A002382F8413170470100124864
:1036100090F84001104B93F84131984201D10020BD
:1036200019E00D4890F840010B4B13EBC00002006D
:10363000094890F84001401C074B83F84001C0B294
:10364000282803D30448002380F8403110880880DC
:103650005068486001207047A818002080B50121FB
:10366000802000F052FB012000F04FF8022000F013
:103670004CF8032000F049F8042000F046F803203D
:103680008DF8020010208DF803004FF40060ADF8B3
:10369000000000A9444800F04BFC8020ADF8000079
:1036A00000A9414800F044FC4FF48070ADF80000E0
:1036B00000A93D4800F03CFC4FF40070ADF800005C
:1036C00000A9394800F034FC01BD401EC0B20028FA
:1036D00004D136494FF400620A6015E0C0B20128F7
:1036E00003D1324980220A600EE0C0B2022804D120
:1036F0002E494FF480720A6006E0C0B2032803D15D
:103700002A494FF400720A607047401EC0B2002878
:1037100004D127494FF400620A6015E0C0B20128C5
:1037200003D1234980220A600EE0C0B2022804D1EE
:103730001F494FF480720A6006E0C0B2032803D12B
:103740001B494FF400720A6070470100C9B2012999
:1037500007D118480068000501D4012023E00020AB
:1037600021E0C9B2022907D112480068000601D43D
:10377000012018E0002016E0C9B2032907D10D4846
:103780000068C00501D401200DE000200BE0C9B2A3
:10379000042907D107480068800501D4012002E010
:1037A000002000E000207047001C0140141C014074
:1037B000101C01400C1C0140DFF8A00300688004CD
:1037C0000BD4DFF89C030068C00706D4DFF894032D
:1037D0000068C00501D5012000E000207047DFF837
:1037E0007C03006880040BD5DFF874030068C00711
:1037F00006D5DFF870030068C00501D5012000E0A0
:1038000000207047DFF85403006880040BD5DFF810
:1038100050030068C00706D4DFF848030068C005FD
:1038200001D4012000E000207047DFF83003006879
:1038300080040BD4DFF828030068C00706D5DFF842
:1038400024030068C00501D5012000E00020704776
:10385000DFF80803006880040BD5DFF80403006874
:10386000C00706D5DFF8FC020068C00501D40120BE
:1038700000E000207047DFF8EC020068000401D48B
:10388000012000E000207047DFF8DC02006800073C
:1038900001D4012000E000207047DFF8C802006872
:1038A000400401D4012000E000207047DFF8B4029A
:1038B0000068800401D4012000E000207047DFF898
:1038C000A4020068000601D4012000E00020704737
:1038D00080B500F065F800F019F801BDDFF88C1232
:1038E000C97ADFF888228854A049C97A491C9F4ABE
:1038F000D172C9B20A2902D39C490022CA72704708
:10390000C0B29B4911EB0010807A704780B501214D
:103910004FF49A7000F0F9F903208DF802000420AA
:103920008DF803004FF40050ADF8000000A9914855
:1039300000F0FEFA0120ADF8000000A98E4800F06A
:10394000F7FA4FF48070ADF8000000A98B4800F042
:10395000EFFA4FF40040ADF8000000A9874800F0EE
:10396000E7FA0820ADF8000000A9854800F0E0FA69
:103970004FF48040ADF8000000A9804800F0D8FA6C
:103980004FF40050ADF8000000A97C4800F0D0FAD8
:103990008020ADF8000000A9784800F0C9FA01BD08
:1039A000724900228A7271490022CA726F4900224C
:1039B0000A7300210800C0B20A281FD2C0B26C49A5
:1039C00011EB001164220A81C0B2694911EB0011A8
:1039D00002220A71C0B2664911EB001100228A72FC
:1039E000C0B2634911EB00110022CA72C0B2604933
:1039F00011EB001100220A73401CDCE75C496422D1
:103A00000A875B49052281F83B2059496422A1F8C5
:103A100048205749052281F84B2055496422A1F8D6
:103A200058205349052281F85B2051496422A1F8AE
:103A300068204F49052281F86B204D49514A0A60A0
:103A40004B49514A0A614A49504A0A624849504A18
:103A50000A6347494F4A0A6445494F4A0A6544493F
:103A60004E4A0A6642494E4A0A6741494D4AC1F8E0
:103A700080203F494C4AC1F89020704738B5040077
:103A8000E4B23B4810EB041005002868804700288A
:103A900045D02879052802D2052028715DE02879D3
:103AA0000A2803D22879401C287156E0A87A0028F9
:103AB00009D10120A872E4B2032000FB04F0401CED
:103AC000C0B2FFF70BFF2889012846D3E88829896F
:103AD00088420FD2E888401CE880298980B2884259
:103AE0003BD1E4B2032000FB04F0C01CC0B2FFF7DE
:103AF000F5FE32E0E87A01282FD3287B401C28739A
:103B0000E97AC0B2884228D300202873E4B20320A7
:103B100000FB04F0401CC0B2FFF7E0FE1DE0287976
:103B2000062802D30520287113E02879002803D045
:103B30002879401E28710CE0A87A012809D10020BC
:103B4000A872E4B2032000FB04F0801CC0B2FFF7AF
:103B5000C5FE0020E8800020287331BD0810014018
:103B6000080801400820014008140140741D00208D
:103B7000901A002000100140000801400020014080
:103B800000140140B9370008DF3700080538000885
:103B900077380008893800089B380008AD380008DD
:103BA000BF3800082B3800085138000810B5002035
:103BB0000400E4B20A2C05D22000C0B2FFF75EFF79
:103BC000641CF6E710BD70B504000D0016002A0055
:103BD0003100200000F038FB200070BD80B54FF4AC
:103BE000407000F061F9FFF7B7F9FFF737FDFFF715
:103BF0006FFEFFF706F800F05BFB01BD80B5FFF735
:103C0000D5FF01BD704780B5FEF73EFA01BD00004B
:103C100030B400210022002300244B4D2D6815F004
:103C20000C0529000D00002D04D0042D05D0082D11
:103C300006D026E0454D056025E0444D056022E0B4
:103C4000414D2D6815F470152A003F4D2D6815F46F
:103C500080352B00920C921C002B04D13C4D05FBAF
:103C600002F505600CE0384D2D68AD0304D5384DE4
:103C700005FB02F5056003E0344D05FB02F5056028
:103C800001E0324D0560304D2D6815F0F00529003A
:103C90000909304D4D5D2C000568E54045602A4D11
:103CA0002D6815F4E0652900090A2A4D4D5D2C00A8
:103CB0004568E5408560244D2D6815F46055290060
:103CC000C90A244D4D5D2C004568E540C5601E4D78
:103CD0002D6815F440452900890B1F4D4D5D2C00C2
:103CE000C568B5FBF4F5056130BC7047C9B2002961
:103CF00005D01A4A12680243184B1A6004E0174AAA
:103D000012688243154B1A607047C9B2002905D06A
:103D1000134A12680243124B1A6004E0104A1268F8
:103D200082430F4B1A607047C9B2002905D00D4A73
:103D3000126802430B4B1A6004E00A4A126882437D
:103D4000084B1A60704700000410024000127A000D
:103D500000093D0090000020A00000201410024047
:103D6000181002401C100240002203881A00DFF8DD
:103D70001031984212D0DFF8203198420ED0B0F1C5
:103D8000804F0BD0DFF8FC30984207D0DFF8F830D6
:103D9000984203D0DFF8F430984204D14FF68F7385
:103DA0001A404B881A43DFF8E830984208D0DFF811
:103DB000E430984204D04FF6FF431A40CB881A43B0
:103DC00002808B8883850B880385DFF8B4309842A6
:103DD0000FD0DFF8C43098420BD0DFF8C0309842E3
:103DE00007D0DFF8BC30984203D0DFF8B8309842F3
:103DF00001D10B7A0386012383827047C9B200295F
:103E000004D0028852F00102028004E002884FF6DA
:103E1000FE731A4002807047D2B2002A03D0838911
:103E20000B43838102E083898B43838170478186C2
:103E300070470187704781877047A0F8401070472E
:103E4000808C704730B40200002000230024158AC3
:103E50000D402B0095890D402C009BB2002B05D006
:103E6000A4B2002C02D00125280001E00025280082
:103E7000C0B230BC704789B2CA43028270470000AA
:103E8000002C01400004004000080040000C0040ED
:103E90000010004000140040003401400040014088
:103EA00000440140004801401C4901431C4A116084
:103EB0007047F0B4002300210F22C478002C20D0DA
:103EC000174C246814F4E064D4F5E064240A230059
:103ED000D3F104042100DA4044788C402300847834
:103EE000144023431B0104780E4D6355047864117C
:103EF0000D4D0126077817F01F07BE4045F82460D6
:103F000009E004786411094D0126077817F01F07AE
:103F1000BE4045F82460F0BC704700000000FA0580
:103F20000CED00E000E400E000E100E080E100E0F2
:103F3000F0B500270022002300240025002691F878
:103F400003C01CF00F0C674691F803C05FEACC6C0D
:103F500003D591F802C05CEA070791F800C05FEA58
:103F60000C6C3AD0D0F800C065465FF0000C634698
:103F7000082B31D25FF0010C1CFA03FC6446B1F847
:103F800000C014EA0C0C6246A24223D15FEA830C03
:103F900064465FF00F0C1CFA04FC6646B54317FA42
:103FA00004FC5CEA050591F803C0BCF1280F06D1BA
:103FB0005FF0010C1CFA03FCC0F814C00AE091F891
:103FC00003C0BCF1480F05D15FF0010C1CFA03FCE3
:103FD000C0F810C05B1CCBE70560B1F800C04FF41F
:103FE000807EF4453FD3D0F804C065465FF0000CF6
:103FF0006346082B36D25FF0010C13F1080E1CFA51
:104000000EFC6446B1F800C014EA0C0C6246A242F1
:1040100026D15FEA830C64465FF00F0C1CFA04FCA7
:104020006646B54317FA04FC5CEA050591F803C03F
:10403000BCF1280F07D15FF0010C13F1080E1CFA38
:104040000EFCC0F814C091F803C0BCF1480F07D1B2
:104050005FF0010C13F1080E1CFA0EFCC0F810C042
:104060005B1CC6E74560F0BD2DE9F04786B0040053
:104070000D00002600275FF000085FF000095FF0E8
:10408000000AA8890028A246208A06004CF6FF7084
:104090000640E88806432682A08906004EF6F31003
:1040A0000640A88829890843698908430643A681F0
:1040B000A08A06004FF6FF400640A8890643A68264
:1040C00000A8FFF7A5FD2048824502D1039807000C
:1040D00001E002980700A089000408D5192000FB20
:1040E00007F029684900B0FBF1F0804607E019208D
:1040F00000FB07F029688900B0FBF1F080466420DE
:10410000B8FBF0F0000106003009642101FB1080CB
:104110008146A089000409D55FEAC90032306421D4
:10412000B0FBF1F010F00700064308E05FEA091069
:1041300032306421B0FBF1F010F00F00064326810D
:1041400006B0BDE8F087000000380140C9B2002980
:1041500004D0828952F40052828104E082894DF6B3
:10416000FF731A4082817047F0B4002300240025B9
:10417000002640F66A1789B2B94206000F00FFB266
:104180007F09FFB23B0089B211F01F073C000127F5
:10419000A7403D00012B01D10C3604E0022B01D1D8
:1041A000103600E01436D2B2002A03D037682F430D
:1041B000376002E03768AF433760F0BC7047CA052C
:1041C000D20D828070478088C005C00D704789B2CB
:1041D0008A0589B2CA430280704770B40200002386
:1041E00000250024002040F66A1689B2B1420E0074
:1041F000F6B27609F6B2340089B211F01F06350026
:10420000012616FA05F5012C02D19689354006E003
:10421000022C02D1168A354001E0968A354089B2D7
:104220000E0AB6B23300012616FA03F3168833409D
:10423000002D04D0002B02D00126300001E0002622
:104240003000C0B270BC704762F30F2262F31F42AD
:10425000401810F0030308D0C91A1FD3DB0748BF6A
:1042600000F8012D28BF20F8022D130030B41446A9
:104270001546103928BF20E93C00FAD8490728BF65
:1042800020E90C0048BF40F8042D890028BF20F821
:10429000022D48BF00F8012D30BC7047C91818BF67
:1042A00000F8012DCB0728BF00F8012D7047000052
:1042B00000B591B001210120FFF718FD01214FF455
:1042C0000470FFF722FD1020ADF8000000208DF8EB
:1042D000030000A92F48FFF72BFE2F4800F064F8D9
:1042E0002E4806902E480790002008900120099043
:1042F00000200A9080200B904FF480700C904FF4B7
:1043000080600D9020200E904FF400500F90002000
:10431000109006A9204800F0CCF801211E4800F0BA
:10432000E7F80020019000208DF8080001208DF8AA
:1043300009005FF4602003900020049001208DF8B4
:10434000140001A9174800F0FFF8052301220E21EF
:10435000144800F06BF90121124800F02AF90121FC
:10436000104800F019F90F4800F031F90D4800F03D
:1043700033F90028FAD10B4800F03AF9094800F067
:104380003CF90028FAD10121064800F042F911B0A9
:1043900000BD00BF00100140080002404C24014055
:1043A000B81D00200024014001684FF6FE72114044
:1043B0000160002101600021416000218160002135
:1043C000C1605249884206D15149096851F00F0134
:1043D0004F4A11606CE04F49884206D14C49096848
:1043E00051F0F0014A4A116062E04B49884206D11F
:1043F0004749096851F47061454A116058E04749DE
:10440000884206D14249096851F47041404A11601E
:104410004EE04349884206D13D49096851F4702174
:104420003B4A116044E03F49884206D13849096857
:1044300051F47001364A11603AE03B49884206D196
:104440003349096851F07061314A116030E03749F1
:10445000884206D13649096851F00F01344A11608B
:1044600026E03449884206D13149096851F0F0010B
:104470002F4A11601CE03049884206D12C49096856
:1044800051F470612A4A116012E02C49884206D129
:104490002749096851F47041254A116008E028490C
:1044A000884205D12249096851F47021204A1160DF
:1044B000704710B4002203681A00224B1A408B6820
:1044C0000C6A23430C6923434C6923438C692343BF
:1044D000CC6923434C6A23438C6A23431A4302600A
:1044E000CB6843600B6883604B68C36010BC704747
:1044F000C9B2002904D0026852F00102026004E04F
:1045000002684FF6FE731A400260704708000240CE
:10451000040002401C0002403000024044000240FF
:10452000580002406C000240800002400804024033
:10453000040402401C0402403004024044040240CF
:10454000580402400F80FFFF30B40023002244686B
:104550002300DFF8C84123400C680D7954EA052494
:104560002343436084682300DFF8B4412340CC68D0
:104570008D682C434D7954EA450423438360C46A13
:10458000230033F470030C7C641E2243D2B253EA3E
:104590000253C36230BC7047C9B2002904D082689C
:1045A00052F00102826003E0826852085200826089
:1045B0007047C9B2002905D082684FF480731A434E
:1045C000826003E0826832F48072826070478168A2
:1045D00051F0080181607047010000208A681207CD
:1045E00002D50122100001E000221000C0B2704785
:1045F000816851F0040181607047010000208A68E1
:10460000520702D50122100001E000221000C0B2C2
:104610007047C9B2002904D0826852F4A0028260B7
:1046200003E0826832F4A00282607047F0B4002593
:104630000024C9B20A2916D3C66835000726B1F18D
:104640000A075FF0030C0CFB07F7BE403400A543DC
:10465000DBB2B1F10A0603277E4313FA06F63400F3
:104660002543C56011E0066935000726032707FBCF
:1046700001F7BE403400A543DBB2032606FB01F67A
:1046800013FA06F6340025430561D2B2072A14D284
:10469000466B35001F26571E5FF0050C0CFB07F715
:1046A000BE403400A543C9B2561E05277E4311FA09
:1046B00006F63400254345632DE0D2B20D2A14D20C
:1046C000066B35001F26D71F5FF0050C0CFB07F7A4
:1046D000BE403400A543C9B2D61F05277E4311FA58
:1046E00006F634002543056315E0C66A35001F262B
:1046F000B2F10D075FF0050C0CFB07F7BE4034006C
:10470000A543C9B2B2F10D0605277E4311FA06F69C
:1047100034002543C562F0BC70470000FFFEF0FF87
:10472000FDF7F1FF00B583B0FFF758FA00F043F84A
:1047300000F070F8FFF767FA00A8FEF767FF00289F
:10474000F8D0BDF80000052804D100F063F800F0AF
:1047500004F8EFE700F05EF8ECE780B55D48C0884C
:10476000012803D10120FEF7B0FF02E00120FEF78F
:10477000CCFF58480089012803D10220FEF7A5FF8D
:1047800002E00220FEF7C1FF52484089012803D110
:104790000320FEF79AFF02E00320FEF7B6FF4D4824
:1047A0008089012803D10420FEF78FFF02E0042056
:1047B000FEF7ABFF01BD80B543A000F0B9F8464855
:1047C00000F0B6F84549464800F0B2F83FA1454828
:1047D00000F0AEF84449454800F0AAF8012306224B
:1047E0000321434800F0A4F8424800F0A1F84248F1
:1047F00000F09EF8414800F09BF8414800F098F81E
:10480000404800F095F8404800F092F8324800F037
:104810008FF801BD10B52CA000F08AF82CA000F094
:1048200087F82C480188394800F082F828A000F069
:104830007FF828484188364800F07AF824A000F034
:1048400077F824488188334800F072F81EA000F001
:104850006FF81FA000F06CF82F4800F069F80020F6
:1048600004002E480078E4B2844208D2E4B22B4817
:10487000201841782A4800F05BF8641CF1E712A088
:1048800000F056F812A000F053F8264800F050F857
:10489000002004002148C07FE4B2844209D2E4B27F
:1048A0001E48201890F820101D4800F041F8641CA4
:1048B000F0E705A000F03CF81B4800F039F8054887
:1048C0001A490988818010BD0A0D0000312E300080
:1048D0001B5B4B00841D0020AC4C0008104E0008F0
:1048E000A84E0008BC4E0008304F0008D04E00080B
:1048F000EC4C00086C4F0008284E0008E44E0008FD
:10490000F44D0008D44D0008884D00083C4F0008C5
:10491000484F0008544F0008F84E0008301B002094
:10492000744F00080C4F00087C4F0008B81D002091
:104930000EB400B582B003A9009100AB024601217C
:10494000034878440A30FBF7F3FB06BC5DF810FB24
:104950003505000080B54E48006850F001004C4914
:1049600008604C4800684C4908404A49086048487B
:1049700000684A490840464908604548006830F4E4
:104980008020434908604348006830F4FE004149F4
:10499000086043485FF41F01016000F005F84148DA
:1049A0005FF00061016001BD80B500F001F801BD5C
:1049B00082B000200190002000903548006850F43B
:1049C0008030334908603248006810F400300090AD
:1049D0000198401C01900098002803D10198B0F57F
:1049E000A06FF0D12A480068800302D50120009012
:1049F00001E0002000900098012847D12A48006873
:104A000050F010002849086027480068800880009E
:104A1000254908602448006850F0020022490860D7
:104A20001C481C49096801601A481A490968016054
:104A30001848006850F480601649086015480068FE
:104A400030F47C10134908601248006850F4E810F4
:104A5000104908600E48006850F080700C490860EA
:104A60000B4800688001FBD50A4800688008800078
:104A7000084908600748006850F0020005490860CE
:104A80000448006810F00C000828F9D102B0704703
:104A900000100240041002400000FFF8FFFFF6FE85
:104AA0000810024008ED00E00020024000C18140F3
:104AB00001C0804101C0804100C1814001C08041EE
:104AC00000C1814000C1814001C0804101C08041DE
:104AD00000C1814000C1814001C0804100C18140CE
:104AE00001C0804101C0804100C1814001C08041BE
:104AF00000C1814000C1814001C0804100C18140AE
:104B000001C0804101C0804100C1814000C181409D
:104B100001C0804101C0804100C1814001C080418D
:104B200000C1814000C1814001C0804101C080417D
:104B300000C1814000C1814001C0804100C181406D
:104B400001C0804101C0804100C1814000C181405D
:104B500001C0804101C0804100C1814001C080414D
:104B600000C1814000C1814001C0804100C181403D
:104B700001C0804101C0804100C1814001C080412D
:104B800000C1814000C1814001C0804101C080411D
:104B900000C1814000C1814001C0804100C181400D
:104BA00001C0804101C0804100C1814000C0C101FD
:104BB000C30302C2C60607C705C5C404CC0C0DCD8D
:104BC0000FCFCE0E0ACACB0BC90908C8D81819D9FD
:104BD0001BDBDA1A1EDEDF1FDD1D1CDC14D4D5152D
:104BE000D71716D6D21213D311D1D010F03031F11D
:104BF00033F3F23236F6F737F53534F43CFCFD3D4D
:104C0000FF3F3EFEFA3A3BFB39F9F83828E8E9293C
:104C1000EB2B2AEAEE2E2FEF2DEDEC2CE42425E5EC
:104C200027E7E62622E2E323E12120E0A06061A15C
:104C300063A3A26266A6A767A56564A46CACAD6D0C
:104C4000AF6F6EAEAA6A6BAB69A9A86878B8B9797C
:104C5000BB7B7ABABE7E7FBF7DBDBC7CB47475B5AC
:104C600077B7B67672B2B373B17170B0509091519C
:104C70009353529296565797559594549C5C5D9DCC
:104C80005F9F9E5E5A9A9B5B9959589888484989BC
:104C90004B8B8A4A4E8E8F4F8D4D4C8C448485456C
:104CA0008747468682424383418180402A2A2A2AB6
:104CB0002A2A2A2A2A2A2A2A2A2A2A2A2A2A2A2A54
:104CC0002A2A2A2A2A2A2A2A2A2A2A2A2A2A2A2A44
:104CD0002A2A2A2A2A2A2A2A2A2A2A2A2A2A2A2A34
:104CE0002A2A2A2A2A2A2A2A2A0A0D002A20B9CC64
:104CF000BCFEBFE2B0E6B1BE203A205625642E25A8
:104D0000642E2564202853544D3332463130785F69
:104D10005374645065726970685F44726976657235
:104D2000290D0A007047084909684FF48072514004
:104D3000054A11600021080042F2107180B28842D9
:104D4000F1D2401CF8E700000C080140FEE7FEE746
:104D5000FEE77047704770477047000010B508497C
:104D600079441C31074C7C441A34A14206D0081DFA
:104D70000A68511888470146A142F8D110BD00BF0A
:104D800030000000500000002A20436F70797269E3
:104D9000676874207777772E61726D666C792E6301
:104DA0006F6D20B0B2B8BBC0B3B5E7D7D30D0A0062
:104DB0008FC4FFFF181D0000A800002000000000A5
:104DC0003BC4FFFFA8000000D0020000000000204C
:104DD000000000002A20CCD4B1A6B5EA3A206172C6
:104DE0006D666C792E74616F62616F2E636F6D0DED
:104DF0000A0000002A20456D61696C203A2061722A
:104E00006D666C794071712E636F6D200D0A000024
:104E100056342D5253343835204D4F44425553B4F7
:104E2000D3D5BEC0FDB3CC002A2051512020202074
:104E30003A2031323935373434363330200D0A00D8
:104E400000F009F8002801D0FFF788FF0020FFF7E5
:104E500069FC00F002F80120704700F001B8000082
:104E60000746FCF7FFFF384600F002F8FBE70000BA
:104E700080B5C046C046024A11001820ABBEFBE711
:104E80002600020038B504460D46284600F006F814
:104E9000A84218BF0024204632BD00000149FEF799
:104EA0008FBB00BF500000202A20C0FDB3CCC3FB45
:104EB000B3C62020203A2025730D0A002A20C0FD09
:104EC000B3CCB0E6B1BE2020203A2025730D0A00F5
:104ED0002A20B7A2B2BCC8D5C6DA2020203A2025A5
:104EE000730D0A002A20CDFACDFA20203A206172F3
:104EF0006D666C790D0A000020BDD3CAD5B5C4C358
:104F0000FCC1EE203A2030780000000020B7A2CB90
:104F1000CDB5C4C3FCC1EE203A20307800000000BB
:104F2000014880470148004755490008614F000883
:104F3000323031362D30312D3131000020503031BA
:104F4000203D2025640D0A0020503032203D2025D0
:104F5000640D0A0020413031203D2025640D0A00F7
:104F6000C046C046C046C046FFF76AFF2A200A0D69
:104F70000000000020253032580000001B5B374144
:104F800000000000FFF7CEBEFFF7CDBEFFF7DEBE8C
:104F9000FFF7DDBEFFF7DCBEFFF7DBBEFFF7DABED3
:104FA000FFF7D9BEFDF7B8BEFFF7FEBFFFF7FEBFA4
:104FB000FFF7FEBFFFF7FEBFFFF7FEBFFFF7FEBF25
:104FC000FFF7FEBFFFF7FEBFFFF7FEBFFFF7FEBF15
:104FD000FFF7FEBFFFF7FEBFFFF7FEBFFFF7FEBF05
:104FE000FFF7FEBFFFF7FEBFFFF7FEBFFFF7FEBFF5
:104FF000FFF7FEBFFFF7FEBFFFF7AEBEFFF7FEBF36
:10500000FFF7FEBFFFF7FEBFFFF7FEBFFFF7FEBFD4
:10501000FFF7FEBFFFF7FEBFFDF728BFFFF7FEBF9C
:10502000FFF7FEBFFFF7FEBFFFF7FEBFFFF7FEBFB4
:10503000FFF7FEBFFFF7FEBFFFF7FEBFFEF78BBA1D
:10504000FEF78EBAFEF791BAFFF7FEBFFFF7FEBF7D
:10505000FFF7FEBFFFF7FEBFFFF7FEBFFFF7FEBF84
:10506000FFF7FEBFFFF7FEBFFFF7FEBFFFF7FEBF74
:10507000FFF7FEBFFFF7FEBFFFF7FEBFFFF7FEBF64
:10508000FFF7FEBFFFF7FEBFFFF7FEBFFFF7FEBF54
:10509000FFF7FEBFFFF7FEBF0000000000000000AA
:1050A0000000000000000000000000000000000000
:1050B00000000000FFFFFFFFFFFFFFFF00000000F8
:1050C00000000000000000000000000000000000E0
:1050D00000000000000000000000000000000000D0
:1050E000FFFFFFFFFFFF000002040101441C00203E
:1050F000941C0020441C0020441C0020441C002060
:105100008D0000207400002000000000000000005E
:10511000000000000000000000000000000000008F
:105120000000000000000000000000000102030475
:1051300001020304060708090204060800A24A0443
:0400000508004F613F
:00000001FF
