:020000040800F2
:10000000C08C0020BD010008C5010008C701000820
:10001000C9010008CB010008CD0100080000000064
:10002000000000000000000000000000CF010008F8
:10003000D101000800000000D3010008D50100082C
:10004000D7010008D7010008D7010008D701000830
:10005000D7010008D7010008D7010008D701000820
:10006000D7010008D7010008D7010008D701000810
:10007000D7010008D7010008D93E0008D7010008C1
:10008000D7010008D7010008D701000800000000D0
:10009000000000000000000000000000D701000880
:1000A000D7010008D7010008D7010008D7010008D0
:1000B00063270008F12E0008D7010008D7010008C7
:1000C000D7010008D7010008D7010008D7010008B0
:1000D000D7010008EB3F0008D70100086145000880
:1000E000D7010008D7010008D70100080000000070
:1000F0000000000000000000000000000000000000
:1001000000000000000000000000000000000000EF
:100110000000000000000000D7010008D70100081F
:1001200000F002F800F03CF80AA090E8000C8244CD
:100130008344AAF10107DA4501D100F031F8AFF2AA
:10014000090EBAE80F0013F0010F18BFFB1A43F0B5
:10015000010318474C4601006C460100103A24BFC9
:1001600078C878C1FAD8520724BF30C830C144BF1C
:1001700004680C607047000000230024002500265E
:10018000103A28BF78C1FBD8520728BF30C148BFFA
:100190000B6070471FB5AFF300801FBD10B510BDD9
:1001A00004F0A0FD1146FFF7F5FF02F04DF904F051
:1001B000BEFDFFF7F3FF04F0C1FD000009488047D2
:1001C00009480047FEE7FEE7FEE7FEE7FEE7FEE739
:1001D000FEE7FEE7FEE7FEE704480549054A064B51
:1001E000704700000D23000821010008C086002090
:1001F000C08C0020C0880020C08800202849084307
:10020000284908607047F0B50F23C47801784FF093
:10021000E0220127E4B1D2F80C4D867804F4E064C2
:10022000C4F5E064240AC4F10405E34044781E40A8
:10023000AC4026433301114481F800340078410971
:1002400000F01F0002EB81018740C1F80071F0BD92
:1002500001F01F008740480902EB8000C0F8807160
:10026000F0BD114A114001430E48001F0160704764
:100270004FF0E0220029D2F8101D01D0014300E028
:100280008143C2F8101D70474FF0E021042808692F
:1002900002D140F0040001E020F004000861704742
:1002A0000000FA050CED00E080FFFF1FC34910B508
:1002B000884202D1012144150AE0C149884202D195
:1002C0000121041504E0BF4988420AD10121CC0371
:1002D000204601F085F82046BDE81040002101F0DD
:1002E0007FB810BD30B54268B74B0C791A400B6827
:1002F00042EA0422134343608268B44B4D791A40AA
:10030000D1E9024342EA4502234313438360C26AB0
:10031000097C22F47002491EC9B242EA0151C1624D
:1003200030BD00210160017141718160C160012116
:10033000017470470029816802D041F0010101E099
:1003400021F00101816070470029816802D041F4E9
:10035000807101E021F4807181607047002A426859
:10036000C9B201D00A4300E08A4342607047816805
:1003700041F0080181607047014689680020090743
:1003800000D501207047816841F004018160704709
:10039000014689680020490700D5012070470029DF
:1003A000816802D041F4A00101E021F4A001816044
:1003B0007047014689680020490200D50120704736
:1003C0004268491E22F4604242EA4131416070476E
:1003D0000029416802D041F4006101E021F400618C
:1003E0004160704770B5072609290AD9C568A1F18F
:1003F0000A0404EB4404A640B543A3401D43C56072
:1004000007E0056901EB4104A640B543A3401D4345
:1004100005611F23072A09D2446B521E02EB820298
:1004200093409C4391400C43446370BD0D2A09D214
:10043000046BD21F02EB820293409C4391400C4319
:10044000046370BDC46A0D3A02EB820293409C4380
:1004500091400C43C46270BD0029816802D041F410
:10046000801101E021F4801181607047C06C80B27E
:10047000704752484C30006870470029416802D0EC
:1004800041F4806101E021F48061416070470029FE
:10049000416802D041F4805101E021F48051416073
:1004A0007047826822F4E0420A4382607047002964
:1004B000816802D041F4004101E021F400418160F3
:1004C00070470029816802D041F4021101E021F453
:1004D000021181607047014689680020890200D5B9
:1004E0000120704770B5072609290AD9C568A1F10E
:1004F0000A0404EB4404A640B543A3401D43C56071
:1005000007E0056901EB4104A640B543A3401D4344
:100510000561836BC3F30154121B921C02EB820230
:100520001F249440A34391400B43836370BD826BAF
:10053000491E22F4401242EA015181637047425041
:1005400070470844806A80B270474268204B1A4066
:100550000A4342607047416282627047426822F0FB
:100560001F020A43426070471A490028D1F8080464
:1005700002D040F4000001E020F40000C1F80804BB
:1005800070470246126800200A4200D001207047DE
:10059000C9430160704730B50246002054680B0A19
:1005A000CDB211682C40194202D0002C00D001209D
:1005B00030BD6FEA11210160704700000024014046
:1005C00000280140003C0140FFFEF0FFFDF7F1FF75
:1005D000FFFD3FFF0020014010B5012000F012FF99
:1005E000BDE81040002000F00DBF1C4908607047B6
:1005F0001A49091F0860704718498431086070471C
:10060000174A118821F46071014311807047144A20
:10061000118821F07F01014311807047104A2C3A64
:10062000115070470E492C39085A70470B489C30BE
:100630000068C0B270470A480830018841F00101E3
:10064000018070470548A0300068C0B27047044878
:100650000830018841F002010180704704860D4294
:100660002C6C004010B501214C07204600F0C1FE63
:100670002046BDE81040002100F0BBBE70B5374CED
:10068000226840F6FE738340D1E901659A430B6806
:10069000C96833430D432B4383401343236070BD2C
:1006A0000021016041608160C16070472C4B0122D4
:1006B0008240D3F8000409B1104300E09043C3F82E
:1006C00000047047264B9A148240D3F8000409B105
:1006D000104300E09043C3F8000470470209012072
:1006E0001F4B90400029D3F8041401D0014300E0CF
:1006F0008143C3F80414704719490028D1F8040451
:1007000002D040F0030001E020F00300C1F804042F
:100710007047134B8140D3F800040AB1084300E04E
:100720008843C3F8000470470C4A10448160704746
:100730000A4A104441617047082802D142EA012167
:1007400001E042EA0141054A104401627047034951
:1007500001EB9000C06A80B2704700000074004056
:100760000070004002684FF6FE7300211A400260DC
:10077000016041608160C1606949694A08399042FD
:1007800003D1486840F00F0006E0654A14329042F9
:1007900004D1486840F0F00048607047604A283251
:1007A000904203D1486840F47060F5E75C4A3C32FF
:1007B000904203D1486840F47040EDE7584A503207
:1007C000904203D1486840F47020E5E7544A64320F
:1007D000904203D1486840F47000DDE7504A783217
:1007E000904203D1486840F07060D5E74D4A90428E
:1007F00004D1D1F8040440F00F0007E0494A143254
:10080000904206D1D1F8040440F0F000C1F804048D
:100810007047444A2832904204D1D1F8040440F48D
:100820007060F3E73F4A3C32904204D1D1F80404AF
:1008300040F47040EAE73B4A50329042E8D1D1F8A8
:10084000040440F47020E1E770B5026847F6F073E5
:100850009A430D6A8B680C692B43D1E905653443D3
:100860002343CC692B432343D1E909542B4323432E
:1008700013430360CA6842600A6882604968C160C5
:1008800070BD0021016041608160C1600161416112
:100890008161C16101624162816270470029016822
:1008A00002D041F0010102E04FF6FE7211400160FA
:1008B0007047002A026801D00A4300E08A430260C0
:1008C000704741607047406880B270470246002020
:1008D0001549D30002D5D1F8001400E0096811428F
:1008E00000D0012070471049C20002D5C1F80404AD
:1008F000704748607047024600200B49D30002D57C
:10090000D1F8001400E00968114200D001207047BE
:100910000549C20002D5C1F8040470474860704719
:100920000800024008040240000002403448002150
:10093000016041608160C16032494161704730B5FA
:100940002F4A8179036859B311460C689C430C60A7
:100950004B680468A3434B600479A3181C680568BE
:100960002C431C608B680468A3438B60CB680468CD
:10097000A343CB604379A1F58061102B0AD101F527
:1009800081610A6803681A430A604A680068024382
:100990004A6030BD99180A68006802430A6030BD99
:1009A0000079104401689943016030BD0021016065
:1009B00001710C22427181717047114910310A682E
:1009C00002430A60704702460D490020143109684D
:1009D000114200D001207047094914310860704766
:1009E000074B01461A6800205B690A400B4202D09F
:1009F000002A00D001207047014914310860704777
:100A000000040140FFFF0F00FC4A116801F03801AB
:100A1000014311607047F9490A6822F008020A6030
:100A20000A6802430A607047F4490A6822F010021B
:100A30000A600A6802430A607047F048F049416062
:100A4000F04941607047ED48ED494160ED49416032
:100A50007047EA48016941F0800101617047E74849
:100A6000016941F0800101617047E4490420CA68CE
:100A7000D20701D001207047CA68520701D5022071
:100A80007047C968C906FBD50320704700B5034607
:100A9000FFF7EBFF03E000BFFFF7E7FF5B1E012856
:100AA00002D1002BF8D101E0002B00D1052000BDC0
:100AB00070B505464FF430263046FFF7E7FF0428AF
:100AC00011D1CE4C206940F002002061656120699F
:100AD00040F0400020613046FFF7D8FF216941F621
:100AE000FD721140216170BD30B54FF430252846AC
:100AF000FFF7CCFF042810D1C04C206940F004005F
:100B00002061206940F0400020612846FFF7BEFFC9
:100B1000216941F6FB721140216130BD00B50346E9
:100B2000FFF7A3FF03E000BFFFF79FFF5B1E012855
:100B300002D1002BF8D101E0002B00D1052000BD2F
:100B400030B54FF430252846FFF7E8FF042810D1D0
:100B5000AA4C206940F004002061206940F0400068
:100B600020612846FFF7DAFF216941F6FB72114048
:100B7000216130BDA1490020C969890700D5012044
:100B8000704770B5A525FFF7F5FF00B100254FF4BC
:100B900030263046FFF77AFF042827D1974C984833
:100BA000A0609848A060206940F020002061206982
:100BB00040F0400020613046FFF768FF41F6EF76D5
:100BC00004280ED1206941F6DF71084020612069B8
:100BD00040F0100020618C4805804FF40050FFF772
:100BE00055FF052802D021693140216170BDF0B563
:100BF00005464FF4005C0E466046FFF747FF0428A9
:100C000014D17E4C206940F0010020612E806046A6
:100C1000FFF73CFF41F6FE77042804D1300C6880D2
:100C20006046FFF733FF216939402161F0BDF0B51F
:100C300005464FF400570E463846FFF727FF0428B5
:100C40000CD16E4C206940F0010020612E803846A6
:100C5000FFF71CFF2169BA1E11402161F0BDF0B5FC
:100C600005464FF400570E463846FFF70FFF04289D
:100C700013D1624C6248A0606248A060206940F0D5
:100C8000100020612E803846FFF700FF052804D0B1
:100C9000216941F6EF7211402161F0BD2DE9F04369
:100CA000C043C4B2C0F30725C0F30746070E4FF494
:100CB00000594846FFF7EAFE04283AD1DFF83CC164
:100CC0004F49CCF808104F49CCF80810DCF8101048
:100CD000DFF8388141F01001CCF81010FF2C06D05D
:100CE000A8F808484846FFF7D1FE042818D1FF2D80
:100CF00006D0A8F80A584846FFF7C8FE04280FD1C6
:100D0000FF2E06D0A8F80C684846FFF7BFFE04285F
:100D100006D1FF2F06D0A8F80E784846FFF7B6FE9A
:100D2000052806D0DCF8101041F6EF721140CCF81F
:100D30001010BDE8F08370B506464FF43025284604
:100D4000FFF7A4FE04282BD12C4C2D48A0602D4881
:100D5000A060206940F020002061206940F0400040
:100D600020612846FFF792FE41F6DF71042818D172
:100D70002069084020612169244841F01001216167
:100D80000EB1002100E0A521A0F800182846FFF7C9
:100D90007DFE052804D0216941F6EF7211402161E2
:100DA00070BD0528FCD022690A40226170BDF0B5F3
:100DB0000546124C12480E461746A0601148A06026
:100DC0004FF4005C6046FFF761FE042814D12069EF
:100DD00040F0100020613E432E430B4946F0F800DE
:100DE000891C08806046FFF751FE052804D0216960
:100DF00041F6EF7211402161F0BD00000020024079
:100E000023016745AB89EFCD00F8FF1F00F0FF1FFE
:100E10001C48C069800870471A48006A7047194921
:100E200000200968890600D501207047154A00296D
:100E3000116901D0014300E081431161704701460F
:100E40000020104A012904D1D169C90700D001202E
:100E50007047D2680A42FAD170470A49C8607047A1
:100E600008490420CA68D20701D001207047CA6827
:100E7000520701D502207047C968C906FBD5032077
:100E80007047000000200240904910B5884206D10A
:100E90000121042000F0A4FA002104203BE08C4949
:100EA000884206D10121082000F09AFA002108208A
:100EB00031E08849884206D10121102000F090FAE3
:100EC0000021102027E08449884206D101212020FA
:100ED00000F086FA002120201DE08049884206D1DA
:100EE0000121402000F07CFA0021402013E07C49E1
:100EF000884206D10121802000F072FA0021802072
:100F000009E0784988420AD184150121204600F081
:100F100067FA00212046BDE8104000F061BA10BD1C
:100F200010B50121084600F05BFA0021BDE8104031
:100F3000012000F055BAF0B5CB780022DC0603F0B2
:100F40000F0301D58C7823430C884FF00F0C14F05D
:100F5000FF0F4FF0010E1BD0D0F800600D880EFA85
:100F600002F42540A5420FD195000CFA05F726EAB8
:100F7000070703FA05F6CD783E43282D01D14461D9
:100F800002E0482D00D10461521C082AE6D3066015
:100F90000A88FF2A1ED946685FF0000202F10805A0
:100FA0000EFA05F40D882540A5420FD195000CFAE4
:100FB00005F726EA070703FA05F6CD783E43282D04
:100FC00000D14461CD78482D00D10461521C082A1B
:100FD000E4D34660F0BD4FF6FF71018002218170BD
:100FE0000421C17070470246926800200A4200D076
:100FF00001207047806880B270470246D2680020A6
:101000000A4200D001207047C06880B27047016179
:101010007047416170470AB1016170474161704793
:10102000C160704741F4803282618161826181696F
:101030008069704710B52C4B1A684FF680742240B7
:1010400042EA00100843186010BD2849C861704783
:10105000F0B5254C002801DAE36900E06368450D2E
:101060002E0185B2C0F30157B540C0F30342032FF0
:1010700006D123F07062636823F07063636008E058
:10108000C60203D503269640B34300E0AB4343F0CA
:10109000706201B12A43002801DAE261F0BD6260AA
:1010A000F0BD10B58A0721F003040F49120F214447
:1010B0000F238C6893409C438C608B689040034363
:1010C0008B6010BD0949DC310860704700080140A1
:1010D000000C0140001001400014014000180140C4
:1010E000001C01400020014000000140000020429F
:1010F00010B501210C07204600F07BF92046BDE821
:101100001040002100F075B9244908627047234956
:1011100008617047224A116821F0E0010143116023
:1011200070471E49A031086070471D4B1A6822F0B5
:10113000030202431A604FF0E020D0F8102D01297D
:1011400042F00401C0F8101D01D130BF00E020BF03
:10115000D0F8101D21F00401C0F8101D7047104890
:10116000016841F004010160026842F0020202607D
:101170000C49086840F00400086030BF7047084917
:10118000024649680020114200D0012070470449FE
:101190000A6842EA800008607047000000000E42C2
:1011A0000070004010ED00E0A448016841F001012A
:1011B00001604168A24A114041600168A14A1140A2
:1011C0000160016821F48021016042684FF41F0131
:1011D00022F4FE0242608160704798490A6822F456
:1011E00080320A600A68B0F5803F22F480220A60EB
:1011F00007D0B0F5802F03D1086840F4A020086024
:101200007047086840F48030F9E703460020590928
:101210008A4A012901D1116804E0022901D1116A29
:1012200000E0516A03F01F02012393400B4200D0FB
:101230000120704730B500244FF4A0653120FFF73E
:10124000E4FF641CAC4201D00028F7D03120FFF746
:10125000DCFF002800D0012030BD784A116821F061
:10126000F80141EAC0001060704777490860704794
:10127000724B5A68084322F47C121043586070473E
:101280007149086670476D4A516821F003010143B6
:10129000516070476948406800F00C007047674A29
:1012A000516821F0F001014351607047634A516871
:1012B00021F4E061014351607047604A516821F4B4
:1012C000605141EAC000506070475C4A0029517A81
:1012D00001D0014300E08143517270475A49D8312F
:1012E00008607047554A516821F4404101435160FC
:1012F00070475249002220310A7001F82029012844
:1013000002D0042802D1052081F8200070474F49FF
:101310000860704749490A6A02430A6270474B49AC
:1013200044390860704710B5444A5168484B11F081
:101330000C0103D0042901D0082901D0036011E079
:1013400051685368022401F4701104EB914113F4C5
:10135000803F02D053689B0301D53E4B00E03C4BDD
:101360005943016051683C4B01F0F00109095C5C94
:101370000168E1404160546804F4E064240A1C5DA3
:1013800021FA04F48460546804F46054E40A1B5D98
:10139000D940C1605268304B02F44042920B1B1F8F
:1013A0009A5CB1FBF2F1016110BD244A0029516938
:1013B00001D0014300E08143516170471F4A002979
:1013C000916901D0014300E08143916170471B4A5C
:1013D0000029D16901D0014300E08143D161704708
:1013E000164A0029D16801D0014300E08143D16051
:1013F0007047124A0029116901D0014300E081437E
:101400001161704711494039086070470E49C8643E
:1014100070470A49C87170470848416A41F08071B5
:10142000416270470549024689680020114200D098
:101430000120704701498872704700000010024087
:101440000000FFF8FFFFF6FE000042428004424227
:1014500000127A0000093D00040000203D4A0029E6
:10146000B2F8001801D0014300E08143A2F800184F
:1014700070473948018841F01001018070473648B3
:10148000018821F0100101807047334914318888A8
:10149000098840EA0140704700B50246FFF7E9FFBE
:1014A0002D48110C1430018082805DF804EBE6E7D2
:1014B00000B50246FFF7DDFF2748C2F30341001DD8
:1014C000018082805DF804EBD9E700B50246FFF7A2
:1014D000D0FF2148110C1C30018082805DF804EBA4
:1014E000CDE71D480C3001888088090740EA11309B
:1014F00070471848B0F804188906FBD5704715489E
:10150000B0F8041821F00801A0F80418B0F8041885
:101510000907FBD57047104902460988002011428F
:1015200000D0012070470C4A118881431180704718
:101530000949091F8B880A880340D9B2024202D0A8
:1015400009B10120704700207047034A1188814388
:10155000118070470020004004280040FA4910B56F
:10156000884202D10121C41486E0B0F1804F06D137
:1015700001210846FFF73DFF0021012067E0F34904
:10158000884206D101210220FFF733FF002102200B
:101590005DE0EF49884206D101210420FFF729FFD1
:1015A0000021042053E0EB49884206D101210820A4
:1015B000FFF71FFF0021082049E0E749884206D1D4
:1015C00001211020FFF715FF002110203FE0E34923
:1015D000884206D101212020FFF70BFF00212020A7
:1015E00035E0DF49884202D10121441444E0DD495D
:1015F000884202D10121CC043EE0DB49884202D17D
:1016000001210C0538E0D949884202D101214C055D
:1016100032E0D749884206D101214020FFF7E9FE98
:101620000021402013E0D349884206D101218020C7
:10163000FFF7DFFE0021802009E0CF4988420AD170
:10164000841501212046FFF7D4FE00212046BDE885
:101650001040FFF7CEBEC949884202D101210C04D7
:101660000AE0C749884202D101214C0404E0C5497F
:1016700088420AD101218C042046FFF7B1FE2046A2
:10168000BDE810400021FFF7ABBE10BD30B50288A9
:10169000AD4CB34DA0420DD0A8420BD0B0F1804F5D
:1016A00008D0AA4B984205D0A94B984202D0A94B2A
:1016B000984203D122F070034A881A43A64B9842FD
:1016C00006D0A64B984203D022F44073CA881A432E
:1016D00002808A88A04282850A8802850AD0A842B0
:1016E00008D0A64A904205D0A54A904202D0A54A09
:1016F000904201D1097A01860121818230BDF0B585
:10170000028C22F001020284048C8288038B24F074
:10171000020523F073060B880C8933434E888A4FE9
:101720002C432643B8420BD08D4CA04208D0934C9A
:10173000A04205D0924CA04202D0924CA0420DD1C2
:1017400026F008044D898E88254325F004052E4394
:1017500022F440748D89CA8925432A4382800383F9
:10176000C98881860684F0BD30B5028C22F0100253
:101770000284028C8388048B22F0200224F4E64544
:101780000C88240645EA14440D892D0542EA1545C6
:101790004A88120545EA12426B4DA84202D0704DAC
:1017A000A84215D14D8922F080022D0542EA154547
:1017B0008A8825F04005120545EA12428D8923F4F6
:1017C0004063AD0443EA1545CB899B0445EA1343C6
:1017D00083800483C9880187028430BD70B5028C80
:1017E00022F480720284028C8388848B0E8924F018
:1017F00073050C8822F400722C43350642EA154525
:101800004A88120645EA12424F4DA84202D0544D72
:10181000A84215D14D8922F400622D0642EA1545F1
:101820008A8825F48065120645EA12428D8923F4E0
:1018300040532D0543EA1545CB891B0545EA134363
:1018400083808483C9888187028470BD30B5028C0F
:1018500022F480520284038C8288848B24F4E6452F
:101860000C88240645EA144423F400550B891B0711
:1018700045EA13434D882D0743EA1545324B9842FC
:1018800002D0374B984205D122F480438A899205D1
:1018900043EA124282808483C988A0F840100584FC
:1018A00030BD828B22F440628283828B42EA012225
:1018B00082837047828B22F00C028283828B0A43E0
:1018C00082837047028B22F440620283028B42EAD9
:1018D00001220283704770B5048C24F01004048444
:1018E000068B048C26F473461B0746EA1343120644
:1018F00043EA12420D05144B2D0C98420ED0184BA2
:1019000098420BD0B0F1804F08D0104B984205D0D0
:101910000F4B984202D00F4B984205D124F0200182
:10192000294341F0100104E024F0A0030B4343F0ED
:1019300010010283018470BD028B22F00C0202832D
:10194000028B0A4302837047002C014000040040D0
:1019500000080040000C004000100040001400404F
:1019600000340140004C014000500140005401404F
:1019700000180040001C00400020004000400140D2
:10198000004401400048014030B5048C24F00104BB
:101990000484058B048C1B0542EA134325F0F305F0
:1019A000F94A2B4390420ED0F84A90420BD0B0F146
:1019B000804F08D0F64A904205D0F64A904202D0B5
:1019C000F54A904202D124F0020201E024F00A021A
:1019D0000A4342F001010383018430BD2DE9F05F29
:1019E000E94EEA4FDFF8A883DFF8A893DFF8A8B341
:1019F00004460D464FF0804AB04206D0BC4204D0A7
:101A0000544502D0444500D0484628886988AA88B1
:101A10002B8938B92046FFF7B7FFE9882046BDE893
:101A2000F05F89E7042807D12046FFF754FFE988D3
:101A30002046BDE8F05F45E70828208C2CD120F433
:101A400080702084A08BB4F820C01B0520F0F30028
:101A500042EA13434FEA016E03434FEA1E4EB4427B
:101A600009D0BC4207D0544505D0444503D04C456D
:101A700001D05C4504D12CF4007040EA0E0002E075
:101A80002CF42060084340F48070A3832084E9880C
:101A90002046BDE8F05F0DE720F480502084B4F8C4
:101AA0001CC0208C12062CF4734C1B074FEA017EDD
:101AB0004CEA12424FEA1E4E42EA1343B44209D0A6
:101AC000BC4207D0544505D0444503D04C4501D015
:101AD0005C4504D120F4005040EA0E0002E020F4FE
:101AE0000240084340F48050A3832084E9882046C4
:101AF000BDE8F05FD5E62DE9F0410C4600254988A8
:101B00000746012601B90225A288012A00D1022632
:101B1000208823890028384610D1FFF735FFE18857
:101B20003846FFF709FF2389324629463846FFF732
:101B3000D2FEE1883846BDE8F041C3E6FFF7CBFEB0
:101B4000E1883846FFF7BEFE2389324629463846EB
:101B5000FFF71AFFE1883846BDE8F041ECE630B502
:101B60000A884C888B88CD8822432B431A430C89E2
:101B70004B89224389891A430A43A0F8442030BD87
:101B80004FF6FF71818000210180C1804180017288
:101B9000D9E60021018041808180C180018141819D
:101BA0008181C181CFE600210180418001228280B4
:101BB000C1800181C7E60021018041808180C18010
:101BC000018141818181BEE60029018802D041F076
:101BD000010101E021F001010180B4E6002930F8A3
:101BE000441F02D041F4004101E0C1F30E01018025
:101BF000A9E6002A828901D00A4300E08A43828153
:101C0000A1E681829FE61143A0F848109BE6002AD6
:101C1000828901D00A4300E08A43828193E60189E8
:101C200021F0070101818EE6028922F070020A4349
:101C3000028188E6028922F070020A43028101894A
:101C400041F0070101817EE670B50D46114604465C
:101C5000602D4FF0010202D1FFF73DFE01E0FFF7DA
:101C600093FE208920F0700028432081208940F0D5
:101C70000700208170BD10B5048942EA0323E4B255
:101C80000B432343038110BD10B50446FFF7F3FF58
:101C9000208940F07700208110BD10B50446FFF781
:101CA000EAFF208940F48040208110BD01858282B6
:101CB00049E6028822F070020A43028043E670B5CA
:101CC0000689058B048C26F007060E434FF6FC416F
:101CD0000D4040F201110D4324F0220442EA0311A9
:101CE000214306810583018470BD028B22F07002BE
:101CF0000A43028327E6028B22F4E04242EA0121F2
:101D0000018320E6828B22F070020A4382831AE666
:101D1000828B22F4E04242EA0121818313E600290A
:101D2000018802D041F0800101E021F080010180B2
:101D300009E60029818802D041F0040101E021F088
:101D400004018180FFE50029818802D041F008016B
:101D500001E021F008018180F5E50029818802D0A9
:101D600041F0010101E021F001018180EBE5028BEE
:101D700022F008020A430283E5E5028B22F40062A6
:101D800042EA01210183DEE5002C014000340140DC
:101D90000004004000080040000C0040828B22F04C
:101DA00008020A438283CEE5828B22F4006242EA73
:101DB00001218183C7E5028B22F004020A430283DA
:101DC000C1E5028B22F4806242EA01210183BAE577
:101DD000828B22F004020A438283B4E5828B22F4D0
:101DE000806242EA01218183ADE5028B22F080020C
:101DF0000A430283A7E5028BC2F30E0242EA0121E5
:101E00000183A0E5828B22F080020A4382839AE557
:101E1000828BC2F30E0242EA0121818393E5028C98
:101E200022F002020A4302848DE5028C22F00802AD
:101E30000A43028487E5028C22F0200242EA011163
:101E4000018480E5028C22F0800242EA01110184C3
:101E500079E5028C22F4007242EA0121018472E5E4
:101E6000028C22F4006242EA012101846BE5028CBB
:101E700022F4005242EA0131018464E510B50123E5
:101E8000048C8B409C430484038C8A40134303845A
:101E900010BD10B50423048C8B409C430484038C38
:101EA0008A401343038410BD30B50124058C00F132
:101EB00018038C40A543058409B1082907D103EB19
:101EC0005100016821F07001016001680AE0091FFA
:101ED00088B203EB5000016821F4E0410160016821
:101EE0001206120C1143016030BD0029018802D096
:101EF00041F0020101E021F00201018023E5002907
:101F0000018802D041F0040101E021F004010180C8
:101F100019E50029818802D041F0800101E021F01B
:101F2000800181800FE5028822F008020280028889
:101F30000A43028007E5828822F07002828082884C
:101F40000A438280FFE4028922F0070202810289AB
:101F50000A430281F7E4028922F0800202810289A9
:101F60000A430281EFE48184EDE48185EBE481861C
:101F7000E9E40187E7E48187E5E4A0F84010E2E4C2
:101F8000028822F44072028002880A430280DAE466
:101F9000808ED8E4008FD6E4808FD4E4B0F840007F
:101FA000D1E4808CCFE4008DCDE40246128A00207B
:101FB0000A4200D00120C6E4C9430182C3E40246BC
:101FC000138A002092890B4202EA010202D0002A01
:101FD00000D00120B7E4C9430182B4E4C64910B57A
:101FE00088420AD101218C032046FFF7F9F92046E7
:101FF000BDE810400021FFF7F3B9C049884202D183
:1020000001214C0410E0BE49884202D101218C0418
:102010000AE0BC49884202D10121CC0404E0BA495B
:1020200088420AD101210C052046FFF7E2F920463B
:10203000BDE810400021FFF7DCB910BD30B5044603
:10204000008A85B00D464CF6FF710840E9880143CF
:102050002182A0894EF6F3110840A9882A891143EC
:102060006A8902431143A181A08A4FF6FF410840CB
:10207000A9890143A1826846FFF755F99E48844229
:1020800001D1039800E00298A1890904002900EB1E
:10209000C00101EB0010296802DA4FEA410101E0BA
:1020A0004FEA8101B0FBF1F06422B0FBF2F14FEA9C
:1020B00001114FEA11136FF018056B43A58900EB6E
:1020C000830032232D0406D503EBC000B0FBF2F0F1
:1020D00000F0070005E003EB0010B0FBF2F000F0A9
:1020E0000F000843208105B030BD4FF41651016048
:1020F00000218180C18001810C2242818181704751
:1021000030B5028A4FF2FF031A400B884D888C8845
:10211000C9882B430C4323431343038230BD002162
:10212000018041808180C18070470029818902D06F
:1021300041F4005101E021F400518181704710B554
:10214000C1F3421301F01F040121A140012B01D171
:102150000C3004E0022B01D1103000E01430002AD2
:10216000026801D00A4300E08A43026010BD002AE1
:10217000828A01D00A4300E08A4382827047028A41
:1021800022F00F020282028A0A4302827047828989
:1021900022F40062828182890A4382817047002989
:1021A000818902D041F0020101E021F00201818128
:1021B0007047028A22F020020282028A0A430282C7
:1021C00070470029018A02D041F4804101E021F4E6
:1021D000804101827047C1F3080181807047808887
:1021E000C0F308007047818941F001018181704787
:1021F000028BD2B20283028B42EA01210183704733
:10220000028B02F47F420283028B0A4302837047EF
:102210000029818A02D041F0200101E021F0200153
:10222000818270470029818A02D041F0100101E0CB
:1022300021F01001818270470029818A02D041F08B
:10224000080101E021F0080181827047002981899D
:1022500002D041F4004101E0C1F30E0181817047D9
:102260000029818A02D041F4006101E021F400617B
:1022700081827047828A22F004028282828A0A4323
:10228000828270470029818A02D041F0020101E078
:1022900021F00201818270470246128800200A4222
:1022A00000D001207047C9430180704770B501F02C
:1022B0001F0601250024C1F3421305FA06F2012B83
:1022C00001D1838904E0022B01D1038A00E0838AD3
:1022D0004FEA11210088134205FA01F500EA0500D2
:1022E00001D000B10124204670BD0A0A01219140AD
:1022F000C94301807047000000380140004400409D
:1023000000480040004C00400050004010B54648D6
:10231000016841F0010101604168444A1140416097
:102320000168434A11400160016821F48021016085
:10233000416821F4FE0141604FF41F01816000F00B
:102340002FF83C494FF00060086010BD10B5364AC8
:102350005068394B10F00C01384803D0042901D0E3
:10236000082901D0036011E051685368022401F488
:10237000701104EB914113F4803F02D053689B032A
:1023800001D52F4B00E02C4B5943016052682B497B
:10239000C2F30312091D895C0268CA40026010BDC5
:1023A000214900200A6842F480320A604FF4A06399
:1023B0000A68401C12F4003F01D19842F8D1086825
:1023C000800330D51F48026842F0100202600268A4
:1023D00022F003020260026842F0020202604868D2
:1023E000486048684860486840F4806048604868D1
:1023F00020F47C104860486840F4E81048600868A1
:1024000040F08070086008688001FCD5486820F0C2
:1024100003004860486840F0020048604868C0F324
:1024200081000228FAD17047001002400000FFF836
:10243000FFFFF6FE08ED00E000127A001400002015
:1024400000093D00002002402DE9F05F24490A20E8
:10245000087000F035FD02F038FA00F069FE00F077
:10246000F2FD01F0E1FC01F031FE00F00AFA02F0A9
:1024700053FB012000F038FA194C0126194FDFF800
:102480006880DFF868900025DFF864B04EF6602AB7
:10249000A41C00BFC7F8A46102F067F90FF055FE55
:1024A00002F002F898F8000008B100F0A2FED9F896
:1024B00000010028208808D108B900F0C4FD208858
:1024C0005045E7D8401C2080E4E76428E2D3ABF80D
:1024D000A05000F07AFD002000F006FA2580D9E730
:1024E0002800002000802142FA0000200000214244
:1024F0000010002042F6E06305E019460A00A1F151
:10250000010189B2FAD10100A0F1010080B2F4D139
:102510007047F0B5ED49DFF8B8C301EB40010A465A
:1025200001F5905102F58052CCE902120E88E94D76
:1025300000F5C061138801F00704E74F2A5D07EB3F
:10254000D101B3421DD20B7800F56050134200F068
:10255000070207EBD00003D00178AA5C11430EE01C
:10256000DE4E345D23400B700178AB5C194207D01E
:10257000DCF80C30002119800178B25C1140017048
:10258000F0BD087810430870F0BDD04970B501EB7C
:10259000400101F59053CE4A01F58051C2E9023164
:1025A00000F5C0610C46CC4B04F00706CB4C03EBA6
:1025B000D1010D78A65D35400D7000F5B0510D4686
:1025C00003EBD10105F007050E78655D00F560505D
:1025D0002E400E7003EBD00100F007000B78205C5A
:1025E00003400B70916800200880D168088070BD9E
:1025F000F0B5DFF8D8C2B84EB64DB54F002000BFD9
:102600000CEB400101F5905201F5805100F5B054FA
:10261000C7E9022106EBD40304F007041B782C5D04
:1026200023420FD00B88128893420BD200F5C06270
:1026300006EBD20402F007022478AA5C144201D10E
:102640005B1C0B80401C80B2C828D9D3F0BDF0B50C
:10265000DFF878C2A04E9F4D9D4FC8200CEB400183
:1026600001F5905201F5805100F5B054C7E90221FF
:1026700006EBD40304F007041B782C5D23420FD033
:102680000B88128893420BD200F5C06206EBD2048D
:1026900002F007022478AA5C144201D15B1C0B8073
:1026A000401C80B2F628D9D3F0BDF0B5DFF81CC2CB
:1026B000894E884D864FF6200CEB400101F5905273
:1026C00001F5805100F5B054C7E9022106EBD403AF
:1026D00004F007041B782C5D23420FD00B8812886E
:1026E00093420BD200F5C06206EBD20402F007025F
:1026F0002478AA5C144201D15B1C0B80401C80B280
:10270000FA28D9D3F0BDF0B5DFF8C0C1724E714DD3
:102710006F4FFA200CEB400101F5905201F580510A
:1027200000F5B054C7E9022106EBD40304F0070416
:102730001B782C5D23420FD00B88128893420BD25A
:1027400000F5C06206EBD20402F007022478AA5C0E
:10275000144201D15B1C0B80401C80B2FF28D9D9E8
:10276000F0BD2DE9F04700254FF080400582584F1D
:10277000B8880A30B8803878401C387000F028FAE1
:102780003878554C534E632808D93D7094F8E101D0
:102790003179084384F8E101FFF787FF38784FF07B
:1027A0000A09B0FBF9F2B84609FB12004B4F0728A3
:1027B00007D1FFF74CFF94F8E101F978084084F85D
:1027C000E10198F800004346B0FBF9F209FB120161
:1027D000022905D194F8E111F278114384F8E1114E
:1027E0009846322807D1FFF703FF94F8E1013979C1
:1027F000084084F8E10198F800005A280AD1FFF750
:1028000082FFB8F80200401CA8F8020034480570A6
:102810003448057098F8000000F00F00022803D13A
:1028200002F0E1F802F07FF9B8F80200C446B0FB0C
:10283000F9F209FB1201052905D194F8E1217B7910
:102840001A4084F8E12129B994F8E1117279114311
:1028500084F8E111B0F5967F04D194F8E101B979DB
:10286000084004E038B994F8E101B179084384F8EC
:10287000E101BDE8F087B0F5167FFAD3ACF802505D
:10288000F7E73EB501210846FEF7A1FD48F6A04056
:10289000ADF804000120ADF800000020ADF80600FE
:1028A000ADF802004FF0804469462046FEF7EEFE88
:1028B00001212046FFF78FFB012211462046FFF73A
:1028C00098F901212046FFF77FF93EBD0010002056
:1028D000E0000020EC5F000800100020F45F00081A
:1028E0000C0100200D0100202DE9F84304460021D1
:1028F0004FF00060FDF7B5FC4FF48060FDF77EFC03
:1029000025208DF8000002268DF8016000258DF845
:1029100002508DF803406846FDF775FC0E208DF8D7
:1029200000004FF003088DF801808DF80260012649
:102930008DF803606846FDF766FC27208DF80000DF
:102940008DF801608DF802508DF803406846FDF760
:102950005AFC1D208DF8000005208DF801008DF82F
:1029600002508DF803406846FDF74DFC1E208DF89F
:10297000000004278DF801708DF802508DF8034097
:102980006846FDF740FC32208DF8000006208DF8E7
:1029900001008DF802508DF803406846FDF733FCC6
:1029A0002E208DF800008DF801508DF802608DF812
:1029B00003606846FDF727FC1C208DF800008DF8A9
:1029C00001508DF802508DF803406846FDF71BFC5E
:1029D00028208DF800008DF801708DF802508DF8D8
:1029E00003406846FDF70FFC17208DF800008DF8B6
:1029F00001808DF802508DF803406846FDF703FC16
:102A0000BDE8F8831CB50F210020FEF74AFB4FF408
:102A10008050009000208DF804000C208DF80500F7
:102A200001208DF806006846FDF789FF4FF400602D
:102A300000906846FDF783FF1CBD1CB509210220EC
:102A4000FEF72FFB4FF40070009000208DF804007B
:102A50000C208DF8050001208DF806006846FDF772
:102A60006EFF08210220FEF71CFB4FF480700090DF
:102A70006846FDF764FF07210220FEF712FB802065
:102A800000906846FDF75BFF06210220FEF709FB78
:102A9000402000906846FDF752FF1CBD38B501216B
:102AA000F848FEF7D5FA0120ADF8000004258DF8AE
:102AB000035002248DF802406946F348FEF73BFAC2
:102AC0002003ADF800008DF80350F04D8DF8024062
:102AD00069462846FEF72FFA4FF44070ADF8000023
:102AE00014208DF803008DF802406946E848FEF78F
:102AF00022FA4FF4E070ADF8000010208DF80300CA
:102B000003208DF8020069462846FEF714FA38BD06
:102B100038B50121DB48FEF79BFACE20ADF8000066
:102B200004258DF8035002248DF802406946D648EA
:102B3000FEF701FA4FF20300ADF800008DF80350E4
:102B40008DF802406946D248FEF7F5F93020ADF81D
:102B500000008DF803508DF802406946CB48FEF71F
:102B6000EAF938BD38B50121C648FEF771FA4FF4CD
:102B70001940ADF8000001258DF8025010248DF8A1
:102B800003406946C048FEF7D6F9F820ADF80000CA
:102B90008DF802508DF803406946BD48FEF7CBF929
:102BA0004FF4F050ADF800008DF802508DF803405E
:102BB0006946B648FEF7BFF90420ADF800008DF86D
:102BC00002508DF803406946B248FEF7B4F938BDAB
:102BD00070B5B14ED6F80451B149B0480B7890F8B1
:102BE0008040B04900221DB10A7024F0010408E0C1
:102BF00091F900509D4202DA6D1C0D7003E044F023
:102C0000010480F88040D6F808412CB14A7090F851
:102C1000804024F002040AE091F901409C4202DA6B
:102C2000641C4C7005E090F8804044F0020480F889
:102C30008040D6F80C412CB18A7090F8804024F086
:102C400004040AE091F902409C4202DA641C8C7090
:102C500005E090F8804044F0040480F88040D6F805
:102C600018412CB1CA7090F8804024F008040AE0A2
:102C700091F903409C4202DA641CCC7005E090F8A4
:102C8000804044F0080480F88040D6F81C412CB104
:102C90000A7190F8804024F010040AE091F9044091
:102CA0009C4202DA641C0C7105E090F8804044F00C
:102CB000100480F880407C4DD5F810412CB14A7149
:102CC00090F8804024F020040AE091F905409C42ED
:102CD00002DA641C4C7105E090F8804044F0200456
:102CE00080F88040D5F814412CB18A7190F880406A
:102CF00024F040040AE091F906409C4202DA641C88
:102D00008C7105E090F8804044F0400480F88040E9
:102D1000664ED6F800412CB1CA7190F8803023F08D
:102D200080030AE091F907409C4202DA641CCC71EE
:102D300005E090F8803043F0800380F88030D6F8CA
:102D40000451564B93F88140B3F8283E1DB10A72E6
:102D500024F0010408E091F908509D4202DA6D1C4C
:102D60000D7203E044F0010480F88140D6F8304150
:102D70002CB14A7290F8814024F002040AE091F9E3
:102D800009409C4202DA641C4C7205E090F88140D4
:102D900044F0020480F88140D6F834412CB18A72A4
:102DA00090F8814024F004040AE091F90A409C4222
:102DB00002DA641C8C7205E090F8814044F004044F
:102DC00080F88140D6F838412CB1CA7290F8814021
:102DD00024F008040AE091F90B409C4202DA641CDA
:102DE000CC7205E090F8814044F0080480F88140FE
:102DF000D6F83C412CB10A7310F8811F21F0100164
:102E00000AE091F90C209A4202DA521C0A7370BD52
:102E100010F8811F41F01001017070BD1F4B10B5FB
:102E2000A03318782249C0F300020A60214AC0F397
:102E300040041460C0F38004D460C0F3C004146183
:102E4000C0F30014D461C0F340124A60C0F3801292
:102E50008A60C009C86058781749C0F30002C1F8F9
:102E600088211649C0F340020A60C0F380024A601C
:102E7000C0F3C0028A60C0F30012CA60C0F3401001
:102E8000086110BD00023000000801400010014040
:102E9000000C0140001401400000214200100020FD
:102EA000F0000020AC0700200000224200802142F8
:102EB000A4012242A0012142008022428C812142B1
:102EC00010B501213C20FEF779FA01210846FEF7F2
:102ED00075FA064901200860FFF744FEFFF79EFFE0
:102EE000FFF716FEBDE81040D8E50000A48121429E
:102EF00010B50E48002404800D48D0F824210D4957
:102F0000C0F8A4412AB1B1F8180F401CA1F8180F5D
:102F1000FFE7B1F8F201800707D50448002201213C
:102F20001038FEF766FE0448047010BD100400401F
:102F30000000224200100020F100002028B1764A53
:102F4000764B1178DB79194311707549A1F87E0E23
:102F500070472DE9F04105460C281BD2FDF76DFDA9
:102F6000704E06EBC520FDF7A3FD00246E4FED0269
:102F70004FF4806805EB4400304480B237F81410F9
:102F8000FDF755FE641CA4B24445F3D3BDE8F041FF
:102F9000FDF75FBDBDE8F08170B50C2814D20021AB
:102FA000624B614DC4024FF4806600BF04EB4100E8
:102FB00080B21A5C1844407802EB002025F811001A
:102FC000491C89B2B142F1D370BD30B4544B564A5A
:102FD000002041F2F41141F2B63500BF33F8114040
:102FE00022F81040401C491C89B280B2A942F5D396
:102FF00040F2645140F2965533F8114022F81040E7
:10300000401C491C89B280B2A942F5D340F6640144
:1030100040F6960533F8114022F81040401C491C38
:1030200089B280B2A942F5D35FF0200133F8114094
:1030300022F81040401C491C89B280B24029F5D3C7
:1030400030BC0A2085E730B500240A20FFF7A4FF32
:10305000354A334941F2F41041F2B63532F81430B2
:1030600021F81030641C401C80B2A4B2A842F5D3F1
:1030700040F2645040F2965532F8143021F8103086
:10308000641C401C80B2A4B2A842F5D340F6640090
:1030900040F6960532F8143021F81030641C401CBC
:1030A00080B2A4B2A842F5D35FF0200032F8143009
:1030B00021F81030641C401C80B2A4B24028F5D323
:1030C00030BD174A4FF480504FF43D53002100BFEC
:1030D00022F81010401C80B29842F9D34FF4A0603F
:1030E0004FF4C06322F81010401C80B29842F9D30C
:1030F0004FF400604FF4106322F81010401C80B2AF
:103100009842F9D35FF0000022F81010401C80B202
:103110008028F9D370470000E7110020EC5F000819
:103120000010002000600008886E00200060000889
:1031300030B5F94852238381F84AF94C002000BF8A
:1031400032F8105000F5E061401C80B224F81150B4
:103150007E28F5D3F34AF448D15C01801A445278B2
:1031600089B242EA01210180F04809230370EA494B
:10317000C82010310870487030BD2DE9F041054677
:10318000112821D2FDF759FCE94E06EBC520FDF7C9
:103190008FFC0024E74FED024FF4806807EB8402B8
:1031A00037F82410528805EB4400304401EB02212B
:1031B00080B289B2FDF73BFD641CA4B24445EDD357
:1031C000BDE8F041FDF745BCBDE8F08130B5112800
:1031D0000ED2D44BD74C00214FF4006501EBC02236
:1031E00092B29A5C24F81120491C89B2A942F5D305
:1031F00030BDC9490878002809D0002008708871BE
:10320000CD4849898164416C41F0010141647047B6
:103210002DE9F04100260546012827D10020FFF7BF
:10322000D5FFC4490F20A1F8B800A1F8BA605E200C
:103230004FF6FF724FF4006321F81020401C80B25B
:103240009842F9D3FDF7F9FBBC48FDF731FC0020AB
:10325000FFF793FFB64F012407EBC420FDF728FCCE
:10326000641CA4B20A2CF7D3FDF7F3FBB44A022D79
:1032700007D1101447F67E638654801C80B29842B2
:10328000FAD3032D05D100208654801C80B2BE28BD
:10329000FAD3AC49062048709F490120488193E742
:1032A00010B59D4B02461C890020D21C0321641ED0
:1032B00006E000BF12F8013B491C1844C0B289B2B5
:1032C000A142F7DB10BDF0B5934904200D899E4B58
:1032D0009E4C9C4EAD1E0BE01F18195C7F78615C04
:1032E00006EB5002E75D801C07EB0111117080B204
:1032F000A842F1DBF0BD9349874AC878897801EB91
:103300000020908170478F49834AC878097901EB82
:103310000020D0817047F8B580498A4F31F81000FD
:10332000009002207870DFF8F0C10022104601F50D
:103330000075EE469CF8056013E000BF1EF80030F3
:1033400005EB13110C7807EB40018C7003F00F03B1
:10335000EB5CCB70C978E3B219441144401CCAB28B
:1033600080B2B042EAD3032107EB40039970D21C2C
:10337000D1B205EB1112127801F00F01DA70695C1D
:103380001971042101EB4000ACF80A00F8BDA0F56A
:103390008041B1F57A5F02D2A0F5005032E0A0F58D
:1033A00020717C2904D9A0F51072C031162A01D8E9
:1033B00088B27047A0F5C073162B01D8E03821E021
:1033C000A0F500731F2B02D8A0F5A0701AE0A0F59D
:1033D000A0631F2B01D890B27047A0F5F0721F2A8E
:1033E00001D820380EE0BF2802D800F5807009E02F
:1033F000A0F1C002BF2A02D800F5886002E01F29B0
:10340000EAD8203080B270474FF4C062904202D2B6
:1034100000F5006035E0A0F5C061914202D200F5F0
:1034200008502EE0A0F54061B72902D8A0F5E06071
:1034300027E0A0F590521346A0F56061BF2A01D89D
:1034400088B27047A0F5A052B2F57A7F01D290B24F
:103450007047A0F52052FF2A01D898B27047A0F516
:103460008052FF2A02D8A0F520600AE0FF2902D886
:1034700000F5807005E0A0F57061FF29EED8A0F599
:10348000807080B270472DE9F04302212D48DFF8AB
:10349000BC80002641703446A8F114081E4F8146B6
:1034A00021E0B889204480B2FFF771FFDFF890C0B7
:1034B00009EB440510F80C0008EB10100078A87018
:1034C000B889204480B2FFF762FF10F80C00641C3A
:1034D00000F00F0018F80000E870A878E978A4B2AE
:1034E00008443044C6B278798442DAD3032109EB28
:1034F00044008170F61CF1B208EB11131B7801F047
:103500000F01C37018F801100171042000EB440092
:103510007881BDE8F0830000F4000020BA41010882
:10352000001000200060000800500020E011002082
:1035300000600008886E002000000240006800085B
:10354000001000208C7E002080800020CE430108E7
:10355000F0B5FD4D0422A978E87802EB0121FB4E7D
:103560000844B0810024FA4F09E0B089204480B2B9
:10357000FFF70DFF29194979641CC155A4B2707970
:103580008442F2D30620687001207081F0BD30B50E
:10359000ED4CE078A17800EB012080B2FFF734FF1A
:1035A000EB4901EBD005E078A17800EB012080B277
:1035B000FFF72AFFE74900F00700085C2978084375
:1035C000287006206070E1490120488130BD30B587
:1035D000DD4CE078A17800EB012080B2FFF714FF0A
:1035E000DB4901EBD005E078A17800EB012080B247
:1035F000FFF70AFFD84900F00700085C2978084067
:10360000287006206070D1490120488130BDCE4825
:10361000CE49C278807802EB002080B28881A0F584
:103620006060023803D0C82803D1652000E0012083
:1036300071E628E730B5C54DA889A0F5606123394A
:103640001ED00922C24C012905D0022908D10A2026
:1036500084F8E00114E084F8E021002068700FE0B5
:1036600084F8E021FFF7D0FE04EBD004A889FFF72F
:10367000CBFEB84900F00700085C217808432070B1
:10368000B149062048700120688130BD30B5AF4D8A
:10369000A889FFF7B9FEAE4901EBD004A889FFF76E
:1036A000B3FEAD4900F00700085C217808402070A7
:1036B000A549062048700120688130BD2DE9F04FF2
:1036C000DFF88492022189F8011099F8041099F822
:1036D0000300002701EB002080B2FFF758FEDFF85F
:1036E0006CA241F29071AAF80C0080B2884203D01B
:1036F000A0F5B852D03A60D188425ED197480024F4
:103700008046B0F800042646DFF854C2C5B223E074
:103710000CEB460000F58050B0F80404FFF737FECC
:103720000CEB440240083CF8101002F58052A2F85D
:103730009017641CA0F5C061A4B26E290AD80CEBE6
:1037400044010CEB4000408801F58051641CA1F855
:103750009007A4B2761CF6B2AE42D9D3B8F80204F0
:1037600000254FF0010B00F0FF0824E070190CEB6E
:10377000400000F58050B0F80404FFF745FE010951
:103780003CF8111000F00F020BFA02F28A4304EB2E
:1037900015110CEB410101F58051B1F8902705F0AE
:1037A0000F030BFA03F001D1024300E082436D1CCA
:1037B000A1F89027EDB24545D8D30020694CC84602
:1037C000DFF88CE1D446BAF80C509AF8056013E0A3
:1037D000291811F80E2004EB12110B7808EB4001A8
:1037E0008B7002F00F02A25CCA70C978DAB2114481
:1037F0003944401CCFB280B2B042E9D3032208EB77
:1038000040018A70FF1CFAB204EB12131B7802F01D
:103810000F02CB70A25C0A71042101EB4000ACF8EE
:103820000A00BDE8F08FF0B5474D484E2879E97899
:10383000002400EB0120B081454F09E0B08920440D
:1038400080B2FFF7A4FD29198979641CC155A4B27F
:1038500070798442F2D30620687001207081F0BD37
:103860002DE9F041DFF8E0C0022038498CF8010072
:10387000C8890022A0F5004086B2CE811046394D9D
:10388000DFF8E4E088464F7913E031181EF8013084
:1038900005EB13110C780CEB40018C7003F00F0357
:1038A000EB5CCB70C978E3B219441144401CCAB236
:1038B00080B2B842E9D303230CEB4001D21C8B70D9
:1038C000D2B205EB12131B7802F00F02CB70AA5C88
:1038D0000A71042101EB4000A8F80A0074E42DE904
:1038E000F047DFF86480194E98F8041098F8030048
:1038F000174F01EB002080B20A21B08187F8E01158
:103900004FF0010986F80190B0F5004F49D300212E
:10391000164AA0F500401170B0810C4606F1100562
:10392000134F3AE0B0890119C80A2870C2B268780A
:1039300082421FD108EB04005242807901EBC22180
:1039400027F8110027E000008C7E0020F400002002
:1039500000100020EC5F0008F45F00080020002049
:1039600000100020BA430108006000083B0000205E
:10397000886E0020FFF701FC2878FFF727FC2878E5
:103980006870B28908EB040122444042897902EB55
:10399000C02027F81010641CA4B270798442C1D3EF
:1039A00011E0001DB0810024454609E0B0892044A3
:1039B00080B2FFF7ECFC29198979641CC155A4B2C7
:1039C00070798442F2D3062188F80110A6F80A9093
:1039D000BDE8F08770B50522A0F50040F94B0C0A50
:1039E000CDB280B245F6DB66195CA94205D1191843
:1039F0004978A14201D1002201E0801C80B2B0428E
:103A000001D8032AF0D800F5004080B270BD70B52F
:103A1000ED4CEE4D6179A07901EB002081B2E8898F
:103A2000FFF7D8FFE881022060703120A070E8899C
:103A3000010AC2B2E64800EB11131B78E37001F0F3
:103A40000F01415C217100EB12110978617102F0E4
:103A50000F01415CA1710321E171D9B222793131A9
:103A6000114462791144A2791144C91CC9B200EB16
:103A700011121278227201F00F01405C607209206D
:103A8000688170BD30B50A280ED2D24BD24C0021CD
:103A90004FF4006501EBC02292B29A5C24F8112029
:103AA000491C89B2A942F5D330BD2DE9F05FC74E5C
:103AB00005468846B17000F500400F2180B2FFF73F
:103AC00089FF4044A0F5004084B25B2D2AD9A5F1BE
:103AD0005C0001044FEA115CB178A4F15C00490874
:103AE000C9B2C0F34E00C00801F00703CA08B370A2
:103AF000BA490BE00E1816F8016C0F5C06EB0726AE
:103B00009E40360A8718401ECE5580B26045F1D1DE
:103B10000E1816F8016C0F5C104406EB07269E4049
:103B2000330A0B544FEAD42AE00A8346B0EBD52F70
:103B300002D1C5F30A0700E00027BAEBD42F03D166
:103B4000C4F30A06761C01E04FF400665846FFF7FE
:103B50003DFB4FEAD42938464FEAC9299D4ADFF890
:103B600078C2731C0AE000BF09EB0001A1EB080159
:103B700089B2515C2CF81010401C80B29842F3D3EB
:103B80005846FFF7FAFAF01B201A84B205EB08003A
:103B9000A042C9D3BDE8F09F2DE9F0418A4F8B4E7A
:103BA0007879B979081A10F0FF0105D0F089A0F5ED
:103BB000004080B2FFF779FF89490020834D0870EB
:103BC0006420103528706870F97838794FF4004215
:103BD00002EB01210844B081B87900247071DFF84C
:103BE000F88121E0B0890119C80A2870C2B268784A
:103BF000824207D138195242C07901EBC22128F81C
:103C000011000FE0FFF7B9FA2878FFF7DFFA2878FC
:103C100068703919B28940422244C97902EBC02048
:103C200028F81010641CA4B270798442DAD3287882
:103C3000FFF7A3FA06207870012070814EE66349F1
:103C4000C8201031487008705F49062048705F49ED
:103C500001204881704710B55C4C10346078FFF744
:103C60008CFAC82060702070FCF7F3FE56490620DD
:103C7000487056490120488110BD70B5534B1889D2
:103C80000B281ED157490879372801D0382818D178
:103C90004F4A8C7914324D79145D555D04EB05144F
:103CA000CD79097A555D515C2D0305EB0121214445
:103CB0009981372802D1BDE87040BBE4BDE870406F
:103CC000E4E4FFF720FB40498878612830D010DC1D
:103CD000112824D007DCE0B101281DD010282FD1F5
:103CE000BDE870409FE541281FD0602828D1012001
:103CF00022E077281CD005DC62281CD063281FD165
:103D0000022019E087280DD0D12819D1BDE87040D4
:103D100042E7BDE87040D1E4BDE87040A0E5BDE8F1
:103D20007040DCE5BDE8704095E7BDE870406EE6A8
:103D3000BDE8704083E70320BDE87040FFF768BA34
:103D4000152048700120588170BD10B51F4806210C
:103D50001D4A048901235170438110BD70B5FFF7DE
:103D6000B2FA2048184DC078184C37283CD008DCEF
:103D700030281CD031281FD034280CD1FFF7E5FFA4
:103D800009E0382835D0422838D0452803D1687951
:103D90006071FFF772FF608922890121104302D10F
:103DA00015206870618100202081A17170BD287983
:103DB0006071FFF72CFCEEE728796071FFF7C8FB14
:103DC000E9E70000006000088C7E0020F40000207D
:103DD000BA43010800500008886E002000D200207D
:103DE0003B00002080800020FFF785FAFFF7CFFB23
:103DF000D1E7FFF780FAFFF7EAFBCCE7FFF72BFFED
:103E0000C9E71FB500900020ADF80400ADF806002A
:103E1000ADF80800ADF80C000C20ADF80A006946BA
:103E20009048FEF70BF91FBD10B501218CB0880337
:103E3000FDF7C4FA01210846FDF7B7FA8A4C20467F
:103E4000FCF790FC87488021001D01908748029074
:103E5000102003908F2004900020CDE905010790E9
:103E600008908901CDE909010B9001A92046FCF7D2
:103E7000EBFC012202212046FCF71BFD4FF496408B
:103E8000FFF7BFFF774C012240F225512046FEF795
:103E900056F9012280212046FEF769F901212046CA
:103EA000FEF743F96015ADF8000003208DF802001D
:103EB00018206F4C8DF8030069462046FDF73BF84B
:103EC0002015ADF8000004208DF803006946204657
:103ED000FDF731F80CB010BD63484438416841F437
:103EE00000514160416C4FF6FE72114041646149DE
:103EF0000120087070472DE9F0475A48001D0188DD
:103F0000DFF8749101F07F01C8B206270124594EF1
:103F100089F800104FF00008A9F5FA75052806D1B8
:103F2000A6F808806F707481FFF763F922E0022819
:103F300001D1348121E03089F8B9307901280CD1E0
:103F40004FF49640FFF75DFFA6F808806F7074810C
:103F5000FFF74FF986F804800CE000281DD14FF4DC
:103F60001650FFF74EFFA6F808806F707481FFF7B8
:103F700040F93471308900280FD030894F46401CF9
:103F800080B2308199F8001009F80010B0F5C87FB0
:103F900004D9A6F80A80A6F8088019E50328FCD9F8
:103FA000384410F8020C0328F7D13348FFF778F9AA
:103FB000F0703089314B391811F8012CF17803EB8E
:103FC000111C9CF800C0624508D101F00F01385C5B
:103FD000595C884202D1BDE8F047BFE61520687001
:103FE0007481BDE8F047FFF704B970B51D4C40F28D
:103FF000255529462046FEF759F9012805D12946BD
:104000002046FEF772F9FFF776FF08212046FEF7FB
:1040100043F9012806D108212046FEF744F920463D
:10402000FEF7DDF840F2277529462046FEF73EF9F7
:10403000012808D129462046FEF757F900222946D3
:104040002046FEF77CF840F2266529462046FEF71A
:104050002DF9012805D129462046BDE87040FEF71C
:1040600044B970BD00380140440002408D7E0020FC
:1040700000080140F400002080800020BA430108BD
:1040800070B5FF4DFF22134605F5807606E000BFB0
:1040900010F8014B54402A5D5A40335D491EF7D257
:1040A00043EA022070BD1FB500900020ADF8040067
:1040B000ADF80600ADF80800ADF80C000C20ADF826
:1040C0000A006946EF48FDF7B9FF1FBD38B5012169
:1040D0008804FDF77CF901210820FDF76FF94FF402
:1040E0000060ADF800000420E74C8DF8030069463D
:1040F0002046FCF720FF2015ADF8000003208DF8C6
:10410000020018208DF8030069462046FCF713FFD3
:104110004FF49640FFF7C7FFDA4C012240F22551D9
:104120002046FEF70CF801212046FDF7FEFFD74898
:104130000021A0F8041F0121A0F8F21E38BD2DE9CE
:10414000F04FDFF84C83DFF844E343469F78DE7896
:1041500098F8010006EB072259791C79DFF834A39F
:1041600089B041F26F7C0EEB4203A8F164094FF075
:10417000000B05287DD013DCC54C0128257801AC47
:104180003BD0022877D0032801D004286ED18DF8C7
:1041900004508DF8050048008DF806000020C3E0AB
:1041A000BB4EBA4FB578F678062806EB052507EB27
:1041B000450505F500557DD00F2857D0102855D15D
:1041C000B3496245C879097A03D884B201EB042463
:1041D0002C80B2F5FA5F07D32880A3F58053B3F89B
:1041E000600001EB002028808AF801B05E4654464A
:1041F0008AF806B000204D4623E18DF804508DF872
:1042000005008DF806708DF80760B3F8A000010A6C
:104210008DF808108DF80900062101A8FFF730FF7E
:10422000010ACAF808008DF80A108DF80B008AF808
:1042300001B055465E468AF806B000204F46235C22
:10424000A979401C4A1C7B54C0B2AA710728F6D930
:10425000012240F227718B48FDF771FF0020414693
:104260000E54401CC0B20A28FAD9EE7009B0BDE85D
:10427000F08FC0E0FFE78DF804508DF805008DF851
:1042800006708DF80760B3F88000010A8DF80810F9
:104290008DF80900062101A8FFF7F2FE010ACAF80D
:1042A00008008DF80A108DF80B0055465F468AF815
:1042B00001B000E071E08AF806B000204E46235CB1
:1042C000A979401C4A1C7354C0B2AA710728F6D9B8
:1042D000012240F227716B48FDF731FF0020414673
:1042E0000F54401CC0B20A28FAD9EF70BEE7131869
:1042F000634509D80EEB400505F500552E8804EB03
:104300004005370AEF702E71B3F5FA5F0AD30EEB52
:104310004303A3F58053B3F8605004EB40032E0A27
:10432000DE701D71401CC0B245468142DFD89DF849
:10433000061001A8C91CFFF7A3FECAF808009DF8E3
:104340000620010A0DF10703D1549DF8062002A9A9
:1043500050548AF801B08AF806B09DF806C0564657
:1043600000200CF1040C4F4606E0B179235C4A1C96
:104370007B54401CB271C0B28445F6D2012240F297
:1043800027714048FDF7DBFE002059462954401CA8
:10439000C0B20A28FAD9F17068E7624503D8A0B222
:1043A00001EB00202880B2F5FA5F03D3A0B201EB45
:1043B000002028808AF801B05E4654468AF806B08C
:1043C00000204D4618F80030A179401C4A1C6B545F
:1043D000C0B2A2710728F5D9012240F227712948FD
:1043E000FDF7ADFE5FF0000008F80060401CC0B2B1
:1043F0000A28F9D956E001EB0420A3F8A0008AF8B6
:1044000001B05E4654468AF806B000204FEA09051E
:1044100018F80030A179401C4A1C6B54C0B2A2713C
:104420000728F5D9012240F227711648FDF787FECB
:104430005FF0000008F80060401CC0B20A28F9D9FB
:1044400030E018F80030A179401C4A1C6B54C0B20F
:10445000A2710628F5D306210D48FFF711FEA060D2
:10446000A179020A6A54491CC9B26854491CA17155
:10447000012240F227710348FDF761FE00200BE0A6
:104480001B44010800480040000C014000100020BF
:10449000D88200200801002008F80060401CC0B24B
:1044A0000A28ECD9E670E1E62DE9F0415F4D287964
:1044B000002853D12878002601284CD15C4F2E705B
:1044C000B7F8040F002846D15A4CB7F8F21E2078EE
:1044D000884240D1A87808280AD909212046FFF748
:1044E000CFFDA860A27AC1B2914210D1617A09E0F1
:1044F00006215048FFF7C4FDA860E279C1B291429D
:1045000005D1A179B1EB102F01D1FFF718FEB7F853
:10451000040F01281FD12078B7F8F41E88421AD161
:1045200005214448FFF7ACFDA860A279C1B29142D1
:1045300011D16179B1EB102F0DD12079E1783E4A8C
:1045400000EB0120A2F89C0000202654401CC0B2C1
:104550000A28FAD9AE70AE7001202871BDE8F0814A
:104560002DE9F041354D40F2255631462846FDF7FC
:104570009DFE2E4C00B331462846FDF7B6FE20794D
:10458000D0B12846FDF72BFE61792A4FC0B2012633
:1045900009B93870667126493878B1F8F21E884238
:1045A0000AD12846FDF71BFEA1787854491CC8B2F1
:1045B000A070072800D3267008212846FDF76CFE5E
:1045C000012806D108212846FDF76DFE2846FDF793
:1045D00006FE40F2277631462846FDF767FE0128A1
:1045E00015D1144960786439095C401C6070284614
:1045F000FDF7F1FD6078A179884204D100223146AF
:104600002846FDF79CFD31462846FDF76EFE40F238
:10461000266421462846FDF749FE01289ED1214601
:104620002846BDE8F041FDF760BE97E7080100208D
:1046300000100020D88200200030002000480040F8
:1046400081070ED16421B0FBF1F201FB120131B9F7
:104650004FF4C871B0FBF1F201FB120008B9012060
:104660007047002070472DE9F05F05469846DDE968
:104670000AAB0023A0F5FC608C469146792802D352
:104680000120BDE8F09F4FF4FC64AB4EAB4F08E057
:104690002046FFF7D5FF08B1334400E03B44641CDB
:1046A000A4B2AC42F4D3ACF10100C6B20024A44FD2
:1046B000DFF890C20EE0385D40F2A321484303EBDF
:1046C000C0132846FFF7BCFF10B1012C00D1634492
:1046D000641CA4B2B442EED340F2A32109FB01F062
:1046E00003EBC0119748C8EB481240420144C2EBAB
:1046F000082001EB0011CAEB0A1001EB800000EB6F
:104700000B040120FCF700FDFCF7F3FE2046FCF74C
:10471000C3FEFCF7EEFE0020B3E770B54FF4C8759A
:10472000B0FBF5F303290DD2840706D14FF47A7458
:10473000B0FBF4F604FB160414B905FB13040CB922
:10474000521ED2B2024402EB90021A446423B0FB20
:10475000F3F0101A7C4A801E515C0844072190FB3C
:10476000F1F201FB1200C0B270BD2DE9FC47774A9F
:10477000774992F8E101CB79764E184212D006F6CD
:104780001A663088C3B27088C2B2CDE90023B088FF
:10479000C3B2F088C2B23089C1B27089FFF763FF3B
:1047A000BDE8FC8792F8E20189780842F8D0FCF76E
:1047B0006CFEDFF890810546B0FBF8F362481F46B7
:1047C000801E0188994239D003804FF4FC644FF475
:1047D000B77C4FF4B6790FE02046FFF731FF38B1D0
:1047E000634502D3A3F5B77304E0641CA4B205E0EB
:1047F000A3F26D13641CA4B24B45EDD8A6F8244E69
:104800000024DFF83CC111E0B6F8220EFFF718FFD4
:1048100028B1012C03D11D2B0AD31D3B04E01CF849
:104820000400984204D81B1A641CA4B21C2BEBD2BF
:10483000641CA6F8224E5B1CA6F8203E08FB17500D
:104840004FF46162B0FBF2F106F61A66B18002FB2A
:1048500011013C22B1FBF2F0708002FB101030809D
:10486000F088C2B23089C1B27089FFF756FFB081BB
:1048700096E710B501214FF0C050FCF7A8FD0120CC
:10488000FCF742FCFBF7A8FE0120FCF732FD4120BB
:10489000FCF7BBFC0028FAD04FF48070FCF73AFD1F
:1048A0000120FCF73CFDFCF72AFEFCF722FE01216B
:1048B0000846FCF7D3FDFCF71CFE47F6FF70FCF73B
:1048C000F7FDBDE81040FCF714BE10B50420FBF75F
:1048D000A9FE45F65A24A04206D0FFF7CAFF21469A
:1048E0000420FBF79BFE1AE001214FF0C050FCF7BB
:1048F0006EFD002041F28831401C80B28842FBD31B
:104900007B20FCF782FC10B97A20FCF77EFCFCF7D8
:1049100083FD01210846FCF7A1FDFCF7EAFD0E48E6
:104920000B4A41789278114341700C4A0178D27950
:104930001140017010BD00000085E2018033E101EB
:104940001B460108805101001601002000100020C4
:10495000EC5F000800100020E1110020F45F000867
:1049600010B586B001210420FCF728FD012148077D
:10497000FCF72DFD3020ADF8040000248DF8074031
:1049800001A92448FCF7D7FA3C20CDE90204022013
:10499000059002A90020FBF771FE02A91020FBF789
:1049A0006DFE01210020FBF781FE01211020FBF7A5
:1049B0007DFE01210020FBF791FE01211020FBF775
:1049C0008DFE00210846FBF7AFFE00210846FBF7ED
:1049D000AFFE01210020FBF781FE01211020FBF733
:1049E0007DFE06B010BD10B50B4C0020B4F8A01E23
:1049F000FBF79AFEB4F8A21E0020FBF799FE0121F6
:104A00000020FBF76BFE0121BDE810401020FBF7F2
:104A100065BE0000000801400010002030B591B0D4
:104A200001214FF40470FCF7C9FC01210846FCF792
:104A3000BCFC0F20ADF8000000248DF8034069464F
:104A40004848FCF778FA484D2846FBF78BFE474864
:104A500001904748CDE902044FF4C870CDE9040441
:104A60008020069040000790800008902020099048
:104A70000002CDE90A0401A92846FBF7E5FE012161
:104A80002846FBF70BFF01208DF834008DF8350028
:104A90004FF46020CDE90E040C94344C04208DF8C2
:104AA00040004C3C0CA92046FBF71CFC07230122CC
:104AB0000A212046FBF796FC072302220B21204601
:104AC000FBF790FC072303220C212046FBF78AFC0E
:104AD000072304220D212046FBF784FC01212046F8
:104AE000FBF732FC01212046FBF724FC2046FBF7B4
:104AF0003EFC2046FBF740FC0028FAD12046FBF79D
:104B000042FC2046FBF744FC0028FAD10121204654
:104B1000FBF745FC11B030BD10B5FFF77FFFBDE8D6
:104B20001040FFF71DBF70B50022114C114E114609
:104B30006425002004EBC00333F81130401CC0B2E0
:104B40001A446428F6D392FBF5F006EB410202F515
:104B50008042A2F81C0F491C0022C9B20429E8D3E4
:104B600070BD000000100140080002404C240140CC
:104B70003C8300200010002053EA020C00F0698002
:104B80002DE9F04B4FF00006002B1FBFB3FA83F561
:104B900003FA05F424FA05F65E4012BF1643B2FA92
:104BA00082F502FA05F4C5F120051EBF22FA05FCC4
:104BB00044EA0C04203556EA044C4FEA144418BF6A
:104BC000641C4FF000084FF00009904271EB030C99
:104BD00039D3002919BFB1FA81F701FA07F6B0FA03
:104BE00080F700FA07F6C7F120071EBF20FA07FC7E
:104BF00046EA0C062037B6FBF4FCA7EB0507103F8E
:104C000007F01F0BCBF120060CFA0BFB2CFA06F673
:104C100044BFB3460026202FA4BF5E464FF0000BD2
:104C20005BEA060C08BF4FF0010B19EB0B09ABFB5D
:104C3000027C48EB0608C01B06FB02CC0BFB03CC36
:104C400071EB0C01C1E70B46024641464846BDE800
:104C5000F08B13B54FF000004FF00001AFF3008070
:104C6000BDE81C407047B2F120030AD5C2F1200311
:104C700001FA02F120FA03F300FA02F041EA03011B
:104C8000704700FA03F14FF000007047B2F12003C3
:104C90000AD5C2F1200320FA02F001FA03F321FA47
:104CA00002F140EA0300704721FA03F04FF00001DF
:104CB000704770477047704710B500F009F80068FA
:104CC00010BD10B5044600F003F8046010BD0000EC
:104CD00001487047704700005C860020004870471C
:104CE0005C8600207546FFF7F9FFAE460500694671
:104CF000534620F00700854618B020B5FBF76CFA44
:104D0000BDE820404FF000064FF000074FF00008CC
:104D10004FF0000B21F00701AC46ACE8C009ACE84D
:104D2000C009ACE8C009ACE8C0098D46704704462C
:104D3000AFF300802046FBF73CFA000003494FF038
:104D40001800ABBE704700000900000026000200FA
:104D5000704700002DE9FF4D21F0004582B0174655
:104D60000C4634A6B5F1795F08DA2146029801F0C5
:104D700087F818B903CE06B0BDE8F08D029A234635
:104D8000214610460EF0BEF9824602462B48884660
:104D90000B460621784400F05BF8434652460EF07D
:104DA000B1F900908B463A462146059B02980EF0D9
:104DB000A9F907460C465B4641465046009A0EF05C
:104DC000A1F923463A460EF0EFFB8B4600904FF0D8
:104DD000FF32414650460FF0A8F9194A954205DACC
:104DE0005B46009A0EF0E0FB0CCE1DE0154A9542A2
:104DF00002DD15A230CA02E0A5F5001500242B46FD
:104E000022460EF0D1FB0746884603CE2B462246AB
:104E10000EF0CAFB04460D465B4641463846009AF2
:104E20000EF0C2FB2B46224606B0BDE8F04D01F065
:104E3000C5B80000000000000000F03F90F800003E
:104E40003333D33F0000E93F000000000000D23FB1
:104E50002DE9F041491E0D46044600EBC10103C98E
:104E600016461F4609E03B4632460EF04BF96D1ED2
:104E700004EBC5020CCA00F0BFFC35F00602F2D10B
:104E8000022D23D0042D11D0062D30D13B463246C1
:104E90000EF038F9D4E90A2300F0AEFC3B46324666
:104EA0000EF030F9D4E9082300F0A6FC3B46324668
:104EB0000EF028F9D4E9062300F09EFC3B4632466A
:104EC0000EF020F9D4E9042300F096FC3B4632466C
:104ED0000EF018F9D4E9022300F08EFC3B4632466E
:104EE0000EF010F90CCCBDE8F04100F085BCBDE837
:104EF000F08100002DE9FF4D82B003980E9F20F055
:104F00000040B0F1795F09DADDE9020100F0B8FF95
:104F100020B9DDE9020106B0BDE8F08DDDE902232C
:104F2000194610460EF0EEF883468A460B460246B6
:104F3000DDE902010EF0E6F880462648019153466D
:104F40005A4605217844FFF783FF04460D4622A602
:104F50009FB92B462246514658460EF0D3F80CCE48
:104F600000F04AFC4246019B0EF0CCF8DDE902233A
:104F700006B0BDE8F04D00F03FBC0CCE40460199B4
:104F80000EF0C0F806460F462B46224640460199D1
:104F90000EF0B8F804460D46DDE904014FF0FF328B
:104FA0000FF0C3F82B4622460EF0FEFA53465A463F
:104FB0000EF0A8F8DDE904230EF0F6FA3B4632467F
:104FC0000EF0F2FADDE9022306B0BDE8F04D00F084
:104FD000F5BF0000D0F70000495555555555C5BFE0
:104FE00002494FF000000FF06EB800000000F87F9B
:104FF00002494FF000000FF066B800000000F87F93
:10500000080000002DE9F04D14469FA2D2E90032BD
:1050100090B0C4E902320E929D4A21F00045019100
:10502000954204DC03C4002010B0BDE8F08D994A1D
:10503000994E7E44954229DAD6E90423974F0029F8
:1050400011DD0EF0B1FABD4202D0D6E9062305E02B
:10505000D6E908230EF0A8FAD6E90A230EF0A4FA3E
:1050600003C40120E0E700F0C7FBBD4202D0D6E94F
:10507000062305E0D6E9082300F0BEFBD6E90A23A3
:1050800000F0BAFB03C44FF0FF30CDE7844B9D42E4
:1050900077DC074683A00CC8294638460EF032F864
:1050A00082A20CCA00F0A8FB00F0EAFE029000F019
:1050B0006FFFCDE90401D6E904230EF023F82B4657
:1050C0003A4600F07BFFD6E9062307468846DDE92D
:1050D00004010EF017F82A0D012503920B46024633
:1050E000414638460EF060FAC4E90001032D37D07E
:1050F000C1F30A500399081A05EB45111139814291
:105100002EDA654806977844C43800EB0516D6E9D0
:105110000023DDE90401C3460DF0F4FF8A460B4687
:1051200002460890594606980EF03EFA0746884611
:105130000B460246594606980EF036FA5346089A30
:105140000EF032FAD6E9022383468A46DDE90401ED
:105150000DF0D8FF53465A460EF026FA6D1CBDE7F7
:10516000019800280BDA606880F0004060600E98BB
:1051700080F00040E0600298404255E701E002986C
:1051800052E7C1F30A52B2F58D6F0BD9A2F2694210
:105190003623B2FBF3F2474B7B4403EBC2030CCB49
:1051A0000DF0B0FF00F07C460D460B4632460EF087
:1051B000FBF941A7D7E9002380468A4629463046B5
:1051C0000DF0A0FFCDE90C013DA00CC829463046EA
:1051D0000DF098FF0A908B460CCF514640460DF0DB
:1051E00091FF074636A00CC80E46514640460DF0CA
:1051F00089FF80460D4633463A4659460A9800F0E4
:10520000FBFA06460F460B460246DDE90C0100F0AC
:10521000F3FADDE90C2383468A460EF0C5F93B46D6
:10522000324600F0CBFE2B46424600F0E5FA26A7B8
:10523000D7E9002305460E46514658460EF046F87B
:105240000CCF00F01DFC03220EF06FFF20A20CCA51
:1052500000F0D2FA00F014FE1FA7D7E900234FEAAE
:105260006008514658460EF031F833462A4600F0A1
:10527000C3FA0CCF0EF02AF819A20CCA00F000FCF9
:1052800003C44046D0E6000000000000000000001B
:10529000FB21E93F7CD90240A2F60000FB21F93F47
:1052A000FB21394183C8C96D305FE43F0000000035
:1052B0000000E03FBCF40000000000404544DB3F3C
:1052C00000000090B1BF1DBEA7A540A74A6A0540D7
:1052D0000000000000002240A7A540A74A6AE53F61
:1052E000E704243E4544DB3F2DE9FF4D06468AB0E6
:1052F0008C4821F00045DDF858B098460F460C4622
:1053000085421FDA2146304600F0BAFDD0B90BF1D4
:10531000010145EA0100304303D132462B4682A009
:105320000AE0BBF1010F04D1304621460EB0BDE8C2
:10533000F08D234632467EA003C80EB0BDE8F04D86
:1053400000F09EBB7C4885421FDB002F03DA84F00F
:10535000004488F0004879A00CC82146304600F08F
:105360002DFE04460E4677A003C843460C9A0EF065
:105370001BF902460B463146204600F03DFA064630
:105380000C4672A0D0E900180C9123463246214603
:1053900030460DF0B7FE0B460246CDE908010DF090
:1053A000B1FE024602906B488A460B4606217844BD
:1053B000FFF74EFDCDE906016648534606217844C5
:1053C0002030029AFFF744FDDDE908230DF09AFE34
:1053D000DDE9082382460591214630460DF092FE14
:1053E000CDE90001DDE905305246079900F004FAE5
:1053F000DDE900230DF086FE43460C9A00F0FCF92F
:10540000DDE908230DF07EFE43460C9A00F0F4F926
:10541000824651A00CC88846DDE900010DF072FEFD
:105420004346524600F0E8F9CDE906010B46024634
:105430002146304600F0E0F982463F4888468542E2
:10544000584634DB00F0A4FDCDE904010B460246CA
:105450004146504600F0D0F905468B464346524639
:10546000414650460DF04EFE5B462A4600F008FBD2
:10547000DDE906230EF098F82346324600F09EFD43
:1054800001220EF052FEDDE9042300F097FD0446F0
:10549000022000EAA7700D46C0F1010000F078FD7F
:1054A0002B4622460EB0BDE8F04D0DF02BBE012874
:1054B00002D15046414639E745464346002221463F
:1054C000304600F07BFDDDE9062300F077FD07465E
:1054D0008B4617A003C84346524600F0D1FA8046D7
:1054E00000220C462B4610460DF00CFE0EA20CCAF4
:1054F00000F082F906460D465B463A4621460020FA
:105500000DF000FE2B46324600F076F92346424667
:105510000DF0F8FD23460EB0BDE8F04D002200F07E
:105520006BB900000000303E000000000000F03FBA
:10553000000000000000F0BF2894E53F182D4454FF
:10554000FB21E93F075C143326A6813C00000000E4
:10555000000000008EF30000635555555555D53FAA
:1055600030B520A30CCB214D21F0004487B0AC42D4
:1055700003DCFFF7EFFB07B030BD1D4A944206D1B4
:1055800028B90120FFF79DFB1AA103C9F3E7944254
:1055900005DB07B0BDE8304001220EF0C6BD02AA0F
:1055A000FFF730FD10F003000AD001280BD00228CD
:1055B00010D102A80FC8FFF7CDFB81F00041DAE758
:1055C00002A80FC8D5E70123009302A80FC8FFF770
:1055D00091FCF2E70123009302A80FC8FFF78AFCB1
:1055E000C9E700000000000000000000FB21E93FC7
:1055F0000000F07F010000000000F87F30B521A31B
:1056000014CB224D21F0004387B0AB4203DC0023D2
:105610000093234627E01E4A934207D130B9012068
:10562000FFF74FFB1BA103C907B030BD934205DB59
:1056300007B0BDE8304001220EF077BD02AAFFF7A7
:10564000E1FC10F003000AD001280FD0022812D18B
:105650000123009302A80FC8FFF74CFC0FE00123C1
:10566000009302A80FC8FFF745FCDDE702A80FC8AA
:10567000FFF770FBD8E702A80FC8FFF76BFB81F0BC
:105680000041D1E70000000000000000FB21E93FDD
:105690000000F07F010000000000F87F70B50400FA
:1056A0000D4601D0012200E000220A430B4B22F0FC
:1056B00000429A1AD20F0AD109A20CCA0DF0EAFCD4
:1056C00005D20120FFF7FDFA07A103C970BD2946E5
:1056D0002046BDE870400DF0C5BE00000000F07F20
:1056E0000000000000000000010000000000F87F42
:1056F00030B516A314CB174D21F0004387B0AB4251
:1057000003DC0123009323461DE0134A934207D193
:1057100030B90120FFF7D5FA10A103C907B030BD99
:10572000934205DB07B0BDE8304001220EF0FDBC1E
:1057300002AAFFF767FC00F001000121A1EB400382
:10574000009302A80FC8FFF7CFFDE7E700000000B5
:1057500000000000FB21E93F0000F07F0100000095
:105760000000F87F01F0004321F0004181EA41028E
:1057700012F0FE4F08BF12F4600F00F02880A1F174
:105780006051B1F5801F1BDB02014FF0404C09D87E
:1057900003D208BF4FF0000C0AE000F000521CEBEF
:1057A000820C05D410F100504FF0804C41F1000103
:1057B000B1F17F6F06DA43EAC10343EA50707047E4
:1057C000184670474FF0FF0243EAC250704711F489
:1057D000801F01D118467047DFF818C041EA030165
:1057E00050EA01327FF404ACAFF3008021F4E00012
:1057F000704700008800000410B591EA030F48BF0D
:1058000083F000430DF1D886841A71EB030E05D2A4
:10581000121943EB0E03001B61EB0E01DFF880C190
:105820004FEA1154A4EB135E1CEA430F18BF9CEA25
:10583000445F7DD023EA0C0321EA045143F4801332
:10584000DEF1200C38D322FA0EFC10EB0C0023FA08
:105850000EFC41EB0C01CEF1200C03FA0CFC10EB1A
:105860000C0051F10001B1F5801FCEF1200C38D2AF
:1058700001EB0451BDE8104012FA0CF258BF70471A
:10588000401C38BF5FEA420218BF7047002814BFAF
:1058900020F0010041F100014FEA410313F5001F20
:1058A00038BF704728BFB1F1C0413E494FF00000FA
:1058B00048BF41F000417047012A43EB0302AEF1BB
:1058C000200EDEF11F0C32BF4FF0000C23FA0EF356
:1058D00010EB030041EB0451B4EB115FCAD0A1EB14
:1058E000045101F58011490801EB0451BDE8104055
:1058F0005FEA30000CD350F1000038BF12FA0CFC04
:1059000006D1C3E7401C38BF5FEA4202C4D1BDE7FD
:105910004FEA410313F5001F38BF704728BFB1F1AC
:10592000C04120494FF0000048BF41F0004170479E
:105930009CEA445F08D0BDE8104011EA5C0F04BF48
:1059400001F0004100207047012841EB0104012AC9
:1059500043EB030E644598BFE645DFF84CC0BDE855
:1059600010403FF63DABAFF30080012841EB010052
:10597000012A43EB0302904208D010F5001F04BF38
:105980000020704719464FF00000704791EA030F5E
:105990004FF0000058BF704704494FF000007047B7
:1059A0000000E0FF0000F07F110000040000F87F1D
:1059B0004FF0807212EB400F98BF12EB410F1DD8D1
:1059C000AFF3008050EA010204D488420DD6EFF311
:1059D000008070478142EFF3008020F0104038BF14
:1059E00040F0004080F3008870474FF0010238BF5C
:1059F000022A68BF002AEFF3008070471CF4502F82
:105A000000F0E8820EF0C1BB00B54FF4001E1EEBA3
:105A1000410F08BF002898BF1EEB430F08BF002AA4
:105A200026D85DF804EBAFF3008051EA030C06D4EE
:105A3000994208BF904210D6EFF3008070478B4226
:105A400008BF8242EFF3008020F0104038BF40F0E2
:105A5000004080F3008878BF70474FF0010C38BFDA
:105A6000BCF1020F68BFBCF1000FEFF3008070477C
:105A70005DF804EB1CF4502F3FF4B2AA0EF085BB86
:105A800070B5DFF8ECC33CEA111418BF3CEA1314FC
:105A900000F09B8081EA03050CEA111444EAD574F6
:105AA0001CEA131518BF11EA0C1F00F074804FEAAE
:105AB000C1214FEAC32341EA505143EA5253A4EBB8
:105AC000050404F17F7441F0004143F000434FEAC4
:105AD000C0204FEAC22200F0A9F846054FEAD020C4
