:020000040800F2
:10000000C08C0020BD010008C5010008C701000820
:10001000C9010008CB010008CD0100080000000064
:10002000000000000000000000000000CF010008F8
:10003000D101000800000000D3010008D50100082C
:10004000D7010008D7010008D7010008D701000830
:10005000D7010008D7010008D7010008D701000820
:10006000D7010008D7010008D7010008D701000810
:10007000D7010008D7010008793F0008D701000820
:10008000D7010008D7010008D701000800000000D0
:10009000000000000000000000000000D701000880
:1000A000D7010008D7010008D7010008D7010008D0
:1000B00021280008A12F0008D7010008D701000857
:1000C000D7010008D7010008D7010008D7010008B0
:1000D000D701000885400008D7010008DD45000869
:1000E000D7010008D7010008D70100080000000070
:1000F0000000000000000000000000000000000000
:1001000000000000000000000000000000000000EF
:100110000000000000000000D7010008D70100081F
:1001200000F002F800F03AF80AA090E8000C8244CF
:100130008344AAF10107DA4501D100F02FF8AFF2AC
:10014000090EBAE80F0013F0010F18BFFB1A43F0B5
:10015000010318470C4201002C420100103A24BF51
:1001600078C878C1FAD8520724BF30C830C144BF1C
:1001700004680C607047000000230024002500265E
:10018000103A28BF78C1FBD8520728BF30C148BFFA
:100190000B6070471FB51FBD10B510BD04F0E8FD22
:1001A0001146FFF7F7FF02F0A3F904F006FE03B4CF
:1001B000FFF7F2FF03BC04F007FE00000948804788
:1001C00009480047FEE7FEE7FEE7FEE7FEE7FEE739
:1001D000FEE7FEE7FEE7FEE704480549054A064B51
:1001E000704700003924000821010008C086002063
:1001F000C08C0020C0880020C08800202749084308
:10020000274908607047F0B50F21C47802780123B0
:100210004FF0E026DCB1224C2468457804F4E06419
:10022000C4F5E064240AC4F10407E1408478BD40C9
:100230000C402C4321011B4C1155007800F01F018C
:100240008B40400906EB8000C0F80031F0BD02F0A1
:100250001F008340500906EB8000C0F88031F0BDDC
:10026000114A114001430E48001F016070470C4ABB
:10027000121D0029116801D0014300E08143116083
:1002800070474FF0E0210428086903D020F00400F3
:100290000861704740F00400FAE700000000FA052A
:1002A0000CED00E000E400E080FFFF1FC54910B541
:1002B000884202D1012144150AE0C349884202D193
:1002C0000121041504E0C14988420AD10121CC036F
:1002D000204601F089F82046BDE81040002101F0D9
:1002E00083B810BD10B54268B94B0C791A400B6841
:1002F00042EA0422134343608368B64A1340D1E9BB
:10030000024222434C7943EA44031A438260C26AA0
:10031000097C22F47002491EC9B242EA0151C1624D
:1003200010BD00210160017141718160C160012136
:10033000017470470029816802D041F0010101E099
:1003400021F00101816070470029816802D041F4E9
:10035000807101E021F4807181607047002A426859
:10036000C9B201D00A4300E08A4342607047816805
:1003700041F0080181607047014600208968090743
:1003800000D501207047816841F004018160704709
:10039000014600208968490700D5012070470029DF
:1003A000816802D041F4A00101E021F4A001816044
:1003B0007047014600208968490200D50120704736
:1003C0004268491E22F4604242EA4131416070476E
:1003D0000029416802D041F4006101E021F400618C
:1003E0004160704770B5072409290AD9C568A1F191
:1003F0000A0606EB4606B440A543B3401D43C5605C
:1004000007E0056901EB4106B440A543B3401D4335
:1004100005611F23072A09D2446B521E02EB820298
:1004200093409C4391400C43446370BD0D2A09D214
:10043000046BD21F02EB820293409C4391400C4319
:10044000046370BDC46A0D3A02EB820293409C4380
:1004500091400C43C46270BD0029816802D041F410
:10046000801101E021F4801181607047C06C80B27E
:10047000704754484C30006870470029416802D0EA
:1004800041F4806101E021F48061416070470029FE
:10049000416802D041F4805101E021F48051416073
:1004A0007047826822F4E0420A4382607047002964
:1004B000816802D041F4004101E021F400418160F3
:1004C00070470029816802D041F4021101E021F453
:1004D000021181607047014600208968890200D5B9
:1004E0000120704770B5072409290AD9C568A1F110
:1004F0000A0606EB4606B440A543B3401D43C5605B
:1005000007E0056901EB4106B440A543B3401D4334
:100510000561836BC3F30154121B921C02EB82042E
:100520001F22A2409343A1400B43836370BD826BA3
:10053000491E22F4401242EA01518163704708B516
:1005400008440090026008BD08B5084428300090B7
:10055000006880B208BD42681F4B1A400A434260DF
:100560007047416282627047426822F01F020A436C
:1005700042607047134908310028086802D040F4EF
:10058000000001E020F400000860704702460020EF
:1005900012680A4200D001207047C94301607047C9
:1005A00010B50246002054680B0AC9B20C4011680D
:1005B000194202D0002C00D0012010BD6FEA112199
:1005C000016070470024014000280140003C0140C8
:1005D000FFFEF0FFFDF7F1FFFFFD3FFF10B501202B
:1005E00000F014FFBDE81040002000F00FBF1F49CD
:1005F000086070471D49091F086070471B49843116
:10060000086070471A4A118821F460710143118013
:100610007047174A118821F07F010143118070470C
:10062000134A08B52C3A10440090016008BD1049E7
:1006300008B52C3908440090008808BD0B489C3050
:100640000068C0B270470A480830018841F00101D3
:10065000018070470548A0300068C0B27047044868
:100660000830018841F002010180704704860D4284
:100670002C6C004010B501214C07204600F0BDFE57
:100680002046BDE81040002100F0B7BE30B5374C21
:10069000236840F6FE7282409343D1E900252A4345
:1006A000D1E902510D432A4382401A43226030BDF2
:1006B0000021016041608160C16070472B4A0123C5
:1006C0008340106809B1184300E0984310607047F8
:1006D000264A93148340106809B1184300E09843F8
:1006E00010607047214A121D03090120984000291B
:1006F000116801D0014300E08143116070471B493C
:10070000091D0028086802D040F0030001E020F035
:10071000030008607047154B814018680AB1084310
:1007200000E0884318607047104A08B5104408304C
:100730000090016008BD0D4A08B5104414300090C7
:10074000016008BD082805D042EA0141074A10446B
:100750000162704742EA0121F8E7044908B501EB5C
:1007600090002C300090006880B208BD00740040FA
:1007700001684FF6FE721140016000210160416086
:100780008160C1606A496A4A0839904203D1486869
:1007900040F00F0006E0664A1432904204D14868E7
:1007A00040F0F00048607047614A2832904203D11F
:1007B000486840F47060F5E75D4A3C32904203D1EE
:1007C000486840F47040EDE7594A5032904203D1F6
:1007D000486840F47020E5E7554A6432904203D1FE
:1007E000486840F47000DDE7514A7832904203D106
:1007F000486840F07060D5E74E4A111F904203D11F
:10080000086840F00F0006E04A4A1432904204D1D2
:10081000086840F0F00008607047464A283290426D
:1008200003D1086840F47060F5E7424A3C329042D8
:1008300003D1086840F47040EDE73E4A50329042E0
:10084000EAD1086840F47020E5E730B5036847F660
:10085000F07293430C6A8A682243D1E904452C4321
:1008600022438C692243CC6922434C6A22438C6A1E
:1008700022431A430260CA6842600A68826049687B
:10088000C16030BD0021016041608160C1600161D3
:1008900041618161C16101624162816270470029E9
:1008A000016802D041F0010102E04FF6FE721140F2
:1008B00001607047002A026801D00A4300E08A43C1
:1008C0000260704741607047406880B270470146DF
:1008D0000020CA0002D5174A083A01E0144A083A33
:1008E00012680A4200D001207047C10003D51149A7
:1008F000091F086070470E49083948607047014673
:100900000020CA0002D50B4A083A01E0084A083A1A
:1009100012680A4200D001207047C10003D5054982
:10092000091F086070470249083948607047000095
:100930000800024008040240374900200860091DF1
:100940000860091D0860091D0860334933481431E7
:100950000860704730B530498379026853B30B683B
:1009600093430B600A1D13680468A3431360027964
:100970000A441368046823431360274A0832136843
:100980000468A3431360131D1C680568AC431C6016
:100990004479102C05D021440A68006802430A609B
:1009A00030BD116804682143116019680068014373
:1009B000196030BD0079084401689143016030BD81
:1009C0000021016001710C2242718171704712494E
:1009D00010310A6802430A60704701460E4A00203F
:1009E000143212680A4200D0012070470A491431BB
:1009F00008607047084A014600201268064B0A400A
:100A000014331B680B4202D0002A00D0012070472B
:100A1000014914310860704700040140FFFF0F00D6
:100A2000FC4A116801F03801014311607047F9492F
:100A30000A6822F008020A600A6802430A607047E6
:100A4000F4490A6822F010020A600A6802430A6048
:100A50007047F048F0494160F04941607047ED4807
:100A6000ED494160ED4941607047EA48016941F054
:100A7000800101617047E748016941F0800101612F
:100A80007047E4490420CA68D20701D001207047AA
:100A9000CA68520701D502207047C968C906FBD54C
:100AA0000320704700B50346FFF7EBFF03E000BFEC
:100AB000FFF7E7FF5B1E012803D0002B00D10520C4
:100AC00000BD002BF4D1FAE770B505464FF430268F
:100AD0003046FFF7E7FF042811D1CE4C206940F0E3
:100AE000020020616561206940F0400020613046CD
:100AF000FFF7D8FF216941F6FD721140216170BDF9
:100B000030B54FF430252846FFF7CCFF042810D12C
:100B1000C04C206940F004002061206940F0400092
:100B200020612846FFF7BEFF216941F6FB721140A4
:100B3000216130BD00B50346FFF7A3FF03E000BF0E
:100B4000FFF79FFF5B1E012803D0002B00D105207B
:100B500000BD002BF4D1FAE730B54FF4302528461C
:100B6000FFF7E8FF042810D1AA4C206940F00400E8
:100B70002061206940F0400020612846FFF7DAFF3D
:100B8000216941F6FB721140216130BDA14900206D
:100B9000C969890700D50120704770B5A525FFF701
:100BA000F5FF00B100254FF430263046FFF77AFFFD
:100BB000042827D1974C9848A0609848A0602069E5
:100BC00040F020002061206940F040002061304664
:100BD000FFF768FF41F6EF7604280ED1206941F651
:100BE000DF7108402061206940F0100020618C48CE
:100BF00005804FF40050FFF755FF052802D021690A
:100C00003140216170BDF8B5064600204FF4005C0C
:100C100000900D466046FFF745FF042816D17D4C35
:100C2000206940F00100206135806046FFF73AFFFF
:100C300041F6FE77042806D1B61C280C00963080B9
:100C40006046FFF72FFF216939402161F8BDF0B5FB
:100C500006464FF400570D463846FFF723FF042899
:100C60000CD16C4C206940F0010020613580384681
:100C7000FFF718FF2169BA1E11402161F0BDF0B5E0
:100C800006464FF400570D463846FFF70BFF042881
:100C900013D1604C6048A0606048A060206940F0BB
:100CA0001000206135803846FFF7FCFE052804D08F
:100CB000216941F6EF7211402161F0BD2DE9F0414B
:100CC000C04300F0FF0CC0F30727C0F30746050E32
:100CD0004FF400584046FFF7E5FE042837D14D4C4D
:100CE0004D49A1604D49A160216941F01001216188
:100CF000BCF1FF0F08D04A480830A0F800C04046B9
:100D0000FFF7D0FE04281BD1FF2F07D044480A303C
:100D100007804046FFF7C6FE042811D1FF2E07D0FA
:100D20003F480C3006804046FFF7BCFE042807D140
:100D3000FF2D07D03A480E3005804046FFF7B2FE3F
:100D4000052804D0216941F6EF7211402161BDE808
:100D5000F08170B505464FF430263046FFF7A2FE0D
:100D6000042818D12B4C2C48A0602C48A060206986
:100D700040F020002061206940F0400020613046B2
:100D8000FFF790FE41F6DF71042805D0052802D058
:100D900022690A40226170BD2069084020612069F3
:100DA00040F0100020611E480DB1002100E0A52197
:100DB00001803046FFF776FE0528ECD0216941F628
:100DC000EF721140216170BDF0B5124C0746124818
:100DD00016460D46A0601148A0604FF4005C6046C6
:100DE000FFF760FE042814D1206940F01000206154
:100DF00035430B493D43891C45F0F80008806046A7
:100E0000FFF750FE052804D0216941F6EF7211402A
:100E10002161F0BD0020024023016745AB89EFCD81
:100E200000F8FF1F1C48C069800870471A48006A14
:100E30007047194900200968890600D501207047CC
:100E4000154A0029116901D0014300E08143116175
:100E5000704701460020104A012903D0D2680A4297
:100E600003D17047D169C907FBD0012070470A49F7
:100E7000C860704708490420CA68D20701D0012021
:100E80007047CA68520701D502207047C968C90671
:100E9000FBD5032070470000002002408F4910B5A9
:100EA000884206D10121042000F09EFA002104208E
:100EB0003BE08B49884206D10121082000F094FADA
:100EC0000021082031E08749884206D10121102005
:100ED00000F08AFA0021102027E08349884206D1D9
:100EE0000121202000F080FA002120201DE07F4910
:100EF000884206D10121402000F076FA00214020EE
:100F000013E07B49884206D10121802000F06CFA71
:100F10000021802009E0774988420AD18415012107
:100F2000204600F061FA00212046BDE8104000F0A4
:100F30005BBA10BD10B50121084600F055FA00213A
:100F4000BDE81040012000F04FBAF0B5CA78002586
:100F500002F00F03D20601D58A7813430C784FF0C4
:100F60000F0E0122E4B104680F8802FA05F637403B
:100F7000B74211D14FEA850C0EFA0CF724EA0707A5
:100F800003FA0CF43C43CF78282F02D0482F02D02C
:100F900002E0466100E006616D1C082DE4D30460A8
:100FA0000C88FF2C1ED944685FF0000606F1080784
:100FB00002FA07F50F882F40AF420FD14FEA860C97
:100FC0000EFA0CF7BC4303FA0CF73C43CF78282FFA
:100FD00000D14561CF78482F00D10561761C082EDD
:100FE000E4D34460F0BD4FF6FF71018002218170AF
:100FF0000421C17070470246002092680A4200D066
:1010000001207047806880B2704702460020D26895
:101010000A4200D001207047C06880B27047016169
:101020007047416170470AB1016170474161704783
:10103000C160704741F4803282618161826181695F
:10104000806970472C4B10B51A684FF680742240A7
:1010500042EA00100843186010BD2849C861704773
:10106000F0B5254C002801DAE36900E06368420D21
:10107000120185B2C0F301579540C0F30346032F18
:1010800005D0C2020AD50322B240934307E023F001
:101090007062636823F07063636002E0AB4343F007
:1010A000706201B12A43002801DAE261F0BD62609A
:1010B000F0BD10B58A0721F003040F49130F214436
:1010C0000F228C689A4094438C608A68984002434F
:1010D0008A6010BD0949DC31086070470008014092
:1010E000000C0140001001400014014000180140B4
:1010F000001C01400020014000000140000020428F
:1011000010B501210C07204600F077F92046BDE814
:101110001040002100F071B9214908627047204950
:10112000086170471F4A116821F0E0010143116016
:1011300070471B49A031086070471A4B1A6822F0AB
:10114000030202431A601848026842F00402026077
:10115000012905D020BF016821F00401016070471A
:1011600030BFF8E70F48016841F0040101600168F1
:1011700041F0020101600C48016841F00401016086
:1011800030BF7047074A0146002052680A4200D02B
:101190000120704703490A6842EA800008607047EE
:1011A00000000E420070004010ED00E0A54801680C
:1011B00041F0010101604168A34A114041600168AA
:1011C000A24A11400160016821F480210160416858
:1011D00021F4FE0141604FF41F018160704799497D
:1011E0000A6822F480320A600A6822F480220A60C7
:1011F000B0F5803F07D0B0F5802F03D1086840F4E8
:10120000A02008607047086840F48030F9E7024683
:10121000002053098B49012B0AD0022B0AD0496ABE
:1012200002F01F02012393400B4200D001207047BF
:101230000968F5E7096AF3E718B500204FF4A064E0
:1012400000903120FFF7E3FF0099491C0091A14273
:1012500001D00028F5D03120FFF7D9FF002800D0B9
:10126000012018BD77490A6822F0F80242EAC0005E
:1012700008607047764908607047724A53680843AF
:1012800023F47C1318435060704771490866704717
:101290006C4A516821F0030101435160704769486D
:1012A000406800F00C007047664A516821F0F00178
:1012B000014351607047634A516821F4E061014382
:1012C000516070475F494A6822F4605242EAC000A8
:1012D000486070475B4A0029517A01D0014300E021
:1012E0008143517270475A49D83108607047554A56
:1012F000516821F440410143516070475149002237
:1013000081F8202081F82020012802D0042802D171
:10131000052081F8200070474E4908607047494910
:101320000A6A02430A6270474A49443908607047B2
:1013300030B544494A6812F00C03474A03D0042BE5
:1013400001D0082B22D002604A680F23434C03EAE5
:101350001212A35C0268DA4042604B68072505EA76
:101360001323E35C22FA03F383604B6805EAD3237B
:10137000E35C22FA03F2C2604968032303EA913175
:10138000231F595CB2FBF1F1016130BD4A684B6823
:1013900002F470124FF0020413F4803F04EB924207
:1013A00002D04B689B0301D52D4B00E02A4B5A43DA
:1013B000C9E7244A0029516901D0014300E0814373
:1013C000516170471F4A0029916901D0014300E033
:1013D0008143916170471B4A0029D16901D00143C3
:1013E00000E08143D1617047164A0029D16801D0DD
:1013F000014300E08143D1607047124A002911691E
:1014000001D0014300E08143116170471149403927
:10141000086070470E49C86470470A49C871704730
:101420000848416A41F0807141627047054A0146AF
:10143000002092680A4200D001207047014988725A
:1014400070470000001002400000FFF8FFFFF6FEAA
:10145000000042428004424200127A000400002050
:1014600000093D00424A0029118801D0014300E0F3
:101470008143118070473E48001D018841F01001F2
:10148000018070473A48001D018821F01001018059
:10149000704737481C30008835491831098840EAC0
:1014A0000140704700B50246FFF7E5FF3049100CD8
:1014B00018310880081D02805DF804EBE2E700B5F2
:1014C0000246FFF7D8FF2A49C2F3034008310880DB
:1014D000081D02805DF804EBD4E700B50246FFF773
:1014E000CAFF2349100C20310880081D02805DF8D6
:1014F00004EBC7E71E48103000880007010B1C48AA
:1015000014300088084370471948001D0188890677
:10151000FCD570471648001D018821F008010180A4
:1015200001880907FCD570470146114A0020121DA9
:1015300012880A4200D0012070470D49091D0A880F
:1015400082430A8070470A49091D0988C2B21140C6
:10155000074A1288024202D009B1012070470020D8
:1015600070470349091D0A8882430A8070470000BA
:1015700000280040F94910B5884202D10121C41465
:1015800086E0B0F1804F09D0F54988420DD10121A4
:101590000220FFF732FF0021022064E0012108460B
:1015A000FFF72BFF002101205DE0EE49884206D1C4
:1015B00001210420FFF721FF0021042053E0EA4924
:1015C000884206D101210820FFF717FF00210820DB
:1015D00049E0E649884206D101211020FFF70DFFBE
:1015E000002110203FE0E249884206D1012120205D
:1015F000FFF703FF0021202035E0DE49884202D1B9
:101600000121441444E0DC49884202D10121CC0488
:101610003EE0DA49884202D101210C0538E0D84980
:10162000884202D101214C0532E0D649884206D1D8
:1016300001214020FFF7E1FE0021402013E0D249C4
:10164000884206D101218020FFF7D7FE00218020AB
:1016500009E0CE4988420AD1841501212046FFF7CE
:10166000CCFE00212046BDE81040FFF7C6BEC849A9
:10167000884202D101210C040AE0C649884202D105
:1016800001214C0404E0C44988420AD101218C04A0
:101690002046FFF7A9FE2046BDE810400021FFF7D5
:1016A000A3BE10BD30B50288AC4BB24C98420DD0F1
:1016B000A0420BD0B0F1804F08D0A94DA84205D070
:1016C000A84DA84202D0A84DA84203D122F070052F
:1016D0004A882A43A54DA84206D0A54DA84203D06A
:1016E00022F44075CA882A4302808A8882850A8843
:1016F000028598420AD0A04208D0A54A904205D05F
:10170000A44A904202D0A44A904201D1097A0186AB
:101710000121818230BD30B5028C22F001020284A9
:10172000028C8388048B22F0020224F073050C885B
:101730002C430D8915434A882A43884DA8420BD073
:101740008C4DA84208D0924DA84205D0914DA84298
:1017500002D0914DA8420DD122F008054A8923F408
:1017600040732A4322F004058A882A438D891D4349
:10177000CB892B4383800483C9888186028430BD52
:1017800070B5028C22F010020284028C8488038BD4
:101790000D8823F4E6464FF6FF7303EA052535432B
:1017A0000E8922F0200203EA061616434A8803EA4D
:1017B00002123243694EB04202D06E4EB04215D191
:1017C00022F080064A8924F4406403EA021232437C
:1017D00022F040068A8803EA021232438E8903EA25
:1017E00086062643CC8903EA840434438480058337
:1017F000C9880187028470BD70B5028C22F48072A2
:101800000284028C8488838B0D8823F073031D432C
:1018100022F400730E894FF6FF7202EA06261E4379
:101820004B8802EA032333434C4EB04202D0514E60
:10183000B04215D123F400664B8924F4405402EAE7
:101840000323334323F480668B8802EA0323334364
:101850008E8902EA06162643CC8902EA0414344330
:1018600084808583C9888187038470BD70B5028CAC
:1018700022F480520284048C8288838B0D8823F4A6
:10188000E6464FF6FF7303EA0525354324F4005678
:101890000C8903EA043434434E8803EA06362643AF
:1018A0002E4CA04202D0334CA04205D122F48044F9
:1018B0008A8903EA8212224382808583C988A0F83C
:1018C0004010068470BD828B22F440628283828B3A
:1018D0004FF6FF7303EA01210A4382837047828B2C
:1018E00022F00C028283828B0A4382837047028B30
:1018F00022F440620283028B4FF6FF7303EA012158
:101900000A4302837047F0B5048C24F01004048469
:10191000078B048C4FF6FF7527F4734705EA0333F2
:101920003B4305EA02221A430C4B05EA0116984292
:101930000ED0104B98420BD0B0F1804F08D0084B1E
:10194000984205D0074B984202D0074B984225D1C8
:1019500024F02001314341F0100124E0002C01402B
:101960000004004000080040000C0040001000404F
:101970000014004000340140004C01400050014080
:101980000054014000180040001C004000200040AE
:1019900000400140004401400048014024F0A00301
:1019A0000B4343F0100102830184F0BD028B22F04F
:1019B0000C020283028B0A430283704770B5048CC9
:1019C00024F001040484058B048C4FF6FF7606EAAC
:1019D0000313134325F0F305F94A2B4390420ED02D
:1019E000F84A90420BD0B0F1804F08D0F64A9042AE
:1019F00005D0F64A904202D0F54A904202D124F036
:101A0000020201E024F00A020A4342F001010383CA
:101A1000018470BD2DE9F05F0D4604460888E84F4B
:101A2000DFF8A0C3DFF8A0834988AA882B894FF08C
:101A3000804960B3042832D04FF6FF7E082836D0A4
:101A4000208C9B4620F480502084A38B268C7046EB
:101A500000EA022223F473431A4300EA0B301043D6
:101A60000EEA013EBC420BD0644509D04C4507D07C
:101A7000444505D0D54A944202D0D54B9C4245D12D
:101A800026F4005141EA0E0141F4805143E0204622
:101A9000FFF794FFE9882046BDE8F05F86E720461F
:101AA000FFF731FFE9882046BDE8F05F1FE7208C93
:101AB00020F480702084B4F81CA0208C0EEA03135C
:101AC00013432AF0F30A0EEA012B43EA0A03BC424D
:101AD0000BD0644509D04C4507D0444505D0BB4ADE
:101AE000944202D0BA4A944204D120F4007040EAF1
:101AF0000B0002E020F42060084340F48070A383D0
:101B00002084E9882046BDE8F05FE8E626F402423A
:101B10000A4342F48051A08320462184E988BDE82D
:101B2000F05FD0E62DE9F0410C46002649880746D3
:101B3000012501B90226A288012A00D102252088A8
:101B400023890028384610D0FFF7DDFEE1883846AB
:101B5000FFF7CDFE23892A4631463846FFF72EFF90
:101B6000E1883846BDE8F04120E7FFF727FFE1882C
:101B70003846FFF71BFF23892A4631463846FFF7D0
:101B8000C2FEE1883846BDE8F041B0E610B50A88EB
:101B90004B88CC881A438B8823431A430B891A43FA
:101BA0004B8989891A430A43A0F8442010BD4FF697
:101BB000FF71818000210180C180418001727047E6
:101BC0000021018041808180C1800181418181812A
:101BD000C181704700210180418001228280C18043
:101BE000018170470021018041808180C180018195
:101BF0004181818170470029018802D041F00101B3
:101C000001E021F0010101807047002930F8441FF4
:101C100002D041F4004101E0C1F30E0101807047A0
:101C2000002A828901D00A4300E08A4382817047FA
:101C3000818270471143A0F848107047002A8289BA
:101C400001D00A4300E08A4382817047018921F074
:101C5000070101817047028922F070020A43028164
:101C6000704700B50346FFF7F6FF188940F00700FC
:101C7000188100BD70B516460D46602904464FF028
:101C8000010231460AD0FFF799FE29462046FFF7A8
:101C9000E2FF208940F00700208170BDFFF733FE8E
:101CA000F3E730B504894FF6FF7505EA03231343C4
:101CB000E4B20B432343038130BD10B50446FFF764
:101CC000F0FF208940F07700208110BD10B5044658
:101CD000FFF7E7FF208940F48040208110BD018597
:101CE00082827047028822F070020A4302807047A5
:101CF00070B50589048B068C25F007050D434FF65A
:101D0000FC410C4040F201110C434FF6FF7101EA17
:101D1000031126F022061143314305810483018417
:101D200070BD028B22F070020A4302837047028B5F
:101D30004FF6FF7322F4E04203EA012111430183CD
:101D40007047828B22F070020A4382837047828B35
:101D50004FF6FF7322F4E04203EA0121114381832D
:101D600070470029018802D041F0800101E021F094
:101D70008001018070470029818802D041F0040170
:101D800001E021F00401818070470029818802D0A0
:101D900041F0080101E021F008018180704700292D
:101DA000818802D041F0010101E021F00101818030
:101DB0007047028B22F008020A430283704700003A
:101DC000002C0140003401400004004000080040A5
:101DD000000C0040028B4FF6FF7322F4006203EA0E
:101DE000012111430183E9E7828B22F008020A43B3
:101DF0008283E3E7828B4FF6FF7322F4006203EAEB
:101E0000012111438183D9E7028B22F004020A43A6
:101E10000283D3E7028B4FF6FF7322F4806203EA5A
:101E2000012111430183C9E7828B22F004020A4396
:101E30008283C3E7828B4FF6FF7322F4806203EA4A
:101E4000012111438183B9E7028B22F080020A430A
:101E50000283B3E7028B4FF6FF73C2F30E0203EA6D
:101E6000012111430183A9E7828B22F080020A43FA
:101E70008283A3E7828B4FF6FF73C2F30E0203EA5D
:101E800001211143818399E7028C22F002020A4367
:101E9000028493E7028C22F008020A4302848DE751
:101EA000028C4FF6FF7322F0200203EA0111114366
:101EB000018483E7028C4FF6FF7322F0800203EA6D
:101EC00001111143018479E7028C4FF6FF7322F46C
:101ED000007203EA0121114301846FE7028C4FF67F
:101EE000FF7322F4006203EA01211143018465E7D4
:101EF000028C4FF6FF7322F4005203EA01311143C2
:101F000001845BE710B50123048C8B409C4304845F
:101F1000038C8A401343038410BD10B50423048C42
:101F20008B409C430484038C8A401343038410BD7C
:101F300030B50124058C00F118038C40A5430584BD
:101F400089B108290FD0091FC1F34E001844016858
:101F500021F4E041016001684FF6FF7303EA0222B9
:101F60001143016030BD03EB5100016821F07001A5
:101F700001600168F4E70029018802D041F0020104
:101F800001E021F00201018018E70029018802D058
:101F900041F0040101E021F0040101800EE7002975
:101FA000818802D041F0800101E021F08001818030
:101FB00004E7028822F00802028002880A430280B5
:101FC000FCE6828822F07002828082880A43828046
:101FD000F4E6028922F00702028102890A430281A3
:101FE000ECE6028922F08002028102890A43028122
:101FF000E4E68184E2E68185E0E68186DEE601872B
:10200000DCE68187DAE6A0F84010D7E6028822F401
:102010004072028002880A430280CFE6808ECDE6BD
:10202000008FCBE6808FC9E6B0F84000C6E6808C12
:10203000C4E6008DC2E602460020128A0A4200D0A1
:102040000120BBE6C9430182B8E602460020138A9C
:1020500092890B4202EA010202D0002A00D001203C
:10206000ACE6C9430182A9E6C64910B588420AD147
:1020700001218C032046FFF7B7F92046BDE8104048
:102080000021FFF7B1B9C049884202D101214C04B7
:1020900010E0BE49884202D101218C040AE0BC490B
:1020A000884202D10121CC0404E0BA4988420AD115
:1020B00001210C052046FFF7A0F92046BDE810409D
:1020C0000021FFF79AB910BD30B50446008A85B0EB
:1020D0000D464CF6FF710840E98801432182A18931
:1020E0004EF6F3100140A8882A8910436A890A43F2
:1020F0001043A081A08A4FF6FF410840A9890143FF
:10210000A1826846FFF714F99E48844201D10398E2
:1021100000E00298A1890904002900EBC00101EB4D
:102120000010296802DA4FEA410101E04FEA81011B
:10213000B0FBF1F06422B0FBF2F14FEA01114FEA7B
:1021400011136FF018056B4300EB8300A3891D0486
:102150004FF0320306D503EBC000B0FBF2F000F005
:10216000070005E003EB0010B0FBF2F000F00F00F9
:102170000843208105B030BD4FF4165101600021A5
:102180008180C18001810C2242818181704710B51C
:10219000038A4FF2FF0213400A884C8822438C883E
:1021A000C9880C4322431A43028210BD00210180DA
:1021B00041808180C18070470029818902D041F42B
:1021C000005101E021F400518181704710B5C1F345
:1021D000421301F01F040121A140012B07D0022B63
:1021E00007D01430002A026805D00A4304E00C30FE
:1021F000F8E71030F6E78A43026010BD002A828AB1
:1022000001D00A4300E08A4382827047028A22F0AA
:102210000F020282028A0A4302827047828922F4F4
:102220000062828182890A43828170470029818904
:1022300002D041F0020101E021F0020181817047EA
:10224000028A22F020020282028A0A430282704736
:102250000029018A02D041F4804101E021F480414B
:1022600001827047C1F30801818070478088C0F304
:1022700008007047818941F0010181817047028B1C
:10228000D2B20283028B42EA012101837047028BA2
:1022900002F47F420283028B0A43028370470029C3
:1022A000818A02D041F0200101E021F020018182E9
:1022B00070470029818A02D041F0100101E021F02D
:1022C0001001818270470029818A02D041F0080103
:1022D00001E021F00801818270470029818902D044
:1022E00041F4004101E0C1F30E01818170470029F2
:1022F000818A02D041F4006101E021F40061818211
:102300007047828A22F004028282828A0A43828291
:1023100070470029818A02D041F0020101E021F0DA
:102320000201818270470246002012880A4200D0D2
:1023300001207047C9430180704730B501F01F028A
:1023400001240025C1F3421304FA02F2012B0FD03D
:10235000022B0FD0838A4FEA11210088134204FA1E
:1023600001F400EA040001D000B10125284630BD87
:102370008389F0E7038AEEE70A0A01219140C94305
:102380000180704700380140004400400048004090
:10239000004C0040005000400CB500214C48019119
:1023A0000091026842F4803202604FF4A063026838
:1023B00002F400320092019A521C0192009A12B962
:1023C000019A9A42F3D10268920333D50121009118
:1023D00040490A6842F010020A600A6822F00302CB
:1023E0000A600A6842F002020A604168416041687E
:1023F0004160416841F480614160416821F47C1191
:102400004160416841F4E8114160016841F0807128
:10241000016001688901FCD5416821F00301416038
:10242000416841F0020141604168C1F38101022924
:10243000FAD10CBD00910CBD254810B5016841F0E2
:10244000010101604168244A114041600168234A4A
:1024500011400160016821F480210160416821F48C
:10246000FE0141604FF41F018160FFF795FF1C4999
:102470004FF00060086010BD154910B54868194A52
:1024800010F00C03184803D0042B01D0082B0BD0FC
:1024900002604968144AC1F30311121D515C0268BD
:1024A00022FA01F2026010BD4A684B6802F4701211
:1024B0004FF0020413F4803F04EB924202D04B68C9
:1024C0009B0301D5094B00E0064B5A43E0E70000AF
:1024D00000100240002002400000FFF8FFFFF6FE5F
:1024E00008ED00E000127A001400002000093D0011
:1024F00024490A20087000F01FFD02F030FA00F0B5
:1025000071FE00F0FAFD01F0DFFC01F02DFE00F09D
:1025100016FA02F04BFB012000F044FA194C012599
:10252000194E1A4FDFF86880DFF868B04EF6602A5F
:102530004FF00009A41C00BFC6F8A45102F055F9E1
:102540000FF07CFE01F0ECFF387808B100F0ADFE32
:10255000D8F80001002820880BD06428ECD3ABF811
:10256000A09000F08CFD002000F01CFAA4F8009070
:10257000E2E708B900F0C1FD20885045DCD8401CD6
:102580002080D9E72800002000802142FA000020A6
:10259000000021420010002042F6DF6305E01946EA
:1025A0000A00A1F1010189B2FAD10100A0F10100F4
:1025B00080B2F4D17047F0B5F349F44A01EB40031F
:1025C00003F5905103F58053C2E902130F88F04CD4
:1025D00000F5C06101F007061B88DFF8B8C3A55DF0
:1025E0000CEBD101BB421CD20B7800F560502B42A2
:1025F00000F007050CEBD00003D00178625D1143B9
:102600000DE0E54FBE5D33400B700178635D19420C
:1026100006D0D2680021118001787A5D11400170E6
:10262000F0BD087828430870F0BDD74970B501EBBC
:102630004002D64902F5905302F58052C1E90232B8
:1026400000F5C0621446D34B04F00706D24C03EBEE
:10265000D2021578A65D3540157000F5B0521546CA
:1026600003EBD20205F007051678655D00F56050B2
:102670002E40167003EBD00200F007001378205CA8
:10268000034013708A6800201080C968088070BDFC
:10269000F0B5BD4EBF4CBE4DBC4B002006EB40011B
:1026A00001F5905201F5805100F5B057BC46C3E9E1
:1026B000022104EBD7070CF0070C3F7815F80CC08B
:1026C00017EA0C0F11D00F88128897420DD200F52F
:1026D000C06204EBD20C02F007029CF800C0AA5CB6
:1026E0001CEA020F01D17F1C0F80401C80B2C82859
:1026F000D4D3F0BDF0B5A44EA64CA54DA34BC82035
:1027000006EB400101F5905201F5805100F5B057FC
:10271000BC46C3E9022104EBD7070CF0070C3F7855
:1027200015F80CC017EA0C0F11D00F8812889742C9
:102730000DD200F5C06204EBD20C02F007029CF847
:1027400000C0AA5C1CEA020F01D17F1C0F80401C54
:1027500080B2F628D4D3F0BDF0B58B4E8D4C8C4DA5
:102760008A4BF62006EB400101F5905201F58051AD
:1027700000F5B057BC46C3E9022104EBD7070CF0C3
:10278000070C3F7815F80CC017EA0C0F11D00F8812
:10279000128897420DD200F5C06204EBD20C02F011
:1027A00007029CF800C0AA5C1CEA020F01D17F1C42
:1027B0000F80401C80B2FA28D4D3F0BDF0B5724E21
:1027C000744C734D714BFA2006EB400101F59052A9
:1027D00001F5805100F5B057BC46C3E9022104EB76
:1027E000D7070CF0070C3F7815F80CC017EA0C0F50
:1027F00011D00F88128897420DD200F5C06204EB09
:10280000D20C02F007029CF800C0AA5C1CEA020F7E
:1028100001D17F1C0F80401C80B2FF28D4D9F0BDAD
:102820002DE9F0474FF0804000260682574DA888DA
:102830000A30A8802878401C287000F023FA2878F5
:10284000544C534F632808D92E7094F8E10139791C
:10285000084384F8E101FFF77FFF29784FF00A0968
:10286000B1FBF9F2A84609FB12104B4D072807D11E
:10287000FFF740FF94F8E101E978084084F8E101AE
:1028800098F80010B1FBF9F309FB1312022A05D1E5
:1028900094F8E121FB781A4384F8E121322907D129
:1028A000FFF7F6FE94F8E1012979084084F8E10188
:1028B00098F800005A280AD1FFF780FFB8F80210F4
:1028C0003648491CA8F8021006703548067098F87A
:1028D000000000F00F00022803D102F0CEF802F051
:1028E0006CF9B8F80210B1FBF9F309FB1312052AD1
:1028F00007D194F8E13195F805C003EA0C0384F898
:10290000E1312AB994F8E1217B791A4384F8E12175
:10291000B1F5967F07D059B1B1F5167F01D3A8F86C
:102920000260BDE8F08794F8E101A979084003E06E
:1029300094F8E101B979084384F8E101F1E73EB583
:1029400001210846FEF747FD48F6A040ADF8040017
:102950000120ADF800000020ADF80600ADF802003F
:102960004FF0804469462046FEF79CFE0121204638
:10297000FFF777FB012211462046FFF751F90121AD
:102980002046FFF738F93EBD00100020E00000208F
:10299000DE5F000800100020E65F00080C01002048
:1029A0000D0100202DE9F843054600214FF000609D
:1029B000FDF756FC4FF48060FDF720FC25208DF8D4
:1029C000000002268DF8016000248DF802408DF889
:1029D00003506846FDF717FC0E208DF800004FF0FD
:1029E00003088DF801808DF8026001268DF80360E0
:1029F0006846FDF708FC27208DF800008DF801607F
:102A00008DF802408DF803506846FDF7FCFB1D2051
:102A10008DF8000005208DF801008DF802408DF83A
:102A200003506846FDF7EFFB1E208DF800000427D9
:102A30008DF801708DF802408DF803506846FDF75F
:102A4000E2FB32208DF8000006208DF801008DF8A1
:102A500002408DF803506846FDF7D5FB2E208DF817
:102A600000008DF801408DF802608DF80360684623
:102A7000FDF7C9FB1C208DF800008DF801408DF892
:102A800002408DF803506846FDF7BDFB28208DF805
:102A900000008DF801708DF802408DF803506846F3
:102AA000FDF7B1FB17208DF800008DF801808DF83F
:102AB00002408DF803506846FDF7A5FBBDE8F8839A
:102AC0001CB50F210020FEF7F4FA4FF4805000905F
:102AD00000208DF804000C208DF8050001208DF8F1
:102AE00006006846FDF736FF4FF400600090684628
:102AF000FDF730FF1CBD1CB509210220FEF7D9FAF5
:102B00004FF40070009000208DF804000C208DF828
:102B1000050001208DF806006846FDF71BFF08211F
:102B20000220FEF7C6FA4FF4807000906846FDF769
:102B300011FF07210220FEF7BCFA802000906846B2
:102B4000FDF708FF06210220FEF7B3FA40200090AF
:102B50006846FDF7FFFE1CBD38B50120ADF800004A
:102B600004258DF8035002248DF802406946FD4883
:102B7000FEF7EBF92003ADF800008DF80350FA4D95
:102B80008DF8024069462846FEF7DFF94FF44070A1
:102B9000ADF8000014208DF803008DF8024069465E
:102BA000F248FEF7D2F94FF4E070ADF800001020C3
:102BB0008DF8030003208DF8020069462846FEF7D1
:102BC000C4F938BD38B50121E948FEF749FACE20ED
:102BD000ADF8000004248DF8034002258DF8025062
:102BE0006946E048FEF7B1F94FF20300ADF8000086
:102BF0008DF803408DF802506946DC48FEF7A5F9D0
:102C00003020ADF800008DF803408DF80250694681
:102C1000D548FEF79AF938BD38B50121D448FEF7FA
:102C20001FFA4FF41940ADF8000001248DF802405E
:102C300010258DF803506946CA48FEF786F9F8203A
:102C4000ADF800008DF802408DF803506946C74882
:102C5000FEF77BF94FF4F050ADF800008DF802401C
:102C60008DF803506946C048FEF76FF90420ADF8AF
:102C700000008DF802408DF803506946BD48FEF70C
:102C800064F938BDF0B5BC4CD4F80451BB48BD491B
:102C900000220378BA4890F880601DB10A7026F0CF
:102CA000010508E091F900509D4202DA6D1C0D709B
:102CB00003E046F0010580F88050D4F808512DB1AA
:102CC0004A7090F8805025F002050AE091F9015011
:102CD0009D4202DA6D1C4D7005E090F8805045F081
:102CE000020580F88050D4F80C512DB18A7090F80C
:102CF000805025F004050AE091F902509D4202DA65
:102D00006D1C8D7005E090F8805045F0040580F84A
:102D10008050D4F818512DB1CA7090F8805025F029
:102D200008050AE091F903509D4202DA6D1CCD704E
:102D300005E090F8805045F0080580F88050D4F800
:102D40001C412CB10A7190F8804024F010040AE074
:102D500091F904409C4202DA641C0C7105E090F881
:102D6000804044F0100480F88040874DD5F8104131
:102D70002CB14A7190F8804024F020040AE091F9C7
:102D800005409C4202DA641C4C7105E090F88040DA
:102D900044F0200480F88040D5F814412CB18A71A9
:102DA00090F8804024F040040AE091F906409C42EB
:102DB00002DA641C8C7105E090F8804044F0400415
:102DC00080F88040714CD4F800512DB1CA7190F850
:102DD000803023F080030AE091F907509D4202DA27
:102DE0006D1CCD7105E090F8803043F0800380F8D1
:102DF0008030D4F80471624DB5F8283E95F88160B2
:102E00001FB10A7226F0010508E091F908509D42B1
:102E100002DA6D1C0D7203E046F0010580F8815066
:102E2000D4F830512DB14A7290F8815025F0020546
:102E30000AE091F909509D4202DA6D1C4D7205E0DD
:102E400090F8815045F0020580F88150D4F8345153
:102E50002DB18A7290F8815025F004050AE091F9AD
:102E60000A509D4202DA6D1C8D7205E090F8815087
:102E700045F0040580F88150D4F838512DB1CA725C
:102E800090F8815025F008050AE091F90B509D4219
:102E900002DA6D1CCD7205E090F8815045F008050E
:102EA00080F88150D4F83C412CB10A7310F8811F8E
:102EB00021F010010AE091F90C209A4202DA521C2A
:102EC0000A73F0BD10F8811F41F010010170F0BDD0
:102ED0002B4B10B5A0332E49187800F001020A6080
:102EE0002C4AC0F340041460C0F38004D460C0F3E3
:102EF000C0041461C0F30014D461C0F340124A60EE
:102F0000C0F380128A60C009C8605878224A00F075
:102F10000101C2F888112149C0F340020A60C0F3E0
:102F200080024A60C0F3C0028A60C0F30012CA6027
:102F3000C0F34010086110BD10B501213C20FEF720
:102F400041FA01210846FEF73DFA144901201831E3
:102F50000860FFF761FEFFF7BBFFFFF733FEBDE838
:102F60001040F9E50008014000100140000C01404C
:102F7000000230000014014000002142F000002057
:102F800000100020AC0700200000224200802142F7
:102F9000A4012242A0012142008022428C812142D0
:102FA00010B50F48002404800E48D0F82411C0F852
:102FB000A44139B10C4800F61871B0F8180F00F1AF
:102FC00001000880084890F8F201800707D50448FE
:102FD000002201211038FEF723FE0448047010BDC2
:102FE000100400400000224200100020F1000020E8
:102FF00028B17649764B0A78DB791A430A7075490D
:10300000A1F87E0E70472DE9F04105460C281BD231
:10301000FDF71FFD704E06EBC520FDF755FD0024A2
:103020006E4FED024FF4806805EB4400304480B2EF
:1030300037F81410FDF70BFE641CA4B24445F3D31B
:10304000BDE8F041FDF711BDBDE8F08170B50C2879
:1030500014D20021C3026248604C4FF4806500BF67
:1030600003EB410292B2865C0244527806EB0222E4
:1030700024F81120491C89B2A942F1D370BD30B4A3
:10308000544A5649002041F2F41341F2B63400BFCD
:1030900032F8135021F81050401C5B1C9BB280B2D8
:1030A000A342F5D340F2645340F2965432F81350E1
:1030B00021F81050401C5B1C9BB280B2A342F5D398
:1030C00040F6640340F6960432F8135021F810508D
:1030D000401C5B1C9BB280B2A342F5D35FF020037F
:1030E00032F8134021F81040401C5B1C9BB280B2A8
:1030F000402BF5D330BC0A2085E730B500240A20E8
:10310000FFF7A4FF3548334941F2F41241F2B633D8
:1031100030F8145021F81250641C521C92B2A4B220
:103120009A42F5D340F2645240F2965330F814506C
:1031300021F81250641C521C92B2A4B29A42F5D3E8
:1031400040F6640240F6960330F8145021F812500D
:10315000641C521C92B2A4B29A42F5D35FF02002D2
:1031600030F8143021F81230641C521C92B2A4B210
:10317000402AF5D330BD17494FF480524FF43D53E8
:10318000002000BF21F81200521C92B29A42F9D3DB
:103190004FF4A0624FF4C06321F81200521C92B2A7
:1031A0009A42F9D34FF400624FF4106321F81200F1
:1031B000521C92B29A42F9D35FF0000221F8120039
:1031C000521C92B2802AF9D370470000E711002008
:1031D000DE5F00080010002000600008886E0020FC
:1031E0000060000830B5F9485221F94B8181F94A55
:1031F000002000BF33F8105000F5E064401C80B29E
:1032000022F814507E28F5D3F34B4FF6FF74F348A1
:103210005A5C194404EA022249780A43F0490280C0
:1032200009200870E949C82010310870487030BD85
:103230002DE9F0410546112822D2FDF70AFCE94E9E
:1032400006EBC520FDF740FC0024EF02E64D4FF4ED
:10325000806800BF05EB840235F82410927807EBF4
:103260004400304401EB022180B289B2FDF7EFFC4B
:10327000641CA4B24445EDD3BDE8F041FDF7F5BBB5
:10328000BDE8F08130B511280ED2D34CD64B0021C9
:103290004FF4006501EBC02292B2A25C23F811202A
:1032A000491C89B2A942F5D330BDC848017800292C
:1032B00009D00021017081714189CC488164416C41
:1032C00041F001014164704770B50024012805D028
:1032D000C74902282BD0032833D038E00020FFF75D
:1032E000D1FFC1490F204FF6FF72A1F8B800A1F835
:1032F000BA405E204FF4006321F81020401C80B2D9
:103300009842F9D3FDF7A5FBBA48FDF7DDFB002095
:10331000FFF78EFFB34D012405EBC420FDF7D4FB6E
:10332000641CA4B20A2CF7D3FDF79FFB0FE04FF407
:10333000005047F67E624454801C80B29042FAD31B
:1033400005E000204454801C80B2BE28FAD3AA496C
:10335000062048709D490120488170BD9B4A10B5E8
:1033600012890023C01C0321521E05E010F8014BF6
:10337000491C2344DBB289B29142F7DB184610BDE9
:10338000F0B5924904209D4C09899D4A9A4D891EA9
:103390000BE02718235C7F7805EB5006D35CD75DE4
:1033A000801C07EB0313337080B28842F1DBF0BD61
:1033B0009148C178807800EB01208449888170476A
:1033C0008D48C178007900EB01208049C8817047A1
:1033D000F8B57F49DFF8F4C1002231F81000009001
:1033E00085490220864B487010469CF80540143BE6
:1033F000EE4610E01EF8007001EB400603EB1715D7
:1034000007F00F072D78B570DF5D401C3D442A445E
:10341000F770D2B280B2A042ECD301EB400103249A
:10342000D21C8C70D2B203EB121402F00F0224787B
:10343000CC709A5C0A71042101EB4000ACF80A00E0
:10344000F8BDA0F58041B1F57A5F02D2A0F5005039
:1034500032E0A0F520717C2917D94031A0F5E07247
:10346000162901D890B27047A0F5C073162B01D869
:10347000E03821E0A0F500731F2B02D8A0F5A07062
:103480001AE0A0F5A0631F2B01D888B27047A0F501
:10349000F0711F2901D820380EE0BF2802D800F5AE
:1034A000807009E0A0F1C001BF2902D800F5886052
:1034B00002E01F2AEAD8203080B270474FF4C06281
:1034C000904202D200F5006034E0A0F5C061914264
:1034D00002D200F508502DE0A0F54061B72902D8CE
:1034E000A0F5E06026E0A0F59052A0F56061BF2A4B
:1034F00001D888B27047A0F5A053B3F57A7F01D206
:1035000098B27047A0F52053FF2B01D890B27047B6
:10351000A0F58052FF2A02D8A0F520600AE0FF291A
:1035200002D800F5807005E0A0F57061FF29EED8A3
:10353000A0F5807080B270472DE9F04302202E4E36
:10354000DFF8BC80002770703C46A8F114081F4DBE
:1035500023E0A889204480B2FFF773FFDFF8909042
:1035600006EB440C10F8091008EB111000788CF8E9
:103570000200A889204480B2FFF763FF10F8090019
:10358000641C00F00F01A4B218F801008CF80300CD
:103590009CF8021008443844C7B268798442D8D3F2
:1035A00006EB440003218170FF1CF9B208EB1113F4
:1035B00001F00F011B78C37018F80110017104208D
:1035C00000EB44006881BDE8F0830000F4000020B7
:1035D0007E3D01080010002000600008005000201F
:1035E000E011002000600008886E0020000002400A
:1035F00000100020006800088C7E002080800020E1
:10360000923F0108F0B5F84E0422F84DB178F078F9
:1036100002EB01210844A8810024F54F09E0A889A4
:10362000204480B2FFF70DFF3119641C4979C15560
:10363000A4B268798442F2D30620707001206881B8
:10364000F0BD30B5E84CE078A17800EB012080B205
:10365000FFF734FFE64901EBD005E078A17800EBF5
:10366000012080B2FFF72AFFE24900F00700085C62
:103670002978084328700620DC49607001204881C1
:1036800030BD30B5D84CE078A17800EB012080B295
:10369000FFF714FFD64901EBD005E078A17800EBE5
:1036A000012080B2FFF70AFFD34900F00700085C51
:1036B0002978084028700620CC4960700120488194
:1036C00030BDC948C178807801EB0020C74980B27D
:1036D0008881A0F56060023804D0C82800D02BE7AC
:1036E000652000E0012073E630B5C04CA089A0F54C
:1036F0006062233A15D00921BD4D012A17D0022A54
:103700001AD085F8E011FFF7D9FE05EBD005A089A6
:10371000FFF7D4FEB74900F00700085C297808439A
:103720002870B149062048700120608130BD85F8BD
:10373000E01100206070F4E70A2085F8E001F0E76E
:1037400030B5AA4CA089FFF7B9FEA94901EBD00515
:10375000A089FFF7B3FEA84900F00700085C2978AC
:103760000840A1492870062048700120608130BDC2
:103770002DE9F04FDFF870A2022100248AF8011031
:103780009AF804109AF8030001EB002080B2FFF7CA
:1037900058FEDFF858B241F290718842ABF80C0045
:1037A00003D0A0F5B852D03A54D18846404551D103
:1037B000924800252F4690F800C0A0F5A0591FE0C0
:1037C00009EB470141F204404E46085AFFF739FE23
:1037D000400806EB450336F8102023F808206D1C3E
:1037E000A0F5C062ADB26E2A08D806EB400006EB29
:1037F000450240886D1C22F80800ADB27F1CFFB264
:103800006745DDD37D48801C002690F800C01FE08E
:10381000B91909EB410141F20440085AFFF74EFE85
:10382000020900F00F0339F81220012000FA03F119
:10383000914305EB161209EB420215D002EB080189
:1038400006F00F030A88984082430A80761CF6B27D
:103850006645DDD30020BBF80C809BF80560684905
:103860005346DFF88C911CE0424406F00F031188A8
:10387000984001431180E9E708EB000703EB400C97
:1038800017F80950401C01EB151705F00F053F789C
:103890008CF802704D5D8CF803503D442C44E4B22A
:1038A00080B2B042E8D30AEB40030325E41C9D70CC
:1038B000E4B201EB141504F00F042D78DD70095DFE
:1038C0001971042101EB4000ABF80A00BDE8F08F4C
:1038D000F0B5454E454D00243079F178444F00EB6A
:1038E0000120A88109E0A889204480B2FFF7A9FD42
:1038F0003119641C8979C155A4B268798442F2D324
:103900000620707001206881F0BD2DE9F043364A31
:10391000364C02205070E0890023A0F5004085B2AB
:10392000E581184666793649DFF8D89016E000BF81
:1039300005EB000C19F80C8002EB400C01EB18179A
:1039400008F00F083F788CF8027011F80880401CCE
:1039500047443B448CF80380DBB280B2B042E7D3EB
:1039600002EB40020325DB1C9570DBB201EB131563
:1039700003F00F032D78D570C95C1171042101EBA0
:10398000400060811FE62DE9F047174E174CDFF825
:1039900060C03079F178012700EB012080B20A2164
:1039A000A0818CF8E0116770B0F5004F49D3164A3A
:1039B0000021A0F500401170A0810D4604F110080F
:1039C000DFF8489039E0A0894319DA0A88F8002026
:1039D00098F8010082421BD17019514203EBC122B9
:1039E000807929F8120026E08C7E0020F400002067
:1039F00000100020DE5F0008E65F000800240020C1
:103A00007E3F0108006000083B000020886E002017
:103A1000FFF70EFC98F80000FFF734FC98F8000060
:103A200088F80100A28971192A44404202EBC022A1
:103A3000897929F812106D1CADB260798542C2D324
:103A400011E0001DA08100250AE0A089284480B271
:103A5000FFF7F7FC71196D1C897900F80C10ADB2F5
:103A600060798542F1D3062070706781BDE8F087E8
:103A700070B505230A0ACCB2A0F50040F74980B220
:103A800045F6DB650E5CA64203D10E1876789642A9
:103A900005D0801C80B2A84201D8032BF2D800F5D3
:103AA000004080B270BD2DE9F041ED4CED4D6079E4
:103AB000A17900EB012081B2E889FFF7D9FFE88105
:103AC00002216170020AC3B23121E748A17000EB04
:103AD000121102F00F020978E170865C00EB1312FC
:103AE0002671127803F00F036271C35C31313144E7
:103AF00011441944C91CC9B2A371032700EB111268
:103B0000E771127801F00F012272405C60720920A7
:103B10006881BDE8F08130B50A280FD2D34CD44B70
:103B200000214FF4006500BF01EBC02292B2A25CFD
:103B300023F81120491C89B2A942F5D330BD2DE9E3
:103B4000F84FC84F05468946B97000F5004080B26D
:103B50000F21FFF78DFF4844A0F5004084B25B2D94
:103B60002BD9A5F15C0001040E0DB978A4F15C001D
:103B70004908C0F34E00C00801F00702CB08BA7034
:103B8000BC490EE00F1811F800C017F8017C07EBD4
:103B90000C2797403F0A00EB030C401E01F80C7005
:103BA00080B2B042EED10E180F5C16F8016C1844CA
:103BB00006EB07269640320A0A544FEAD42AE00A56
:103BC0000090B0EBD52F02D1C5F30A0600E0002625
:103BD000BAEBD42F03D1C4F30A077F1C01E04FF4E2
:103BE00000670098FFF74EFBE20AD2023046DFF88A
:103BF0007CB2DFF87CC27B1C0BE000BF02EB00084C
:103C0000A8EB090189B21BF801102CF81010401C18
:103C100080B29842F2D30098FFF70AFBB81B201A33
:103C200084B205EB0900A042C9D3BDE8F88F2DE9A5
:103C3000F0418B4F8B4D7879B979081A10F0FF015C
:103C400005D0E889A0F5004080B2FFF778FF8A49E7
:103C50000020844C0870642010344FF4004220701F
:103C60006070F978387902EB01210844A881B879AD
:103C700068710026DFF8F88120E0A8898219D10A4E
:103C800021706078814207D1B819C379484202EBAC
:103C9000C02128F811300FE0FFF7CAFA2078FFF7AB
:103CA000F1FA20786070AA89B9193244404202EBD7
:103CB000C022C97928F81210761CB6B268798642FB
:103CC000DBD32078FFF7B4FA0620787001206881F2
:103CD0001FE76448C8211030417001706049062018
:103CE0004870604901204881704710B55D4C103420
:103CF0006078FFF79DFAC82060702070FCF7B5FE71
:103D000057490620487057490120488110BD70B5B9
:103D1000544A10890B2805D158480379372B11D004
:103D2000382B0FD0FFF74CFB4D49887861284BD0DA
:103D300026DC11283FD01EDC98B3012838D010288B
:103D40002AD132E048498479143145790C5D4D5DC2
:103D500004EB0514C579007A4D5D085C2D0305EB75
:103D6000002020449081372B02D0BDE87040E7E46A
:103D7000BDE87040B8E4412823D060280CD126E08B
:103D8000772821D004DC622825D0632804D120E0E4
:103D9000872813D0D12823D01520487001205081C6
:103DA00070BDFFE7BDE87040E2E4BDE870408FE51C
:103DB000BDE87040A9E5BDE87040E4E5BDE87040AD
:103DC00093E7BDE870406EE6BDE8704081E70120F2
:103DD00002E0022000E00320BDE87040FFF774BA63
:103DE000BDE8704023E71F4810B51D49062304892C
:103DF00001224B70428110BD70B5FFF7C1FA1F4818
:103E0000174D184CC07837281BD006DC30280BD053
:103E100031280ED0342837D110E0382816D0422867
:103E200019D0452830D12BE028796071FFF749FC83
:103E30002AE028796071FFF7E5FB25E0FFF7D3FF63
:103E400022E0FFF7B5FAFFF7FCFB1DE0FFF7B0FA41
:103E5000FFF717FC18E0FFF748FF15E000600008C7
:103E60008C7E0020F40000207E3F010800500008F6
:103E7000886E002000D200203B00002080800020BF
:103E800068796071FFF743FF6189208901434FF032
:103E9000010002D115216970608100212181A0718A
:103EA0007EE71FB5694600900020ADF80400ADF82C
:103EB0000600ADF80800ADF80C000C20ADF80A00C3
:103EC0008F48FEF701F91FBD10B501218CB08803A2
:103ED000FDF778FA01210846FDF76BFA894C204678
:103EE000FCF746FC86480021001D009086480190A2
:103EF000102002908F20CDE903018020CDE905013B
:103F00008001CDE9081007910A9169462046FCF727
:103F10009CFC012202212046FCF7CCFC4FF4964089
:103F2000FFF7BFFF764C012240F225512046FEF7F5
:103F30004DF9012280212046FEF760F9012120463B
:103F4000FEF73AF96015ADF82C0003208DF82E002D
:103F500018206E4C8DF82F000BA92046FCF7F5FFBA
:103F60002015ADF82C0004208DF82F000BA9204659
:103F7000FCF7EBFF0CB010BD62484438416841F4D7
:103F800000514160416C4FF6FE721140416460493E
:103F90000120087070472DE9F0475948001D00883E
:103FA000DFF8709100F07F0000250126584C89F859
:103FB00000004FF00608A9F5FA77052804D002287A
:103FC00009D0208948B11BE0258187F801806681EE
:103FD000FFF76BF911E0268112E0207901281ED04D
:103FE00000281BD14FF41650FFF75BFF258187F89F
:103FF00001806681FFF759F92671208900280DD0CC
:104000002089CC46401C80B2208199F8001009F824
:104010000010B0F5C87F0ED96581258126E54FF4E3
:104020009640FFF73EFF258187F801806681FFF704
:104030003CF92571E1E70328F0D9604410F8020C3F
:104040000328EBD13348FFF789F9E07021890CEBA5
:10405000010212F8013C304A02EB10152D78AB42F8
:1040600009D100F00F001CF80110105C814202D150
:10407000BDE8F047C0E6152078706681BDE8F047DE
:10408000FFF713B970B51E4C40F22555294620465E
:10409000FEF753F9012805D129462046FEF76CF9B1
:1040A000FFF779FF08212046FEF73DF9012806D1E8
:1040B00008212046FEF73EF92046FEF7D7F840F2E9
:1040C000277529462046FEF738F9012808D12946E8
:1040D0002046FEF751F9002229462046FEF776F8E1
:1040E00040F2266529462046FEF727F9012805D12A
:1040F00029462046BDE87040FEF73EB950E6000074
:1041000000380140440002408D7E0020000801403C
:10411000F4000020808000207E3F010870B5FA4D39
:10412000FF22134605F5807606E000BF10F8014B2C
:1041300054402A5D5A40335D491EF7D243EA0220BB
:1041400070BD1FB5694600900020ADF80400ADF8C1
:104150000600ADF80800ADF80C000C20ADF80A0020
:10416000EA48FDF7B1FF1FBD38B501218804FDF70E
:1041700032F901210820FDF725F94FF40060ADF870
:1041800000000420E24C8DF8030069462046FCF74D
:10419000DCFE2015ADF8000003208DF80200182089
:1041A0008DF8030069462046FCF7CFFE4FF4964099
:1041B000FFF7C7FFD54C012240F225512046FEF7FC
:1041C00005F801212046FDF7F7FFD2490020A1F8AC
:1041D000040F0120A1F8F20E38BD2DE9F04FCE4EAC
:1041E000CE4C314696F801C0887891F803804A7920
:1041F0000B798146C74908EB0020002589B041F2C0
:104200006F7B4FF4FA5E01EB4001A6F16407BCF14D
:10421000050F70D018DC3346EA461B78BCF1010F5D
:104220006CD0BCF1020F68D0BCF1030F02D0BCF11E
:10423000040F5DD18DF8003051008DF801C081462A
:104240008DF802100020E5E0B34A4FF6FF79BCF18B
:10425000060F9378D27802EB0322AE4B03EB4202B7
:1042600002F500527DD0BCF10F0F41D0BCF1100F10
:104270003ED1DFF8A4C258459CF807309CF808C02E
:1042800004D809EA0328E044A2F80080704508D366
:10429000A1F58051138091F8601009EA0120604473
:1042A00010806570A5710020A179325C401C7A54A1
:1042B000491CC0B2A1710628F6D306219648FFF723
:1042C0002DFFA060A179C0F307227A54491CC9B21E
:1042D00001227854491CA17140F227718B48FDF7E7
:1042E00075FF00203554401CC0B20A28FAD9E57089
:1042F00009B0BDE8F08FE9E000E033E08DF8003070
:104300008DF801C08DF802908DF80380B1F8A000FF
:10431000010A8DF804108DF8050006215046FFF7BC
:10432000FDFE010AA0608DF806108DF8070065708B
:10433000A57100205246A179135C401C7B54491C96
:10434000C0B2A1710728F6D9012240F227716F4847
:10435000FDF73CFF00203554401CC0B20A28FAD9B2
:10436000C5E78AE08DF800308DF801C08DF8029025
:104370008DF80380B1F88000010A8DF804108DF8E3
:10438000050006215046FFF7C9FE010AA0608DF81E
:1043900006108DF807006570A57100205246A179BE
:1043A000135C401C7B54491CC0B2A1710728F6D98C
:1043B000012240F227715548FDF708FF00203554CF
:1043C000401CC0B20A28FAD991E700BF09EB0001EE
:1043D00059450DD84F4B0AEB400C03EB400303F556
:1043E00000531B884FEA13288CF803808CF80430A4
:1043F00071450DD3474B03EB4101A1F58051B1F855
:1044000060300AEB40014FEA132C81F803C00B71B6
:10441000401CC0B28242D9D89DF802105046C91C37
:10442000FFF77CFEA0609DF802300DF10301C0F3A0
:1044300007225A549DF8022001A9D44650546570B1
:10444000A5719DF802100020091D07E0A2791CF853
:104450000030BB54521C401CA271C0B28142F5D244
:10446000012240F227712948FDF7B0FE00203554A3
:10447000401CC0B20A28FAD939E727494FF6FF781D
:10448000584591F804C0497908EA0C2C614489B276
:1044900000D81180704500D311806570A57100208F
:1044A000A179325C401C7A54491CC0B2A171072822
:1044B000F6D9012240F227711448FDF787FE00204B
:1044C0003554401CC0B20A28FAD910E702EB032089
:1044D000A1F8A0006570A5710020A179325C401C94
:1044E0007A54491CC0B2A1710728F6D9012240F2C2
:1044F00027710648FDF76AFE00203554401CC0B203
:104500000A28FAD9F3E60000DF3F0108004800401E
:10451000000C014000100020D8820020080100207B
:1045200070B5624D2879002857D1287800260128D7
:1045300050D15F482E70B0F8040FE8BB5D4C5C4969
:104540002078B1F8F21E884244D1A87808280AD908
:1045500009212046FFF7E2FDA860A27AC1B291428C
:1045600010D1617A09E006215248FFF7D7FDA86013
:10457000E279C1B2914205D1A179B1EB102F01D1FD
:10458000FFF72BFE4A48B0F8040F012822D1484912
:104590002078B1F8F41E88421CD105214548FFF768
:1045A000BDFDA860A279C1B2914213D16179B1EB8E
:1045B000102F0FD1207900E00CE0E17800EB012012
:1045C0003D49A1F89C0000202654401CC0B20A2896
:1045D000FAD9AE70AE700120287170BD2DE9F0419E
:1045E000364D40F2255631462846FDF7A6FE2F4CA3
:1045F00008B331462846FDF7BFFE2079D8B12846DA
:10460000FDF734FE61792B4EC0B2012709B9307035
:10461000677127493078B1F8F21E88420BD12846DD
:10462000FDF724FE0146A0783154401CC0B2A070B2
:10463000072800D3277008212846FDF774FE0128BB
:1046400006D108212846FDF775FE2846FDF70EFE27
:1046500040F2277631462846FDF76FFE012815D136
:10466000144960786439095C401C60702846FDF785
:10467000F9FD6078A179884204D1002231462846AC
:10468000FDF7A4FD31462846FDF776FE40F226648C
:1046900021462846FDF751FE012805D1214628462E
:1046A000BDE8F041FDF768BEBDE8F08108010020DB
:1046B00000100020D8820020003000200048004078
:1046C00081070CD16421B0FBF1F201FB120141B969
:1046D0004FF4C871B0FBF1F201FB120008B10020E9
:1046E0007047012070472DE9F05F99460546DDE9E6
:1046F0000AAB0023A0F5FC6090460E46792802D351
:104700000120BDE8F09F4FF4FC64B04FDFF8C0C259
:1047100008E02046FFF7D4FF08B13B4400E06344C3
:10472000641CA4B2AC42F4D3761EF6B20024A94FA6
:10473000DFF8A4C20EE0385D40F2A321484303EB4A
:10474000C0132846FFF7BCFF10B1012C00D1634411
:10475000641CA4B2B442EED340F2A32108FB01F0E2
:104760009D4903EBC01049420844C9EB4912C2EB12
:10477000092100EB0110CAEB0A1100EB810000EBEC
:104780000B040120FCF7C8FCFCF7BEFE2046FCF73A
:1047900089FEFCF7B9FE0020B3E770B54FF4C8748A
:1047A000B0FBF4F303290DD2850706D14FF47A75D7
:1047B000B0FBF5F605FB160515B904FB13040CB99F
:1047C000521ED2B2024402EB90021A446423B0FBA0
:1047D000F3F0101A814A801E515C0844072190FBB7
:1047E000F1F201FB1200C0B270BD2DE9FC417C4822
:1047F0007C4990F8E121CB791A4214D07A487A4961
:1048000090F81A0E91F81C1ECDE90010764890F829
:104810001E3E90F8202E90F8221EB0F8240EFFF7CE
:1048200062FFBDE8FC8190F8E20189780842F8D087
:10483000FCF72FFE684F0546B0FBF7F367481E46AE
:10484000801E0188994238D003804FF4FC644FF4F5
:10485000B7784FF4B67C0FE02046FFF731FF38B150
:10486000434502D3A3F5B77304E0641CA4B205E08A
:10487000A3F26D13641CA4B26345EDD85A48DFF867
:1048800054C1A0F8244E00240EE05748B0F8220E80
:10489000FFF716FF08B1012C31D01CF80400984234
:1048A00004D81B1A641CA4B21C2BEED24E48641C04
:1048B0005B1CA0F8224EA0F8203E07FB16504FF4D8
:1048C0006162B0FBF2F1484B02FB1102A3F81E1E1D
:1048D0003C20B2FBF0F100FB1120A3F81C1E19468E
:1048E000A1F81A0E084690F8202E90F8221EB0F873
:1048F000240EFFF752FF3C49A1F8260E91E71D2B2D
:10490000D4D31D3BCEE710B501214FF0C050FCF7CA
:1049100062FD0120FCF700FCFBF760FE0120FCF7C4
:10492000EDFC4120FCF773FC0028FAD04FF48070B6
:10493000FCF7F5FC0120FCF7F7FCFCF7EBFDFCF7BE
:10494000E3FD01210846FCF78DFDFCF7DDFD47F690
:10495000FF70FCF7B4FDBDE81040FCF7D5BD10B505
:104960000420FBF764FE45F65A24A04206D0FFF768
:10497000CAFF21460420FBF753FE1AE001214FF045
:10498000C050FCF728FD002041F28831401C80B265
:104990008842FBD37B20FCF73AFC10B97A20FCF765
:1049A00036FCFCF73DFD01210846FCF75BFDFCF7FA
:1049B000ABFD0E480B4A4178927811430C4A417086
:1049C0000178D2791140017010BD00000085E2012C
:1049D0008033E101EE5F00088051010016010020E4
:1049E00000100020DE5F000800100020E111002010
:1049F000E65F000810B586B001210420FCF7E2FC58
:104A000001214807FCF7E7FC3020ADF81000002436
:104A10008DF8134004A92448FCF797FA3C20CDE90F
:104A200000040220039069460020FBF72FFE694630
:104A30001020FBF72BFE01210020FBF73FFE012198
:104A40001020FBF73BFE01210020FBF74BFE01216C
:104A50001020FBF747FE00210846FBF765FE00210A
:104A60000846FBF768FE01210020FBF73BFE012111
:104A70001020FBF737FE06B010BD0C4810B5B0F89B
:104A8000A01E0020FBF750FE0848B0F8A21E002030
:104A9000FBF751FE01210020FBF724FE0121BDE8B8
:104AA00010401020FBF71EBE00080140001000203F
:104AB00030B591B001214FF40470FCF783FC012163
:104AC0000846FCF776FC0F20ADF8400000248DF876
:104AD000434010A94748FCF738FA474D2846FBF7F2
:104AE00047FE464800904648CDE901044FF4C8709F
:104AF000CDE90304802005904000069080000790D7
:104B0000202008900002CDE9090469462846FBF7F9
:104B10009CFE01212846FBF7C2FE01208DF83000E3
:104B20008DF831000B944FF46020CDE90D04334C27
:104B300004208DF83C004C3C0BA92046FBF7D2FB2F
:104B4000072301220A212046FBF74CFC07230222FF
:104B50000B212046FBF746FC072303220C212046AD
:104B6000FBF740FC072304220D212046FBF73AFC0B
:104B700001212046FBF7E8FB01212046FBF7DAFB89
:104B80002046FBF7F4FB2046FBF7F6FB0028FAD1A2
:104B90002046FBF7F8FB2046FBF7FAFB0028FAD18A
:104BA00001212046FBF7FBFB11B030BD10B5FFF72C
:104BB0007FFFBDE81040FFF71DBFF0B50022104B8E
:104BC000104D1046642444F61C76002103EBC10707
:104BD00037F81070491CC9B23A446429F6D392FBE5
:104BE000F4F105EB4002401C91530022C0B20428AE
:104BF000EBD3F0BD00100140080002404C240140FE
:104C00003C8300200010002053EA020C00F0698071
:104C10002DE9F04B4FF00006002B1FBFB3FA83F5D0
:104C200003FA05F424FA05F65E4012BF1643B2FA01
:104C300082F502FA05F4C5F120051EBF22FA05FC33
:104C400044EA0C04203556EA044C4FEA144418BFD9
:104C5000641C4FF000084FF00009904271EB030C08
:104C600039D3002919BFB1FA81F701FA07F6B0FA72
:104C700080F700FA07F6C7F120071EBF20FA07FCED
:104C800046EA0C062037B6FBF4FCA7EB0507103FFD
:104C900007F01F0BCBF120060CFA0BFB2CFA06F6E3
:104CA00044BFB3460026202FA4BF5E464FF0000B42
:104CB0005BEA060C08BF4FF0010B19EB0B09ABFBCD
:104CC000027C48EB0608C01B06FB02CC0BFB03CCA6
:104CD00071EB0C01C1E70B46024641464846BDE870
:104CE000F08B13B54FF000004FF00001AFF30080E0
:104CF000BDE81C407047B2F120030AD5C2F1200381
:104D000001FA02F120FA03F300FA02F041EA03018A
:104D1000704700FA03F14FF000007047B2F1200332
:104D20000AD5C2F1200320FA02F001FA03F321FAB6
:104D300002F140EA0300704721FA03F04FF000014E
:104D4000704770477047704710B500F009F8006869
:104D500010BD10B5044600F003F8046010BD00005B
:104D6000004870475C860020004870475C86002041
:104D70007546FFF7F9FFAE4605006946534620F039
:104D80000700854618B020B5FBF726FABDE820409D
:104D90004FF000064FF000074FF000084FF0000BF7
:104DA00021F00701AC46ACE8C009ACE8C009ACE8AA
:104DB000C009ACE8C0098D4670470446AFF30080D7
:104DC0002046FBF7F4F9000001491820ABBEFEE7CE
:104DD000260002007047490050EAC12018BF042095
:104DE0004A0D18BF40F0010040F2FF72B2EB515F74
:104DF00008BF40F00200012808BF052070470000EE
:104E00002DE9FF4D21F0004807460C46B8F1795FC7
:104E100008DA00F0ADFF002801BF0020324904B0DD
:104E2000BDE8F08D3A4623461046194601F010F8C9
:104E3000054602462D480E460B460621784400F0F2
:104E40005DF82A46334601F003F8DDE90223824685
:104E50008B463846214600F0FBFF04460F4652467B
:104E60005B462846314600F0F3FF22463B460EF0F3
:104E7000C7FA07468A464FF0FF32284631460EF001
:104E800038FF1B4A90450ADA3A4653460EF0B8FA04
:104E900004B00022BDE8F04D134B01F089B8154A6B
:104EA0004245A8BFA8F500154FF00004B8BF124D49
:104EB00022462B460EF0A4FA0646884622462B468A
:104EC000002009490EF09CFA04460D463A46534626
:104ED000304641460EF094FA04B022462B46BDE817
:104EE000F04D01F065B800000000F03FA0F30000B5
:104EF0003333D33F0000E93F0000D23F2DE9F041BA
:104F00004F1E00EBC7010446D1E9000115461E46BD
:104F100037F006020DD02A46334600F099FF7F1E77
:104F200004EBC703D3E9002300F022FD37F00602AB
:104F3000F1D1022F25D0042F13D0062F18BFBDE8C2
:104F4000F0812A46334600F083FFD4E90A2300F0BB
:104F50000FFD2A46334600F07BFFD4E9082300F01A
:104F600007FD2A46334600F073FFD4E9062300F01C
:104F7000FFFC2A46334600F06BFFD4E9042300F01F
:104F8000F7FC2A46334600F063FFD4E9022300F021
:104F9000EFFC2A46334600F05BFFD4E90023BDE86E
:104FA000F04100F0E5BC0000024A002011070EF0BD
:104FB000A0BE000001FDFFFF02494FF000000EF00F
:104FC00066BE00BF0000F87F10F0004248BF4042BC
:104FD000B0FA80F310FA03F10AD0C3F11D0303F510
:104FE00080634FEA415002EB035202EBD12170473C
:104FF0004FF000007047FF2141EAD050C0057047D4
:10500000080000002DE9F74F144696B00021C4E9CE
:1050100002111799089121F00045CA498D4206DC1A
:105020001799C4E9000119B00020BDE8F08FC64906
:10503000DFF818A3A9423CDD0899C54E0029C54FE9
:10504000C54A1799534619DD0EF0DAF9554506D0D1
:10505000C24AC34B0EF0D4F9C4E900010AE04FF094
:10506000D352BF4B0EF0CCF932463B460EF0C8F996
:10507000C4E9000119B00120BDE8F08F00F078FC10
:10508000554506D0B54AB64B00F072FCC4E90001A4
:105090000AE04FF0D352B24B00F06AFC32463B4676
:1050A00000F066FCC4E9000119B04FF0FF30BDE824
:1050B000F08FAC49A942179978DB21F0004883466C
:1050C000A94AAA4B414600F0C3FE0022A84B00F0BB
:1050D0004FFC00F04DFE0990FFF776FF06460F46A5
:1050E0009D4A534600F0B4FE5A46434600F060FF26
:1050F00080468A46994A9A4B3046394600F0A8FEC7
:105100002A0D01250B924246534600F051FF032D14
:10511000C4E9000139D00B98C1F30A51401A05EBDC
:1051200045111139814230DA9248C346784400EB88
:105130000510CDF81CA00C90D0E90023304639466C
:1051400000F086FECDE9020102460B46584607995B
:105150000EF056F980468A4602460B465846079995
:105160000EF04EF9DDE902230EF04AF983460C9861
:1051700003913946D0E90223304600F069FE5A46D1
:10518000039B0EF03DF96D1CBDE708980028A2BFF7
:10519000099819B0BDE8F08F616881F00041616045
:1051A000099819B04042BDE8F08FFFE7C1F3130141
:1051B00041F480110E911799C1F30A51A1F2F53211
:1051C000511102F01F08C8F12002129200220C9225
:1051D0000D92694A7A4402EB810101F1140C0DA988
:1051E0005FF00607DCF80020DCF8045002FA08F350
:1051F000129AD1F800A025FA02F21A430E9BA2FBE4
:105200000356A2FB00329A4415449A4534BF4FF02E
:10521000010B4FF0000B51F8043C05EB0B0E7344EF
:10522000954234BF012200221644BBF1000F02D088
:10523000AB4202D903E0AB4201D2012200E00022DE
:105240003244C1F800A041E90223091FACF1040C6B
:105250007F1EC7D10898DDE90A6500F10050800F74
:1052600011900898099F8000FFF7AEFE80468A469D
:10527000384600F0DAFD6FF01D020EF03AFD0746E9
:105280003046059100F0D1FD6FF03D020EF031FD8A
:10529000CDE90310284600F0C8FD6FF05D020EF066
:1052A00028FD064602460B460191DDE9031000F099
:1052B0005FFB3A46059B00F05BFB4246534600F01D
:1052C00057FB00200D468346424653460EF098F8A1
:1052D0003A46059B0EF094F8DDE903320EF090F8A3
:1052E0003246019B00F064FEDFF89480234A434677
:1052F00000F0AEFD06460F46224A234B584629468B
:1053000000F0A6FD32463B4600F032FB0F46064653
:105310004FF0A84243465846294600F099FD3246D0
:105320003B4600F025FB179A12F0004F04D0119A6B
:1053300081F0004152421192C4E90001119819B064
:10534000BDE8F08FFB21E93F7CD90240FB21F93F0A
:105350007370032E8A19A33B000040543163621A14
:1053600061B4D03DFB21394183C8C96D305FE43F52
:105370000000E03FE0F0000068F00000182D445409
:10538000FB21F93D3326A611460B113C2DE9FF4DBB
:10539000054621F0004084B00C46B0F1795F0BDA8D
:1053A0002846FFF718FD042808BFFFF7FDFD284633
:1053B00008B02146BDE8F08D2A460B46104600F0A5
:1053C00047FD06460F462A46234600F041FD80462B
:1053D00026488A4632463B4605217844FFF78EFD33
:1053E00083461098029160B3214A224B40465146B1
:1053F00000F02EFDCDE900015A4640465146029B81
:1054000000F026FD82468846DDE906014FF0FF32B6
:105410000EF06FFC524643460DF0F2FF32463B461B
:1054200000F016FDDDE906230DF0EAFFDDE90023BB
:105430000DF0E6FF08B02A462346BDE8F04D00F027
:10544000B7BD0B465A463046394600F001FD084AC2
:10545000084B00F08DFA4246534600F0F9FC08B0C4
:105460002A462346BDE8F04D00F082BAFAEE00006D
:10547000495555555555C5BF2DE9F04D044688B0E1
:105480008F4821F00047164698460D460691874200
:1054900006DA2046294600F06BFC002800F0AC80BC
:1054A0008848B8421CDC06980028BCBF85F000453F
:1054B00088F00048844A854B2046294600F078FD54
:1054C00004460D4632464346814882490DF098FF16
:1054D00022462B4600F04CFA002604460D46B04604
:1054E00022462B461046194600F0B2FC8B468246F7
:1054F00002460B4600F0ACFCCDE9020102467648BC
:105500000B4606217844FFF7F9FCCDE9000173480A
:1055100006217844DDE90223FFF7F0FC52465B46A2
:1055200000F096FCCDE9020152465B462046294632
:1055300000F08EFCCDE904019DE80F0000F018FAA0
:10554000DDE9042300F084FC3246434600F010FA03
:1055500052465B4600F07CFC3246434600F008FAB7
:1055600080460E46DDE904015D4A5E4B00F070FCAA
:105570004246334600F0FCF982468B4622462B46D3
:1055800000F0F6F980464F480E46B84210985BDCB2
:10559000FFF71AFD074642463346029100F0E8F94C
:1055A000CDE90001424633461046194600F050FC52
:1055B000DDE9002300F084FA52465B460DF020FF3F
:1055C00022462B4600F0F4FC01220EF092FB3A46F4
:1055D000029B00F0EDFC04460D460698022101EA0C
:1055E000A070C0F10100FFF7EFFC08B022462B4687
:1055F000BDE8F04D00F02CBC1098401C384320430F
:105600000BD01098012812D008B022462B46BDE8D6
:10561000F04D0020344900F053BA08B025F00043A3
:105620002246BDE8F04D0020304900F049BA20463E
:105630002946FFF7D0FB042808BFFFF7B5FC20463A
:1056400008B02946BDE8F08D012802BF404608B0E9
:10565000BDE8F08D00270B463A462046294600F06B
:10566000A7FC52465B4600F0A3FC04460D464246AA
:10567000334600201C4900F023FA83463A46884608
:105680003346104600F0E4FB0022184B00F070F99E
:1056900006468A4622462B463846414600F0D8FB4D
:1056A0003246534600F064F95A46434600F0D0FBB8
:1056B00008B03A464346BDE8F04D00F059B9000045
:1056C0000000303E2894E53F182D4454FB21E93F6B
:1056D000075C143326A6813CF8ED00001AEE0000AA
:1056E000635555555555D53F0000F0BF0000F03FBC
:1056F00000B5284B21F0004287B09A42DCBF00225F
:10570000134631DD244B9A420DD168B94FF00100A8
:10571000FFF71FFB002207B01346104611465DF845
:1057200004EB00F0CDB906DB07B04FF001025DF8E5
:1057300004EB0EF0DEBA02AAFFF764FC10F00301DE
:1057400004BF0DF1080CBCE80F000DD001200129A9
:105750000ED0022914D00DF1080C0090BCE80F0007
:10576000FFF714FE07B000BDFFF74AFB07B000BD0E
:105770000DF1080C0090BCE80F00FFF707FE05E0F4
:105780000DF1080CBCE80F00FFF73AFB07B081F001
:10579000004100BDFB21E93F0000F07F00B5294B2F
:1057A00021F0004287B09A4203DC002213460092A7
:1057B00033E0254B9A420DD168B94FF00100FFF755
:1057C000C8FA002207B01346104611465DF804EBF4
:1057D00000F076B906DB07B04FF001025DF804EB8C
:1057E0000EF087BA02AAFFF70DFC10F003014FF08C
:1057F00001000DD0012914D002291AD00DF1080C96
:10580000BCE80F00FFF7FCFA07B081F0004100BDD3
:105810000DF1080C0090BCE80F00FFF7B7FD07B0D2
:1058200000BD0DF1080CBCE80F00FFF7E9FA07B066
:1058300000BD0DF1080C0090BCE80F00FFF7A6FDBD
:10584000E2E70000FB21E93F0000F07F2DE9F04195
:1058500006460F460DF0EEFC04000D4618BF012071
:10586000284320F00040C0F17F6000F1E040C00F0D
:105870000ED0301C18BF0120384320F00040C0F18A
:105880007F6000F1E040C00F04BF0120FFF761FA24
:1058900020462946BDE8F08110B51A4B21F00042A0
:1058A000012486B09A4203DC00221346009424E0CF
:1058B000154B9A420DD168B94FF00100FFF749FA34
:1058C000002206B01346BDE810401046114600F015
:1058D000F7B806DB06B04FF00102BDE810400EF04D
:1058E00008BA02AAFFF78EFB00F00100A4EB40000B
:1058F0000DF1080C0090BCE80F00FFF7BDFD06B0ED
:1059000010BD0000FB21E93F0000F07F21F00042C4
:10591000A2F16052B2F5801F01F0004328BFD2F11E
:105920007F6C0BD95FEA001C43EAC20242EB507065
:1059300018BF704728BF20F001007047B2F5801FE4
:10594000BCBF184670474FEA410C1CF5001F02D23D
:105950000846FFF750BB70B50DF01EFC0000008933
:10596000FFF7F6BF4FF00040A0F580007047000041
:1059700010B591EA030F48BF83F000430DF148854D
:10598000841A71EB030C05D2121943EB0C03001BB4
:1059900061EB0C01DFF824E14FEA1154A4EB135C36
:1059A0001EEA430F18BF9EEA445F73D023EA0E033A
:1059B000DCF1200E21EA045143F4801332D322FAA1
:1059C0000CFE10EB0E0023FA0CFE41EB0E01CCF1A5
:1059D000200E03FA0EFE10EB0E0051F10001B1F59E
:1059E000801FCCF1200E32D201EB045112FA0EF2DC
:1059F000BDE8104058BF7047401C38BF5FEA420204
:105A000018BF7047002814BF20F0010041F10001C9
:105A10004FEA410313F5001F38BF7047A1F1C041A1
:105A200000F0C0BA012A43EB0302ACF1200CDCF118
:105A30001F0E32BF4FF0000E23FA0CF310EB0300E1
:105A400041EB0451B4EB115FD0D0A1EB045101F54F
:105A5000801149085FEA300001EB04510ED350F188
:105A6000000038BF12FA0EFE08D1BDE81040C9E7A9
:105A7000401C38BF5FEA4202CAD1C3E7BDE810400C
:105A80004FEA410313F5001F38BF7047A1F1C04131
:105A900000F088BA9EEA445F08D011EA5E0FBDE8C4
:105AA000104004BF01F0004100207047BDE81040E5
:105AB00070B50DF071FB00BF64FBBE3E0000E0FF5F
:105AC0002DE9C04130B4DFF8A0C23CEA111418BF80
:105AD0003CEA131400F0EC8081EA03051CEA11147F
