:020000040800F2
:10000000509D0020450100087111000835050008C9
:100010006D110008E10100084D1B00080000000000
:100020000000000000000000000000007513000840
:100030009F02000800000000F91100086114000888
:100040005F0100085F0100085F0100085F01000810
:100050005F0100085F0100085F0100085F01000800
:100060005F0100085F0100085F0100085F010008F0
:100070005F0100085F0100085F0100085F010008E0
:100080005F0100085F0100085F0100085F010008D0
:100090002B1900085F0100085F0100085F010008DC
:1000A0005F0100085F0100085F0100085F010008B0
:1000B000911500085F0100085F0100085F0100085A
:1000C0005F0100085F0100085F0100085F01000890
:1000D0005F01000849170008591700086917000850
:1000E0005F0100085F0100085F0100085F01000870
:1000F0005F0100085F0100085F0100085F01000860
:100100005F0100085F0100085F0100085F0100084F
:100110005F0100085F0100085F0100085F0100083F
:100120005F0100085F0100085F0100085F0100082F
:10013000DFF80CD000F03CF800480047E921000847
:10014000509D00200648804706480047FEE7FEE72E
:10015000FEE7FEE7FEE7FEE7FEE7FEE7FEE7FEE777
:10016000311500083101000840EA01039B0703D064
:1001700009E008C9121F08C0042AFAD203E011F8E6
:10018000013B00F8013B521EF9D27047D2B201E0A8
:1001900000F8012B491EFBD270470022F6E710B58C
:1001A00013460A4604461946FFF7F0FF204610BDE5
:1001B000064C074D06E0E06840F0010394E80700B4
:1001C00098471034AC42F6D3FFF7B6FF4824000836
:1001D00068240008014648780A7840EA02207047FF
:1001E00000BFFEE770B502460C46FF25FF2309E07D
:1001F00012F8010B80EA05010648405C80EA03051D
:100200000548435C201EA4F10106B4B2F0D143EAD4
:10021000052070BD4822000848230008014609B99E
:1002200009487047012901D10848FAE7022901D19C
:100230000748F6E7032901D10020F2E7042901D19C
:100240000020EEE70020ECE7F0020020180B002071
:100250004013002008B525208DF8000000208DF8FF
:10026000020001208DF80300684600F083FF26207D
:100270008DF8000001208DF802008DF8030068461B
:1002800000F078FF27208DF8000002208DF8020092
:1002900001208DF80300684600F06CFF08BD704730
:1002A0002DE9F0410246002500260020002300240D
:1002B000002791F803C00CF00F0591F803C00CF073
:1002C000100CBCF1000F03D091F802C04CEA0505F8
:1002D00091F800C0BCF1000F31D0146800202BE071
:1002E0004FF0010C0CFA00F3B1F800C00CEA030661
:1002F0009E4220D183004FF00F0C0CFA03F7BC4351
:1003000005FA03FC4CEA040491F803C0BCF1280F81
:1003100006D14FF0010C0CFA00FCC2F814C00AE040
:1003200091F803C0BCF1480F05D14FF0010C0CFA55
:1003300000FCC2F810C0401C0828D1D31460B1F8EA
:1003400000C0BCF1FF0F34DD546800202EE000F146
:10035000080C4FF0010808FA0CF3B1F800C00CEAE1
:1003600003069E4221D183004FF00F0C0CFA03F7D5
:10037000BC4305FA03FC4CEA040491F803C0BCF149
:10038000280F05D100F1080C08FA0CF8C2F8148007
:1003900091F803C0BCF1480F07D100F1080C4FF0F1
:1003A000010808FA0CF8C2F81080401C0828CED3C7
:1003B0005460BDE8F0810246002093680B400BB109
:1003C000012000E00020704710B53948007800B9DE
:1003D00010BD002036490870364890F880000A2881
:1003E00000DA4FE03348407930384FF47A714843AF
:1003F00030498979303901EBC10202EB011100EB80
:1004000081012C48007A303800EB800001EB40017C
:100410002848407A30380844274908802548807D9C
:1004200030384FF47A7148432249C97D303901EBA5
:10043000C10202EB011100EB81011E48407E303801
:1004400000EB800001EB40011A48807E3038084400
:100450001A4908801848008842F21071884203DA6D
:1004600015480088164908801448008842F2107127
:10047000884203DA1148008811494880032001F0BE
:10048000AFFD00BF0B4890F880000E490870094886
:1004900090F8802001460B48401CFFF765FE0020C5
:1004A000044981F8800001200749087000BF8FE7E8
:1004B0002C000020AC1C00202E000020300000206A
:1004C000020200205C0000203200002010B509224A
:1004D0000249012001F070FE10BD00002200002042
:1004E00070B5044600200D49087040F627150C4AE7
:1004F0002946032001F0FCFD0A4890F8800080287E
:100500000ADA084890F8801090F88000401C054AEC
:1005100082F880001046445470BD00002C0000207A
:1005200029050008AC1C0020012001490870704713
:100530002C0000200EE00849096881F48071064A09
:100540001160002001E0411C88B242F21071884223
:10055000F9DB00BFEFE700000C08014000B585B0F3
:100560000121052000F05AFE0121880300F056FE0B
:100570004FF40070ADF8100018208DF81300032020
:100580008DF8120004A96848FFF78AFE4FF48060D6
:10059000ADF8100004208DF8130004A96248FFF79D
:1005A0007FFE4FF4E13000900020ADF80400ADF87C
:1005B0000600ADF80800ADF80C000C20ADF80A00FC
:1005C00069465A4801F03CF9012240F2255157484A
:1005D00001F011F90121554801F0D7F840215348A5
:1005E00001F0CAF80121052000F018FE012148049D
:1005F00000F004FE0420ADF8100018208DF8130060
:1006000003208DF8120004A94748FFF749FE08208F
:10061000ADF8100004208DF8130004A94248FFF73C
:100620003FFE04A94048FFF73BFE4FF49640009080
:100630000020ADF80400ADF80600ADF80800ADF8F4
:100640000C000C20ADF80A006946394801F0F8F8B2
:10065000012240F22551364801F0CDF801213448FD
:1006600001F093F84021324801F086F8012108207A
:1006700000F0D4FD10208DF8130003208DF8120037
:100680002020ADF8100004A92A48FFF709FE012137
:10069000092000F0C3FD0121880400F0AFFD4FF4F4
:1006A0008060ADF8100018208DF8130003208DF83D
:1006B000120004A91F48FFF7F3FD4FF40060ADF8E6
:1006C000100004208DF8130004A91A48FFF7E8FD74
:1006D00004A91848FFF7E4FD4FF4165000904FF4BA
:1006E0008050ADF804000020ADF806004FF48060A3
:1006F000ADF808000020ADF80C000C20ADF80A00A1
:1007000069460D4801F09CF8012240F225510A4843
:1007100001F071F80121084801F037F8402106483E
:1007200001F02AF805B000BD000801400038014082
:1007300000440040000C01400048004009480068A7
:1007400000F0010058B90748006800F0020030B915
:100750000448006800F0010008B101207047002043
:10076000FCE70000080801400948006800F00100AB
:1007700058B10748006800F0020030B10448006832
:1007800000F0010008B9012070470020FCE70000DC
:10079000080801400948006800F0010058B1074806
:1007A000006800F0020030B10448006800F0010069
:1007B00008B1012070470020FCE700000808014054
:1007C0000948006800F0010058B10748006800F0CF
:1007D000020030B90448006800F0010008B90120A7
:1007E00070470020FCE7000008080140044800684A
:1007F00000F0010008B9012070470020FCE700006C
:10080000080801400448006800F0010008B9012010
:1008100070470020FCE70000080801400448006819
:1008200000F0010008B9012070470020FCE700003B
:10083000080801400448006800F0010008B90120E0
:1008400070470020FCE700000808014004480068E9
:1008500000F0010008B9012070470020FCE700000B
:10086000080801400948006800F0010058B907482D
:10087000006800F0020030B10448006800F0010098
:1008800008B1012070470020FCE700000808014083
:10089000FEB50020524981F821000846807F0828D3
:1008A00003D0032081F82100FEBD4D48801CFFF7D6
:1008B00091FC07464A48001DFFF78CFC0546E81DE1
:1008C000C11700EB5171CE10B7F5807F35DD002DDB
:1008D00033DD7819B0F5837F2FDA002404E000209F
:1008E0000DF80400601C84B2B442F8DB002421E05F
:1008F000611C3944491EC8B201F004FBC0B1E217C3
:1009000004EB5272D2101DF802202146E31704EBCB
:100910005373DB10A4EBC30C012303FA0CF31A434B
:10092000D2B22046E31704EB5373DB100DF803201B
:10093000601C84B2AC42DBDB03E00220284981F872
:100940002100274890F82100002841D1244981F84E
:10095000A2000846017890F8A22090F8A200401C5E
:100960001F4B83F8A20003F1220081542238417802
:1009700090F8A22090F8A200401C83F8A20003F196
:1009800022008154223890F8A22090F8A200401C46
:1009900083F8A20003F12200865400240FE01DF822
:1009A00004100F4890F8A22090F8A200401C0C4BB5
:1009B00083F8A20003F122008154601C84B2B44287
:1009C000EDDB074890F8A210223000F09DFB04E018
:1009D000034991F8210000F06FFB00BF64E70000BD
:1009E0005E010020FEB50020514981F82100084633
:1009F000807F082803D0032081F82100FEBD4C48E9
:100A0000801CFFF7E7FB06464948001DFFF7E2FBA5
:100A10000546E81DC11700EB5171CF10B6F5007FF8
:100A200034DD002D32DD7019B0F5017F2EDC00249D
:100A300004E000200DF80400601C84B2BC42F8DB26
:100A4000002420E0711E2144C8B201F0B9F8C0B101
:100A5000E21704EB5272D2101DF802202146E31770
:100A600004EB5373DB10A4EBC30C012303FA0CF368
:100A70001A43D2B22046E31704EB5373DB100DF890
:100A80000320601C84B2AC42DCDB03E00220284976
:100A900081F82100264890F82100002841D12449FE
:100AA00081F8A2000846017890F8A22090F8A200F0
:100AB000401C1F4B83F8A20003F12200815422380E
:100AC000417890F8A22090F8A200401C83F8A20080
:100AD00003F122008154223890F8A22090F8A2005D
:100AE000401C83F8A20003F12200875400240FE089
:100AF0001DF804100E4890F8A22090F8A200401CA7
:100B00000B4B83F8A20003F122008154601C84B2D5
:100B1000BC42EDDB064890F8A210223000F0F4FA57
:100B200004E0034991F8210000F0C6FA00BF65E730
:100B30005E01002070B590B00020494981F8210085
:100B40000846807F082803D0032081F8210027E091
:100B50004348801CFFF73EFB06464148001DFFF757
:100B600039FB0546202D04D903203D4981F8210099
:100B700016E0002410E06846022202FB0401304621
:100B800000F05EFA20B90220354981F8210005E025
:100B9000701C86B2601C84B2AC42ECDB00BF00BFAC
:100BA0002F4890F82100002852D12D4981F8A20049
:100BB0000846017890F8A22090F8A200401C284B2B
:100BC00083F8A20003F1220081542238417890F882
:100BD000A22090F8A200401C83F8A20003F122009A
:100BE00081546806010E184690F8A22090F8A200E1
:100BF000401C83F8A20003F12200815400241EE06F
:100C00001DF81410164890F8A22090F8A200401C7D
:100C1000134B83F8A20003F1220081546000401CB2
:100C20001DF80010184690F8A22090F8A200401C71
:100C300083F8A20003F122008154601C84B2AC420C
:100C4000DEDB074890F8A210223000F05DFA04E0E5
:100C5000034991F8210000F02FFA10B070BD000098
:100C60005E01002070B586B00A2101A8FFF795FA51
:100C700000204E4981F821000846807F082803D0D3
:100C8000032081F8210030E04848801CFFF7A2FAD9
:100C900006464648001DFFF79DFA0546B6F5806FEB
:100CA0001EDD002D1CDD701940F20241884217DC68
:100CB000002412E0A6F2014028B93D48808801A92D
:100CC00021F8140004E0002001A921F8140000BF5D
:100CD00000BF701C86B2601C84B2AC42EADB03E049
:100CE0000220324981F8210000BF304890F82100ED
:100CF000002853D12D4981F8A2000846017890F8C8
:100D0000A22090F8A200401C284B83F8A20003F117
:100D1000220081542238417890F8A22090F8A20055
:100D2000401C83F8A20003F1220081546806010EE2
:100D3000184690F8A22090F8A200401C83F8A20068
:100D400003F12200815400241FE001A830F81400B0
:100D50000112164890F8A22090F8A200401C134BF4
:100D600083F8A20003F12200815401A810F81410A6
:100D7000184690F8A22090F8A200401C83F8A20028
:100D800003F122008154601C84B2AC42DDDB0748D1
:100D900090F8A210223000F0B7F904E0034991F86E
:100DA000210000F089F906B070BD00005E0100204E
:100DB0000202002070B50020244981F82100084675
:100DC000807F082803D0032081F8210030E01F48ED
:100DD000801CFFF7FFF905461C48001DFFF7FAF9D4
:100DE000044634B1012C04D00320184981F82100B5
:100DF0001EE040F20110854202D11548C48016E081
:100E0000B5F5817F02D11248048110E040F2031051
:100E1000854202D10E48448109E0B5F5827F02D1B6
:100E20000B48848103E00220084981F8210000BFBB
:100E3000064890F8210010B900F054F904E0034985
:100E400091F8210000F038F970BD00005E0100202B
:100E50000202002070B50020164981F821000846E2
:100E6000807F082803D0032081F8210014E0114876
:100E7000801CFFF7AFF905460E48001DFFF7AAF9E1
:100E800004462146284600F05FF9012803D00220DD
:100E9000084981F8210000BF064890F8210010B9E8
:100EA00000F020F904E0034991F8210000F004F972
:100EB00070BD00005E0100202DE9F04100202049B6
:100EC00081F821000846807F0B2803DA032081F88F
:100ED000210026E01A48801CFFF77CF906461848D6
:100EE000001DFFF777F9054615488779002414E0BF
:100EF0006100C91D124A8818FFF76CF98046311944
:100F000088B2414600F020F9012804D002200C49A3
:100F100081F8210003E0601CC4B2AC42E8DB00BFF2
:100F200000BF074890F8210010B900F0DBF804E09A
:100F3000034991F8210000F0BFF8BDE8F0810000FE
:100F40005E01002010B527484078042823D006DC35
:100F500001280BD0022810D0032838D114E005282E
:100F600020D0062825D0102831D129E0FFF790FCA9
:100F70000021012001F05AF832E0FFF733FD002193
:100F8000022001F053F82BE0FFF7D4FD00210320ED
:100F900001F04CF824E0FFF765FE0021042001F089
:100FA00045F81DE0FFF706FF0021052001F03EF89F
:100FB00016E0FFF74FFF0021062001F037F80FE0A1
:100FC000FFF77AFF0021072001F030F808E0012048
:100FD000044981F8210091F8210000F06DF800BF6C
:100FE00000BF10BD5E01002070B51248007800B946
:100FF00070BD00200F4908700F48807F042800DA78
:1010000013E00D48817FFFF7EDF8044604B10CE0D2
:101010000948057809480078854200D005E0FFF7C7
:1010200091FF022000F0DCFF00BF0020024988771A
:1010300000BFDDE7000000205E010020010000206D
:1010400003460A4613B1012B06D102E00648018887
:1010500004E00548418801E00020704700BF081205
:10106000107051700120F8E70202002070B50446AC
:1010700000200B49087041F24F250A4A29460120F9
:1010800001F036F80848807F1E2807DA0648817F7D
:10109000807F401C044A90771046445470BD000085
:1010A00000000020AD1000085E0100200120014971
:1010B000087070470000002038B5044608480078E2
:1010C0008DF800000648407840F080008DF801005F
:1010D0008DF802400321684600F016F838BD000084
:1010E0005E0100201CB5002405E00648005D0DF8F7
:1010F0000400601CC4B2062CF7DB0621684600F031
:1011000003F81CBD5E01002070B5A0B005460C467A
:10111000224629466846FFF727F821462846FFF76A
:1011200061F8064632122046611CCCB20DF8002050
:10113000F2B22046611CCCB20DF800202146684670
:1011400000F008F920B070BD024612B1012A06D1A4
:1011500002E00548018004E00348418001E00020EE
:10116000704700BF0120FBE70202002000BFFEE73E
:101170007047000070B5002100230F22C47804B32B
:10118000154C246804F4E064C4F5E064210AC1F15C
:101190000403CA40447804FA03F1847814402143DC
:1011A00009010E4C0678A155047804F01F050124AE
:1011B000AC4005786D11AD0005F1E025C5F80041A2
:1011C00009E0047804F01F050124AC40044D0678C2
:1011D000761145F8264070BD0CED00E000E400E01B
:1011E00080E100E002490143024A116070470000BB
:1011F0000000FA050CED00E07047000029B1064A36
:10120000D2690243044BDA6104E0034AD2698243A3
:10121000014BDA61704700000010024029B1064A14
:1012200092690243044B9A6104E0034A9269824343
:10123000014B9A61704700000010024030B5002158
:101240000022002400232D4D6D6805F00C0121B112
:10125000042905D0082923D105E0294D056022E0A5
:10126000274D05601FE0254D6D6805F47012234D74
:101270006D6805F48034022505EB92421CB9214DBE
:10128000554305600BE01D4D6D6805F400351DB13B
:101290001C4D5543056002E0194D5543056002E0C1
:1012A000174D056000BF00BF144D6D6805F0F001DB
:1012B0000909154D6B5C0568DD4045600F4D6D6893
:1012C00005F4E061090A104D6B5C4568DD408560FE
:1012D0000A4D6D6805F46051C90A0B4D6B5C456899
:1012E000DD40C560054D6D6805F44041890B074D33
:1012F0006B5CC568B5FBF3F5056130BD00100240BD
:1013000000127A0000093D00330000204300002055
:1013100008B501210820FFF781FF03208DF80200A6
:1013200010208DF803002020ADF800006946024827
:10133000FEF7B6FF08BD0000000C014010B50446E2
:101340002046FFF793FE10BD20200149086070473A
:10135000140C014070B504460D462A462146022071
:1013600000F02AFF70BD000020200149086070478E
:10137000100C0140704710B500F002F810BD0000DD
:101380000CB50020019000903348006840F4803094
:101390003149086000BF3048006800F40030009018
:1013A0000198401C0190009818B90198B0F5A06F01
:1013B000F1D12948006800F4003010B101200090FC
:1013C00001E0002000900098012843D123480068E4
:1013D00040F01000214908600846006820F0030032
:1013E00008600846006840F0020008601A4840683B
:1013F000194948600846406848600846406840F41B
:10140000806048600846406820F47C1048600846C8
:10141000406840F4E81048600846006840F080707A
:10142000086000BF0C48006800F000700028F9D088
:101430000948406820F003000749486008464068B2
:1014400040F00200486000BF0348406800F00C0014
:101450000828F9D10CBD0000001002400020024015
:1014600010B500F001F810BD10B52948006840B172
:1014700027480068401E2649086010B90120254908
:101480000870002408E004EB4401234A02EB8100C9
:1014900000F01FFE601CC4B2042CF4DB1F4800687F
:1014A000401C1E490860084600686FF000418842F1
:1014B00002D100201949086018480068184988427C
:1014C00017DD002015490860012080F3138800BF54
:1014D00000BFBFF34F8F1348006800F4E06012496B
:1014E0000843001D0F490860BFF34F8F00BF00BFC6
:1014F000FEE700F0EDFD0D480078401CC0B20B493E
:1015000008700A2803DB0020087000F0CDFD10BD34
:101510000400002008000020C00200200C00002071
:10152000005C26050CED00E00000FA05200000201C
:1015300010B51348006840F00100114908600846E2
:101540004068104908400E494860084600680E4946
:1015500008400B4908600846006820F480200860B5
:101560000846406820F4FE0048604FF41F00886081
:10157000FFF701FF4FF000600449086010BD000054
:10158000001002400000FFF8FFFFF6FE08ED00E04B
:1015900010B50221480700F05BF858B10221480756
:1015A00000F044F800220221480700F062F81B48CE
:1015B000006880470421080700F04AF858B1042168
:1015C000080700F033F800220421080700F051F862
:1015D0001348006880470821C80600F039F858B160
:1015E0000821C80600F022F800220821C80600F0F1
:1015F00040F80C48006880471021880600F028F861
:1016000058B11021880600F011F800221021880638
:1016100000F02FF804480068804710BD100000203B
:1016200014000020180000201C000020CA43028281
:10163000704721B1028842F00102028004E0028872
:101640004FF6FE731A40028070470146888C70473F
:1016500030B50246002000230024158A05EA010364
:10166000958905EA010413B10CB1012000E00020C6
:1016700030BD1AB183890B43838102E083898B4398
:1016800083817047818670470187704781877047E3
:10169000A0F8401070470000002202881D4B9842BD
:1016A0000ED01D4B98420BD0B0F1804F08D01B4B91
:1016B000984205D01A4B984202D01A4B984204D156
:1016C0004FF68F731A404B881A43174B984207D036
:1016D000164B984204D04FF6FF431A40CB881A436A
:1016E00002808B8883850B8803850A4B98420BD038
:1016F000094B984208D00E4B984205D00D4B9842AA
:1017000002D00D4B984201D10B7A038601238382CC
:1017100070470000002C01400034014000040040EC
:1017200000080040000C0040001000400014004081
:1017300000400140004401400048014010B504460B
:101740002046FEF7CDFE10BD10B5024800F0EEF8C1
:1017500010BD0000F002002010B5024800F0E6F8CD
:1017600010BD0000180B002010B5024800F0DEF894
:1017700010BD00004013002001F40072B2F5007F9C
:1017800000D100BFCA430280704721B1828942F470
:101790000052828104E082894DF6FF731A408281F3
:1017A000704770B50246002400230025002040F653
:1017B0006A16B14200D100BFC1F3421501F01F0308
:1017C000012606FA03F3012D02D19689334006E083
:1017D000022D02D1168A334001E0968A33400C1262
:1017E000012606FA04F41688344013B10CB1012026
:1017F00000E0002070BDF0B503460024002600255F
:10180000002040F66A17B94200D100BF1846C1F364
:10181000421401F01F06012707FA06F5012C01D139
:101820000C3004E0022C01D1103000E014301AB169
:1018300007682F43076002E00768AF430760F0BD09
:101840002DE9F04786B005460E460024A24600BFAB
:10185000A1460027B08900B100BF2F462C8A4CF664
:10186000FF700440F08804432C82AC894EF6F310DC
:101870000440B08831890843718908430443AC812E
:10188000AC8A4FF6FF400440B0890443AC8201A803
:10189000FFF7D4FC1F48874202D1DDF810A001E019
:1018A000DDF80CA0A88900F4004040B10AEBCA00A2
:1018B00000EB0A1031684900B0FBF1F807E00AEBD1
:1018C000CA0000EB0A1031688900B0FBF1F864200F
:1018D000B8FBF0F004012009642101FB1089A889FC
:1018E00000F4004040B1322000EBC900B0FBF1F041
:1018F00000F00700044308E0322000EB09106421E7
:10190000B0FBF1F000F00F0004432C8106B0BDE8FD
:10191000F08700000038014001468888C0F30800C5
:101920007047C1F3080282807047704770B5044663
:1019300040F225512068FFF734FFE0B12068FFF73F
:10194000EBFFC5B2E18AA0684554E08A401C80B232
:10195000E082E189884201DB0020E082608BE1893E
:10196000884202DA608B401C6083606A10B12846AE
:10197000616A884700BF40F227712068FFF711FFB6
:1019800008B3A08A60B9002240F227712068FFF7EF
:1019900032FF012240F226612068FFF72CFF37E07A
:1019A000638A6268D15C2068FFF7BBFF608A401CD5
:1019B00080B26082A189884201DB00206082A08A17
:1019C000401EA08224E040F226612068FFF7E9FE75
:1019D000F0B1A08A50B9002240F226612068FFF7DA
:1019E0000AFF206AA0B1206A804711E0638A62681A
:1019F000D15C2068FFF795FF608A401C80B260824E
:101A0000A189884201DB00206082A08A401EA0825A
:101A100070BDF8B504460E461746002529E00EE0D5
:101A2000012000F0A7F8A08A0090002000F0A2F8A2
:101A3000A089BDF80010884200DD01E000BFEFE79B
:101A400000BF705D228A61688854012000F092F81E
:101A5000208A401C80B22082A189884201DB0020BC
:101A60002082A08A401CA082002000F083F8681C1D
:101A700085B2BD42D3DB012240F227712068FFF717
:101A8000BAFEF8BD21482249086022484860224831
:101A900088604FF480608881C88100200882488275
:101AA000C882088348838882C861086248621B48EC
:101AB0001B4908601B4848601B4888604FF48060E1
:101AC0008881C881002008824882C88208834883B0
:101AD0008882C8610862154848621548154908603F
:101AE00015484860154888604FF480608881C88137
:101AF000002008824882C882088348838882104870
:101B0000C8611048086210484862704700380140B8
:101B1000F0020020180300201807002000440040B5
:101B2000180B0020400B0020400F00203D1700083C
:101B30000048004040130020681300206817002070
:101B400049130008691300083D13000800BFFEE7B1
:101B500002E008C8121F08C1002AFAD17047704776
:101B6000002001E001C1121F002AFBD1704780F361
:101B70001088704780F310887047000010B5044645
:101B800004B910BD012C00D102240120FFF7EFFFA2
:101B900009480460002009490870FFF7E8FF06E0E3
:101BA00000F016F805480078012800D100E0F7E7BA
:101BB00000BF00BFE5E7000004000020080000208F
:101BC0000146024800EB0110807A704710020020A5
:101BD0007047000010B54FF44070FFF703FB00F0B2
:101BE00087F900F0FFF800F03DF800F031F920200F
:101BF0000149086010BD0000100C01407FB50121B3
:101C00000846FFF7FBFA1548006846081448B6FB7B
:101C1000F0F085B24FF6FF74ADF80840ADF804500F
:101C20000020ADF80A00ADF8060001A94FF0804091
:101C3000FFF732FD01218807FFF7FBFC1C208DF820
:101C4000000004208DF8010000208DF80200012022
:101C50008DF803006846FFF78DFA7FBD480000202D
:101C600040420F0010B500F053F800F001F810BD2D
:101C700008B501211420FFF7D1FA03208DF80200E6
:101C800004208DF803000120ADF8000069461E48CD
:101C9000FEF706FB0220ADF8000069461A48FEF781
:101CA000FFFA0120ADF8000069461748FEF7F8FA80
:101CB0000120ADF8000069461348FEF7F1FA012053
:101CC000ADF8000069461048FEF7EAFA0120ADF8C9
:101CD000000069460C48FEF7E3FA0120ADF8000069
:101CE00069460948FEF7DCFA0120ADF800006946B4
:101CF0000548FEF7D5FAFF20ADF800006946034815
:101D0000FEF7CEFA08BD00000008014000100140B7
:101D10000021284A9172D1721173002018E06421C9
:101D2000254A02EB001211810221234A02EB001224
:101D300011710021204A02EB001291721E4A02EB3F
:101D40000012D1721C4A02EB00121173411CC8B27E
:101D50000A28E4DB642218490A87052281F83B201F
:101D60006422A1F84820052281F84B206422A1F8C2
:101D70005820052281F85B206422A1F86820052202
:101D800081F86B200D490C4A11600D4911610D4914
:101D900011620D4911630D4911640D4911650D4919
:101DA00011660D4911670D49C2F880100C49C2F83F
:101DB00090107047B0020020100200203D0700087C
:101DC00095070008C1070008ED070008050800088E
:101DD0001D080008350800084D08000865080008BF
:101DE0006907000808B501210420FFF717FA012050
:101DF00000F0D8F8022000F0B7F8032000F0B4F8A3
:101E000003208DF8020010208DF803000001ADF8CA
:101E1000000069460D48FEF743FA4FF40060ADF844
:101E2000000069460948FEF73BFA4FF48050ADF8D0
:101E3000000069460548FEF733FA4FF48070ADF8AC
:101E4000000069460148FEF72BFA08BD0008014072
:101E500070B5002416E0002004EB4401204A02EB98
:101E60008101486004EB440102EB8101886004EBCE
:101E7000440102EB8101487004EB440102F82100A7
:101E8000601CC4B2042CE6DB164800684FF47A727A
:101E9000B0FBF2F1B1F1807F00D31DE021F07F4073
:101EA000401E4FF0E022506150170F22002807DA41
:101EB00013071E0E0C4B00F00F052D1F5E5503E09F
:101EC00013071D0E094B1D5400BF00204FF0E022E8
:101ED00090610720106100BFFFF790FE70BD000009
:101EE000C00200204800002018ED00E000E400E0FF
:101EF00010B5FFF7C7FDFEF731FBFFF709FAFEF754
:101F0000A9F910BD0146012908D11648006800F45E
:101F1000807008B9012070470020FCE7022908D131
:101F20001048006800F4006008B90120F3E70020C1
:101F3000F1E7032908D10B48006800F4805008B984
:101F40000120E8E70020E6E7042908D105480068F9
:101F500000F4807008B90120DDE70020DBE70020F5
:101F6000D9E700000C080140411EC8B220B94FF467
:101F700080710B4A116011E0012803D1C102084AA7
:101F800011600BE0022803D1C102054A116005E08F
:101F9000032803D14FF48071014A1160704700009B
:101FA00014080140411EC8B220B94FF480710B4A99
:101FB000116011E0012803D1C102084A11600BE051
:101FC000022803D1C102054A116005E0032803D1AC
:101FD0004FF48071014A1160704700001008014001
:101FE000012806D11049096881F480710E4A1160F8
:101FF00019E0022806D10C49096881F400610A4AF7
:10200000116010E0032806D10749096881F4805166
:10201000054A116007E0042805D10349096881F4E5
:102020008071014A116070470C0801400C4A92F817
:1020300041210B4B23F832001A4692F8412103EB61
:10204000C20251601A4692F84121521CD2B283F862
:102050004121282A02DB002283F841217047000039
:10206000681B002010B5002401210E48FEF7A3F9DB
:1020700008B944F0080402210A48FEF79CF908B99F
:1020800044F0040404210748FEF795F908B944F028
:10209000020408210348FEF78EF908B944F0010450
:1020A000204610BD0010014010B508480078401CC3
:1020B0000649087008460078322805D10120FFF74C
:1020C0008FFF00200149087010BD00002100002092
:1020D0007047416851B14168491E416031B90121E1
:1020E00041700178012901D1816841607047000089
:1020F0002DE9F04104460F461546052F00D37F1FFA
:102100004FF08040FFF7A1FA804608EB0706012C4C
:102110000FD125480560B1B2A007FFF7B3FA02213D
:102120004807FFF783FA012202214807FFF7A1FAC7
:1021300038E0022C0FD11D480560B1B26007FFF7EF
:10214000A3FA04210807FFF771FA01220421080706
:10215000FFF78FFA26E0032C10D115480560B1B2C5
:102160004FF08040FFF792FA0821C806FFF75EFAA9
:1021700001220821C806FFF77CFA13E0042C0FD1D6
:102180000C480560B1B22007FFF782FA10218806DB
:10219000FFF74CFA012210218806FFF76AFA01E0E6
:1021A000BDE8F08100BFFBE7100000201400002014
:1021B000180000201C0000202DE9F04105460E46C5
:1021C00017462846FEF72AF804460CB9BDE8F08108
:1021D000E06908B1E06980473A4631462046FFF79A
:1021E00018FC00BFF2E70000FFF7F4FCFFF73AFF2E
:1021F00013490870FEF76AF90FE0FEF767F9FEF77A
:10220000E3F86420FFF7BAFC0120FFF7E9FE0320A2
:10221000FFF7E6FE0220FFF7E3FE0A4800780028F9
:10222000EBD00BE0FEF7E0FEFEF7CEF805480078B5
:1022300020B1FEF74BF9002002490870F2E70000D8
:10224000010000203200002000C1814001C0804117
:1022500001C0804100C1814001C0804100C1814076
:1022600000C1814001C0804101C0804100C1814066
:1022700000C1814001C0804100C1814001C0804156
:1022800001C0804100C1814001C0804100C1814046
:1022900000C1814001C0804100C1814001C0804136
:1022A00001C0804100C1814000C1814001C0804126
:1022B00001C0804100C1814001C0804100C1814016
:1022C00000C1814001C0804101C0804100C1814006
:1022D00000C1814001C0804100C1814001C08041F6
:1022E00001C0804100C1814000C1814001C08041E6
:1022F00001C0804100C1814001C0804100C18140D6
:1023000000C1814001C0804100C1814001C08041C5
:1023100001C0804100C1814001C0804100C18140B5
:1023200000C1814001C0804101C0804100C18140A5
:1023300000C1814001C0804100C1814001C0804195
:1023400001C0804100C1814000C0C101C30302C27D
:10235000C60607C705C5C404CC0C0DCD0FCFCE0EE5
:102360000ACACB0BC90908C8D81819D91BDBDA1A55
:102370001EDEDF1FDD1D1CDC14D4D515D71716D6C5
:10238000D21213D311D1D010F03031F133F3F23235
:1023900036F6F737F53534F43CFCFD3DFF3F3EFEA5
:1023A000FA3A3BFB39F9F83828E8E929EB2B2AEA15
:1023B000EE2E2FEF2DEDEC2CE42425E527E7E62685
:1023C00022E2E323E12120E0A06061A163A3A262F5
:1023D00066A6A767A56564A46CACAD6DAF6F6EAE65
:1023E000AA6A6BAB69A9A86878B8B979BB7B7ABAD5
:1023F000BE7E7FBF7DBDBC7CB47475B577B7B67645
:1024000072B2B373B17170B05090915193535292B4
:1024100096565797559594549C5C5D9D5F9F9E5E24
:102420005A9A9B5B99595898884849894B8B8A4A94
:102430004E8E8F4F8D4D4C8C448485458747468604
:1024400082424383418180406824000800000020CC
:102450005C000000501B0008C42400085C00002041
:10246000F49C0000601B0008000100000000000058
:10247000000000000000000000000000000000005C
:10248000000000000000000000007B463034524491
:10249000447D0D000000000000000000000000016D
:1024A00002030401020304060708090204060800E7
:1024B00000A24A0400000000000000000102030422
:0424C00006070809FA
:0400000508000131BD
:00000001FF
