:020000040800F2
:10000000888A00204501000895120008E9050008CB
:1000100091120008E1010008611C000800000000C6
:10002000000000000000000000000000991400081B
:100030009F020008000000001D130008B915000809
:100040005F0100085F0100085F0100085F01000810
:100050005F0100085F0100085F0100085F01000800
:100060005F0100085F0100085F0100085F010008F0
:100070005F0100085F0100085F0100085F010008E0
:100080005F0100085F0100085F0100085F010008D0
:100090003F1A00085F0100085F0100085F010008C7
:1000A0005F0100085F0100085F0100085F010008B0
:1000B000A51600085F0100085F0100085F01000845
:1000C0005F0100085F0100085F0100085F01000890
:1000D0005F0100085D1800086D1800087D18000811
:1000E0005F0100085F0100085F0100085F01000870
:1000F0005F0100085F0100085F0100085F01000860
:100100005F0100085F0100085F0100085F0100084F
:100110005F0100085F0100085F0100085F0100083F
:100120005F0100085F0100085F0100085F0100082F
:10013000DFF80CD000F03CF8004800472926000802
:10014000888A00200648804706480047FEE7FEE709
:10015000FEE7FEE7FEE7FEE7FEE7FEE7FEE7FEE777
:10016000451600083101000840EA01039B0703D04F
:1001700009E008C9121F08C0042AFAD203E011F8E6
:10018000013B00F8013B521EF9D27047D2B201E0A8
:1001900000F8012B491EFBD270470022F6E710B58C
:1001A00013460A4604461946FFF7F0FF204610BDE5
:1001B000064C074D06E0E06840F0010394E80700B4
:1001C00098471034AC42F6D3FFF7B6FF0429000875
:1001D00024290008014648780A7840EA022070473E
:1001E00000BFFEE770B502460C46FF25FF2309E07D
:1001F00012F8010B80EA05010648405C80EA03051D
:100200000548435C201EA4F10106B4B2F0D143EAD4
:10021000052070BD0427000804280008014609B91C
:1002200009487047012901D10848FAE7022901D19C
:100230000748F6E7032901D10020F2E7042901D19C
:100240000020EEE70020ECE7FC0100202404002061
:100250004C06002008B525208DF8000000208DF800
:10026000020001208DF80300684601F015F82620F1
:100270008DF8000001208DF802008DF8030068461B
:1002800001F00AF827208DF8000002208DF8020006
:1002900001208DF80300684600F0FEFF08BD70479E
:1002A0002DE9F0410246002500260020002300240D
:1002B000002791F803C00CF00F0591F803C00CF073
:1002C000100CBCF1000F03D091F802C04CEA0505F8
:1002D00091F800C0BCF1000F31D0146800202BE071
:1002E0004FF0010C0CFA00F3B1F800C00CEA030661
:1002F0009E4220D183004FF00F0C0CFA03F7BC4351
:1003000005FA03FC4CEA040491F803C0BCF1280F81
:1003100006D14FF0010C0CFA00FCC2F814C00AE040
:1003200091F803C0BCF1480F05D14FF0010C0CFA55
:1003300000FCC2F810C0401C0828D1D31460B1F8EA
:1003400000C0BCF1FF0F34DD546800202EE000F146
:10035000080C4FF0010808FA0CF3B1F800C00CEAE1
:1003600003069E4221D183004FF00F0C0CFA03F7D5
:10037000BC4305FA03FC4CEA040491F803C0BCF149
:10038000280F05D100F1080C08FA0CF8C2F8148007
:1003900091F803C0BCF1480F07D100F1080C4FF0F1
:1003A000010808FA0CF8C2F81080401C0828CED3C7
:1003B0005460BDE8F0810246002093680B400BB109
:1003C000012000E00020704710B56348007800B9B4
:1003D00010BD002060490870604890F880000A282D
:1003E00000DA9CE05D480079202801D1002002E07D
:1003F0005A480079303842F21071414357484079E9
:10040000202801D1002002E054484079303800EB28
:100410004002C2EBC01001EBC00150488079303877
:1004200000EBC00202EB001001EB80014B48007AA8
:10043000303800EB800001EB40014848407A30380A
:100440000844474908804548407D202801D10020C4
:1004500002E04248407D303842F2107141433F484B
:10046000807D202801D1002002E03C48807D30388A
:1004700000EB4002C2EBC01001EBC0013748C07D69
:10048000303800EBC00202EB001001EB8001334872
:10049000407E303800EB800001EB40012F48807E29
:1004A000303808442F4908802F480078E0B92C489C
:1004B000008843F69821884216DA2A480088884244
:1004C00012DA274800882949294A127821F81200AF
:1004D00024480188264802780078401C244B187074
:1004E000244820F8121019E01F480078012815D17F
:1004F0001B48008843F6982188420FDA1948008883
:1005000088420BDA174801881548008801F05CFC26
:10051000032001F023FF00201749088000BF0020BE
:100520000E4981F8800044F620600D4908800D498D
:1005300008800120114908700D480078042808DD62
:1005400000200B4908700848007810B901200649BE
:10055000087000BF3CE700002C000020E8090020E4
:100560002E0000203000002035000020B8090020B7
:1005700033000020C40900200000002032000020C9
:1005800010B509220249012002F026F810BD000032
:100590002200002070B5044600200D49087040F686
:1005A00027150C4A2946032001F0B2FF0A4890F8AB
:1005B000800080280ADA084890F8801090F88000BF
:1005C000401C054A82F880001046445470BD00006B
:1005D0002C000020DD050008E80900200120014969
:1005E000087070472C0000200EE00849096881F46B
:1005F0008071064A1160002001E0411C88B242F27D
:1006000010718842F9DB00BFEFE700000C080140E1
:100610004CF6CC40014908607047000000300040B3
:1006200010B500F013F810BD70B505460C4645F244
:10063000555000F01FF8284600F010F8204600F052
:1006400013F800F003F8FFF7E3FF70BD4AF6AA20A5
:1006500001490860704700000030004001494860CF
:10066000704700000030004001498860704700007A
:100670000030004001490860704700000030004031
:1006800000B585B00121052000F05AFE0121880344
:1006900000F056FE4FF40070ADF8100018208DF8F1
:1006A000130003208DF8120004A96848FFF7F8FD35
:1006B0004FF48060ADF8100004208DF8130004A9F9
:1006C0006248FFF7EDFD4FF4E13000900020ADF8F7
:1006D0000400ADF80600ADF80800ADF80C000C20E1
:1006E000ADF80A0069465A4801F034F9012240F297
:1006F0002551574801F009F90121554801F0CFF87B
:100700004021534801F0C2F80121052000F018FEF5
:100710000121480400F004FE0420ADF81000182068
:100720008DF8130003208DF8120004A94748FFF745
:10073000B7FD0820ADF8100004208DF8130004A9BF
:100740004248FFF7ADFD04A94048FFF7A9FD4FF46B
:10075000964000900020ADF80400ADF80600ADF81A
:100760000800ADF80C000C20ADF80A0069463948C5
:1007700001F0F0F8012240F22551364801F0C5F8A9
:100780000121344801F08BF84021324801F07EF815
:100790000121082000F0D4FD10208DF81300032063
:1007A0008DF812002020ADF8100004A92A48FFF7A8
:1007B00077FD0121092000F0C3FD0121880400F02C
:1007C000AFFD4FF48060ADF8100018208DF81300D5
:1007D00003208DF8120004A91F48FFF761FD4FF4B4
:1007E0000060ADF8100004208DF8130004A91A4829
:1007F000FFF756FD04A91848FFF752FD4FF41650B5
:1008000000904FF48050ADF804000020ADF80600D1
:100810004FF48060ADF808000020ADF80C000C200B
:10082000ADF80A0069460D4801F094F8012240F243
:1008300025510A4801F069F80121084801F02FF814
:100840004021064801F022F805B000BD0008014033
:100850000038014000440040000C014000480040C6
:100860000948006800F0010058B90748006800F026
:10087000020030B90448006800F0010008B101200E
:1008800070470020FCE700000808014009480068A4
:1008900000F0010058B10748006800F0020030B1D4
:1008A0000448006800F0010008B9012070470020EA
:1008B000FCE70000080801400948006800F001005A
:1008C00058B10748006800F0020030B104480068E1
:1008D00000F0010008B1012070470020FCE7000093
:1008E000080801400948006800F0010058B10748B5
:1008F000006800F0020030B90448006800F0010010
:1009000008B9012070470020FCE7000008080140FA
:100910000448006800F0010008B901207047002079
:10092000FCE70000080801400448006800F00100EE
:1009300008B9012070470020FCE7000008080140CA
:100940000448006800F0010008B901207047002049
:10095000FCE70000080801400448006800F00100BE
:1009600008B9012070470020FCE70000080801409A
:100970000448006800F0010008B901207047002019
:10098000FCE70000080801400948006800F0010089
:1009900058B90748006800F0020030B10448006808
:1009A00000F0010008B1012070470020FCE70000C2
:1009B00008080140FEB50020524981F82100084690
:1009C000807F082803D0032081F82100FEBD4D4818
:1009D000801CFFF7FFFB07464A48001DFFF7FAFBA4
:1009E0000546E81DC11700EB5171CE10B7F5807FA9
:1009F00035DD002D33DD7819B0F5837F2FDA002443
:100A000004E000200DF80400601C84B2B442F8DB5E
:100A1000002421E0611C3944491EC8B201F04EFC9B
:100A2000C0B1E21704EB5272D2101DF80220214629
:100A3000E31704EB5373DB10A4EBC30C012303FA9D
:100A40000CF31A43D2B22046E31704EB5373DB10C6
:100A50000DF80320601C84B2AC42DBDB03E0022013
:100A6000284981F82100274890F82100002841D129
:100A7000244981F8A2000846017890F8A22090F855
:100A8000A200401C1F4B83F8A20003F122008154F6
:100A90002238417890F8A22090F8A200401C83F8F8
:100AA000A20003F122008154223890F8A22090F88D
:100AB000A200401C83F8A20003F122008654002407
:100AC0000FE01DF804100F4890F8A22090F8A20043
:100AD000401C0C4B83F8A20003F122008154601CDF
:100AE00084B2B442EDDB074890F8A210223000F047
:100AF0009DFB04E0034991F8210000F06FFB00BF6B
:100B000064E7000068000020FEB50020514981F82C
:100B100021000846807F082803D0032081F82100A7
:100B2000FEBD4C48801CFFF755FB06464948001D9A
:100B3000FFF750FB0546E81DC11700EB5171CF10C0
:100B4000B6F5007F34DD002D32DD7019B0F5017F80
:100B50002EDC002404E000200DF80400601C84B2A8
:100B6000BC42F8DB002420E0711E2144C8B201F031
:100B700023F9C0B1E21704EB5272D2101DF8022023
:100B80002146E31704EB5373DB10A4EBC30C0123E2
:100B900003FA0CF31A43D2B22046E31704EB537363
:100BA000DB100DF80320601C84B2AC42DCDB03E0F8
:100BB0000220284981F82100264890F821000028C9
:100BC00041D1244981F8A2000846017890F8A2207A
:100BD00090F8A200401C1F4B83F8A20003F12200F2
:100BE00081542238417890F8A22090F8A200401C4D
:100BF00083F8A20003F122008154223890F8A22049
:100C000090F8A200401C83F8A20003F12200875450
:100C100000240FE01DF804100E4890F8A22090F870
:100C2000A200401C0B4B83F8A20003F12200815468
:100C3000601C84B2BC42EDDB064890F8A210223062
:100C400000F0F4FA04E0034991F8210000F0C6FA3C
:100C500000BF65E76800002070B590B000204949EA
:100C600081F821000846807F082803D0032081F8FE
:100C7000210027E04348801CFFF7ACFA06464148B4
:100C8000001DFFF7A7FA0546202D04D903203D4992
:100C900081F8210016E0002410E06846022202FBE1
:100CA0000401304600F05EFA20B90220354981F88F
:100CB000210005E0701C86B2601C84B2AC42ECDB03
:100CC00000BF00BF2F4890F82100002852D12D49C5
:100CD00081F8A2000846017890F8A22090F8A200BE
:100CE000401C284B83F8A20003F1220081542238D3
:100CF000417890F8A22090F8A200401C83F8A2004E
:100D000003F1220081546806010E184690F8A220D3
:100D100090F8A200401C83F8A20003F12200815445
:100D200000241EE01DF81410164890F8A22090F838
:100D3000A200401C134B83F8A20003F1220081544F
:100D40006000401C1DF80010184690F8A22090F892
:100D5000A200401C83F8A20003F122008154601C11
:100D600084B2AC42DEDB074890F8A210223000F0DB
:100D70005DFA04E0034991F8210000F02FFA10B069
:100D800070BD00006800002070B586B00A2101A87F
:100D9000FFF703FA00204E4981F821000846807FC2
:100DA000082803D0032081F8210030E04848801C47
:100DB000FFF710FA06464648001DFFF70BFA0546F6
:100DC000B6F5806F1EDD002D1CDD701940F202416A
:100DD000884217DC002412E0A6F2014028B93D4801
:100DE000808801A921F8140004E0002001A921F85D
:100DF000140000BF00BF701C86B2601C84B2AC42FD
:100E0000EADB03E00220324981F8210000BF3048CC
:100E100090F82100002853D12D4981F8A2000846FE
:100E2000017890F8A22090F8A200401C284B83F88B
:100E3000A20003F1220081542238417890F8A220C8
:100E400090F8A200401C83F8A20003F12200815414
:100E50006806010E184690F8A22090F8A200401CE7
:100E600083F8A20003F12200815400241FE001A8AE
:100E700030F814000112164890F8A22090F8A20051
:100E8000401C134B83F8A20003F12200815401A8F7
:100E900010F81410184690F8A22090F8A200401CF8
:100EA00083F8A20003F122008154601C84B2AC429A
:100EB000DDDB074890F8A210223000F0B7F904E01B
:100EC000034991F8210000F089F906B070BD0000D7
:100ED000680000200C01002070B50020244981F832
:100EE00021000846807F082803D0032081F82100D4
:100EF00030E01F48801CFFF76DF905461C48001DB7
:100F0000FFF768F9044634B1012C04D003201849D6
:100F100081F821001EE040F20110854202D11548FF
:100F2000C48016E0B5F5817F02D11248048110E03B
:100F300040F20310854202D10E48448109E0B5F524
:100F4000827F02D10B48848103E00220084981F8A6
:100F5000210000BF064890F8210010B900F054F9B4
:100F600004E0034991F8210000F038F970BD000059
:100F7000680000200C01002070B50020164981F89F
:100F800021000846807F082803D0032081F8210033
:100F900014E01148801CFFF71DF905460E48001D9E
:100FA000FFF718F904462146284600F05FF90128AA
:100FB00003D00220084981F8210000BF064890F8BC
:100FC000210010B900F020F904E0034991F8210054
:100FD00000F004F970BD0000680000202DE9F04128
:100FE0000020204981F821000846807F0B2803DA81
:100FF000032081F8210026E01A48801CFFF7EAF858
:1010000006461848001DFFF7E5F80546154887799C
:10101000002414E06100C91D124A8818FFF7DAF8AD
:101020008046311988B2414600F020F9012804D0E9
:1010300002200C4981F8210003E0601CC4B2AC42DC
:10104000E8DB00BF00BF074890F8210010B900F0AE
:10105000DBF804E0034991F8210000F0BFF8BDE897
:10106000F08100006800002010B52748407804286F
:1010700023D006DC01280BD0022810D0032838D159
:1010800014E0052820D0062825D0102831D129E0E9
:10109000FFF790FC0021012001F086F932E0FFF714
:1010A00033FD0021022001F07FF92BE0FFF7D4FD92
:1010B0000021032001F078F924E0FFF765FE00210C
:1010C000042001F071F91DE0FFF706FF0021052063
:1010D00001F06AF916E0FFF74FFF0021062001F04A
:1010E00063F90FE0FFF77AFF0021072001F05CF9B8
:1010F00008E00120044981F8210091F8210000F066
:101100006DF800BF00BF10BD6800002070B5124828
:10111000007800B970BD00200F4908700F48807F2B
:10112000042800DA13E00D48817FFFF75BF80446DE
:1011300004B10CE00948057809480078854200D0E0
:1011400005E0FFF791FF022001F008F900BF002041
:101150000249887700BFDDE7020000206800002018
:101160000300002003460A4613B1012B06D102E01A
:101170000648018804E00548418801E000207047E6
:1011800000BF0812107051700120F8E70C01002018
:1011900070B5044600200B49087041F24F250A4AF9
:1011A0002946012001F0B4F90848807F1E2807DA9B
:1011B0000648817F807F401C044A90771046445443
:1011C00070BD000002000020D1110008680000205E
:1011D00001200149087070470200002038B504461C
:1011E000084800788DF800000648407840F08000FC
:1011F0008DF801008DF802400321684600F016F8D2
:1012000038BD0000680000201CB5002405E0064839
:10121000005D0DF80400601CC4B2062CF7DB06214B
:10122000684600F003F81CBD6800002070B5A0B04F
:1012300005460C46224629466846FEF795FF21469C
:101240002846FEF7CFFF064632122046611CCCB27C
:101250000DF80020F2B22046611CCCB20DF800203F
:101260002146684600F008F920B070BD024612B170
:10127000012A06D102E00548018004E003484180CC
:1012800001E00020704700BF0120FBE70C010020B7
:1012900000BFFEE77047000070B5002100230F2259
:1012A000C47804B3154C246804F4E064C4F5E06425
:1012B000210AC1F10403CA40447804FA03F1847896
:1012C0001440214309010E4C0678A155047804F01E
:1012D0001F050124AC4005786D11AD0005F1E02536
:1012E000C5F8004109E0047804F01F050124AC4072
:1012F000044D0678761145F8264070BD0CED00E0EF
:1013000000E400E080E100E002490143024A11608C
:10131000704700000000FA050CED00E07047000087
:1013200029B1064AD2690243044BDA6104E0034A58
:10133000D2698243014BDA6170470000001002401D
:1013400029B1064A92690243044B9A6104E0034AB8
:1013500092698243014B9A6170470000001002407D
:1013600030B500210022002400232D4D6D6805F0CA
:101370000C0121B1042905D0082923D105E0294D0C
:10138000056022E0274D05601FE0254D6D6805F4DE
:101390007012234D6D6805F48034022505EB9242EE
:1013A0001CB9214D554305600BE01D4D6D6805F4DA
:1013B00000351DB11C4D5543056002E0194D5543E4
:1013C000056002E0174D056000BF00BF144D6D6859
:1013D00005F0F0010909154D6B5C0568DD404560BD
:1013E0000F4D6D6805F4E061090A104D6B5C4568AE
:1013F000DD4085600A4D6D6805F46051C90A0B4DEA
:101400006B5C4568DD40C560054D6D6805F4404185
:10141000890B074D6B5CC568B5FBF3F5056130BD05
:101420000010024000127A0000093D003A0000203E
:101430004A00002008B501210820FFF781FF0320A2
:101440008DF8020010208DF803002020ADF8000078
:1014500069460248FEF724FF08BD0000000C014069
:1014600010B504462046FFF793FE10BD2020014929
:1014700008607047140C014070B504460D462A46BA
:101480002146022001F0A8F870BD0000202001498B
:1014900008607047100C0140704710B500F002F86A
:1014A00010BD00000CB5002001900090334800688A
:1014B00040F480303149086000BF3048006800F4D3
:1014C000003000900198401C0190009818B90198D4
:1014D000B0F5A06FF1D12948006800F4003010B1D8
:1014E0000120009001E0002000900098012843D1E5
:1014F0002348006840F01000214908600846006851
:1015000020F0030008600846006840F00200086010
:101510001A484068194948600846406848600846CB
:10152000406840F4806048600846406820F47C10C1
:1015300048600846406840F4E81048600846006883
:1015400040F08070086000BF0C48006800F0007038
:101550000028F9D00948406820F003000749486096
:101560000846406840F00200486000BF03484068F9
:1015700000F00C000828F9D10CBD0000001002405A
:1015800000200240012080F3138800BF00BFBFF39A
:101590004F8F0748006800F4E06006490843001DCB
:1015A00003490860BFF34F8F00BF00BFFEE7000094
:1015B0000CED00E00000FA0510B500F001F810BDD8
:1015C00010B51B48006840B119480068401E184912
:1015D000086010B9012017490870002408E004EBE6
:1015E0004401154A02EB810000F035FF601CC4B2D3
:1015F000042CF4DB11480068401C104908600846C0
:1016000000686FF00041884202D100200B49086059
:1016100000F020FF0A480078401CC0B2084908705A
:101620000A2803DB0020087000F0FCFE10BD00005B
:101630000400002008000020CC0100200C00002045
:101640002000002010B51348006840F00100114947
:10165000086008464068104908400E49486008463E
:1016600000680E4908400B4908600846006820F4ED
:10167000802008600846406820F4FE0048604FF46F
:101680001F008860FFF709FF4FF000600449086001
:1016900010BD0000001002400000FFF8FFFFF6FE42
:1016A00008ED00E010B50221480700F05BF858B1E2
:1016B0000221480700F044F800220221480700F008
:1016C00062F81B48006880470421080700F04AF8C8
:1016D00058B10421080700F033F80022042108075C
:1016E00000F051F81348006880470821C80600F050
:1016F00039F858B10821C80600F022F80022082164
:10170000C80600F040F80C480068804710218806A1
:1017100000F028F858B11021880600F011F80022D6
:101720001021880600F02FF804480068804710BD9B
:101730001000002014000020180000201C000020D1
:10174000CA430282704721B1028842F0010202803E
:1017500004E002884FF6FE731A400280704701468B
:10176000888C704730B50246002000230024158A7B
:1017700005EA0103958905EA010413B10CB10120C2
:1017800000E0002030BD1AB183890B43838102E061
:1017900083898B43838170478186704701877047B7
:1017A00081877047A0F8401070470000002202882F
:1017B0001D4B98420ED01D4B98420BD0B0F1804F7C
:1017C00008D01B4B984205D01A4B984202D01A4BB6
:1017D000984204D14FF68F731A404B881A43174B27
:1017E000984207D0164B984204D04FF6FF431A4058
:1017F000CB881A4302808B8883850B8803850A4B2C
:1018000098420BD0094B984208D00E4B984205D015
:101810000D4B984202D00D4B984201D10B7A0386B2
:101820000123838270470000002C014000340140F6
:101830000004004000080040000C00400010004080
:1018400000140040004001400044014000480140B5
:1018500010B504462046FEF79DFE10BD10B50248A7
:1018600000F0EEF810BD0000FC01002010B50248A9
:1018700000F0E6F810BD00002404002010B5024876
:1018800000F0DEF810BD00004C06002001F40072EC
:10189000B2F5007F00D100BFCA430280704721B17A
:1018A000828942F40052828104E082894DF6FF73FE
:1018B0001A408281704770B502460024002300253B
:1018C000002040F66A16B14200D100BFC1F34215B4
:1018D00001F01F03012606FA03F3012D02D19689B8
:1018E000334006E0022D02D1168A334001E0968A89
:1018F00033400C12012606FA04F41688344013B162
:101900000CB1012000E0002070BDF0B503460024BA
:1019100000260025002040F66A17B94200D100BF1A
:101920001846C1F3421401F01F06012707FA06F515
:10193000012C01D10C3004E0022C01D1103000E068
:1019400014301AB107682F43076002E00768AF43FD
:101950000760F0BD2DE9F04786B005460E4600242D
:10196000A24600BFA1460027B08900B100BF2F46A4
:101970002C8A4CF6FF700440F08804432C82AC891A
:101980004EF6F3100440B08831890843718908434A
:101990000443AC81AC8A4FF6FF400440B089044355
:1019A000AC8201A8FFF7DCFC1F48874202D1DDF8BA
:1019B00010A001E0DDF80CA0A88900F4004040B1BF
:1019C0000AEBCA0000EB0A1031684900B0FBF1F8DD
:1019D00007E00AEBCA0000EB0A1031688900B0FB8F
:1019E000F1F86420B8FBF0F004012009642101FB48
:1019F0001089A88900F4004040B1322000EBC900F2
:101A0000B0FBF1F000F00700044308E0322000EBE7
:101A100009106421B0FBF1F000F00F0004432C81A9
:101A200006B0BDE8F0870000003801400146888814
:101A3000C0F308007047C1F3080282807047704706
:101A400070B5044640F225512068FFF734FFE0B13D
:101A50002068FFF7EBFFC5B2E18AA0684554E08A31
:101A6000401C80B2E082E189884201DB0020E082F4
:101A7000608BE189884202DA608B401C6083606A77
:101A800010B12846616A884700BF40F2277120687C
:101A9000FFF711FF08B3A08A60B9002240F2277156
:101AA0002068FFF732FF012240F226612068FFF72D
:101AB0002CFF37E0638A6268D15C2068FFF7BBFFC8
:101AC000608A401C80B26082A189884201DB0020CC
:101AD0006082A08A401EA08224E040F22661206835
:101AE000FFF7E9FEF0B1A08A50B9002240F226616A
:101AF0002068FFF70AFF206AA0B1206A804711E042
:101B0000638A6268D15C2068FFF795FF608A401C99
:101B100080B26082A189884201DB00206082A08AB5
:101B2000401EA08270BDF8B504460E46174600253B
:101B300029E00EE0012000F0B7F8A08A0090002014
:101B400000F0B2F8A089BDF80010884200DD01E085
:101B500000BFEFE700BF705D228A616888540120F2
:101B600000F0A2F8208A401C80B22082A18988421D
:101B700001DB00202082A08A401CA082002000F00F
:101B800093F8681C85B2BD42D3DB012240F2277175
:101B90002068FFF7BAFEF8BD2148224908602248B4
:101BA0004860224888604FF480708881C881002096
:101BB00008824882C882088348838882C861086294
:101BC00048621B481B4908601B4848601B488860E6
:101BD0004FF480708881C881002008824882C882C2
:101BE000088348838882C86108621548486215489E
:101BF0001549086015484860154888604FF48070A2
:101C00008881C881002008824882C882088348836E
:101C100088821048C86110480862104848627047BE
:101C200000380140FC010020240200202403002091
:101C300000440040240400204C0400204C050020F7
:101C400051180008004800404C060020740600208F
:101C5000740700206D1400088D140008611400083A
:101C600000BFFEE70FB4054B10B503A9044A029864
:101C700000F01DF810BC5DF814FB000017260008EA
:101C80006400002002E008C8121F08C1002AFAD12F
:101C900070477047002001E001C1121F002AFBD1EC
:101CA000704780F31088704780F3108870472DE9E3
:101CB000F84F9946924688460546002706E02528B3
:101CC0000AD051464A4690476D1C7F1C2878002850
:101CD000F5D13846BDE8F88F002315F8011F1846E6
:101CE0002E2915D115F8011F04232A290DD06FF0D4
:101CF0002F022978A1F13004092C09D800EB8000CB
:101D000002EB400008446D1CF3E758F8040B6D1C0F
:101D10002A78002ADDD0632A07D0732A0FD0104614
:101D200051464A4690477F1C2AE018F8042B8DF84C
:101D3000002000218DF801106E46012103E058F8C3
:101D4000046B4FF0FF315A074FF0000401D409E053
:101D5000641C84420BDA8C42FADB325D002AF7D134
:101D600005E0641C8C42FCDB305D0028F9D127447F
:101D700004E016F8010B51464A469047641EF8D21B
:101D80006D1CA3E70146042901DB0020704701EB2D
:101D90004100084A02EB80004078012808D1002069
:101DA00001EB4102034B03EB820250700120EDE78F
:101DB0000020EBE7CC0100200146024800EB0110B7
:101DC000807A70471C010020F0B500230024002217
:101DD0000BE0604D35F812501D44ABB25E4D35F846
:101DE00012502544ACB2551CEAB2052AF1DB052598
:101DF00093FBF5F5ABB2052594FBF5F5ACB2C51A2E
:101E0000002D01DB2E4600E06E42B6F5FA7F09DDBB
:101E1000524D2E782D786D1C504F3D70504D25F849
:101E200016000DE04F4D2E782D786D1C4D4F3D70F6
:101E3000484D25F816000025484E35704A4D28803B
:101E40000D1B002D01DB2E4600E06E42642E09DDE5
:101E5000464D2E782D786D1C444F3D70444D25F82D
:101E6000161013E0434D2E782D786D1C414F3D70B8
:101E7000394D25F8161000253C4E35703A4D6980D5
:101E80003D4D2D7815B901253B4E3570354D2D78DA
:101E9000042D02DD0025334E3570364D2D78042D8E
:101EA00002DD0025334E35702C4D2D78042D25DDB7
:101EB00000252A4E35702A4D2D88294E76883544C6
:101EC000274EB6883544264EF6883544244E36894A
:101ED0003544052695FBF6F5234E358035462D888D
:101EE0001C4E3580204D2D8875801F4D2D88B58066
:101EF0001D4D2D88F5801C4D2D8835811B4D2D786D
:101F0000042D25DD0025194E3570194D2D88184EEC
:101F100076883544164EB6883544154EF6883544D5
:101F2000134E36893544052695FBF6F50E4E758021
:101F300035466D88084E35800B4D6D8875800A4D8D
:101F40006D88B580084D6D88F580074D6D883581A9
:101F5000F0BD0000B8090020C409002038000020AE
:101F6000D0090020360000200C010020390000209C
:101F7000DC090020370000203400002010B54FF4A9
:101F80004070FFF7C1F900F08FF900F007F900F099
:101F900045F800F039F920200449086041F2883002
:101FA000034908804010488010BD0000100C01401B
:101FB0000C0100207FB501210846FFF7B1F9154853
:101FC000006846081448B6FBF0F085B24FF6FF747F
:101FD000ADF80840ADF804500020ADF80A00ADF8A7
:101FE000060001A94FF08040FFF7E0FB01218807C0
:101FF000FFF7A9FB1C208DF8000004208DF80100DC
:1020000000208DF8020001208DF803006846FFF7DC
:1020100043F97FBD5000002040420F0010B500F092
:1020200053F800F001F810BD08B501211420FFF7A6
:1020300087F903208DF8020004208DF803000120A9
:10204000ADF8000069461E48FEF72AF90220ADF8F7
:10205000000069461A48FEF723F90120ADF8000098
:1020600069461748FEF71CF90120ADF800006946E3
:102070001348FEF715F90120ADF800006946104835
:10208000FEF70EF90120ADF8000069460C48FEF796
:1020900007F90120ADF8000069460948FEF700F98C
:1020A0000120ADF8000069460548FEF7F9F8FF2069
:1020B000ADF8000069460348FEF7F2F808BD0000DD
:1020C00000080140001001400021284A9172D1729D
:1020D0001173002018E06421254A02EB00121181DF
:1020E0000221234A02EB001211710021204A02EB67
:1020F000001291721E4A02EB0012D1721C4A02EBCE
:1021000000121173411CC8B20A28E4DB642218498A
:102110000A87052281F83B206422A1F84820052285
:1021200081F84B206422A1F85820052281F85B2019
:102130006422A1F86820052281F86B200D490C4A21
:1021400011600D4911610D4911620D4911630D496D
:1021500011640D4911650D4911660D4911670D494D
:10216000C2F880100C49C2F890107047BC010020E2
:102170001C01002061080008B9080008E5080008F3
:102180001109000829090008410900085909000837
:1021900071090008890900088D08000808B50121A7
:1021A0000420FFF7CDF8012000F0BAF8022000F07B
:1021B000B7F8032000F0B4F803208DF802001020D7
:1021C0008DF803000001ADF8000069460D48FEF7E8
:1021D00067F84FF40060ADF8000069460948FEF763
:1021E0005FF84FF48050ADF8000069460548FEF7EF
:1021F00057F84FF48070ADF8000069460148FEF7CB
:102200004FF808BD0008014070B5002416E000201A
:1022100004EB4401204A02EB8101486004EB4401D5
:1022200002EB8101886004EB440102EB81014870FC
:1022300004EB440102F82100601CC4B2042CE6DB6C
:10224000164800684FF47A72B0FBF2F1B1F1807F6A
:1022500000D31DE021F07F40401E4FF0E02250618E
:1022600050170F22002807DA13071E0E0C4B00F040
:102270000F052D1F5E5503E013071D0E094B1D545E
:1022800000BF00204FF0E02290610720106100BFE6
:10229000FFF790FE70BD0000CC0100205000002030
:1022A00018ED00E000E400E010B5FFF775FCFEF764
:1022B000E7F9FFF7BFF8FDF7CDFF10BD0146012993
:1022C00008D11648006800F4807008B901207047F2
:1022D0000020FCE7022908D11048006800F40060E3
:1022E00008B90120F3E70020F1E7032908D10B48E2
:1022F000006800F4805008B90120E8E70020E6E714
:10230000042908D10548006800F4807008B901204C
:10231000DDE70020DBE70020D9E700000C080140E2
:10232000411EC8B220B94FF480710B4A116011E010
:10233000012803D1C102084A11600BE0022803D131
:10234000C102054A116005E0032803D14FF48071F2
:10235000014A11607047000014080140012806D1AD
:102360001049096881F480710E4A116019E0022851
:1023700006D10C49096881F400610A4A116010E035
:10238000032806D10749096881F48051054A116084
:1023900007E0042805D10349096881F48071014AE6
:1023A000116070470C0801400C4A92F841210B4B18
:1023B00023F832001A4692F8412103EBC202516021
:1023C0001A4692F84121521CD2B283F84121282AA0
:1023D00002DB002283F841217047000074080020CE
:1023E00010B5002401210E48FDF7E5FF08B944F0BF
:1023F000080402210A48FDF7DEFF08B944F004048E
:1024000004210748FDF7D7FF08B944F0020408216A
:102410000348FDF7D0FF08B944F00104204610BD81
:102420000010014010B509480078401C07490870A9
:1024300008460078322808D10548007810B10120FC
:10244000FFF78CFF00200149087010BD210000201B
:10245000350000207047416851B14168491E416014
:1024600031B9012141700178012901D181684160B0
:102470007047000070B504460D46042C06DB124A76
:1024800012A11AA0FFF7EEFB00BFFEE70120FFF745
:1024900008FC04EB44001D4901EB8000456004EB9F
:1024A000440001EB80008560002004EB4401174AE2
:1024B00002EB81014870012004EB440102F8210085
:1024C0000020FFF7EEFB70BDE32600082E2E5C2EE9
:1024D0002E5C557365725C6273705C7372635C62D0
:1024E00073705F74696D65722E6300004572726F60
:1024F000723A2066696C652025732C2066756E63C0
:1025000074696F6E20257328290D0A00CC01002004
:102510002DE9F04104460F461546052F00D37F1FD5
:102520004FF08040FFF71BF9804608EB0706012CAF
:102530000FD125480560B1B2A007FFF72DF90221A0
:102540004807FFF7FDF8012202214807FFF71BF9B2
:1025500038E0022C0FD11D480560B1B26007FFF7CB
:102560001DF904210807FFF7EBF8012204210807F1
:10257000FFF709F926E0032C10D115480560B1B228
:102580004FF08040FFF70CF90821C806FFF7D8F894
:1025900001220821C806FFF7F6F813E0042C0FD13A
:1025A0000C480560B1B22007FFF7FCF8102188063F
:1025B000FFF7C6F8012210218806FFF7E4F801E0D2
:1025C000BDE8F08100BFFBE71000002014000020F0
:1025D000180000201C0000202DE9F04105460E46A1
:1025E00017462846FDF71AFE04460CB9BDE8F081EF
:1025F000E06908B1E06980473A4631462046FFF776
:1026000092FA00BFF2E713B50446012201A9204661
:10261000FFF7E2FF1CBD70B504460D46E1B2002095
:10262000FFF7F1FF204670BDFFF7A8FCFFF7D8FECB
:1026300024490870FDF7A4FF17E0FDF7C5FEFDF77C
:102640009FFF0120FFF78AFE0220FFF787FE03208D
:10265000FFF784FE1C4801880088401C1A4A10803D
:10266000B1F57A7F01DDFEF78DFF1848007800286C
:10267000E3D00020144908804FF4FA61FFF7FAFE16
:1026800040F2E2410520FDF7CFFF19E0FDF7C8FF5A
:102690000F48007808B1FEF739FDFDF795FE0020E0
:1026A000FFF770FB60B1FDF76BFF07480088401C27
:1026B00005490880084600883C2801DDFEF762FFD6
:1026C000E4E70000030000200000002035000020A7
:1026D000340000206273705F537461727454696DCA
:1026E0006572006273705F53746172744175746FC8
:1026F00054696D6572006273705F53746F705469D2
:102700006D65720000C1814001C0804101C08041FF
:1027100000C1814001C0804100C1814000C18140B1
:1027200001C0804101C0804100C1814000C18140A1
:1027300001C0804100C1814001C0804101C0804191
:1027400000C1814001C0804100C1814000C1814081
:1027500001C0804100C1814001C0804101C0804171
:1027600000C1814000C1814001C0804101C0804161
:1027700000C1814001C0804100C1814000C1814051
:1027800001C0804101C0804100C1814000C1814041
:1027900001C0804100C1814001C0804101C0804131
:1027A00000C1814000C1814001C0804101C0804121
:1027B00000C1814001C0804100C1814000C1814011
:1027C00001C0804100C1814001C0804101C0804101
:1027D00000C1814001C0804100C1814000C18140F1
:1027E00001C0804101C0804100C1814000C18140E1
:1027F00001C0804100C1814001C0804101C08041D1
:1028000000C1814000C0C101C30302C2C60607C7A0
:1028100005C5C404CC0C0DCD0FCFCE0E0ACACB0B10
:10282000C90908C8D81819D91BDBDA1A1EDEDF1F40
:10283000DD1D1CDC14D4D515D71716D6D21213D330
:1028400011D1D010F03031F133F3F23236F6F737E0
:10285000F53534F43CFCFD3DFF3F3EFEFA3A3BFBD0
:1028600039F9F83828E8E929EB2B2AEAEE2E2FEF80
:102870002DEDEC2CE42425E527E7E62622E2E323F0
:10288000E12120E0A06061A163A3A26266A6A76720
:10289000A56564A46CACAD6DAF6F6EAEAA6A6BAB90
:1028A00069A9A86878B8B979BB7B7ABABE7E7FBFC0
:1028B0007DBDBC7CB47475B577B7B67672B2B373B0
:1028C000B17170B050909151935352929656579760
:1028D000559594549C5C5D9D5F9F9E5E5A9A9B5B50
:1028E00099595898884849894B8B8A4A4E8E8F4F00
:1028F0008D4D4C8C44848545874746868242438370
:102900004181804024290008000000206800000068
:10291000841C00088C29000868000020208A000020
:10292000941C0008000000010000000000000000EE
:102930000000000000000000000000000000000097
:102940000000000000007B4630305244447D0D0002
:102950000000204E204E000000000000000000009B
:10296000000001020304010203040607080902042F
:102970000608000000A24A04000000000000000059
:0C29800001020304060708090000000023
:0400000508000131BD
:00000001FF
