:020000040800F2
:10000000408F00204501000871230008E116000818
:100010006D2300089D090008C93000080000000099
:100020000000000000000000000000007D25000826
:10003000A10B000800000000F92300089126000829
:100040005F0100085F0100085F0100085F01000810
:100050005F0100085F0100085F0100085F01000800
:100060005F0100085F0100085F0100085F010008F0
:100070005F0100085F0100085F0100085F010008E0
:100080005F0100085F0100085F0100085F010008D0
:10009000AB2E00085F0100085F0100085F01000847
:1000A0005F0100085F0100085F0100085F010008B0
:1000B0007D270008192800085F0100085F0100087B
:1000C0005F0100085F0100085F0100085F01000890
:1000D0005F010008C92C0008D92C0008E92C000891
:1000E0005F0100085F0100085F0100085F01000870
:1000F0005F0100085F0100085F0100085F01000860
:100100005F0100085F0100085F0100085F0100084F
:100110005F0100085F010008592B00085F0100081B
:100120005F0100085F0100085F0100085F0100082F
:10013000DFF80CD000F0D6FB004800474942000829
:10014000408F00200648804706480047FEE7FEE74C
:10015000FEE7FEE7FEE7FEE7FEE7FEE7FEE7FEE777
:100160001D2700083101000840EA01039B0703D066
:1001700009E008C9121F08C0042AFAD203E011F8E6
:10018000013B00F8013B521EF9D27047D2B201E0A8
:1001900000F8012B491EFBD270470022F6E710B58C
:1001A00013460A4604461946FFF7F0FF204610BDE5
:1001B000F0B480EA0102D40F4200B2EB410F02D248
:1001C0000246084611464A0042D0C30DDDB2C1F3D3
:1001D000C752AD1A202D35DAC1F3160141F40002E1
:1001E00004B15242C5F1200602FA06F12A41104438
:1001F000B3EBD05F23D0C4B1012DA0EBC35009DC19
:10020000F0BC4FF0004202EAC352DBB200F500003E
:1002100000F0C5BA400000F1807000EBC350A0F1BF
:10022000807040EAD170490009E0490841EAC07194
:10023000A0EBC35000F50000400800EBC350F0BC39
:1002400000F0A4BA6142012202EB4101001BF6E773
:10025000F0BC704781F00041AAE780F00040A7E7BA
:1002600080EA010210B502F00043400022D04A00AB
:100270001FD0010E01EB1261C0F35600C2F356020B
:1002800040F4000042F40002A0FB022000047F3989
:10029000140400D0401C50EA124001D44000491E12
:1002A000C2B20C0604EBD010401C4008802A02D0D9
:1002B00003E0002010BD20F00100002900DA00203A
:1002C000184310BD2DE9FE4F804681EA0300C00FA0
:1002D0000C46009021F0004123F00045B8EB0200ED
:1002E000A94105D24046214690461C460B4602468F
:1002F00023F00040104347D0270DC7F30A00C3F393
:100300000A510290401A019040286BDAC3F313009F
:1003100040F4801B0098924620B10023D2EB030AE0
:1003200063EB0B0B01985946C0F14002504600F0B8
:100330000CFA06460D4650465946019A00F014FA4A
:1003400010EB08006141002487EA115284EAE77348
:100350001A4340D0009A62B3019A012A4FEA075229
:1003600015DC001B61EB02014FF0004202EA07526C
:10037000CDE90042001C41F5801132462B4600F0C9
:100380004BFA03B0BDE8F08F40462146F9E7001B69
:1003900061EB0201001C41F5801300185B4120183D
:1003A000A2F5001747EB030140EAD570B6196D417D
:1003B00011E06D084FEA360645EAC0754FEA07526C
:1003C000001B61EB0201001C41F5801149084FEA56
:1003D00030000019514132462B4603B0BDE8F04FC2
:1003E00000F00BBA0098012240000023D0EB02027B
:1003F00063EBE073009821464FEAE074B8EB00002D
:1004000061EB0401E9E783F000435BE781F0004121
:1004100058E72DE9FE4F81EA030404F0004421F07F
:10042000004100944FF0000B23F0004350EA010418
:100430005ED052EA03045BD0C3F30A54C1F30A55F9
:100440002C44A4F2F3340194A0FB0254C1F3130131
:1004500041F48011C3F3130343F4801301FB0244FE
:1004600000FB034E840A970A44EA815447EA835703
:10047000A4FB076802958D0A05FB07854FEA932CBC
:1004800004FB0C542705029D4FEA065847EA16372D
:10049000B5EB08056EEB070C870E920E47EA811745
:1004A00042EA8312A7FB0201B6EB0B0164EB0004E6
:1004B0002B0D43EA0C335E1844EB1C50DA465146D0
:1004C000E7FB0201C5F313044FEA0B3343EA14536D
:1004D0004FEA0432019C43EA0603A4F10C0402949F
:1004E000009CCDE900B400F097F903B0BDE8F08FAF
:1004F00000200146F9E72DE9F04D81EA030404F0FC
:10050000004B21F0004514464FF0000A23F0004153
:1005100050EA050220D054EA01021DD0C5F30A5763
:100520000246C5F31303C1F31300C1F30A5640F4A6
:10053000801543F48013A7EB0608101BD64608F27B
:10054000FD3873EB050002D308F1010801E09218B1
:100550005B41B8F1000F03DA00200146BDE8F08DE1
:1005600000204FF48011064684460EE0171B73EB03
:10057000050705D3121B63EB050306434CEA010C88
:1005800049084FEA300092185B4150EA0107EDD16B
:1005900052EA030012D082EA040083EA050108430C
:1005A00005D0101BAB4106D20122002306E0002239
:1005B0004FF0004302E06FF0010253101AEB060007
:1005C0004CEB085110EB0A0041EB0B01BDE8F04D7C
:1005D00000F013B996230022114600F0E0B80EB5E2
:1005E000C10F80EAE0700844CA07002140F233439B
:1005F0008DE80E000A460B4600F00EF903B000BD70
:100600000EB540F2334102910021CDE900110A46B6
:100610000B4600F001F903B000BD00F0004230F0DD
:1006200000400AD0C10D01F56071C0F3160042EA26
:100630000151C2084007114370470020014670472E
:1006400030B5041E71F1000404DB4FF00044404259
:1006500064EB0101141E73F1000405DB1C464FF02E
:100660000043524263EB0403994208BF904230BDFD
:1006700001F0004330B421F0004150EA010206D0FD
:100680000A0DA2F56072C1F31301002A02DC30BC2E
:1006900000207047440F44EAC104C100E01830BC98
:1006A00000EBC25000F072B8002801DBC0F100403E
:1006B000002901DBC1F100418142704730B50B4692
:1006C000014600202022012409E021FA02F59D4282
:1006D00005D303FA02F5491B04FA02F52844151E56
:1006E000A2F10102F1DC30BD2DE9F05F05460020EA
:1006F00092469B4688460646814640241BE0284693
:1007000041464746224600F0FFF853465A46C01A73
:10071000914110D311461846224600F016F82D1AC2
:1007200067EB01084F4622460120002100F00DF83A
:1007300017EB00094E41201EA4F10104DFDC4846FE
:1007400031462A464346BDE8F09F202A04DB203A82
:1007500000FA02F1002070479140C2F1200320FA14
:1007600003F3194390407047202A06DBCB17203A49
:1007700041FA02F043EAE07306E041FA02F3D040A6
:10078000C2F1200291400843194670470029A8BFD2
:100790007047401C490008BF20F00100704710B4AA
:1007A000B0FA80FC00FA0CF050EA010404BF10BC5F
:1007B000704749B1CCF1200421FA04F411FA0CF18C
:1007C00018BF012121430843A3EB0C01CB1D4FEAC5
:1007D00000614FEA102042BF002010BC704700EBC0
:1007E000C35010440029A4BF10BC7047401C4900EE
:1007F00008BF20F0010010BC704710B5141E73F143
:10080000000408DA401C41F1000192185B411A43D0
:1008100001D120F0010010BD2DE9F04D92469B461C
:1008200011B1B1FA81F202E0B0FA80F220329046C2
:10083000FFF78BFF04460F4640EA0A0041EA0B012E
:1008400053465A46084313D0114653EA010019D0C3
:10085000C8F14002504600F057F805460E46504693
:1008600059464246FFF771FF084305D0012004E0D6
:1008700020463946BDE8F08D0020054346EAE07683
:100880002C4337430A986305E40AA0EB08000022D2
:10089000FD0A44EA47540A3002D500200146E9E740
:1008A000010510196941DDE9084500196941BDE8F4
:1008B000F04DA2E7C1F30A52C1F3130140F2FF3336
:1008C00041F480119A4202DA00200146704740F25A
:1008D00033439A42A2F2334202DC524200F014B88F
:1008E000FFF733BF064C074D06E0E06840F0010318
:1008F00094E8070098471034AC42F6D3FFF71CFC8D
:10090000C8440008E8440008202A04DB203A21FA01
:1009100002F00021704721FA02F3D040C2F1200218
:10092000914008431946704710B500F023F800F0D5
:1009300001F810BD0EB50121102001F05FFD42F25B
:100940001070ADF804004720ADF800006946084873
:1009500002F068F90121064802F01EF90122114651
:10096000034802F04CF90121014802F01BF90EBDC9
:100970000010004008B536208DF8000006208DF8E4
:10098000010001208DF80300684601F0F3FC08BD6A
:10099000014648780A7840EA0220704700BFFEE727
:1009A00070B502460C46FF25FF2309E012F8010B43
:1009B00080EA05010648405C80EA03050548435C7F
:1009C000201EA4F10106B4B2F0D143EA052070BDA7
:1009D000C8420008C8430008014609B909487047E1
:1009E000012901D10848FAE7022901D10748F6E7B1
:1009F000032901D10020F2E7042901D10020EEE70C
:100A00000020ECE7C4020020EC060020140B0020BC
:100A100008B525208DF8000000208DF80200012087
:100A20008DF80300684601F0A5FC26208DF8000033
:100A300001208DF802008DF80300684601F09AFC51
:100A400027208DF8000002208DF8020001208DF88B
:100A50000300684601F08EFC08BD000070B500255B
:100A6000002630E06806050E00240AE019480068F8
:100A700000F4805000B906E00A2002F0C9FF601CB3
:100A8000C4B20A2CF2DB00BF0A2C00DB1FE00024FA
:100A90000AE01048006800F4805000B106E00A2027
:100AA00002F0B6FF601CC4B20A2CF2DB00BF2820A3
:100AB00002F0AEFF0748006800F4805008B1681CDF
:100AC000C5B2701CC6B2082ECCDB284670BDFF2014
:100AD000FCE70000080801402DE9F04104464FF40E
:100AE00080502E490860122002F070FF4FF48050B1
:100AF0002A49091F08601E2002F08AFF00250BE02A
:100B000026480C38006800F4805000B906E00A203E
:100B100002F07EFF681CC5B20A2DF1DB00BF0A2D72
:100B200000DB38E000250BE01C480C38006800F4BE
:100B3000805000B106E00A2002F06AFF681CC5B2CE
:100B40000A2DF1DB00BF0A2D00DB24E0002604E0C3
:100B5000FFF784FFA055701CC6B2052EF8DB0A20F3
:100B600002F056FF207861780844A1780844E178C3
:100B70000844C7B22079B8420CD1E078A17840EAA5
:100B80000120E0806078217840EA01202081012066
:100B9000BDE8F08100BF0020FAE700001408014022
:100BA000704710B5052002F087FF10BD10B5052075
:100BB00002F058FF10BD000070B54FF07E5425467E
:100BC0004648008940F2B631884201DB444C38E0A7
:100BD0004248008940F25231884201DB414C30E00A
:100BE0003E480089B0F5487F01DB3F4C29E03B4897
:100BF000008940F2EE21884202DB4FF07C5420E075
:100C00003648008940F28A21884201DB374C18E0DF
:100C100032480089B0F5167F01DB354C11E02F48D2
:100C2000008940F22621884201DB324C09E02B4842
:100C30000089B0F5FA7F02DB4FF07E5401E04FF0FF
:100C40007E542648C08840F22621884201DB284D88
:100C50003EE02248C088B0F5FA7F01DB244D37E042
:100C60001E48C088B0F5E17F01DB214D30E01B4814
:100C7000C088B0F5C87F01DB1D4D29E01748C0884A
:100C8000B0F5AF7F01DB1A4D22E01448C088B0F503
:100C9000967F01DB164D1BE01048C088FA2801DB67
:100CA000134D15E00D48C088C82801DB124D0FE038
:100CB0000A48C088642802DB4FF07E5508E00748E8
:100CC000C088322802DB4FF07E5501E04FF07E55A0
:100CD00029462046FFF7C4FA70BD000088020020B4
:100CE0009A99993E3333B33ECDCCCC3E9A99193F75
:100CF000CDCC4C3F6666663F48E17A3F2DE9F04136
:100D000006460F46C6F1040000F0FF083C460BE023
:100D1000042C04DD211FC8B202F0A4FE02E020462C
:100D200002F0A0FE601CC4B2F019A042F0DC25461F
:100D30000BE0042D04DD291FC8B202F0BDFE02E065
:100D4000284602F0B9FE681CC5B208EB0400A842B0
:100D5000EFDCBDE8F08100002DE9F04F8BB0FC48DE
:100D600000781A2806D0FB480278F9480178FAA0E2
:100D700002F0ACF9F64800780A2808DDF44800785B
:100D80001F2804DAFE480068401CFD490860F0484E
:100D9000007800280FDDFB48008D4AF25A51884246
:100DA00009D101210020FFF7A9FF0020E8490870C0
:100DB000F5A002F08BF9E6480078212877D2DFE829
:100DC00000F01176767676767676767637415365CC
:100DD000A4B4C4D4F0EE76ED76ECEBEA76E9E8E77D
:100DE000E6E5E40001210020FFF788FFFFF7D9FEC8
:100DF000E448008D45F6A521884218D10A20D4493F
:100E00000870E048008E0090DE48C38D828D418DD1
:100E1000E2A002F05BF9DB48808DEC490880D948FC
:100E2000C08DEB490880D748008EEA49088035E339
:100E300001210020FFF762FFFFF7B8FE0B20C44935
:100E400008702BE3E4480088401CE349088008460A
:100E50000088782807DD0C20BD4908700020DE4995
:100E60000880FFF79EFE19E3DB480088401CDA4942
:100E70000880084600880A2807DD0D20B44908705C
:100E80000020D5490880FFF791FE07E3D348FFF71C
:100E900023FED248008940F25231884208DB01210A
:100EA0000420FFF72BFF0E20A94908702CE0F4E284
:100EB000CA48008940F28A21884207DD01210420C6
:100EC000FFF71CFF0F20A24908701DE0C3480089EE
:100ED00040F22621884207DD01210420FFF70EFFA2
:100EE00010209B4908700FE0BC480089B0F5FA7FDC
:100EF00007DB01210420FFF701FF1120944908704E
:100F000002E0122092490870C8E2B3480088401CF1
:100F1000B1490880084600880A2805DD13208C495D
:100F200008700020AC490880B8E2AB480088401C3B
:100F3000A9490880084600880A2805DD132084494D
:100F400008700020A4490880A8E2A3480088401C3B
:100F5000A1490880084600880A2805DD13207C493D
:100F6000087000209C49088098E29B480088401C3B
:100F70009949088008460088032805DD1320744934
:100F8000087000209449088088E280E270E250E214
:100F9000E4E1A1E1C8E088E02CE023E021E01CE0EE
:100FA000FFE78D480088401C8B4908800846008870
:100FB000052811DD8948FFF78FFD88480089B0F5C5
:100FC000FA7F06DB01210420FFF798FE112060491B
:100FD000087000208049088060E217205C49087092
:100FE0005CE25BE218205A49087000217C4801F05D
:100FF000D9FD53E2FFF7E0FD7A4908600846016831
:101000007948FFF72DF98046FFF707FB06460F46A4
:1010100070480088FFF7DEFA06906D480088FFF7F9
:10102000D9FA059069480088FFF7D4FA04906F4810
:1010300001680498FFF714F983460599FFF710F942
:1010400082460699FFF70CF90790FFF7E6FA80460B
:101050000022674BFFF74FFA32463B46CDE90801C5
:10106000FFF7D1F90446FFF703FB62490860084621
:101070000068FFF7D2FA04460D465C480068FFF7A7
:10108000CCFA8046894657480068FFF7C6FA0646FC
:1010900032460B4658A0CDE90089CDE9024502F061
:1010A00015F819202A490870F8E15C495148006890
:1010B000FFF7FAFA34D21C20254908705848017805
:1010C0000220FFF71BFE0C2056490870414800889B
:1010D000FFF780FA83463E480088FFF77BFA0990C5
:1010E0003A480088FFF776FA08904F480168089858
:1010F000FFF7B6F882460999FFF7B2F881465946DC
:10110000FFF7AEF80446FFF788FA07460022384B8F
:10111000FFF7F1F90546FFF7ABFA4449086002E032
:101120001B200B490870B9E12B480088401C2A4954
:101130000880084600883C287ADDFFF73DFD2949F4
:101140000860084601683548FFF78AF8044670E0F1
:10115000140000200100002063757272656E742017
:10116000737461747573203D2025642020534C41B5
:101170005645204E554D203D2025640D0A000000A7
:10118000300000204002002073797374656D206187
:101190006C6C2073746F70210D0A00007379737486
:1011A000656D20616C6C20737461727421206D6FA9
:1011B000646520203D2025642C4C3D25642C573D42
:1011C00025642C483D25640D0A00000080000020A5
:1011D00082000020840000200400002088020020FB
:1011E00000040040280000200000F0422000002001
:1011F00000408F400C0000206B70203D2025662CA5
:10120000206B763D25662C207468652074696D65B9
:101210002069732025660D0A00000000000070425E
:10122000080000201C0000202400002010000020E6
:1012300051E09E4801682046FFF70FF89B4908607F
:101240009B480088FFF7C6F905909A480088FFF789
:10125000C1F9039098480088FFF7BCF902909748BD
:1012600001680298FEF7FCFF83460399FEF7F8FF3A
:1012700004900599FEF7F4FF8246FFF7CEF9064683
:1012800000228F4BFFF737F904460D468748006868
:10129000FFF7C3F9804689468A480068FFF7BDF921
:1012A000CDE9080188480068FFF7B7F9CDE9028960
:1012B000CDE90445CDE90601DDE90801CDE90001EC
:1012C00082A0DDE9062301F001FF00208B490880A0
:1012D00019208B490870E1E0FFF76EFC7A4908603D
:1012E0000846016887480068FEF7B4FF8549086032
:1012F00008460068FFF791F9044622460B4682A093
:1013000001F0E4FE7D480088401C7C490880834849
:101310000088401C814908807848008878280ADDC8
:101320000020764908801D20754908707C480178A6
:101330000020FFF7E3FC4FF0804172480068FFF7A0
:10134000B3F90AD200206D49088074490880012150
:10135000FFF7D4FC1E206A4908709FE0FFF72CFCC1
:10136000594908600846016866480068FEF772FF40
:101370006449086008460068FFF74FF904462246B2
:101380000B4661A001F0A2FE5C480088401C5B494E
:10139000088062480088401C6049088046490988E6
:1013A000444A12885143424A128801FB02F0FFF777
:1013B00016F906460022424BFFF79DF882468B46FF
:1013C00058480068FFF729F906460022564BFFF7F8
:1013D00020F852465B46CDE90801FFF78CF8044639
:1013E0000D4646480088FFF70BF9804622462B46FB
:1013F000FFF726F909D20020404908801C20404907
:10140000087001210220FFF779FC4FF080413D4830
:101410000068FFF749F90BD20020384908803F499E
:1014200008801E203649087001210020FFF766FC65
:1014300034E032480088401C304908800846008863
:10144000782814DD0020088038480078012809D168
:101450003748007830B90120354908700A202849FA
:10146000087004E01F2026490870FFF79AFB15E07A
:1014700022480088401C2149088008460088052829
:1014800004DD0020088020201D49087006E01B486C
:101490000088401C1949088000E000BF00BFFF2001
:1014A000244908800BB0BDE8F08F00000C0000203C
:1014B0008400002082000020800000202400002002
:1014C00000408F4020000020280000206B70203D4D
:1014D0002025662C206B763D25662C2074686520BF
:1014E00074696D65206973202566206F73632074AD
:1014F000696D65203D25660D0A000000040000208E
:1015000014000020100000204F53432054494D4543
:10151000203D2025352E31660D0A000006000020F2
:10152000080000202C000020006AF840170000206E
:101530001D000020880000202DE9F0410246002512
:101540000026002000230024002791F803C00CF09F
:101550000F0591F803C00CF0100CBCF1000F03D084
:1015600091F802C04CEA050591F800C0BCF1000FEB
:1015700031D0146800202BE04FF0010C0CFA00F37E
:10158000B1F800C00CEA03069E4220D183004FF060
:101590000F0C0CFA03F7BC4305FA03FC4CEA0404F5
:1015A00091F803C0BCF1280F06D14FF0010C0CFAE2
:1015B00000FCC2F814C00AE091F803C0BCF1480F67
:1015C00005D14FF0010C0CFA00FCC2F810C0401C11
:1015D0000828D1D31460B1F800C0BCF1FF0F34DD8E
:1015E000546800202EE000F1080C4FF0010808FAC2
:1015F0000CF3B1F800C00CEA03069E4221D183002F
:101600004FF00F0C0CFA03F7BC4305FA03FC4CEA4D
:10161000040491F803C0BCF1280F05D100F1080CB7
:1016200008FA0CF8C2F8148091F803C0BCF1480F16
:1016300007D100F1080C4FF0010808FA0CF8C2F8C5
:101640001080401C0828CED35460BDE8F081000013
:10165000F0B50A46002300240021002500F00046D2
:10166000B6F1004F02D11D4EF16901E01B4E7168C9
:10167000C0F3034583B200F44016B6F5401F08D10D
:1016800021F07061154E766826F07066134F7E600B
:1016900012E000F48016B6F5801F06D1032606FA84
:1016A00005F4A14341F0706106E0460D360103FAEE
:1016B00006F6B14341F0706122B1460D360103FADE
:1016C00006F6314300F00046B6F1004F02D1034E5A
:1016D000F16101E0014E7160F0BD000000000140C9
:1016E00000BFFEE74CF6CC4001490860704700009F
:1016F0000030004010B500F013F810BD70B505467D
:101700000C4645F2555000F01FF8284600F010F83E
:10171000204600F013F800F003F8FFF7E3FF70BD78
:101720004AF6AA20014908607047000000300040D6
:10173000014948607047000000300040014988605E
:101740007047000000300040014908607047000009
:101750000030004000B585B00121052000F05EFE9C
:101760000121880300F05AFE4FF40070ADF810001C
:1017700018208DF8130003208DF8120004A9664884
:10178000FFF7DAFE4FF48060ADF8100004208DF80A
:10179000130004A96048FFF7CFFE4FF4E13000903A
:1017A0000020ADF80400ADF80600ADF80800ADF873
:1017B0000C000C20ADF80A006946584801F000FB07
:1017C000012240F22551554801F0D5FA0121534834
:1017D00001F09BFA4021514801F08EFA01210520C9
:1017E00000F01CFE0121480400F008FE0420ADF8C2
:1017F000100018208DF8130003208DF8120004A9A2
:101800004548FFF799FE0820ADF8100004208DF838
:10181000130004A94048FFF78FFE04A93E48FFF7D4
:101820008BFE4FF4E13000900020ADF80400ADF8DD
:101830000600ADF80800ADF80C000C20ADF80A0069
:101840006946374801F0BCFA012240F2255134487C
:1018500001F091FA0121324801F057FA4021304855
:1018600001F04AFA0121042000F0D8FD10208DF883
:10187000130003208DF812004FF40060ADF8100043
:1018800004A92548FFF758FE0121092000F0C6FDF4
:101890000121880400F0B2FD4FF48060ADF8100023
:1018A00018208DF8130003208DF8120004A91D489C
:1018B000FFF742FE4FF40060ADF8100004208DF8F1
:1018C000130004A91748FFF737FE04A91548FFF7CE
:1018D00033FE4FF4E13000900020ADF80400ADF885
:1018E0000600ADF80800ADF80C000C20ADF80A00B9
:1018F00069460D4801F064FA012240F225510A4878
:1019000001F039FA0121084801F0FFF940210648A9
:1019100001F0F2F905B000BD0008014000380140B7
:1019200000440040000C014000480040FEB500208B
:10193000514981F84300084690F84000082803D038
:10194000032081F84300FEBD4B48801CFFF720F8C0
:1019500007464948001DFFF71BF80546E81DC1175B
:1019600000EB5171CE10012F34DB002D32DD7819E0
:1019700005282FDC002404E000200DF80400601C82
:1019800084B2B442F8DB002421E0611C3944491ED2
:10199000C8B202F093FAC0B1E21704EB5272D2104F
:1019A0001DF802202146E31704EB5373DB10A4EB70
:1019B000C30C012303FA0CF31A43D2B22046E317F7
:1019C00004EB5373DB100DF80320601C84B2AC42AF
:1019D000DBDB03E00220284981F84300264890F829
:1019E0004300002841D1244981F8C4000846017809
:1019F00090F8C42090F8C400401C1F4B83F8C4002A
:101A000003F1440081544438417890F8C42090F8A0
:101A1000C400401C83F8C40003F1440081544438DE
:101A200090F8C42090F8C400401C83F8C40003F16F
:101A30004400865400240FE01DF804100E4890F86E
:101A4000C42090F8C400401C0B4B83F8C40003F181
:101A500044008154601C84B2B442EDDB064890F827
:101A6000C410443000F0E2FB04E0034991F8430065
:101A700000F0B4FB00BF66E77A010020FEB500204D
:101A80004F4981F84300084690F84000082803D0E9
:101A9000032081F84300FEBD4948801CFEF778FF13
:101AA00007464748001DFEF773FF0546E81DC117AE
:101AB00000EB5171CE10B7F5007F2EDD002D2CDD2F
:101AC0007819B0F5017F28DC002404E000200DF82F
:101AD0000400601C84B2B442F8DB00241AE0E21770
:101AE00004EB5272D2101DF802202146E31704EBDA
:101AF0005373DB10A4EBC30C012303FA0CF31A435A
:101B0000D2B22046E31704EB5373DB100DF8032029
:101B1000601C84B2AC42E2DB03E00220284981F879
:101B20004300274890F84300002841D1244981F818
:101B3000C4000846017890F8C42090F8C400401C06
:101B40001F4B83F8C40003F14400815444384178AA
:101B500090F8C42090F8C400401C83F8C40003F13E
:101B600044008154443890F8C42090F8C400401CCC
:101B700083F8C40003F14400865400240FE01DF8EC
:101B800004100F4890F8C42090F8C400401C0C4B7F
:101B900083F8C40003F144008154601C84B2B44251
:101BA000EDDB074890F8C410443000F03FFB04E040
:101BB000034991F8430000F011FB00BF6BE7000000
:101BC0007A01002070B590B00020494981F84300A7
:101BD000084690F84000082803D0032081F843000D
:101BE00027E04348801CFEF7D3FE06464048001D10
:101BF000FEF7CEFE0546202D04D903203C4981F88E
:101C0000430016E0002410E06846022202FB0401B3
:101C1000304600F03FFA20B90220354981F84300F0
:101C200005E0701C86B2601C84B2AC42ECDB00BFE5
:101C300000BF2F4890F84300002852D12C4981F86A
:101C4000C4000846017890F8C42090F8C400401CF5
:101C5000274B83F8C40003F1440081544438417891
:101C600090F8C42090F8C400401C83F8C40003F12D
:101C7000440081546806010E184690F8C42090F87C
:101C8000C400401C83F8C40003F1440081540024C4
:101C90001EE01DF81410164890F8C42090F8C400F7
:101CA000401C134B83F8C40003F1440081546000CE
:101CB000401C1DF80010184690F8C42090F8C4008D
:101CC000401C83F8C40003F144008154601C84B2BA
:101CD000AC42DEDB064890F8C410443000F0A6FAAF
:101CE00004E0034991F8430000F078FA10B070BDA9
:101CF0007A01002070B586B00A2101A8FEF74DFADE
:101D000000204E4981F84300084690F8400008281A
:101D100003D0032081F8430030E04848801CFEF7E0
:101D200037FE06464548001DFEF732FE0546B6F56D
:101D3000806F1EDD002D1CDD701940F202418842CB
:101D400017DC002412E0A6F2014028B93C48808F3D
:101D500001A921F8140004E0002001A921F81400D1
:101D600000BF00BF701C86B2601C84B2AC42EADBCC
:101D700003E00220314981F8430000BF2F4890F86A
:101D80004300002853D12D4981F8C400084601784A
:101D900090F8C42090F8C400401C284B83F8C4007D
:101DA00003F1440081544438417890F8C42090F8FD
:101DB000C400401C83F8C40003F144008154680649
:101DC000010E184690F8C42090F8C400401C83F817
:101DD000C40003F14400815400241FE001A830F83E
:101DE00014000112154890F8C42090F8C400401C5B
:101DF000124B83F8C40003F14400815401A810F889
:101E00001410184690F8C42090F8C400401C83F8C1
:101E1000C40003F144008154601C84B2AC42DDDB99
:101E2000064890F8C410443000F000FA04E003497A
:101E300091F8430000F0D2F906B070BD7A0100209D
:101E40004002002070B50020234981F84300084675
:101E500090F84000082803D0032081F843002EE0CA
:101E60001D48801CFEF794FD05461B48001DFEF72B
:101E70008FFD04463CB1B4F57F4F04D003201649D2
:101E800081F843001BE0012D02D11448C48715E0FE
:101E9000022D03D11148A0F840400FE0032D03D1DB
:101EA0000E48A0F8424009E0042D03D10B48A0F8E9
:101EB000444003E00220084981F8430000BF06487F
:101EC00090F8430010B900F09FF904E0024991F83E
:101ED000430000F083F970BD7A0100204002002029
:101EE00070B50020164981F84300084690F840007C
:101EF000082803D0032081F8430014E01048801C18
:101F0000FEF746FD05460E48001DFEF741FD04465E
:101F10002146284600F0B4F9012803D002200849E0
:101F200081F8430000BF064890F8430010B900F064
:101F30006BF904E0024991F8430000F04FF970BDDD
:101F40007A0100202DE9F0410020204981F843006A
:101F5000084690F840000B2803DA032081F843007C
:101F600026E01A48801CFEF713FD06461748001DA0
:101F7000FEF70EFD054615488779002414E0610040
:101F8000C91D124A8818FEF703FD8046311988B230
:101F9000414600F075F9012804D002200B4981F870
:101FA000430003E0601CC4B2AC42E8DB00BF00BFEA
:101FB000064890F8430010B900F026F904E0034900
:101FC00091F8430000F00AF9BDE8F0817A010020A1
:101FD00010B519484078042817D006DC01280BD02A
:101FE00002280CD003281CD10CE0052810D00628AC
:101FF00011D0102815D111E0FFF798FC1AE0FFF777
:102000003DFD17E0FFF7DEFD14E0FFF773FE11E082
:10201000FFF718FF0EE0FFF763FF0BE0FFF792FFFB
:1020200008E00120044981F8430091F8430000F0E2
:10203000D5F800BF00BF10BD7A01002070B512486E
:10204000007800B970BD00200F4908700F4890F863
:102050004000042800DA11E00C4890F84010FEF728
:102060009FFC044604B109E0084805780848007858
:10207000854200D002E0FFF7ABFF00BF002003491C
:1020800081F8400000BFDDE7000000207A01002059
:102090000100002002460B461E2A6AD2DFE802F049
:1020A0000F1215181B1E2124272A2D303336393CD8
:1020B0003F4245484B4E5154575A5D606366314824
:1020C000018858E02F48418855E02E48818852E029
:1020D0002C48C1884FE02B4801894CE029484189B0
:1020E00049E02848818946E02648C18943E02548DF
:1020F000018A40E02348418A3DE02248818A3AE053
:102100002048C18A37E01F48018B34E01D48418BCD
:1021100031E01C48818B2EE01A48C18B2BE0194816
:10212000018C28E01748418C25E01648818C22E07C
:102130001448C18C1FE01348018D1CE01148418DEB
:1021400019E01048818D16E00E48C18D13E00D484E
:10215000018E10E00B48418E0DE00A48818E0AE0A6
:102160000848C18E07E00748018F04E00548418F09
:1021700001E00020704700BF08121870597001205C
:10218000F8E700004002002070B5044600200D4929
:10219000087040F22F150C4A2946012001F026FF55
:1021A0000A4890F8400040280ADA084890F84010A1
:1021B00090F84000401C054A82F840001046445404
:1021C00070BD000000000020D12100087A0100202D
:1021D00001200149087070470000002038B504460E
:1021E000084800788DF800000648407840F08000EC
:1021F0008DF801008DF802400321684600F016F8C2
:1022000038BD00007A0100201CB5002405E0064816
:10221000005D0DF80400601CC4B2062CF7DB06213B
:10222000684600F003F81CBD7A01002070B5A0B02C
:1022300005460C46224629466846FDF795FF21468D
:102240002846FEF7ADFB064632122046611CCCB292
:102250000DF80020F2B22046611CCCB20DF800202F
:102260002146684600F078F9044880F8414022464B
:1022700069464230FDF778FF20B070BDB8000020FD
:1022800002461E2A6AD2DFE802F00F1215181B1E42
:102290002124272A2D303336393C3F4245484B4EC6
:1022A0005154575A5D6063662F48018058E02E48AC
:1022B000418055E02C48818052E02B48C1804FE09E
:1022C000294801814CE02848418149E02648818124
:1022D00046E02548C18143E02348018240E022488E
:1022E00041823DE0204881823AE01F48C18237E0C8
:1022F0001D48018334E01C48418331E01A48818342
:102300002EE01948C1832BE01748018428E01648C5
:10231000418425E01448818422E01348C1841FE0F1
:10232000114801851CE01048418519E00E4881855F
:1023300016E00D48C18513E00B48018610E00A48FD
:1023400041860DE0084881860AE00748C18607E01B
:102350000548018704E00448418701E000207047F8
:1023600000BF0120FBE700004002002000BFFEE7A5
:102370007047000070B5002100230F22C47804B319
:10238000154C246804F4E064C4F5E064210AC1F14A
:102390000403CA40447804FA03F1847814402143CA
:1023A00009010E4C0678A155047804F01F0501249C
:1023B000AC4005786D11AD0005F1E025C5F8004190
:1023C00009E0047804F01F050124AC40044D0678B0
:1023D000761145F8264070BD0CED00E000E400E009
:1023E00080E100E002490143024A116070470000A9
:1023F0000000FA050CED00E07047000029B1064A24
:10240000D2690243044BDA6104E0034AD269824391
:10241000014BDA61704700000010024029B1064A02
:1024200092690243044B9A6104E0034A9269824331
:10243000014B9A61704700000010024030B5002146
:102440000022002400232D4D6D6805F00C0121B100
:10245000042905D0082923D105E0294D056022E093
:10246000274D05601FE0254D6D6805F47012234D62
:102470006D6805F48034022505EB92421CB9214DAC
:10248000554305600BE01D4D6D6805F400351DB129
:102490001C4D5543056002E0194D5543056002E0AF
:1024A000174D056000BF00BF144D6D6805F0F001C9
:1024B0000909154D6B5C0568DD4045600F4D6D6881
:1024C00005F4E061090A104D6B5C4568DD408560EC
:1024D0000A4D6D6805F46051C90A0B4D6B5C456887
:1024E000DD40C560054D6D6805F44041890B074D21
:1024F0006B5CC568B5FBF3F5056130BD00100240AB
:1025000000127A0000093D008C0000209C00002091
:1025100008B501210420FFF781FF03208DF8020098
:1025200010208DF80300C001ADF800006946024894
:10253000FFF702F808BD00000008014010B504468E
:102540002046FFF721FE10BD4FF4006001490860EE
:10255000704700001008014070B504460D462A4639
:102560002146022001F0A6FD70BD00004FF400607E
:10257000014908607047000014080140704710B519
:1025800000F002F810BD00000CB500200190009092
:102590003348006840F480303149086000BF30485B
:1025A000006800F4003000900198401C01900098F1
:1025B00018B90198B0F5A06FF1D12948006800F46E
:1025C000003010B10120009001E000200090009840
:1025D000012843D12348006840F0100021490860D9
:1025E0000846006820F0030008600846006840F0D4
:1025F000020008601A484068194948600846406867
:1026000048600846406840F480604860084640687A
:1026100020F47C1048600846406840F4E8104860A8
:102620000846006840F08070086000BF0C480068F1
:1026300000F000700028F9D00948406820F003003D
:10264000074948600846406840F00200486000BF03
:102650000348406800F00C000828F9D10CBD0000C8
:102660000010024000200240042808D14FF0E02171
:10267000096941F004014FF0E022116107E04FF0D9
:10268000E021096921F004014FF0E0221161704757
:1026900010B500F001F810BD10B51B48006840B13E
:1026A00019480068401E1849086010B901201749F0
:1026B0000870002408E004EB4401154A02EB810095
:1026C00001F086FC601CC4B2042CF4DB11480068E5
:1026D000401C10490860084600686FF000418842BD
:1026E00002D100200B49086001F05EFC0A48007826
:1026F000401CC0B2084908700A2803DB002008709B
:1027000001F050FC10BD0000380000203C0000200B
:1027100094020020400000205400002010B513480F
:10272000006840F0010011490860084640681049FF
:1027300008400E494860084600680E4908400B49A9
:1027400008600846006820F4802008600846406859
:1027500020F4FE0048604FF41F008860FFF70FFF71
:102760004FF000600449086010BD000000100240F6
:102770000000FFF8FFFFF6FE08ED00E010B50221B3
:10278000480700F02BFA58B10221480700F007FA79
:1027900000220221480700F032FA1B4800688047F7
:1027A0000421080700F01AFA58B10421080700F0C4
:1027B000F6F900220421080700F021FA1348006806
:1027C00080470821C80600F009FA58B10821C80658
:1027D00000F0E5F900220821C80600F010FA0C48C4
:1027E000006880471021880600F0F8F958B11021E0
:1027F000880600F0D4F900221021880600F0FFF9C5
:1028000004480068804710BD4400002048000020B4
:102810004C0000205000002010B5CA48007800F09D
:10282000800000285DD10121C74800F0D7F9D0B160
:10283000C448007800F04000A8B1C248007800F019
:102840003F003F280AD1BF48007840F08000BD49D2
:1028500008704FF6FF70BD49088004E0B948007861
:10286000401CB84908700221B74800F0B7F938B3E6
:10287000B448007800F0400018B3B248007840F047
:102880008000B0490870B04800F098F9B04908805D
:1028900008460088AF490988884207DBAC480088B1
:1028A000AC490988401AA94908801AE0A84800885C
:1028B0004FF6FF710844A7490988401AA3490880C8
:1028C0000FE000209F490870A04908809E4800F052
:1028D00075F9A04908809B48007840F0400099496C
:1028E00008709848407800F0800000285DD10121F0
:1028F000954800F073F9D0B19248407800F040005C
:10290000A8B19048407800F03F003F280AD18D4898
:10291000407840F080008B4948704FF6FF708B493B
:10292000488004E087484078401C8649487004216C
:10293000854800F053F938B38248407800F04000F1
:1029400018B38048407840F080007E4948707E4847
:1029500000F037F97E494880084640887D4949881B
:10296000884207DB7A4840887A494988401A774983
:1029700048801AE0764840884FF6FF710844754950
:102980004988401A714948800FE000206D4948701D
:102990006E4948806C4800F014F96E4948806948D7
:1029A000407840F04000674948706648807800F001
:1029B000800000285DD10121634800F00FF9D0B1FB
:1029C0006048807800F04000A8B15E48807800F050
:1029D0003F003F280AD15B48807840F08000594989
:1029E00088704FF6FF705949888004E05548807818
:1029F000401C544988700821534800F0EFF838B360
:102A00005048807800F0400018B34E48807840F07D
:102A100080004C4988704C4800F0D6F84C498880BA
:102A2000084680884B498988884207DB4848808867
:102A300048498988401A454988801AE04448808876
:102A40004FF6FF71084443490988401A3F4988807E
:102A50000FE000203B4988703C4988803A4800F0EC
:102A6000B3F83C4988803748807840F040003549C9
:102A700088703448C07800F0800000285DD10121C2
:102A8000314800F0ABF8D0B12E48C07800F04000DB
:102A9000A8B12C48C07800F03F003F280AD129484F
:102AA000C07840F080002749C8704FF6FF70274972
:102AB000C88004E02348C078401C2249C870102117
:102AC000214800F08BF838B31E48C07800F0400071
:102AD00018B31C48C07840F080001A49C8701A48E2
:102AE00000F075F81A49C8800846C0881949C98895
:102AF000884207DB1648C0881649C988401A13491E
:102B0000C8801AE01248C0884FF6FF710844114986
:102B1000C988401A0D49C8800FE000200949C870D3
:102B20000A49C880084800F052F80A49C880054898
:102B3000C07840F040000349C8701F21024800F0EF
:102B40002EF810BD59000020000400405E00002057
:102B50006E0000206600002010B501210B4800F037
:102B60003DF888B10A480088401C09490880084699
:102B70000088642804D100200880012005490870DD
:102B80000121024800F00BF810BD000000100040C9
:102B90005600002058000020CA4302827047CA43F2
:102BA0000282704721B1028842F00102028004E0F3
:102BB00002884FF6FE731A40028070470146888EE5
:102BC00070470146088F70470146888F704701465D
:102BD000B1F8400070470146888C704730B5024616
:102BE000002000230024158A05EA0103958905EADF
:102BF000010413B10CB1012000E0002030BD1AB176
:102C000083890B43838102E083898B4383817047EF
:102C1000818670470187704781877047A0F8401010
:102C200070470000002202881D4B98420ED01D4BB9
:102C300098420BD0B0F1804F08D01B4B984205D082
:102C40001A4B984202D01A4B984204D14FF68F7318
:102C50001A404B881A43174B984207D0164B98429C
:102C600004D04FF6FF431A40CB881A4302808B886A
:102C700083850B8803850A4B98420BD0094B9842F9
:102C800008D00E4B984205D00D4B984202D00D4B08
:102C9000984201D10B7A038601238382704700009A
:102CA000002C0140003401400004004000080040B6
:102CB000000C0040001000400014004000400140A3
:102CC000004401400048014010B5024800F0EEF811
:102CD00010BD0000C402002010B5024800F0E6F864
:102CE00010BD0000EC06002010B5024800F0DEF830
:102CF00010BD0000140B002001F40072B2F5007F3B
:102D000000D100BFCA430280704721B1828942F4DA
:102D10000052828104E082894DF6FF731A4082815D
:102D2000704770B50246002400230025002040F6BD
:102D30006A16B14200D100BFC1F3421501F01F0372
:102D4000012606FA03F3012D02D19689334006E0ED
:102D5000022D02D1168A334001E0968A33400C12CC
:102D6000012606FA04F41688344013B10CB1012090
:102D700000E0002070BDF0B50346002400260025C9
:102D8000002040F66A17B94200D100BF1846C1F3CF
:102D9000421401F01F06012707FA06F5012C01D1A4
:102DA0000C3004E0022C01D1103000E014301AB1D4
:102DB00007682F43076002E00768AF430760F0BD74
:102DC0002DE9F04786B005460E460024A24600BF16
:102DD000A1460027B08900B100BF2F462C8A4CF6CF
:102DE000FF700440F08804432C82AC894EF6F31047
:102DF0000440B08831890843718908430443AC8199
:102E0000AC8A4FF6FF400440B0890443AC8201A86D
:102E1000FFF714FB1F48874202D1DDF810A001E044
:102E2000DDF80CA0A88900F4004040B10AEBCA000C
:102E300000EB0A1031684900B0FBF1F807E00AEB3B
:102E4000CA0000EB0A1031688900B0FBF1F8642079
:102E5000B8FBF0F004012009642101FB1089A88966
:102E600000F4004040B1322000EBC900B0FBF1F0AB
:102E700000F00700044308E0322000EB0910642151
:102E8000B0FBF1F000F00F0004432C8106B0BDE868
:102E9000F08700000038014001468888C0F3080030
:102EA0007047C1F3080282807047704770B50446CE
:102EB00040F225512068FFF734FFE0B12068FFF7AA
:102EC000EBFFC5B2E18AA0684554E08A401C80B29D
:102ED000E082E189884201DB0020E082608BE189A9
:102EE000884202DA608B401C6083606A10B1284619
:102EF000616A884700BF40F227712068FFF711FF21
:102F000008B3A08A60B9002240F227712068FFF759
:102F100032FF012240F226612068FFF72CFF37E0E4
:102F2000638A6268D15C2068FFF7BBFF608A401C3F
:102F300080B26082A189884201DB00206082A08A81
:102F4000401EA08224E040F226612068FFF7E9FEDF
:102F5000F0B1A08A50B9002240F226612068FFF744
:102F60000AFF206AA0B1206A804711E0638A626884
:102F7000D15C2068FFF795FF608A401C80B26082B8
:102F8000A189884201DB00206082A08A401EA082C5
:102F900070BDF8B504460E461746002529E00EE040
:102FA000012000F0B5F8A08A0090002000F0B0F8F1
:102FB000A089BDF80010884200DD01E000BFEFE706
:102FC00000BF705D228A61688854012000F0A0F87B
:102FD000208A401C80B22082A189884201DB002027
:102FE0002082A08A401CA082002000F091F8681C7A
:102FF00085B2BD42D3DB012240F227712068FFF782
:10300000BAFEF8BD2148224908602248486022489B
:1030100088604FF400708881C8810020088248824F
:10302000C882088348838882C861086248621B4856
:103030001B4908601B4848601B4888604FF40070BB
:103040008881C881002008824882C882088348831A
:103050008882C861086248621448154908601548AA
:103060004860154888604FF400708881C88100204E
:1030700008824882C8820883488388820F48C861D2
:103080000F4808620F48486270470000003801404E
:10309000C4020020EC020020EC04002000440040A8
:1030A000EC0600201407002014090020004800400E
:1030B000140B00203C0B00203C0D0020492500088B
:1030C0006D2500083D25000800BFFEE70FB4054B45
:1030D00010B503A9044A029800F0E0F810BC5DF8AE
:1030E00014FB000009410008B400002002E008C8F9
:1030F000121F08C1002AFAD170477047002001E072
:1031000001C1121F002AFBD1704780F3108870475D
:1031100080F31088704700002DE9FF5F82B0002126
:10312000DDE90430020DDDF840B0034318D044F669
:103130001050A2F2FF3242431514119801281FD0FB
:10314000A5EB0B00401C5FEA000A4FF000064E4F53
:10315000DFF83891B046504615D5CAF1000413E0A7
:10316000119801244AA3012801D16FEA0B010298AA
:10317000119AC0E90031C0E9024206B0BDE8F09FF3
:10318000CBF10000DFE704460021404A491842EB3A
:103190000450CDE9001012E0E00707D032463B466C
:1031A00040464946FDF735F98046894632463B465A
:1031B00010461946FDF72DF906460F466410002CFF
:1031C000EAD1DDE90401DDE90023BAF1000F06DAF6
:1031D000FDF71FF942464B46FDF71BF905E0FDF7E9
:1031E0008AF942464B46FDF786F904460E46002210
:1031F000284BFDF725FA03D84FF0FF30014607E0D2
:103200000022254B20463146FDF75CF8FDF752FBC6
:10321000102409E0002C0ADB0A220023FDF764FADF
:10322000039B30321A55641E50EA0102F2D1641C2D
:10323000039AC4F111031444119A012A03D0012204
:1032400008430DD10AE0084304D000204FF0110BD1
:10325000119072E7A3EB0B056D1E0DE05B4504DDDD
:103260004FF0000205F1010504E003DA4FF000021F
:10327000A5F10105002AECD002981199C0E90231AC
:10328000C0E9004579E70000000014400000F03F6D
:10329000300000000000F0430000E03F2DE9FF4F48
:1032A00095B09B468946064600250FE2252877D132
:1032B00000242746F84A0121059400E0044316F84B
:1032C000013F203B01FA03F01042F7D130782A2861
:1032D00011D06FF02F033078A0F13002092A16D8F0
:1032E000059A44F0020402EB820203EB420210440E
:1032F000761C0590EFE759F8042B0592002A03DAB3
:10330000504244F40054059044F00204761C307896
:103310002E2816D116F8010F44F004042A280DD0E7
:103320006FF02F023078A0F13003092B09D807EB9A
:10333000870302EB4303C718761CF3E759F8047BB5
:10334000761C30786C280FD006DC4C2817D0682803
:103350000DD06A2814D104E0742810D07A280FD137
:103360000DE044F400140AE044F4801401E044F455
:1033700040147278824202D104F58014761C761CC7
:10338000307866280BD013DC582877D009DC002869
:1033900075D04528F6D04628F4D047281AD19DE1AB
:1033A00018E0632835D0642879D0652812D195E1DA
:1033B000702873D008DC6728F1D069286FD06E2898
:1033C0000DD06F2806D1B5E073282CD0752875D0A4
:1033D000782874D05A46179990476D1C75E1C4F34C
:1033E0000250022809D003280DD0D9F80010042873
:1033F0000DD00D6009F1040967E1D9F80010EA1752
:10340000C1E90052F6E7D9F800100D80F2E70D701F
:10341000F0E719F8041B8DF8001000208DF801006A
:10342000EA46012003E059F804AB4FF0FF30610792
:103430004FF0000102D40DE008F101018846B942C5
:103440000FDA8045F8DB1AF808100029F4D108E0FB
:1034500008F1010188468142FADB1AF808100029B8
:10346000F6D105985B46A0EB080721463846179A27
:1034700000F094FA284400EB080507E04DE029E14C
:103480000DE01AF8010B5A4617999047B8F1010858
:10349000F7D25B4621463846179A13E142E00A22EA
:1034A0000092C4F302524FF0000A022A08D059F8E1
:1034B00004CB032A4FEAEC710AD00DE029E02AE0A0
:1034C00009F1070121F00702F2E802C1914609E083
:1034D0000FFA8CFC4FEAEC71042A03D14FFA8CFCF2
:1034E0004FEAEC71002907DA0A460021DCF1000CF2
:1034F00061EB02012D2202E0220504D52B228DF87A
:103500000420012203E0E20701D02022F7E79046E1
:1035100059E00A2102E010220DE010214FF0000ACC
:1035200000910BE010224FF0000A44F00404082739
:10353000009203E008224FF0000A0092C4F3025206
:10354000022A05D059F804CB0021032A08D009E04B
:1035500009F1070121F00702F2E802C1914605E0F6
:103560001FFA8CFC042A01D10CF0FF0C4FF000086C
:10357000220728D5702806D0009B83F0100353EA59
:103580000A0305D00EE040228DF80420012208E055
:103590005CEA010206D030228DF804208DF8050087
:1035A00002229046009B83F0080353EA0A030AD1E3
:1035B0005CEA010201D1620705D530228DF80420B2
:1035C0004FF001087F1E582804D034A003900EA8A5
:1035D00002900DE036A0F9E753466046009AFDF7E9
:1035E00083F884460398825C0298401E0290027021
:1035F0005CEA0100F0D1029806A9081A00F1200A3D
:10360000600702D524F4803400E00127574502DD2D
:10361000A7EB0A0000E0002000EB0A0100900598EB
:103620004144401A0590E00306D45B462146179AB0
:10363000059800F0B3F90544002706E001A85A46B2
:10364000C05D179990476D1C7F1C4745F6DBE00372
:103650000CD55B462146179A059800F09FF9054462
:1036600004E030205A46179990476D1C0099481E77
:1036700000900029F5DC08E0029802995A4600788B
:10368000491C0291179990476D1CBAF10001AAF1EB
:10369000010AF1DC65E10000092801003031323314
:1036A000343536373839616263646566000000007E
:1036B0003031323334353637383941424344454668
:1036C0000000000000F058F90544761C307800280E
:1036D0007FF4ECAD19B02846BDE8F08F620700D446
:1036E000062709F1070222F0070CFCE80223E14655
:1036F00003F000485FEA080C02D00FF2702C0DE0D6
:103700005FEA045C02D50FF2682C07E05FEAC47C34
:1037100002D00FF2602C01E0AFF2700C4FF0FF38D6
:1037200023F00043CDF850C065280CD006DC4528B6
:1037300009D046281DD047283DD13DE0662818D045
:1037400067287ED138E00021112F01DB112000E035
:10375000781CCDE9000106A90EA8FFF7DDFCDDE924
:103760000F010E9A03910021009207F1010A0491C2
:103770004DE04FF000400097CDE9011006A90EA8DA
:10378000FFF7CAFCDDE90F0203920E9B119900229C
:10379000DDF80CA00093049211B9791C00EB010A2A
:1037A000B7EB0A0004D4C0F1FF3007F1010A04901E
:1037B000AAEB0700019044E0012F00DA0127002165
:1037C000112F01DD112000E03846CDE9000106A9E6
:1037D0000EA8FFF7A1FCDDE90F010E9A039100216D
:1037E00004910092BA4621070CD40399514500DA9E
:1037F0008A46BAF1010F05DD009AAAF10101515C78
:10380000302908D0B84202DA10F1040F06DA01219B
:10381000CDE9011015E0AAF10101E9E7002805DC76
:10382000049901440491AAEB000102E0411C5145B6
:1038300000DD8A460499401A401C01904FF0004078
:103840000290200704D40198504501DBCDF8048094
:1038500000208DF84F0002980DF14F07B0F1004F96
:1038600025D02B200E9002984FF0020800280CDA89
:10387000404202902D200E9007E00A210298FCF7AA
:103880001DFF3031029007F8011DB8F10001A8F1C9
:103890000108F2DC02980028EFD1791E0E9808701A
:1038A000307800F0200040F0450007F8020D12A823
:1038B000C01B00F107081498007800B1012000EB4C
:1038C0000A01019801EBE07105984144401A401E3D
:1038D0000590E00306D45B462146179A059800F050
:1038E0005DF805441498007818B15A461799904726
:1038F0006D1CE00324D55B462146179A059800F01D
:103900004DF805441CE00498002807DBDDE90301BD
:10391000884203DD0098405C179901E01799302038
:103920005A469047049805F10105401C04900198FF
:10393000401E019004D12E205A46179990476D1CC5
:10394000BAF10001AAF1010ADDDC05E017F8010B6C
:103950005A46179990476D1CB8F10001A8F101086B
:10396000F4DC5B462146179A0598ABE62D00000073
:103970002B000000200000002DE9F0410446002546
:103980001E461746880404D405E039462020B04777
:103990006D1C641EF9D52846BDE8F0812DE9F04183
:1039A000044600251E469046C80301D5302700E096
:1039B0002027880404D505E041463846B0476D1CF1
:1039C000641EF9D52846BDE8F081000010B5044614
:1039D00004B910BD012C00D102240120FFF795FB92
:1039E00009480460002009490870FFF78EFB06E0D3
:1039F00000F08CF805480078012800D100E0F7E7D6
:103A000000BF00BFE5E70000380000203C000020B8
:103A1000F0B5034600224FF0E02675690F4E366878
:103A20000F4FB6FBF7F606FB03F400BF4FF0E0269E
:103A3000B16910E04FF0E026B06988420BD08842AF
:103A400002D20E1A324402E02E1A0E4432440146CB
:103A5000A24200D300E0EDE700BFF0BDA0000020CF
:103A600040420F00012803D1C103114A11601DE03B
:103A7000022803D101210F4A116017E0032803D166
:103A800002210C4A116011E0042803D10821094ADF
:103A900011600BE0052803D11021064A116005E0F2
:103AA000062803D14FF48071014A1160704700006D
:103AB00014080140140C0140012803D1C103114A2C
:103AC00011601DE0022803D101210F4A116017E0A7
:103AD000032803D102210C4A116011E0042803D10C
:103AE0000821094A11600BE0052803D11021064A7C
:103AF000116005E0062803D14FF48071014A11607E
:103B00007047000010080140100C01407047000091
:103B100010B54FF44070FEF765FC00F0C5F900F0F9
:103B20003BF900F06FF900F0C5F800F0E2FA18B1C7
:103B300016A0FFF7CBFA02E01AA0FFF7C7FA00F0D1
:103B4000D7F800F069F81D48FCF7C6FF0446012CC1
:103B500006D11A480289C18819A0FFF7B7FA02E016
:103B60001DA0FFF7B3FAFCF7DFFE40F2E2410520AB
:103B7000FDF7C4FD1F4800781F4908800846038DE3
:103B8000C28F818F1DA0FFF7A1FA10BD656570720D
:103B90006F6D20696E697469616C206F6BA3A10DF4
:103BA0000A000000656570726F6D20696E69746946
:103BB000616C206572726F72210D0A00880200200C
:103BC00074656D703D202564202068756D69203D09
:103BD00020202564200D0A000D0ACEB4B7A2CFD64E
:103BE0004448543232CEC2CAAAB6C8B4ABB8D0C662
:103BF000F70D0A0001000020400200200D0A4130AC
:103C000031203D2564204430313D2564205032313F
:103C1000203D25642000000008B501210420FEF7A6
:103C2000FDFB4FF480500849086003208DF8020026
:103C300014208DF803008814ADF80000694602488E
:103C40001038FDF779FC08BD100801407FB501214F
:103C50000846FEF7D3FB1548006846081448B6FB33
:103C6000F0F085B24FF6FF74ADF80840ADF804509F
:103C70000020ADF80A00ADF8060001A94FF0804021
:103C8000FEF7D0FF01218807FEF78CFF1C208DF87E
:103C9000000004208DF8010000208DF802000120B2
:103CA0008DF803006846FEF765FB7FBDA00000208D
:103CB00040420F0008B501210820FEF7AFFB0320AA
:103CC0008DF8020014208DF803004020ADF80000AC
:103CD00069460648FDF730FC8020ADF800006946D3
:103CE0000248FDF729FC00F07FFA08BD000C0140F6
:103CF00008B501210C20FEF791FB01212348FDF7B7
:103D0000A7FC03208DF8020010208DF80300C002EC
:103D1000ADF8000069461E48FDF70EFC0120ADF825
:103D2000000069461B48FDF707FC0220ADF80000C3
:103D300069461848FDF700FC0820ADF80000694608
:103D40001448FDF7F9FB1020ADF800006946114852
:103D5000FDF7F2FB4FF48070ADF8000069460C48A7
:103D6000FDF7EAFB0120FFF7A7FE0220FFF7A4FE04
:103D70000320FFF7A1FE0420FFF79EFE0520FFF7BA
:103D80009BFE0620FFF76EFE08BD0000000230001B
:103D900000080140000C014008B501210420FEF795
:103DA0003DFB012000F0BCF8022000F0B9F8032030
:103DB00000F0B6F8042000F0B3F803208DF80200FC
:103DC00010208DF803002020ADF8000069460C4853
:103DD000FDF7B2FB2020ADF8000069460848FDF76A
:103DE000ABFB2020ADF8000069460548FDF7A4FBB9
:103DF0002020ADF8000069460148FDF79DFB08BD95
:103E00000008014070B5002416E0002004EB4401D6
:103E1000214A02EB8101486004EB440102EB81017D
:103E2000886004EB440102EB8101487004EB44011B
:103E300002F82100601CC4B2042CE6DB0420FEF76B
:103E400013FC164800684FF47A72B0FBF2F1B1F13E
:103E5000807F00D31DE021F07F40401E4FF0E02224
:103E6000506150170F22002807DA13071E0E0C4B63
:103E700000F00F052D1F5E5503E013071D0E094BC3
:103E80001D5400BF00204FF0E02290610720106118
:103E900000BFFFF7DBFE70BD94020020A0000020F1
:103EA00018ED00E000E400E010B5FFF7ABF8FDF717
:103EB00051FCFEF72DFBFCF7ABFD10BD01460129BF
:103EC00008D11648006800F0200008B901207047AA
:103ED0000020FCE7022908D11048006800F020000B
:103EE00008B90120F3E70020F1E7032908D10B48C6
:103EF000006800F0200008B90120E8E70020E6E7AC
:103F0000042908D10548006800F0200008B9012004
:103F1000DDE70020DBE70020D9E700000C080140C6
:103F2000411EC8B218B920210A4A116010E00128C8
:103F300003D12021074A11600AE0022803D1202181
:103F4000044A116004E0032802D12021014A1160D3
:103F50007047000010080140012806D11049096887
:103F600081F020010E4A116019E0022806D10C49A7
:103F7000096881F020010A4A116010E0032806D187
:103F80000749096881F02001054A116007E004280B
:103F900005D10349096881F02001014A1160704789
:103FA0000C0801407047000010B508480088401C0C
:103FB0000649088008460088B0F5FA6F04DD002045
:103FC00008800120FFF7C8FF10BD0000340000206A
:103FD000416851B14168491E416031B901214170C8
:103FE0000178012901D18168416070472DE9F041D4
:103FF00004460F461546052F00D37F1F4FF0804023
:10400000FEF7E9FD804608EB0706012C0FD1254895
:104010000560B1B2A007FEF7FBFD02214807FEF7DD
:10402000BEFD012202214807FEF7E9FD38E0022C1F
:104030000FD11D480560B1B26007FEF7EBFD04210A
:104040000807FEF7ACFD012204210807FEF7D7FDA3
:1040500026E0032C10D115480560B1B24FF0804026
:10406000FEF7DAFD0821C806FEF799FD01220821B6
:10407000C806FEF7C4FD13E0042C0FD10C48056000
:10408000B1B22007FEF7CAFD10218806FEF787FDB2
:10409000012210218806FEF7B2FD01E0BDE8F081A3
:1040A00000BFFBE744000020480000204C00002037
:1040B000500000202DE9F04105460E4617462846DF
:1040C000FCF78AFC04460CB9BDE8F081E06908B150
:1040D000E06980473A4631462046FEF75AFF00BF66
:1040E000F2E713B50446012201A92046FFF7E2FFDB
:1040F0001CBD10B5A02000F011F808B9012010BDBA
:1041000000F072F80020FAE770B504460D46E1B2FF
:104110000020FFF7E6FF204670BD000070B50446A2
:104120000B48006800F0800080B10948006800F08A
:10413000400058B100F040F8204600F013F800F0BD
:1041400065F8054600F050F8284670BD0120FCE7F0
:10415000080C0140002001E0411CC8B21E28FBDB16
:104160007047000070B50446002520E004F0800090
:1041700018B180200F49086003E080200D49091D17
:104180000860FFF7E7FF40200A490860FFF7E2FFF9
:1041900040200849091D0860072D02D18020091F11
:1041A00008606006040EFFF7D5FF681CC5B2082D35
:1041B000DCDB70BD100C014010B58020094908609F
:1041C00040200860FFF7C6FF80200649091D0860EF
:1041D000FFF7C0FF40200349091D0860FFF7BAFF41
:1041E00010BD0000100C014010B580200649086089
:1041F0004020091F0860FFF7ADFF80200249091F1A
:104200000860FFF7A7FF10BD140C014010B5802017
:104210000C490860FFF79EFF40200A490860FFF73D
:1042200099FF08480838006800F0800008B10124B0
:1042300000E0002440200349091D0860FFF78AFFC1
:10424000204610BD100C01400024FFF761FC32E055
:104250001948007858B3601CC4B200201649087091
:10426000FCF77AFD052094FBF0F100FB1140F0B95A
:104270001248FCF731FC30B11048008910494880E1
:104280000E48C08888800F48007800EB4001C1EBE1
:10429000C01004EBC0000A49C8800A48007800EB4F
:1042A0004001C1EBC01004EBC00005490881FDF7D7
:1042B00021FAFDF7C3FECBE758000020880200205A
:1042C000400200200100002000C1814001C0804167
:1042D00001C0804100C1814001C0804100C18140D6
:1042E00000C1814001C0804101C0804100C18140C6
:1042F00000C1814001C0804100C1814001C08041B6
:1043000001C0804100C1814001C0804100C18140A5
:1043100000C1814001C0804100C1814001C0804195
:1043200001C0804100C1814000C1814001C0804185
:1043300001C0804100C1814001C0804100C1814075
:1043400000C1814001C0804101C0804100C1814065
:1043500000C1814001C0804100C1814001C0804155
:1043600001C0804100C1814000C1814001C0804145
:1043700001C0804100C1814001C0804100C1814035
:1043800000C1814001C0804100C1814001C0804125
:1043900001C0804100C1814001C0804100C1814015
:1043A00000C1814001C0804101C0804100C1814005
:1043B00000C1814001C0804100C1814001C08041F5
:1043C00001C0804100C1814000C0C101C30302C2DD
:1043D000C60607C705C5C404CC0C0DCD0FCFCE0E45
:1043E0000ACACB0BC90908C8D81819D91BDBDA1AB5
:1043F0001EDEDF1FDD1D1CDC14D4D515D71716D625
:10440000D21213D311D1D010F03031F133F3F23294
:1044100036F6F737F53534F43CFCFD3DFF3F3EFE04
:10442000FA3A3BFB39F9F83828E8E929EB2B2AEA74
:10443000EE2E2FEF2DEDEC2CE42425E527E7E626E4
:1044400022E2E323E12120E0A06061A163A3A26254
:1044500066A6A767A56564A46CACAD6DAF6F6EAEC4
:10446000AA6A6BAB69A9A86878B8B979BB7B7ABA34
:10447000BE7E7FBF7DBDBC7CB47475B577B7B676A4
:1044800072B2B373B17170B0509091519353529214
:1044900096565797559594549C5C5D9D5F9F9E5E84
:1044A0005A9A9B5B99595898884849894B8B8A4AF4
:1044B0004E8E8F4F8D4D4C8C448485458747468664
:1044C0008242438341818040E8440008000000208C
:1044D000B8000000EC300008A0450008B80000203B
:1044E000888E0000FC30000800030000000000007F
:1044F00001000000000020410000204100000000F9
:1045000000000000FF0000003333333F0000803F15
:104510000000803F643B6F3F00000000000000008F
:10452000000000000000000000000000000000008B
:10453000000000000000000000000000000000007B
:10454000000000000000000000000000000000006B
:10455000000000000000000000000000000000005B
:104560000000000000000000000000000000FF004C
:10457000FF00000000000000010203040102030428
:10458000060708090204060800A24A040000000009
:1045900000000000010203040607080900000000F3
:0400000508000131BD
:00000001FF
