:020000040800F2
:100000004891002049010008FD090008B1080008D6
:10001000F909000815070008ED16000800000000A7
:10002000000000000000000000000000350C000887
:100030007F07000800000000850A0008210D000865
:100040006301000863010008630100086301000800
:1000500063010008630100086301000863010008F0
:1000600063010008630100086301000863010008E0
:1000700063010008630100086301000863010008D0
:1000800063010008630100086301000863010008C0
:1000900017150008630100086301000863010008E8
:1000A00063010008630100086301000863010008A0
:1000B0000D0E0008A90E0008630100086301000886
:1000C0006301000863010008630100086301000880
:1000D0006301000845130008551300086301000878
:1000E0006301000863010008630100086301000860
:1000F0006301000863010008630100086301000850
:10010000630100086301000863010008630100083F
:100110006301000863010008E91100086301000899
:10012000630100086301000863010008630100081F
:10013000DFF810D000F076FA0048004749250008A3
:10014000AFF30080489100200648804706480047EA
:10015000FEE7FEE7FEE7FEE7FEE7FEE7FEE7FEE777
:10016000FEE7FEE7AD0D0008310100082DE9F04D76
:1001700081EA030404F0004B21F0004514464FF0DF
:10018000000A23F0004150EA050220D054EA01029F
:100190001DD0C5F30A570246C5F31303C1F313007C
:1001A000C1F30A5640F4801543F48013A7EB060808
:1001B000101BD64608F2FD3873EB050002D308F198
:1001C000010801E092185B41B8F1000F03DA00204A
:1001D0000146BDE8F08D00204FF4801106468446AC
:1001E0000EE0171B73EB050705D3121B63EB05032A
:1001F00006434CEA010C49084FEA300092185B4173
:1002000050EA0107EDD152EA030012D082EA04005D
:1002100083EA0501084305D0101BAB4106D2012239
:10022000002306E000224FF0004302E06FF00102DD
:1002300053101AEB06004CEB085110EB0A0041EB8F
:100240000B01BDE8F04D00F047B830B50B46014654
:1002500000202022012409E021FA02F59D4205D365
:1002600003FA02F5491B04FA02F52844151EA2F10F
:100270000102F1DC30BD2DE9F05F05460020924619
:100280009B4688460646814640241BE02846414658
:100290004746224600F0E7F953465A46C01A9141B4
:1002A00010D311461846224600F0CEF92D1A67EBFE
:1002B00001084F4622460120002100F0C5F917EB46
:1002C00000094E41201EA4F10104DFDC48463146FE
:1002D0002A464346BDE8F09F10B5141E73F1000492
:1002E00008DA401C41F1000192185B411A4301D128
:1002F00020F0010010BD2DE9F04D92469B4611B152
:10030000B1FA81F202E0B0FA80F22032904600F0B9
:100310009BF904460F4640EA0A0041EA0B015346A6
:100320005A46084313D0114653EA010019D0C8F1C8
:100330004002504600F097F905460E465046594691
:10034000424600F081F9084305D0012004E0204630
:100350003946BDE8F08D0020054346EAE0762C439F
:1003600037430A986305E40AA0EB08000022FD0A5F
:1003700044EA47540A3002D500200146E9E7010566
:1003800010196941DDE9084500196941BDE8F04DE2
:10039000A2E72DE9FE4F804681EA0300C00F0C461C
:1003A000009021F0004123F00045B8EB0200A94184
:1003B00005D24046214690461C460B46024623F095
:1003C0000040104347D0270DC7F30A00C3F30A517A
:1003D0000290401A019040286BDAC3F3130040F4F6
:1003E000801B0098924620B10023D2EB030A63EBF6
:1003F0000B0B01985946C0F14002504600F024F919
:1004000006460D4650465946019A00F03CF910EB5D
:1004100008006141002487EA115284EAE7731A4315
:1004200040D0009A62B3019A012A4FEA075215DCC4
:10043000001B61EB02014FF0004202EA0752CDE9D6
:100440000042001C41F5801132462B46FFF753FF56
:1004500003B0BDE8F08F40462146F9E7001B61EB91
:100460000201001C41F5801300185B412018A2F521
:10047000001747EB030140EAD570B6196D4111E052
:100480006D084FEA360645EAC0754FEA0752001B71
:1004900061EB0201001C41F5801149084FEA300070
:1004A0000019514132462B4603B0BDE8F04FFFF72B
:1004B00013BF0098012240000023D0EB020263EB3F
:1004C000E073009821464FEAE074B8EB000061EB5E
:1004D0000401E9E783F000435BE781F0004158E75E
:1004E0002DE9FE4F81EA030404F0004421F00041AD
:1004F00000944FF0000B23F0004350EA01045ED05B
:1005000052EA03045BD0C3F30A54C1F30A552C44E6
:10051000A4F2F3340194A0FB0254C1F3130141F49B
:100520008011C3F3130343F4801301FB024400FB67
:10053000034E840A970A44EA815447EA8357A4FB8E
:10054000076802958D0A05FB07854FEA932C04FB8B
:100550000C542705029D4FEA065847EA1637B5EBBB
:1005600008056EEB070C870E920E47EA811742EAE8
:100570008312A7FB0201B6EB0B0164EB00042B0D09
:1005800043EA0C335E1844EB1C50DA465146E7FB55
:100590000201C5F313044FEA0B3343EA14534FEA45
:1005A0000432019C43EA0603A4F10C040294009C6B
:1005B000CDE900B4FFF79FFE03B0BDE8F08F002047
:1005C0000146F9E7C1F30A52C1F3130140F2FF33C8
:1005D00041F480119A4202DA00200146704740F24D
:1005E00033439A42A2F2334202DC524200F03BB85B
:1005F00000F02AB830B5041E71F1000404DB4FF09E
:100600000044404264EB0101141E73F1000405DB59
:100610001C464FF00043524263EB0403994208BF6B
:10062000904230BD064C074D06E0E06840F0010303
:1006300094E8070098471034AC42F6D3FFF77CFDEE
:100640006425000884250008202A04DB203A00FAEB
:1006500002F1002070479140C2F1200320FA03F319
:10066000194390407047202A04DB203A21FA02F017
:100670000021704721FA02F3D040C2F120029140DC
:10068000084319467047202A06DBCB17203A41FA67
:1006900002F043EAE07306E041FA02F3D040C2F10F
:1006A0002002914008431946704710B500F024F825
:1006B00000F002F810BD00000EB50121102000F07E
:1006C000E3F91820ADF804004720ADF800006946B2
:1006D000084800F0E3FD0121064800F0A5FD0122D5
:1006E0001146044800F0D0FD0121024800F0A2FDAF
:1006F0000EBD00000010004008B536208DF8000047
:1007000006208DF8010001208DF80300684600F0F6
:1007100077F908BD00BFFEE7014609B909487047EF
:10072000012901D10848FAE7022901D10020F6E7A2
:10073000032901D10020F2E7042901D10020EEE7CE
:100740000020ECE7C4000020EC08002008B52520BC
:100750008DF8000000208DF8020001208DF80300C4
:10076000684600F04DF926208DF8000001208DF834
:1007700002008DF80300684600F042F908BD70479A
:100780002DE9F04102460025002600200023002428
:10079000002791F803C00CF00F0591F803C00CF08E
:1007A000100CBCF1000F03D091F802C04CEA050513
:1007B00091F800C0BCF1000F31D0146800202BE08C
:1007C0004FF0010C0CFA00F3B1F800C00CEA03067C
:1007D0009E4220D183004FF00F0C0CFA03F7BC436C
:1007E00005FA03FC4CEA040491F803C0BCF1280F9D
:1007F00006D14FF0010C0CFA00FCC2F814C00AE05C
:1008000091F803C0BCF1480F05D14FF0010C0CFA70
:1008100000FCC2F810C0401C0828D1D31460B1F805
:1008200000C0BCF1FF0F34DD546800202EE000F161
:10083000080C4FF0010808FA0CF3B1F800C00CEAFC
:1008400003069E4221D183004FF00F0C0CFA03F7F0
:10085000BC4305FA03FC4CEA040491F803C0BCF164
:10086000280F05D100F1080C08FA0CF8C2F8148022
:1008700091F803C0BCF1480F07D100F1080C4FF00C
:10088000010808FA0CF8C2F81080401C0828CED3E2
:100890005460BDE8F0810246002093680B400BB124
:1008A000012000E0002070474161704701617047FE
:1008B0000EE00849096881F48071064A1160002041
:1008C00001E0411C88B242F210718842F9DB00BF9E
:1008D000EFE700000C08014000B585B001210520BC
:1008E00000F0E2F80121880300F0DEF84FF4007018
:1008F000ADF8100018208DF8130003208DF81200B9
:1009000004A93A48FFF73CFF4FF48060ADF81000AF
:1009100004208DF8130004A93448FFF731FF4FF489
:10092000E13000900020ADF80400ADF80600ADF80D
:100930000800ADF80C000C20ADF80A0069462C4800
:1009400000F074FD012240F22551294800F049FDD4
:100950000121274800F00FFD4021254800F002FD4D
:100960000121052000F0A0F80121480400F08CF8D6
:100970000420ADF8100018208DF8130003208DF826
:10098000120004A91948FFF7FBFE0820ADF810007B
:1009900004208DF8130004A91448FFF7F1FE04A900
:1009A0001248FFF7EDFE4FF4E13000900020ADF863
:1009B0000400ADF80600ADF80800ADF80C000C20FE
:1009C000ADF80A0069460B4800F030FD012240F204
:1009D0002551084800F005FD0121064800F0CBFC38
:1009E0004021044800F0BEFC05B000BD00080140F5
:1009F000003801400044004000BFFEE7704700009F
:100A000070B5002100230F22C47804B3154C24686C
:100A100004F4E064C4F5E064210AC1F10403CA40AF
:100A2000447804FA03F184781440214309010E4C00
:100A30000678A155047804F01F050124AC40057820
:100A40006D11AD0005F1E025C5F8004109E004781D
:100A500004F01F050124AC40044D0678761145F8DA
:100A6000264070BD0CED00E000E400E080E100E015
:100A700002490143024A1160704700000000FA0574
:100A80000CED00E07047000029B1064AD26902432C
:100A9000044BDA6104E0034AD2698243014BDA6114
:100AA000704700000010024029B1064A92690243D3
:100AB000044B9A6104E0034A92698243014B9A61B4
:100AC000704700000010024030B5002100220024D1
:100AD00000232D4D6D6805F00C0121B1042905D0CE
:100AE000082923D105E0294D056022E0274D056046
:100AF0001FE0254D6D6805F47012234D6D6805F4F7
:100B00008034022505EB92421CB9214D5543056006
:100B10000BE01D4D6D6805F400351DB11C4D5543AE
:100B2000056002E0194D5543056002E0174D056070
:100B300000BF00BF144D6D6805F0F0010909154DA7
:100B40006B5C0568DD4045600F4D6D6805F4E06144
:100B5000090A104D6B5C4568DD4085600A4D6D6883
:100B600005F46051C90A0B4D6B5C4568DD40C560FA
:100B7000054D6D6805F44041890B074D6B5CC568F8
:100B8000B5FBF3F5056130BD0010024000127A009C
:100B900000093D0098000020A800002008B50121B0
:100BA0000820FFF781FF03208DF8020010208DF848
:100BB00003002020ADF8000069460248FFF7E0FD81
:100BC00008BD0000000C01402DE9F04106460F462B
:100BD0001546002428E0164A02EBC4029188144A04
:100BE00052F83400FFF762FE39463046FFF753FEF5
:100BF00001280ED10E4A02EBC40291880C4A52F829
:100C00003400FFF751FE05EB8400401CC0B2BDE884
:100C1000F081074A02EBC4029188054A52F8340079
:100C2000FFF742FE601CC4B2042CD4DB0020EEE7C8
:100C300058000020704710B500F002F810BD000009
:100C40000CB50020019000903348006840F48030DB
:100C50003149086000BF3048006800F4003000905F
:100C60000198401C0190009818B90198B0F5A06F48
:100C7000F1D12948006800F4003010B10120009043
:100C800001E0002000900098012843D1234800682B
:100C900040F01000214908600846006820F0030079
:100CA00008600846006840F0020008601A48406882
:100CB000194948600846406848600846406840F462
:100CC000806048600846406820F47C104860084610
:100CD000406840F4E81048600846006840F08070C2
:100CE000086000BF0C48006800F000700028F9D0D0
:100CF0000948406820F003000749486008464068FA
:100D000040F00200486000BF0348406800F00C005B
:100D10000828F9D10CBD000000100240002002405C
:100D200010B500F001F810BD10B51B48006840B1C7
:100D300019480068401E1849086010B90120174979
:100D40000870002408E004EB4401154A02EB81001E
:100D500001F0C4FB601CC4B2042CF4DB1148006831
:100D6000401C10490860084600686FF00041884246
:100D700002D100200B49086001F0A2FB0A4800786C
:100D8000401CC0B2084908700A2803DB0020087024
:100D900001F088FB10BD00000400002008000020C6
:100DA000141100200C0000202000002010B5134872
:100DB000006840F001001149086008464068104989
:100DC00008400E494860084600680E4908400B4933
:100DD00008600846006820F48020086008464068E3
:100DE00020F4FE0048604FF41F008860FFF723FFE7
:100DF0004FF000600449086010BD00000010024080
:100E00000000FFF8FFFFF6FE08ED00E010B502213C
:100E1000480700F028FA58B10221480700F007FA05
:100E200000220221480700F02FFA1B480068804783
:100E30000421080700F017FA58B10421080700F050
:100E4000F6F900220421080700F01EFA1348006892
:100E500080470821C80600F006FA58B10821C806E4
:100E600000F0E5F900220821C80600F00DFA0C4850
:100E7000006880471021880600F0F5F958B110216C
:100E8000880600F0D4F900221021880600F0FCF951
:100E900004480068804710BD1000002014000020A6
:100EA000180000201C00002010B5CA48007800F08F
:100EB000800000285DD10121C74800F0D4F9D0B1ED
:100EC000C448007800F04000A8B1C248007800F0A3
:100ED0003F003F280AD1BF48007840F08000BD495C
:100EE00008704FF6FF70BD49088004E0B9480078EB
:100EF000401CB84908700221B74800F0B4F938B373
:100F0000B448007800F0400018B3B248007840F0D0
:100F10008000B0490870B04800F098F9B0490880E6
:100F200008460088AF490988884207DBAC4800883A
:100F3000AC490988401AA94908801AE0A8480088E5
:100F40004FF6FF710844A7490988401AA349088051
:100F50000FE000209F490870A04908809E4800F0DB
:100F600075F9A04908809B48007840F040009949F5
:100F700008709848407800F0800000285DD1012179
:100F8000954800F070F9D0B19248407800F04000E8
:100F9000A8B19048407800F03F003F280AD18D4822
:100FA000407840F080008B4948704FF6FF708B49C5
:100FB000488004E087484078401C864948700421F6
:100FC000854800F050F938B38248407800F040007E
:100FD00018B38048407840F080007E4948707E48D1
:100FE00000F037F97E494880084640887D494988A5
:100FF000884207DB7A4840887A494988401A77490D
:1010000048801AE0764840884FF6FF7108447549D9
:101010004988401A714948800FE000206D494870A6
:101020006E4948806C4800F014F96E494880694860
:10103000407840F04000674948706648807800F08A
:10104000800000285DD10121634800F00CF9D0B187
:101050006048807800F04000A8B15E48807800F0D9
:101060003F003F280AD15B48807840F08000594912
:1010700088704FF6FF705949888004E055488078A1
:10108000401C544988700821534800F0ECF838B3EC
:101090005048807800F0400018B34E48807840F007
:1010A00080004C4988704C4800F0D6F84C49888044
:1010B000084680884B498988884207DB48488088F1
:1010C00048498988401A454988801AE04448808800
:1010D0004FF6FF71084443490988401A3F49888008
:1010E0000FE000203B4988703C4988803A4800F076
:1010F000B3F83C4988803748807840F04000354953
:1011000088703448C07800F0800000285DD101214B
:10111000314800F0A8F8D0B12E48C07800F0400067
:10112000A8B12C48C07800F03F003F280AD12948D8
:10113000C07840F080002749C8704FF6FF702749FB
:10114000C88004E02348C078401C2249C8701021A0
:10115000214800F088F838B31E48C07800F04000FD
:1011600018B31C48C07840F080001A49C8701A486B
:1011700000F075F81A49C8800846C0881949C9881E
:10118000884207DB1648C0881649C988401A1349A7
:10119000C8801AE01248C0884FF6FF710844114910
:1011A000C988401A0D49C8800FE000200949C8705D
:1011B0000A49C880084800F052F80A49C880054822
:1011C000C07840F040000349C8701F21024800F079
:1011D0002EF810BD38000020000400403C00002024
:1011E0004C0000204400002010B501210C4800F004
:1011F0003AF8A0B10B480088401C0A490880012039
:1012000001F0F8F8022001F0F5F8032001F0F2F8FF
:10121000042001F0EFF80121014800F008F810BDAA
:101220000010004036000020CA4302827047CA43C3
:101230000282704721B1028842F00102028004E07C
:1012400002884FF6FE731A40028070470146888E6E
:1012500070470146088F70470146888F70470146E6
:10126000B1F84000704730B502460020002300244A
:10127000158A05EA0103958905EA010413B10CB149
:10128000012000E0002030BD1AB183890B43838127
:1012900002E083898B43838170470000002202882B
:1012A0001D4B98420ED01D4B98420BD0B0F1804F91
:1012B00008D01B4B984205D01A4B984202D01A4BCB
:1012C000984204D14FF68F731A404B881A43174B3C
:1012D000984207D0164B984204D04FF6FF431A406D
:1012E000CB881A4302808B8883850B8803850A4B41
:1012F00098420BD0094B984208D00E4B984205D02B
:101300000D4B984202D00D4B984201D10B7A0386C7
:101310000123838270470000002C0140003401400B
:101320000004004000080040000C00400010004095
:1013300000140040004001400044014000480140CA
:101340007047000010B5024800F0E6F810BD00003C
:10135000C400002010B5024800F0DEF810BD000007
:10136000EC08002001F40072B2F5007F00D100BF4C
:10137000CA430280704721B1828942F400528281BF
:1013800004E082894DF6FF731A408281704770B580
:101390000246002400230025002040F66A16B142D0
:1013A00000D100BFC1F3421501F01F03012606FA68
:1013B00003F3012D02D19689334006E0022D02D1BC
:1013C000168A334001E0968A33400C12012606FA51
:1013D00004F41688344013B10CB1012000E0002061
:1013E00070BDF0B50346002400260025002040F61D
:1013F0006A17B94200D100BF1846C1F3421401F088
:101400001F06012707FA06F5012C01D10C3004E074
:10141000022C01D1103000E014301AB107682F43BC
:10142000076002E00768AF430760F0BD2DE9F047B1
:1014300086B005460E460024A24600BFA1460027FE
:10144000B08900B100BF2F462C8A4CF6FF700440D3
:10145000F08804432C82AC894EF6F3100440B08827
:1014600031890843718908430443AC81AC8A4FF643
:10147000FF400440B0890443AC8201A8FFF724FB7D
:101480001F48874202D1DDF810A001E0DDF80CA072
:10149000A88900F4004040B10AEBCA0000EB0A1032
:1014A00031684900B0FBF1F807E00AEBCA0000EB35
:1014B0000A1031688900B0FBF1F86420B8FBF0F045
:1014C00004012009642101FB1089A88900F400406F
:1014D00040B1322000EBC900B0FBF1F000F0070092
:1014E000044308E0322000EB09106421B0FBF1F066
:1014F00000F00F0004432C8106B0BDE8F087000027
:101500000038014001468888C0F308007047C1F3E5
:10151000080282807047704770B5044640F225513A
:101520002068FFF734FFE0B12068FFF7EBFFC5B29A
:10153000E18AA0684554E08A401C80B2E082E189DB
:10154000884201DB0020E082608BE189884202DA78
:10155000608B401C6083606A10B12846616A8847CE
:1015600000BF40F227712068FFF711FF08B3A08A7F
:1015700060B9002240F227712068FFF732FF012294
:1015800040F226612068FFF72CFF37E0638A62682B
:10159000D15C2068FFF7BBFF608A401C80B260828C
:1015A000A189884201DB00206082A08A401EA082BF
:1015B00024E040F226612068FFF7E9FEF0B1A08A3E
:1015C00050B9002240F226612068FFF70AFF206A26
:1015D000A0B1206A804711E0638A6268D15C20680C
:1015E000FFF795FF608A401C80B26082A189884223
:1015F00001DB00206082A08A401EA08270BDF8B589
:1016000004460E461746002529E00EE0012000F0B2
:101610008EF8A08A0090002000F089F8A089BDF81B
:101620000010884200DD01E000BFEFE700BF705D01
:10163000228A61688854012000F079F8208A401CD1
:1016400080B22082A189884201DB00202082A08A0A
:10165000401CA082002000F06AF8681C85B2BD42E0
:10166000D3DB012240F227712068FFF7BAFEF8BDF4
:1016700015481649086016484860164888604FF4B7
:1016800080608881C881002008824882C8820883DF
:1016900048838882C861086248620F480F49086021
:1016A0000F4848600F4888604FF480608881C88187
:1016B000002008824882C882088348838882C861E3
:1016C000086209484862704700380140C4000020A1
:1016D000EC000020EC04002000440040EC08002056
:1016E00014090020140D00204113000800BFFEE77C
:1016F0000FB4054B10B503A9044A029800F0E0F8B6
:1017000010BC5DF814FB000037250008C000002065
:1017100002E008C8121F08C1002AFAD170477047BA
:10172000002001E001C1121F002AFBD1704780F3A5
:101730001088704780F31088704700002DE9FF5F24
:1017400082B00021DDE90430020DDDF840B0034332
:1017500018D044F61050A2F2FF32424315141198EB
:1017600001281FD0A5EB0B00401C5FEA000A4FF0D8
:1017700000064E4FDFF83891B046504615D5CAF1F5
:10178000000413E0119801244AA3012801D16FEA53
:101790000B010298119AC0E90031C0E9024206B07B
:1017A000BDE8F09FCBF10000DFE704460021404A8E
:1017B000491842EB0450CDE9001012E0E00707D0D1
:1017C00032463B4640464946FEF78AFE80468946F9
:1017D00032463B4610461946FEF782FE06460F4645
:1017E0006410002CEAD1DDE90401DDE90023BAF13F
:1017F000000F06DAFEF774FE42464B46FEF770FE17
:1018000005E0FEF7B3FC42464B46FEF7AFFC04464C
:101810000E460022284BFEF7EDFE03D84FF0FF30B6
:10182000014607E00022254B20463146FEF7B1FD78
:10183000FEF7C8FE102409E0002C0ADB0A22002370
:10184000FEF719FD039B30321A55641E50EA01025F
:10185000F2D1641C039AC4F111031444119A012AB1
:1018600003D0012208430DD10AE0084304D0002030
:101870004FF0110B119072E7A3EB0B056D1E0DE0FD
:101880005B4504DD4FF0000205F1010504E003DAD9
:101890004FF00002A5F10105002AECD00298119941
:1018A000C0E90231C0E9004579E7000000001440BA
:1018B0000000F03F300000000000F0430000E03F77
:1018C0002DE9FF4F95B09A46884606460025EEE181
:1018D000252877D100242746F94A0121039400E006
:1018E000044316F8013F203B01FA03F01042F7D100
:1018F00030782A2811D06FF02F033078A0F1300211
:10190000092A16D8039A44F0020402EB820203EB80
:1019100042021044761C0390EFE758F8042B039220
:10192000002A03DA504244F40054039044F00204C5
:10193000761C30782E2816D116F8010F44F00404D6
:101940002A280DD06FF02F023078A0F13003092B38
:1019500009D807EB870302EB4303C718761CF3E7AC
:1019600058F8047B761C30786C280FD006DC4C28A5
:1019700017D068280DD06A2814D104E0742810D03C
:101980007A280FD10DE044F400140AE044F48014E6
:1019900001E044F440147278824202D104F58014CC
:1019A000761C761C307866280BD013DC582877D04C
:1019B00009DC002875D04528F6D04628F4D0472801
:1019C0001AD193E118E0632835D0642879D06528CE
:1019D00012D18BE1702873D008DC6728F1D0692818
:1019E0006FD06E280DD06F2806D1ACE073282CD0B4
:1019F000752874D0782853D05246179990476D1C9B
:101A000054E1C4F30250022809D003280DD0D8F8BD
:101A1000001004280DD00D6008F1040846E1D8F844
:101A20000010EA17C1E90052F6E7D8F800100D805F
:101A3000F2E70D70F0E718F8041B8DF80010002095
:101A40008DF80100EB46012003E058F804BB4FF08D
:101A5000FF3061074FF0000102D40DE009F10101F0
:101A60008946B9420FDA8145F8DB1BF809100029D5
:101A7000F4D108E009F1010189468142FADB1BF843
:101A800009100029F6D103985346A0EB0907214617
:101A90003846179A00F080FA284400EB090507E061
:101AA00044E008E10DE01BF8010B524617999047FE
:101AB000B9F10109F7D2534621463846179AF2E0A8
:101AC00039E00A21C4F302524FF0000B0091022AC0
:101AD00006D058F8040BC117032A09D00AE023E006
:101AE00008F1070020F00702F2E80201904605E045
:101AF00000B2C117042A01D140B2C117002906DA89
:101B00000A460021404261EB02012D2202E022053B
:101B100004D52B228DF80420012203E0E20701D036
:101B20002022F7E7914657E00A2100E010214FF00C
:101B3000000B00910BE010214FF0000B44F0040467
:101B40000827009103E008204FF0000B0090C4F339
:101B50000252022A05D058F8040B0021032A08D0AB
:101B600008E008F1070020F00702F2E802019046C1
:101B700003E080B2042A00D1C0B24FF0000922076E
:101B80002AD53278702A07D0DDF800C08CF0100C0E
:101B90005CEA0B0C05D00EE040228DF804200122F7
:101BA00008E050EA010306D030238DF804308DF8A8
:101BB000052002229146009B83F0080353EA0B03A1
:101BC0000AD150EA010201D1620705D530228DF811
:101BD00004204FF001097F1E3278582A04D039A220
:101BE0000C920CAA02920BE03BA2F9E75B46009A2A
:101BF000FEF741FB0C9B9B5C029A521E02921370F3
:101C000050EA0102F2D1029804A9081A00F1200B4F
:101C1000600702D524F4803400E001275F4502DD2F
:101C2000A7EB0B0000E0002000EB0B0100900398F5
:101C30004944401A0390E00306D453462146179ABC
:101C4000039800F0A9F90544002706E001A85246D0
:101C5000C05D179990476D1C7F1C4F45F6DBE00374
:101C60000CD553462146179A039800F095F9054480
:101C700004E030205246179990476D1C0099481E89
:101C800000900029F5DC08E002980299524600789D
:101C9000491C0291179990476D1CBBF10001ABF1F3
:101CA000010BF1DC5BE100F065F90544761C30784E
:101CB00000287FF40DAE19B02846BDE8F08F000073
:101CC0000928010030313233343536373839616212
:101CD00063646566000000003031323334353637D6
:101CE000383941424344454600000000600700D4B3
:101CF000062708F1070020F00700F0E802238046DD
:101D000003F0004C5FEA0C0001D097A009E0200529
:101D100001D596A005E0E00701D095A001E0AFF263
:101D20004C001390307823F0004365280CD006DC7B
:101D3000452809D046281DD047287FD13BE066289A
:101D400018D067287AD136E00021112F01DB11204D
:101D500000E0781CCDE9000104A90CA8FFF7EEFC17
:101D6000DDE90D010C9A4FF0000B07F1010910920B
:101D700000914EE04FF000400097CDE9011004A91A
:101D80000CA8FFF7DBFCDDE90D020C9B0F994FF06F
:101D9000000B91461093009211B9791C00EB0109D8
:101DA000B7EB090003D4C0F1FF3B07F10109A9EB30
:101DB0000700019042E0012F00DA01270021112FD6
:101DC00001DD112000E03846CDE9000104A90CA88E
:101DD000FFF7B4FCDDE90D010C9A00914FF0000B08
:101DE000B946109221070FD4009A4A4503DA91466A
:101DF00001E0A9F10109B9F1010F05DD109AA9F17E
:101E00000101515C3029F4D0B84202DA10F1040F1C
:101E100003DA0121CDE9011010E0002803DC83443E
:101E2000A9EB000102E0411C494500DD8946A0EB19
:101E30000B00401C01904FF000400290200705D499
:101E40000198484502DB4FF0FF30019000208DF8EB
:101E50004B0002980DF14B07B0F1004F25D0022046
:101E60000C902B200D90029800280CDA4042029032
:101E70002D200D9007E00A210298FEF7E6F9303197
:101E8000029007F8011D0C99481E0C900029F2DC05
:101E900002980028EFD1791E0D980870307800F074
:101EA000200040F0450007F8020D11A8C01BC01D1E
:101EB00002901398007800B1012000EB090101980D
:101EC00001EBE071029801440398401A401E039010
:101ED000E00306D453462146179A039800F05CF8B5
:101EE00005441398007818B15246179990476D1C15
:101EF000E00323D553462146179A039800F04CF887
:101F000005441BE0BBF1000F07DB0098584504DDDA
:101F10001098179910F80B0001E0179930205246DD
:101F2000904701980BF1010B401E05F1010501904E
:101F300004D12E205246179990476D1CB9F100012B
:101F4000A9F10109DEDC05E017F8010B52461799EB
:101F500090476D1C0299481E02900029F4DC5346FC
:101F60002146179A03989EE62D0000002B000000E2
:101F7000200000002DE9F041044600251E461746CA
:101F8000880404D405E039462020B0476D1C641E47
:101F9000F9D52846BDE8F0812DE9F0410446002539
:101FA0001E469046C80301D5302700E0202788044C
:101FB00004D505E041463846B0476D1C641EF9D58E
:101FC0002846BDE8F081000010B5044604B910BDF4
:101FD000012C00D102240120FFF7ACFB094804606A
:101FE000002009490870FFF7A5FB06E000F00EF895
:101FF00005480078012800D100E0F7E700BF00BFE6
:10200000E5E700000400002008000020704710B53C
:102010004FF44070FEF72CFD00F0DEF800F052F8AF
:1020200000F03EF800F088F8FEF73FFB4FF4FA604E
:10203000FFF7CAFF10BD00007FB501210846FEF77B
:1020400023FD1548006846081448B6FBF0F085B239
:102050004FF6FF74ADF80840ADF804500020ADF81D
:102060000A00ADF8060001A94FF08040FFF716F90D
:1020700001218807FFF7DEF81C208DF800000420FE
:102080008DF8010000208DF8020001208DF803007A
:102090006846FEF7B5FC7FBDAC00002040420F0053
:1020A00008B501210420FEF7FFFC0320ADF8000075
:1020B00004208DF8030069460148FEF761FB08BD66
:1020C0000008014008B501213C20FEF7EDFC01208D
:1020D00000F06EF9022000F049F9032000F046F903
:1020E00003208DF8020010208DF803004002ADF8A7
:1020F000000069460D48FEF743FB0420ADF80000E0
:1021000069460B48FEF73CFB4FF40070ADF8000049
:1021100069460848FEF734FB4FF48050ADF80000E4
:1021200069460248FEF72CFB08BD00000010014084
:1021300000140140000C014070B5002416E000209E
:1021400004EB4401204A02EB8101486004EB4401A6
:1021500002EB8101886004EB440102EB81014870CD
:1021600004EB440102F82100601CC4B2042CE6DB3D
:10217000164800684FF47A72B0FBF2F1B1F1807F3B
:1021800000D31DE021F07F40401E4FF0E02250615F
:1021900050170F22002807DA13071E0E0C4B00F011
:1021A0000F052D1F5E5503E013071D0E094B1D542F
:1021B00000BF00204FF0E02290610720106100BFB7
:1021C000FFF73AFF70BD000014110020AC000020A2
:1021D00018ED00E000E400E010B5FFF749FAFEF763
:1021E0007BFBFEF7DBFCFEF7B1FA10BD70B50446D1
:1021F0002546681F0C2855D2DFE800F0503E291410
:102200004537220D4C301B06012000F05BF927A05A
:10221000FFF76EFA47E0022000F054F927A0FFF71D
:1022200067FA40E0032000F04DF928A0FFF760FABC
:1022300039E0042000F046F928A0FFF759FA32E00F
:10224000052000F03FF929A0FFF752FA2BE0062005
:1022500000F038F929A0FFF74BFA24E0072000F03E
:1022600031F92AA0FFF744FA1DE0082000F02AF90E
:102270002AA0FFF73DFA16E0092000F023F92BA071
:10228000FFF736FA0FE00A2000F01CF92BA0FFF749
:102290002FFA08E02DA0FFF72BFA04E02FA0FFF79C
:1022A00027FA00E000BF00BF70BD00006B65793108
:1022B0002070726573730D0A000000006B6579323F
:1022C0002070726573730D0A000000006B6579332E
:1022D0002070726573730D0A000000006B6579341D
:1022E0002070726573730D0A000000006B6579350C
:1022F0002070726573730D0A000000006B657936FB
:102300002070726573730D0A000000006B657937E9
:102310002070726573730D0A000000006B657938D8
:102320002070726573730D0A000000006B657939C7
:102330002070726573730D0A000000006B657930C0
:102340002070726573730D0A000000006B65792AB6
:102350002070726573730D0A000000006B657923AD
:102360002070726573730D0A00000000411EC8B230
:1023700020B94FF400510B4A516111E0012803D1FB
:102380000421094A11600BE0022803D10102074A27
:10239000116005E0032803D14FF48051014A5161D7
:1023A000704700000010014014140140140C01405B
:1023B000411EC8B220B94FF400510B4A116111E01F
:1023C000012803D10421094A11600BE0022803D13E
:1023D0000102074A116005E0032803D14FF4805140
:1023E000014A1161704700000010014010140140C3
:1023F000100C0140012806D11049C96881F4005130
:102400000E4AD16019E0022806D10D49096881F011
:1024100004010B4A116010E0032806D1094909683C
:1024200081F40071074A116007E0042805D10349CF
:10243000C96881F48051014AD160704700100140A1
:102440000C1401400C0C014070B5002424E0144A27
:1024500002EBC4029188124A52F83400FEF71BFACC
:10246000C0B90F4A02EBC40291880D4A52F83400F9
:102470002246FEF7A9FB054600BF094A02EBC4024B
:102480009188074A52F83400FEF705FA0028F4D084
:10249000284670BD601CC4B2042CD8DB0020F8E7CD
:1024A0007800002005480078401C04490870084660
:1024B0000078052801D10020087070470000002036
:1024C0007047000010B504460348447106220146D7
:1024D000012000F011F810BD2B000020416851B11F
:1024E0004168491E416031B90121417001780129DB
:1024F00001D18168416070472DE9F04105460E46E3
:1025000017462846FEF708F904460CB9BDE8F081E5
:10251000E06908B1E06980473A4631462046FFF756
:102520006EF800BFF2E713B50446012201A9204668
:10253000FFF7E2FF1CBD70B504460D46E1B2002076
:10254000FFF7F1FF204670BD00BF00BFFFF75FFD42
:1025500006E0FFF779FF044614B12046FFF746FE78
:10256000F7E700008425000800000020C4000000F8
:102570001017000848260008C400002084900000BE
:10258000201700080000000000000000000000000C
:10259000000000000000000000000000000000003B
:1025A0000000000000A55A0582000310280000A5C5
:1025B0005A03804F030000000000000000000000EC
:1025C000000000000000000000000000000000000B
:1025D00000000000000000000000000000080140B2
:1025E0004000000000080140800000000010014091
:1025F000100000000010014020000000000C01400D
:1026000000100000000C014000200000000C014000
:1026100000400000000C01400080000000000000AD
:102620000102030401020304060708090204060864
:1026300000A24A04000000000000000001020304A0
:08264000060708090000000074
:0400000508000131BD
:00000001FF
